{"contracts/InvoiceNFT.sol":{"InvoiceNFT":{"abi":[{"inputs":[{"internalType":"address payable","name":"_stakingRewards","type":"address"}],"stateMutability":"nonpayable","type":"constructor"},{"inputs":[],"name":"AlreadyRepaid","type":"error"},{"inputs":[{"internalType":"address","name":"sender","type":"address"},{"internalType":"uint256","name":"tokenId","type":"uint256"},{"internalType":"address","name":"owner","type":"address"}],"name":"ERC721IncorrectOwner","type":"error"},{"inputs":[{"internalType":"address","name":"operator","type":"address"},{"internalType":"uint256","name":"tokenId","type":"uint256"}],"name":"ERC721InsufficientApproval","type":"error"},{"inputs":[{"internalType":"address","name":"approver","type":"address"}],"name":"ERC721InvalidApprover","type":"error"},{"inputs":[{"internalType":"address","name":"operator","type":"address"}],"name":"ERC721InvalidOperator","type":"error"},{"inputs":[{"internalType":"address","name":"owner","type":"address"}],"name":"ERC721InvalidOwner","type":"error"},{"inputs":[{"internalType":"address","name":"receiver","type":"address"}],"name":"ERC721InvalidReceiver","type":"error"},{"inputs":[{"internalType":"address","name":"sender","type":"address"}],"name":"ERC721InvalidSender","type":"error"},{"inputs":[{"internalType":"uint256","name":"tokenId","type":"uint256"}],"name":"ERC721NonexistentToken","type":"error"},{"inputs":[],"name":"IncorrectAmount","type":"error"},{"inputs":[],"name":"OnlyBuyer","type":"error"},{"inputs":[],"name":"OnlyMarketplace","type":"error"},{"inputs":[{"internalType":"address","name":"owner","type":"address"}],"name":"OwnableInvalidOwner","type":"error"},{"inputs":[{"internalType":"address","name":"account","type":"address"}],"name":"OwnableUnauthorizedAccount","type":"error"},{"inputs":[],"name":"TransferFailed","type":"error"},{"inputs":[],"name":"ZeroAddress","type":"error"},{"anonymous":false,"inputs":[{"indexed":true,"internalType":"address","name":"owner","type":"address"},{"indexed":true,"internalType":"address","name":"approved","type":"address"},{"indexed":true,"internalType":"uint256","name":"tokenId","type":"uint256"}],"name":"Approval","type":"event"},{"anonymous":false,"inputs":[{"indexed":true,"internalType":"address","name":"owner","type":"address"},{"indexed":true,"internalType":"address","name":"operator","type":"address"},{"indexed":false,"internalType":"bool","name":"approved","type":"bool"}],"name":"ApprovalForAll","type":"event"},{"anonymous":false,"inputs":[{"indexed":false,"internalType":"uint256","name":"_fromTokenId","type":"uint256"},{"indexed":false,"internalType":"uint256","name":"_toTokenId","type":"uint256"}],"name":"BatchMetadataUpdate","type":"event"},{"anonymous":false,"inputs":[{"indexed":true,"internalType":"uint256","name":"tokenId","type":"uint256"},{"indexed":true,"internalType":"address","name":"buyer","type":"address"},{"indexed":false,"internalType":"uint256","name":"amount","type":"uint256"},{"indexed":false,"internalType":"uint256","name":"fee","type":"uint256"}],"name":"InvoiceRepaid","type":"event"},{"anonymous":false,"inputs":[{"indexed":true,"internalType":"address","name":"oldMarketplace","type":"address"},{"indexed":true,"internalType":"address","name":"newMarketplace","type":"address"}],"name":"MarketplaceUpdated","type":"event"},{"anonymous":false,"inputs":[{"indexed":false,"internalType":"uint256","name":"_tokenId","type":"uint256"}],"name":"MetadataUpdate","type":"event"},{"anonymous":false,"inputs":[{"indexed":true,"internalType":"address","name":"previousOwner","type":"address"},{"indexed":true,"internalType":"address","name":"newOwner","type":"address"}],"name":"OwnershipTransferred","type":"event"},{"anonymous":false,"inputs":[{"indexed":true,"internalType":"address","name":"from","type":"address"},{"indexed":true,"internalType":"address","name":"to","type":"address"},{"indexed":true,"internalType":"uint256","name":"tokenId","type":"uint256"}],"name":"Transfer","type":"event"},{"inputs":[],"name":"FEE_BPS","outputs":[{"internalType":"uint256","name":"","type":"uint256"}],"stateMutability":"view","type":"function"},{"inputs":[{"internalType":"address","name":"to","type":"address"},{"internalType":"uint256","name":"tokenId","type":"uint256"}],"name":"approve","outputs":[],"stateMutability":"nonpayable","type":"function"},{"inputs":[{"internalType":"address","name":"owner","type":"address"}],"name":"balanceOf","outputs":[{"internalType":"uint256","name":"","type":"uint256"}],"stateMutability":"view","type":"function"},{"inputs":[{"internalType":"uint256","name":"tokenId","type":"uint256"}],"name":"getApproved","outputs":[{"internalType":"address","name":"","type":"address"}],"stateMutability":"view","type":"function"},{"inputs":[{"internalType":"uint256","name":"","type":"uint256"}],"name":"invoiceData","outputs":[{"internalType":"uint256","name":"amount","type":"uint256"},{"internalType":"address","name":"buyer","type":"address"},{"internalType":"bool","name":"repaid","type":"bool"}],"stateMutability":"view","type":"function"},{"inputs":[{"internalType":"address","name":"owner","type":"address"},{"internalType":"address","name":"operator","type":"address"}],"name":"isApprovedForAll","outputs":[{"internalType":"bool","name":"","type":"bool"}],"stateMutability":"view","type":"function"},{"inputs":[{"internalType":"uint256","name":"tokenId","type":"uint256"}],"name":"isRepaid","outputs":[{"internalType":"bool","name":"","type":"bool"}],"stateMutability":"view","type":"function"},{"inputs":[],"name":"marketplace","outputs":[{"internalType":"address","name":"","type":"address"}],"stateMutability":"view","type":"function"},{"inputs":[{"internalType":"address","name":"to","type":"address"},{"internalType":"uint256","name":"tokenId","type":"uint256"},{"internalType":"string","name":"uri","type":"string"},{"internalType":"uint256","name":"amount","type":"uint256"},{"internalType":"address","name":"buyer","type":"address"}],"name":"mintInvoice","outputs":[],"stateMutability":"nonpayable","type":"function"},{"inputs":[],"name":"name","outputs":[{"internalType":"string","name":"","type":"string"}],"stateMutability":"view","type":"function"},{"inputs":[],"name":"owner","outputs":[{"internalType":"address","name":"","type":"address"}],"stateMutability":"view","type":"function"},{"inputs":[{"internalType":"uint256","name":"tokenId","type":"uint256"}],"name":"ownerOf","outputs":[{"internalType":"address","name":"","type":"address"}],"stateMutability":"view","type":"function"},{"inputs":[],"name":"renounceOwnership","outputs":[],"stateMutability":"nonpayable","type":"function"},{"inputs":[{"internalType":"uint256","name":"tokenId","type":"uint256"}],"name":"repayInvoice","outputs":[],"stateMutability":"payable","type":"function"},{"inputs":[{"internalType":"address","name":"from","type":"address"},{"internalType":"address","name":"to","type":"address"},{"internalType":"uint256","name":"tokenId","type":"uint256"}],"name":"safeTransferFrom","outputs":[],"stateMutability":"nonpayable","type":"function"},{"inputs":[{"internalType":"address","name":"from","type":"address"},{"internalType":"address","name":"to","type":"address"},{"internalType":"uint256","name":"tokenId","type":"uint256"},{"internalType":"bytes","name":"data","type":"bytes"}],"name":"safeTransferFrom","outputs":[],"stateMutability":"nonpayable","type":"function"},{"inputs":[{"internalType":"address","name":"operator","type":"address"},{"internalType":"bool","name":"approved","type":"bool"}],"name":"setApprovalForAll","outputs":[],"stateMutability":"nonpayable","type":"function"},{"inputs":[{"internalType":"address","name":"_marketplace","type":"address"}],"name":"setMarketplace","outputs":[],"stateMutability":"nonpayable","type":"function"},{"inputs":[],"name":"stakingRewards","outputs":[{"internalType":"address payable","name":"","type":"address"}],"stateMutability":"view","type":"function"},{"inputs":[{"internalType":"bytes4","name":"interfaceId","type":"bytes4"}],"name":"supportsInterface","outputs":[{"internalType":"bool","name":"","type":"bool"}],"stateMutability":"view","type":"function"},{"inputs":[],"name":"symbol","outputs":[{"internalType":"string","name":"","type":"string"}],"stateMutability":"view","type":"function"},{"inputs":[{"internalType":"uint256","name":"tokenId","type":"uint256"}],"name":"tokenURI","outputs":[{"internalType":"string","name":"","type":"string"}],"stateMutability":"view","type":"function"},{"inputs":[{"internalType":"address","name":"from","type":"address"},{"internalType":"address","name":"to","type":"address"},{"internalType":"uint256","name":"tokenId","type":"uint256"}],"name":"transferFrom","outputs":[],"stateMutability":"nonpayable","type":"function"},{"inputs":[{"internalType":"address","name":"newOwner","type":"address"}],"name":"transferOwnership","outputs":[],"stateMutability":"nonpayable","type":"function"}],"evm":{"bytecode":{"linkReferences":{},"object":"60a0604052346103d2576119336020813803918261001c816103d7565b9384928339810103126103d257516001600160a01b038116908181036103d25761004660406103d7565b91600d83526c437265645820496e766f69636560981b602084015261006b60406103d7565b600881526743494e564f49434560c01b602082015283519092906001600160401b0381116102dd57600054600181811c911680156103c8575b60208210146102bd57601f8111610364575b50602094601f82116001146102fe579481929394956000926102f3575b50508160011b916000199060031b1c1916176000555b82516001600160401b0381116102dd57600154600181811c911680156102d3575b60208210146102bd57601f8111610258575b506020601f82116001146101f157819293946000926101e6575b50508160011b916000199060031b1c1916176001555b33156101d05760078054336001600160a01b0319821681179092556040519391906001600160a01b03167f8be0079c531659141344cd1fd0a4f28419497f9722a3daafe3b4186f6b6457e0600080a3156101bf5760805261153690816103fd823960805181818161066601526107930152f35b63d92e233d60e01b60005260046000fd5b631e4fbdf760e01b600052600060045260246000fd5b015190503880610136565b601f198216906001600052806000209160005b81811061024057509583600195969710610227575b505050811b0160015561014c565b015160001960f88460031b161c19169055388080610219565b9192602060018192868b015181550194019201610204565b60016000527fb10e2d527612073b26eecdfd717e6a320cf44b4afac2b0732d9fcbe2b7fa0cf6601f830160051c810191602084106102b3575b601f0160051c01905b8181106102a7575061011c565b6000815560010161029a565b9091508190610291565b634e487b7160e01b600052602260045260246000fd5b90607f169061010a565b634e487b7160e01b600052604160045260246000fd5b0151905038806100d3565b601f1982169560008052806000209160005b88811061034c57508360019596979810610333575b505050811b016000556100e9565b015160001960f88460031b161c19169055388080610325565b91926020600181928685015181550194019201610310565b600080527f290decd9548b62a8d60345a988386fc84ba6bc95484008f6362f93160ef3e563601f830160051c810191602084106103be575b601f0160051c01905b8181106103b257506100b6565b600081556001016103a5565b909150819061039c565b90607f16906100a4565b600080fd5b6040519190601f01601f191682016001600160401b038111838210176102dd5760405256fe608080604052600436101561001357600080fd5b600090813560e01c90816301ffc9a714610ee95750806306fdde0314610e44578063081812fc14610e07578063095ea7b314610d1f57806323b872dd14610d0757806342842e0e14610cd757806344a6123614610837578063559034df146106c65780636352211e1461069557806364b87a701461065057806370a08231146105fd578063715018a6146105a057806373ad6c2d1461051d5780638da5cb5b146104f45780638e1eb411146104bf57806395d89b41146103f0578063a22cb4651461034c578063ab23b64614610300578063abc8c7af146102d7578063b88d4fde14610263578063bf333f2c14610246578063c87b56dd1461020e578063e985e9c5146101b45763f2fde38b1461012957600080fd5b346101b15760203660031901126101b157610142610fb3565b61014a6113c2565b6001600160a01b0316801561019d57600780546001600160a01b0319811683179091556001600160a01b03167f8be0079c531659141344cd1fd0a4f28419497f9722a3daafe3b4186f6b6457e08380a380f35b631e4fbdf760e01b82526004829052602482fd5b80fd5b50346101b15760403660031901126101b15760406101d0610fb3565b916101d9610fce565b9260018060a01b031681526005602052209060018060a01b0316600052602052602060ff604060002054166040519015158152f35b50346101b15760203660031901126101b15761024261022e6004356112bf565b604051918291602083526020830190610f74565b0390f35b50346101b157806003193601126101b15760206040516101f48152f35b50346101b15760803660031901126101b15761027d610fb3565b610285610fce565b906044356064359267ffffffffffffffff84116102d357366023850112156102d3576102be6102d0943690602481600401359101611072565b926102ca8383836110e3565b336113eb565b80f35b8480fd5b50346101b157806003193601126101b1576008546040516001600160a01b039091168152602090f35b50346101b15760203660031901126101b1576040606091600435815260096020522060ff6001825492015460405192835260018060a01b038116602084015260a01c1615156040820152f35b50346101b15760403660031901126101b157610366610fb3565b602435908115158092036103ec576001600160a01b03169081156103d85733835260056020526040832082600052602052604060002060ff1981541660ff83161790556040519081527f17307eab39ab6107e8899845ad3d59bd9653f200f220920489ca2b5937696c3160203392a380f35b630b61174360e31b83526004829052602483fd5b8280fd5b50346101b157806003193601126101b157604051908060015490610413826110a9565b8085529160018116908115610498575060011461043b575b6102428461022e8186038261101e565b600181527fb10e2d527612073b26eecdfd717e6a320cf44b4afac2b0732d9fcbe2b7fa0cf6939250905b80821061047e5750909150810160200161022e8261042b565b919260018160209254838588010152019101909291610465565b60ff191660208087019190915292151560051b8501909201925061022e915083905061042b565b50346101b15760203660031901126101b15760ff6001604060209360043581526009855220015460a01c166040519015158152f35b50346101b157806003193601126101b1576007546040516001600160a01b039091168152602090f35b50346101b15760203660031901126101b157610537610fb3565b61053f6113c2565b6001600160a01b0316801561059157600854816001600160a01b0382167fc3e7368ef0a668941a4115b651a9c4f3fa3a13cc6ea105bb91e12bcaa932293c8580a36001600160a01b0319161760085580f35b63d92e233d60e01b8252600482fd5b50346101b157806003193601126101b1576105b96113c2565b600780546001600160a01b0319811690915581906001600160a01b03167f8be0079c531659141344cd1fd0a4f28419497f9722a3daafe3b4186f6b6457e08280a380f35b50346101b15760203660031901126101b1576001600160a01b0361061f610fb3565b16801561063c578160409160209352600383522054604051908152f35b6322718ad960e21b82526004829052602482fd5b50346101b157806003193601126101b1576040517f00000000000000000000000000000000000000000000000000000000000000006001600160a01b03168152602090f35b50346101b15760203660031901126101b15760206106b460043561138b565b6040516001600160a01b039091168152f35b5060203660031901126101b15760043580825260096020526040822060018101805490916001600160a01b03821633036108285760ff8260a01c166108195754340361080a5760ff60a01b1916600160a01b179055612710346101f402049081610791575b8280808085340360018060a01b03600854165af161074761128f565b5015610782576040519134835260208301527fe55dc516b9bbf9f5b0b3284018bddedf88ef3fb2c43b0518c685f40c6bc069f860403393a380f35b6312171d8360e31b8352600483fd5b7f00000000000000000000000000000000000000000000000000000000000000006001600160a01b031683813b156101b1578391600460405180948193630314777960e21b83525af180156107ff576107eb575b5061072b565b836107f89194929461101e565b91386107e5565b6040513d86823e3d90fd5b6334b2073960e11b8452600484fd5b63a8f6261f60e01b8552600485fd5b6386efbb5560e01b8552600485fd5b50346101b15760a03660031901126101b157610851610fb3565b906024359160443567ffffffffffffffff81116103ec57366023820112156103ec57806004013567ffffffffffffffff8111610cd3573660248284010111610cd3576084356001600160a01b038116908190036102d3576008546001600160a01b03163303610cc4576040516060810181811067ffffffffffffffff821117610cb057604090815260643582526020808301938452828201888152898952600982528289209351845593516001909301805494516001600160a81b03199095166001600160a01b039094169390931793151560a01b60ff60a01b169390931790915551909390610941858261101e565b8581526001600160a01b038216918215610c9c578787526002865260408720546001600160a01b03168015159081610c68575b848952600388526040808a20805460010190558a8a5260028952892080546001600160a01b031916861790558985827fddf252ad1be2c89b69c2b068fc378daa952ba7f163c4a11628f55a4df523b3ef8c80a450610c54573b610b54575b5050906109e3916024369201611072565b92808352600682526040832084519467ffffffffffffffff8611610b4057610a0b82546110a9565b601f8111610afd575b508390601f8711600114610a795795809186977ff8e1a15aba9398e019f0b49df1a4fde98ee17ae345cb5f6b5e2c27f5033e8ce79792610a6e575b50508160011b916000199060031b1c19161790555b604051908152a180f35b015190503880610a4f565b8286528486209190601f198816875b818110610ae657509160019391897ff8e1a15aba9398e019f0b49df1a4fde98ee17ae345cb5f6b5e2c27f5033e8ce7999a9410610acd575b505050811b019055610a64565b015160001960f88460031b161c19169055388080610ac0565b929387600181928786015181550195019301610a88565b828652848620601f880160051c810191868910610b36575b601f0160051c01905b818110610b2b5750610a14565b868155600101610b1e565b9091508190610b15565b634e487b7160e01b85526041600452602485fd5b84610b939160409895949396985180938192630a85bd0160e11b83523360048401528a6024840152886044840152608060648401526084830190610f74565b038189895af1869181610c10575b50610bd55750505050610bb261128f565b8051939084610bcf57633250574960e11b84526004839052602484fd5b84925001fd5b92959391929091906001600160e01b03191663757a42ff60e11b01610bfe57506109e3386109d2565b633250574960e11b8552600452602484fd5b9091508781813d8311610c4d575b610c28818361101e565b81010312610c4957516001600160e01b031981168103610c49579038610ba1565b8680fd5b503d610c1e565b6339e3563760e11b87526004879052602487fd5b60008a815260046020526040902080546001600160a01b031916905580895260038852604089208054600019019055610974565b633250574960e11b87526004879052602487fd5b634e487b7160e01b87526041600452602487fd5b632b35006d60e21b8552600485fd5b8380fd5b50346101b1576102d0610ce936610fe4565b9060405192610cf960208561101e565b8584526102ca8383836110e3565b50346101b1576102d0610d1936610fe4565b916110e3565b50346101b15760403660031901126101b157610d39610fb3565b602435610d458161138b565b33151580610df4575b80610dc9575b610db65781906001600160a01b0384811691167f8c5be1e5ebec7d5bd14f71427d1e84f3dd0314c0f7b2291e5b200ac8c7c3b9258680a4825260046020526040822080546001600160a01b0319166001600160a01b0390921691909117905580f35b63a9fbf51f60e01b845233600452602484fd5b506001600160a01b038116845260056020908152604080862033875290915284205460ff1615610d54565b506001600160a01b038116331415610d4e565b50346101b15760203660031901126101b157602090600435610e288161138b565b50815260048252604060018060a01b0391205416604051908152f35b50346101b157806003193601126101b1576040519080805490610e66826110a9565b80855291600181169081156104985750600114610e8d576102428461022e8186038261101e565b8080527f290decd9548b62a8d60345a988386fc84ba6bc95484008f6362f93160ef3e563939250905b808210610ecf5750909150810160200161022e8261042b565b919260018160209254838588010152019101909291610eb6565b905034610f70576020366003190112610f705760043563ffffffff60e01b81168091036103ec5760209250632483248360e11b8114908115610f2d575b5015158152f35b6380ac58cd60e01b811491508115610f5f575b8115610f4e575b5038610f26565b6301ffc9a760e01b14905038610f47565b635b5e139f60e01b81149150610f40565b5080fd5b919082518082526020808301940160005b828110610fa3575050600081602094950152601f8019910116010190565b8181015186820152602001610f85565b600435906001600160a01b0382168203610fc957565b600080fd5b602435906001600160a01b0382168203610fc957565b6060906003190112610fc9576004356001600160a01b0381168103610fc957906024356001600160a01b0381168103610fc9579060443590565b90601f8019910116810190811067ffffffffffffffff82111761104057604052565b634e487b7160e01b600052604160045260246000fd5b67ffffffffffffffff811161104057601f01601f191660200190565b92919261107e82611056565b9161108c604051938461101e565b829481845281830111610fc9578281602093846000960137010152565b90600182811c921680156110d9575b60208310146110c357565b634e487b7160e01b600052602260045260246000fd5b91607f16916110b8565b6001600160a01b0390911691908215611279576000828152600260205260408120546001600160a01b03169383918590331515806111e1575b507fddf252ad1be2c89b69c2b068fc378daa952ba7f163c4a11628f55a4df523b3ef90826111ac575b83815260036020526040812060018154019055848152600260205260408120846bffffffffffffffffffffffff60a01b82541617905580a46001600160a01b031680830361119257505050565b6364283d7b60e01b60005260045260245260445260646000fd5b600085815260046020526040902080546001600160a01b03191690558281526003602052604081208054600019019055611145565b91509192508061122a575b156111fb57908484923861111c565b83908561121457602491637e27328960e01b8252600452fd5b60449163177e802f60e01b825233600452602452fd5b503385148015611258575b806111ec5750838152600460205260408120546001600160a01b031633146111ec565b5084815260056020908152604080832033845290915281205460ff16611235565b633250574960e11b600052600060045260246000fd5b3d156112ba573d906112a082611056565b916112ae604051938461101e565b82523d6000602084013e565b606090565b6112c88161138b565b5060005260066020526040600020604051908160008254926112e9846110a9565b80845293600181169081156113695750600114611322575b5061130e9250038261101e565b600060405161131e60208261101e565b5290565b90506000929192526020600020906000915b81831061134d57505090602061130e9282010138611301565b6020919350806001915483858801015201910190918392611334565b90506020925061130e94915060ff191682840152151560051b82010138611301565b6000818152600260205260409020546001600160a01b03169081156113ae575090565b637e27328960e01b60005260045260246000fd5b6007546001600160a01b031633036113d657565b63118cdaa760e01b6000523360045260246000fd5b823b6113f9575b5050505050565b604051630a85bd0160e11b81526001600160a01b039182166004820152918116602483015260448201939093526080606482015291169160209082908190611445906084830190610f74565b03816000865af180916000916114bd575b5090611487575061146561128f565b805190816114825782633250574960e11b60005260045260246000fd5b602001fd5b6001600160e01b03191663757a42ff60e11b016114a9575038808080806113f2565b633250574960e11b60005260045260246000fd5b6020813d6020116114f8575b816114d66020938361101e565b81010312610f705751906001600160e01b0319821682036101b1575038611456565b3d91506114c956fea2646970667358221220710db785e38da05854acc8a42736d36f4d2af349e34a627cd063a3d3ea2a511864736f6c634300081a0033","opcodes":"PUSH1 0xA0 PUSH1 0x40 MSTORE CALLVALUE PUSH2 0x3D2 JUMPI PUSH2 0x1933 PUSH1 0x20 DUP2 CODESIZE SUB SWAP2 DUP3 PUSH2 0x1C DUP2 PUSH2 0x3D7 JUMP JUMPDEST SWAP4 DUP5 SWAP3 DUP4 CODECOPY DUP2 ADD SUB SLT PUSH2 0x3D2 JUMPI MLOAD PUSH1 0x1 PUSH1 0x1 PUSH1 0xA0 SHL SUB DUP2 AND SWAP1 DUP2 DUP2 SUB PUSH2 0x3D2 JUMPI PUSH2 0x46 PUSH1 0x40 PUSH2 0x3D7 JUMP JUMPDEST SWAP2 PUSH1 0xD DUP4 MSTORE PUSH13 0x437265645820496E766F696365 PUSH1 0x98 SHL PUSH1 0x20 DUP5 ADD MSTORE PUSH2 0x6B PUSH1 0x40 PUSH2 0x3D7 JUMP JUMPDEST PUSH1 0x8 DUP2 MSTORE PUSH8 0x43494E564F494345 PUSH1 0xC0 SHL PUSH1 0x20 DUP3 ADD MSTORE DUP4 MLOAD SWAP1 SWAP3 SWAP1 PUSH1 0x1 PUSH1 0x1 PUSH1 0x40 SHL SUB DUP2 GT PUSH2 0x2DD JUMPI PUSH1 0x0 SLOAD PUSH1 0x1 DUP2 DUP2 SHR SWAP2 AND DUP1 ISZERO PUSH2 0x3C8 JUMPI JUMPDEST PUSH1 0x20 DUP3 LT EQ PUSH2 0x2BD JUMPI PUSH1 0x1F DUP2 GT PUSH2 0x364 JUMPI JUMPDEST POP PUSH1 0x20 SWAP5 PUSH1 0x1F DUP3 GT PUSH1 0x1 EQ PUSH2 0x2FE JUMPI SWAP5 DUP2 SWAP3 SWAP4 SWAP5 SWAP6 PUSH1 0x0 SWAP3 PUSH2 0x2F3 JUMPI JUMPDEST POP POP DUP2 PUSH1 0x1 SHL SWAP2 PUSH1 0x0 NOT SWAP1 PUSH1 0x3 SHL SHR NOT AND OR PUSH1 0x0 SSTORE JUMPDEST DUP3 MLOAD PUSH1 0x1 PUSH1 0x1 PUSH1 0x40 SHL SUB DUP2 GT PUSH2 0x2DD JUMPI PUSH1 0x1 SLOAD PUSH1 0x1 DUP2 DUP2 SHR SWAP2 AND DUP1 ISZERO PUSH2 0x2D3 JUMPI JUMPDEST PUSH1 0x20 DUP3 LT EQ PUSH2 0x2BD JUMPI PUSH1 0x1F DUP2 GT PUSH2 0x258 JUMPI JUMPDEST POP PUSH1 0x20 PUSH1 0x1F DUP3 GT PUSH1 0x1 EQ PUSH2 0x1F1 JUMPI DUP2 SWAP3 SWAP4 SWAP5 PUSH1 0x0 SWAP3 PUSH2 0x1E6 JUMPI JUMPDEST POP POP DUP2 PUSH1 0x1 SHL SWAP2 PUSH1 0x0 NOT SWAP1 PUSH1 0x3 SHL SHR NOT AND OR PUSH1 0x1 SSTORE JUMPDEST CALLER ISZERO PUSH2 0x1D0 JUMPI PUSH1 0x7 DUP1 SLOAD CALLER PUSH1 0x1 PUSH1 0x1 PUSH1 0xA0 SHL SUB NOT DUP3 AND DUP2 OR SWAP1 SWAP3 SSTORE PUSH1 0x40 MLOAD SWAP4 SWAP2 SWAP1 PUSH1 0x1 PUSH1 0x1 PUSH1 0xA0 SHL SUB AND PUSH32 0x8BE0079C531659141344CD1FD0A4F28419497F9722A3DAAFE3B4186F6B6457E0 PUSH1 0x0 DUP1 LOG3 ISZERO PUSH2 0x1BF JUMPI PUSH1 0x80 MSTORE PUSH2 0x1536 SWAP1 DUP2 PUSH2 0x3FD DUP3 CODECOPY PUSH1 0x80 MLOAD DUP2 DUP2 DUP2 PUSH2 0x666 ADD MSTORE PUSH2 0x793 ADD MSTORE RETURN JUMPDEST PUSH4 0xD92E233D PUSH1 0xE0 SHL PUSH1 0x0 MSTORE PUSH1 0x4 PUSH1 0x0 REVERT JUMPDEST PUSH4 0x1E4FBDF7 PUSH1 0xE0 SHL PUSH1 0x0 MSTORE PUSH1 0x0 PUSH1 0x4 MSTORE PUSH1 0x24 PUSH1 0x0 REVERT JUMPDEST ADD MLOAD SWAP1 POP CODESIZE DUP1 PUSH2 0x136 JUMP JUMPDEST PUSH1 0x1F NOT DUP3 AND SWAP1 PUSH1 0x1 PUSH1 0x0 MSTORE DUP1 PUSH1 0x0 KECCAK256 SWAP2 PUSH1 0x0 JUMPDEST DUP2 DUP2 LT PUSH2 0x240 JUMPI POP SWAP6 DUP4 PUSH1 0x1 SWAP6 SWAP7 SWAP8 LT PUSH2 0x227 JUMPI JUMPDEST POP POP POP DUP2 SHL ADD PUSH1 0x1 SSTORE PUSH2 0x14C JUMP JUMPDEST ADD MLOAD PUSH1 0x0 NOT PUSH1 0xF8 DUP5 PUSH1 0x3 SHL AND SHR NOT AND SWAP1 SSTORE CODESIZE DUP1 DUP1 PUSH2 0x219 JUMP JUMPDEST SWAP2 SWAP3 PUSH1 0x20 PUSH1 0x1 DUP2 SWAP3 DUP7 DUP12 ADD MLOAD DUP2 SSTORE ADD SWAP5 ADD SWAP3 ADD PUSH2 0x204 JUMP JUMPDEST PUSH1 0x1 PUSH1 0x0 MSTORE PUSH32 0xB10E2D527612073B26EECDFD717E6A320CF44B4AFAC2B0732D9FCBE2B7FA0CF6 PUSH1 0x1F DUP4 ADD PUSH1 0x5 SHR DUP2 ADD SWAP2 PUSH1 0x20 DUP5 LT PUSH2 0x2B3 JUMPI JUMPDEST PUSH1 0x1F ADD PUSH1 0x5 SHR ADD SWAP1 JUMPDEST DUP2 DUP2 LT PUSH2 0x2A7 JUMPI POP PUSH2 0x11C JUMP JUMPDEST PUSH1 0x0 DUP2 SSTORE PUSH1 0x1 ADD PUSH2 0x29A JUMP JUMPDEST SWAP1 SWAP2 POP DUP2 SWAP1 PUSH2 0x291 JUMP JUMPDEST PUSH4 0x4E487B71 PUSH1 0xE0 SHL PUSH1 0x0 MSTORE PUSH1 0x22 PUSH1 0x4 MSTORE PUSH1 0x24 PUSH1 0x0 REVERT JUMPDEST SWAP1 PUSH1 0x7F AND SWAP1 PUSH2 0x10A JUMP JUMPDEST PUSH4 0x4E487B71 PUSH1 0xE0 SHL PUSH1 0x0 MSTORE PUSH1 0x41 PUSH1 0x4 MSTORE PUSH1 0x24 PUSH1 0x0 REVERT JUMPDEST ADD MLOAD SWAP1 POP CODESIZE DUP1 PUSH2 0xD3 JUMP JUMPDEST PUSH1 0x1F NOT DUP3 AND SWAP6 PUSH1 0x0 DUP1 MSTORE DUP1 PUSH1 0x0 KECCAK256 SWAP2 PUSH1 0x0 JUMPDEST DUP9 DUP2 LT PUSH2 0x34C JUMPI POP DUP4 PUSH1 0x1 SWAP6 SWAP7 SWAP8 SWAP9 LT PUSH2 0x333 JUMPI JUMPDEST POP POP POP DUP2 SHL ADD PUSH1 0x0 SSTORE PUSH2 0xE9 JUMP JUMPDEST ADD MLOAD PUSH1 0x0 NOT PUSH1 0xF8 DUP5 PUSH1 0x3 SHL AND SHR NOT AND SWAP1 SSTORE CODESIZE DUP1 DUP1 PUSH2 0x325 JUMP JUMPDEST SWAP2 SWAP3 PUSH1 0x20 PUSH1 0x1 DUP2 SWAP3 DUP7 DUP6 ADD MLOAD DUP2 SSTORE ADD SWAP5 ADD SWAP3 ADD PUSH2 0x310 JUMP JUMPDEST PUSH1 0x0 DUP1 MSTORE PUSH32 0x290DECD9548B62A8D60345A988386FC84BA6BC95484008F6362F93160EF3E563 PUSH1 0x1F DUP4 ADD PUSH1 0x5 SHR DUP2 ADD SWAP2 PUSH1 0x20 DUP5 LT PUSH2 0x3BE JUMPI JUMPDEST PUSH1 0x1F ADD PUSH1 0x5 SHR ADD SWAP1 JUMPDEST DUP2 DUP2 LT PUSH2 0x3B2 JUMPI POP PUSH2 0xB6 JUMP JUMPDEST PUSH1 0x0 DUP2 SSTORE PUSH1 0x1 ADD PUSH2 0x3A5 JUMP JUMPDEST SWAP1 SWAP2 POP DUP2 SWAP1 PUSH2 0x39C JUMP JUMPDEST SWAP1 PUSH1 0x7F AND SWAP1 PUSH2 0xA4 JUMP JUMPDEST PUSH1 0x0 DUP1 REVERT JUMPDEST PUSH1 0x40 MLOAD SWAP2 SWAP1 PUSH1 0x1F ADD PUSH1 0x1F NOT AND DUP3 ADD PUSH1 0x1 PUSH1 0x1 PUSH1 0x40 SHL SUB DUP2 GT DUP4 DUP3 LT OR PUSH2 0x2DD JUMPI PUSH1 0x40 MSTORE JUMP INVALID PUSH1 0x80 DUP1 PUSH1 0x40 MSTORE PUSH1 0x4 CALLDATASIZE LT ISZERO PUSH2 0x13 JUMPI PUSH1 0x0 DUP1 REVERT JUMPDEST PUSH1 0x0 SWAP1 DUP2 CALLDATALOAD PUSH1 0xE0 SHR SWAP1 DUP2 PUSH4 0x1FFC9A7 EQ PUSH2 0xEE9 JUMPI POP DUP1 PUSH4 0x6FDDE03 EQ PUSH2 0xE44 JUMPI DUP1 PUSH4 0x81812FC EQ PUSH2 0xE07 JUMPI DUP1 PUSH4 0x95EA7B3 EQ PUSH2 0xD1F JUMPI DUP1 PUSH4 0x23B872DD EQ PUSH2 0xD07 JUMPI DUP1 PUSH4 0x42842E0E EQ PUSH2 0xCD7 JUMPI DUP1 PUSH4 0x44A61236 EQ PUSH2 0x837 JUMPI DUP1 PUSH4 0x559034DF EQ PUSH2 0x6C6 JUMPI DUP1 PUSH4 0x6352211E EQ PUSH2 0x695 JUMPI DUP1 PUSH4 0x64B87A70 EQ PUSH2 0x650 JUMPI DUP1 PUSH4 0x70A08231 EQ PUSH2 0x5FD JUMPI DUP1 PUSH4 0x715018A6 EQ PUSH2 0x5A0 JUMPI DUP1 PUSH4 0x73AD6C2D EQ PUSH2 0x51D JUMPI DUP1 PUSH4 0x8DA5CB5B EQ PUSH2 0x4F4 JUMPI DUP1 PUSH4 0x8E1EB411 EQ PUSH2 0x4BF JUMPI DUP1 PUSH4 0x95D89B41 EQ PUSH2 0x3F0 JUMPI DUP1 PUSH4 0xA22CB465 EQ PUSH2 0x34C JUMPI DUP1 PUSH4 0xAB23B646 EQ PUSH2 0x300 JUMPI DUP1 PUSH4 0xABC8C7AF EQ PUSH2 0x2D7 JUMPI DUP1 PUSH4 0xB88D4FDE EQ PUSH2 0x263 JUMPI DUP1 PUSH4 0xBF333F2C EQ PUSH2 0x246 JUMPI DUP1 PUSH4 0xC87B56DD EQ PUSH2 0x20E JUMPI DUP1 PUSH4 0xE985E9C5 EQ PUSH2 0x1B4 JUMPI PUSH4 0xF2FDE38B EQ PUSH2 0x129 JUMPI PUSH1 0x0 DUP1 REVERT JUMPDEST CALLVALUE PUSH2 0x1B1 JUMPI PUSH1 0x20 CALLDATASIZE PUSH1 0x3 NOT ADD SLT PUSH2 0x1B1 JUMPI PUSH2 0x142 PUSH2 0xFB3 JUMP JUMPDEST PUSH2 0x14A PUSH2 0x13C2 JUMP JUMPDEST PUSH1 0x1 PUSH1 0x1 PUSH1 0xA0 SHL SUB AND DUP1 ISZERO PUSH2 0x19D JUMPI PUSH1 0x7 DUP1 SLOAD PUSH1 0x1 PUSH1 0x1 PUSH1 0xA0 SHL SUB NOT DUP2 AND DUP4 OR SWAP1 SWAP2 SSTORE PUSH1 0x1 PUSH1 0x1 PUSH1 0xA0 SHL SUB AND PUSH32 0x8BE0079C531659141344CD1FD0A4F28419497F9722A3DAAFE3B4186F6B6457E0 DUP4 DUP1 LOG3 DUP1 RETURN JUMPDEST PUSH4 0x1E4FBDF7 PUSH1 0xE0 SHL DUP3 MSTORE PUSH1 0x4 DUP3 SWAP1 MSTORE PUSH1 0x24 DUP3 REVERT JUMPDEST DUP1 REVERT JUMPDEST POP CALLVALUE PUSH2 0x1B1 JUMPI PUSH1 0x40 CALLDATASIZE PUSH1 0x3 NOT ADD SLT PUSH2 0x1B1 JUMPI PUSH1 0x40 PUSH2 0x1D0 PUSH2 0xFB3 JUMP JUMPDEST SWAP2 PUSH2 0x1D9 PUSH2 0xFCE JUMP JUMPDEST SWAP3 PUSH1 0x1 DUP1 PUSH1 0xA0 SHL SUB AND DUP2 MSTORE PUSH1 0x5 PUSH1 0x20 MSTORE KECCAK256 SWAP1 PUSH1 0x1 DUP1 PUSH1 0xA0 SHL SUB AND PUSH1 0x0 MSTORE PUSH1 0x20 MSTORE PUSH1 0x20 PUSH1 0xFF PUSH1 0x40 PUSH1 0x0 KECCAK256 SLOAD AND PUSH1 0x40 MLOAD SWAP1 ISZERO ISZERO DUP2 MSTORE RETURN JUMPDEST POP CALLVALUE PUSH2 0x1B1 JUMPI PUSH1 0x20 CALLDATASIZE PUSH1 0x3 NOT ADD SLT PUSH2 0x1B1 JUMPI PUSH2 0x242 PUSH2 0x22E PUSH1 0x4 CALLDATALOAD PUSH2 0x12BF JUMP JUMPDEST PUSH1 0x40 MLOAD SWAP2 DUP3 SWAP2 PUSH1 0x20 DUP4 MSTORE PUSH1 0x20 DUP4 ADD SWAP1 PUSH2 0xF74 JUMP JUMPDEST SUB SWAP1 RETURN JUMPDEST POP CALLVALUE PUSH2 0x1B1 JUMPI DUP1 PUSH1 0x3 NOT CALLDATASIZE ADD SLT PUSH2 0x1B1 JUMPI PUSH1 0x20 PUSH1 0x40 MLOAD PUSH2 0x1F4 DUP2 MSTORE RETURN JUMPDEST POP CALLVALUE PUSH2 0x1B1 JUMPI PUSH1 0x80 CALLDATASIZE PUSH1 0x3 NOT ADD SLT PUSH2 0x1B1 JUMPI PUSH2 0x27D PUSH2 0xFB3 JUMP JUMPDEST PUSH2 0x285 PUSH2 0xFCE JUMP JUMPDEST SWAP1 PUSH1 0x44 CALLDATALOAD PUSH1 0x64 CALLDATALOAD SWAP3 PUSH8 0xFFFFFFFFFFFFFFFF DUP5 GT PUSH2 0x2D3 JUMPI CALLDATASIZE PUSH1 0x23 DUP6 ADD SLT ISZERO PUSH2 0x2D3 JUMPI PUSH2 0x2BE PUSH2 0x2D0 SWAP5 CALLDATASIZE SWAP1 PUSH1 0x24 DUP2 PUSH1 0x4 ADD CALLDATALOAD SWAP2 ADD PUSH2 0x1072 JUMP JUMPDEST SWAP3 PUSH2 0x2CA DUP4 DUP4 DUP4 PUSH2 0x10E3 JUMP JUMPDEST CALLER PUSH2 0x13EB JUMP JUMPDEST DUP1 RETURN JUMPDEST DUP5 DUP1 REVERT JUMPDEST POP CALLVALUE PUSH2 0x1B1 JUMPI DUP1 PUSH1 0x3 NOT CALLDATASIZE ADD SLT PUSH2 0x1B1 JUMPI PUSH1 0x8 SLOAD PUSH1 0x40 MLOAD PUSH1 0x1 PUSH1 0x1 PUSH1 0xA0 SHL SUB SWAP1 SWAP2 AND DUP2 MSTORE PUSH1 0x20 SWAP1 RETURN JUMPDEST POP CALLVALUE PUSH2 0x1B1 JUMPI PUSH1 0x20 CALLDATASIZE PUSH1 0x3 NOT ADD SLT PUSH2 0x1B1 JUMPI PUSH1 0x40 PUSH1 0x60 SWAP2 PUSH1 0x4 CALLDATALOAD DUP2 MSTORE PUSH1 0x9 PUSH1 0x20 MSTORE KECCAK256 PUSH1 0xFF PUSH1 0x1 DUP3 SLOAD SWAP3 ADD SLOAD PUSH1 0x40 MLOAD SWAP3 DUP4 MSTORE PUSH1 0x1 DUP1 PUSH1 0xA0 SHL SUB DUP2 AND PUSH1 0x20 DUP5 ADD MSTORE PUSH1 0xA0 SHR AND ISZERO ISZERO PUSH1 0x40 DUP3 ADD MSTORE RETURN JUMPDEST POP CALLVALUE PUSH2 0x1B1 JUMPI PUSH1 0x40 CALLDATASIZE PUSH1 0x3 NOT ADD SLT PUSH2 0x1B1 JUMPI PUSH2 0x366 PUSH2 0xFB3 JUMP JUMPDEST PUSH1 0x24 CALLDATALOAD SWAP1 DUP2 ISZERO ISZERO DUP1 SWAP3 SUB PUSH2 0x3EC JUMPI PUSH1 0x1 PUSH1 0x1 PUSH1 0xA0 SHL SUB AND SWAP1 DUP2 ISZERO PUSH2 0x3D8 JUMPI CALLER DUP4 MSTORE PUSH1 0x5 PUSH1 0x20 MSTORE PUSH1 0x40 DUP4 KECCAK256 DUP3 PUSH1 0x0 MSTORE PUSH1 0x20 MSTORE PUSH1 0x40 PUSH1 0x0 KECCAK256 PUSH1 0xFF NOT DUP2 SLOAD AND PUSH1 0xFF DUP4 AND OR SWAP1 SSTORE PUSH1 0x40 MLOAD SWAP1 DUP2 MSTORE PUSH32 0x17307EAB39AB6107E8899845AD3D59BD9653F200F220920489CA2B5937696C31 PUSH1 0x20 CALLER SWAP3 LOG3 DUP1 RETURN JUMPDEST PUSH4 0xB611743 PUSH1 0xE3 SHL DUP4 MSTORE PUSH1 0x4 DUP3 SWAP1 MSTORE PUSH1 0x24 DUP4 REVERT JUMPDEST DUP3 DUP1 REVERT JUMPDEST POP CALLVALUE PUSH2 0x1B1 JUMPI DUP1 PUSH1 0x3 NOT CALLDATASIZE ADD SLT PUSH2 0x1B1 JUMPI PUSH1 0x40 MLOAD SWAP1 DUP1 PUSH1 0x1 SLOAD SWAP1 PUSH2 0x413 DUP3 PUSH2 0x10A9 JUMP JUMPDEST DUP1 DUP6 MSTORE SWAP2 PUSH1 0x1 DUP2 AND SWAP1 DUP2 ISZERO PUSH2 0x498 JUMPI POP PUSH1 0x1 EQ PUSH2 0x43B JUMPI JUMPDEST PUSH2 0x242 DUP5 PUSH2 0x22E DUP2 DUP7 SUB DUP3 PUSH2 0x101E JUMP JUMPDEST PUSH1 0x1 DUP2 MSTORE PUSH32 0xB10E2D527612073B26EECDFD717E6A320CF44B4AFAC2B0732D9FCBE2B7FA0CF6 SWAP4 SWAP3 POP SWAP1 JUMPDEST DUP1 DUP3 LT PUSH2 0x47E JUMPI POP SWAP1 SWAP2 POP DUP2 ADD PUSH1 0x20 ADD PUSH2 0x22E DUP3 PUSH2 0x42B JUMP JUMPDEST SWAP2 SWAP3 PUSH1 0x1 DUP2 PUSH1 0x20 SWAP3 SLOAD DUP4 DUP6 DUP9 ADD ADD MSTORE ADD SWAP2 ADD SWAP1 SWAP3 SWAP2 PUSH2 0x465 JUMP JUMPDEST PUSH1 0xFF NOT AND PUSH1 0x20 DUP1 DUP8 ADD SWAP2 SWAP1 SWAP2 MSTORE SWAP3 ISZERO ISZERO PUSH1 0x5 SHL DUP6 ADD SWAP1 SWAP3 ADD SWAP3 POP PUSH2 0x22E SWAP2 POP DUP4 SWAP1 POP PUSH2 0x42B JUMP JUMPDEST POP CALLVALUE PUSH2 0x1B1 JUMPI PUSH1 0x20 CALLDATASIZE PUSH1 0x3 NOT ADD SLT PUSH2 0x1B1 JUMPI PUSH1 0xFF PUSH1 0x1 PUSH1 0x40 PUSH1 0x20 SWAP4 PUSH1 0x4 CALLDATALOAD DUP2 MSTORE PUSH1 0x9 DUP6 MSTORE KECCAK256 ADD SLOAD PUSH1 0xA0 SHR AND PUSH1 0x40 MLOAD SWAP1 ISZERO ISZERO DUP2 MSTORE RETURN JUMPDEST POP CALLVALUE PUSH2 0x1B1 JUMPI DUP1 PUSH1 0x3 NOT CALLDATASIZE ADD SLT PUSH2 0x1B1 JUMPI PUSH1 0x7 SLOAD PUSH1 0x40 MLOAD PUSH1 0x1 PUSH1 0x1 PUSH1 0xA0 SHL SUB SWAP1 SWAP2 AND DUP2 MSTORE PUSH1 0x20 SWAP1 RETURN JUMPDEST POP CALLVALUE PUSH2 0x1B1 JUMPI PUSH1 0x20 CALLDATASIZE PUSH1 0x3 NOT ADD SLT PUSH2 0x1B1 JUMPI PUSH2 0x537 PUSH2 0xFB3 JUMP JUMPDEST PUSH2 0x53F PUSH2 0x13C2 JUMP JUMPDEST PUSH1 0x1 PUSH1 0x1 PUSH1 0xA0 SHL SUB AND DUP1 ISZERO PUSH2 0x591 JUMPI PUSH1 0x8 SLOAD DUP2 PUSH1 0x1 PUSH1 0x1 PUSH1 0xA0 SHL SUB DUP3 AND PUSH32 0xC3E7368EF0A668941A4115B651A9C4F3FA3A13CC6EA105BB91E12BCAA932293C DUP6 DUP1 LOG3 PUSH1 0x1 PUSH1 0x1 PUSH1 0xA0 SHL SUB NOT AND OR PUSH1 0x8 SSTORE DUP1 RETURN JUMPDEST PUSH4 0xD92E233D PUSH1 0xE0 SHL DUP3 MSTORE PUSH1 0x4 DUP3 REVERT JUMPDEST POP CALLVALUE PUSH2 0x1B1 JUMPI DUP1 PUSH1 0x3 NOT CALLDATASIZE ADD SLT PUSH2 0x1B1 JUMPI PUSH2 0x5B9 PUSH2 0x13C2 JUMP JUMPDEST PUSH1 0x7 DUP1 SLOAD PUSH1 0x1 PUSH1 0x1 PUSH1 0xA0 SHL SUB NOT DUP2 AND SWAP1 SWAP2 SSTORE DUP2 SWAP1 PUSH1 0x1 PUSH1 0x1 PUSH1 0xA0 SHL SUB AND PUSH32 0x8BE0079C531659141344CD1FD0A4F28419497F9722A3DAAFE3B4186F6B6457E0 DUP3 DUP1 LOG3 DUP1 RETURN JUMPDEST POP CALLVALUE PUSH2 0x1B1 JUMPI PUSH1 0x20 CALLDATASIZE PUSH1 0x3 NOT ADD SLT PUSH2 0x1B1 JUMPI PUSH1 0x1 PUSH1 0x1 PUSH1 0xA0 SHL SUB PUSH2 0x61F PUSH2 0xFB3 JUMP JUMPDEST AND DUP1 ISZERO PUSH2 0x63C JUMPI DUP2 PUSH1 0x40 SWAP2 PUSH1 0x20 SWAP4 MSTORE PUSH1 0x3 DUP4 MSTORE KECCAK256 SLOAD PUSH1 0x40 MLOAD SWAP1 DUP2 MSTORE RETURN JUMPDEST PUSH4 0x22718AD9 PUSH1 0xE2 SHL DUP3 MSTORE PUSH1 0x4 DUP3 SWAP1 MSTORE PUSH1 0x24 DUP3 REVERT JUMPDEST POP CALLVALUE PUSH2 0x1B1 JUMPI DUP1 PUSH1 0x3 NOT CALLDATASIZE ADD SLT PUSH2 0x1B1 JUMPI PUSH1 0x40 MLOAD PUSH32 0x0 PUSH1 0x1 PUSH1 0x1 PUSH1 0xA0 SHL SUB AND DUP2 MSTORE PUSH1 0x20 SWAP1 RETURN JUMPDEST POP CALLVALUE PUSH2 0x1B1 JUMPI PUSH1 0x20 CALLDATASIZE PUSH1 0x3 NOT ADD SLT PUSH2 0x1B1 JUMPI PUSH1 0x20 PUSH2 0x6B4 PUSH1 0x4 CALLDATALOAD PUSH2 0x138B JUMP JUMPDEST PUSH1 0x40 MLOAD PUSH1 0x1 PUSH1 0x1 PUSH1 0xA0 SHL SUB SWAP1 SWAP2 AND DUP2 MSTORE RETURN JUMPDEST POP PUSH1 0x20 CALLDATASIZE PUSH1 0x3 NOT ADD SLT PUSH2 0x1B1 JUMPI PUSH1 0x4 CALLDATALOAD DUP1 DUP3 MSTORE PUSH1 0x9 PUSH1 0x20 MSTORE PUSH1 0x40 DUP3 KECCAK256 PUSH1 0x1 DUP2 ADD DUP1 SLOAD SWAP1 SWAP2 PUSH1 0x1 PUSH1 0x1 PUSH1 0xA0 SHL SUB DUP3 AND CALLER SUB PUSH2 0x828 JUMPI PUSH1 0xFF DUP3 PUSH1 0xA0 SHR AND PUSH2 0x819 JUMPI SLOAD CALLVALUE SUB PUSH2 0x80A JUMPI PUSH1 0xFF PUSH1 0xA0 SHL NOT AND PUSH1 0x1 PUSH1 0xA0 SHL OR SWAP1 SSTORE PUSH2 0x2710 CALLVALUE PUSH2 0x1F4 MUL DIV SWAP1 DUP2 PUSH2 0x791 JUMPI JUMPDEST DUP3 DUP1 DUP1 DUP1 DUP6 CALLVALUE SUB PUSH1 0x1 DUP1 PUSH1 0xA0 SHL SUB PUSH1 0x8 SLOAD AND GAS CALL PUSH2 0x747 PUSH2 0x128F JUMP JUMPDEST POP ISZERO PUSH2 0x782 JUMPI PUSH1 0x40 MLOAD SWAP2 CALLVALUE DUP4 MSTORE PUSH1 0x20 DUP4 ADD MSTORE PUSH32 0xE55DC516B9BBF9F5B0B3284018BDDEDF88EF3FB2C43B0518C685F40C6BC069F8 PUSH1 0x40 CALLER SWAP4 LOG3 DUP1 RETURN JUMPDEST PUSH4 0x12171D83 PUSH1 0xE3 SHL DUP4 MSTORE PUSH1 0x4 DUP4 REVERT JUMPDEST PUSH32 0x0 PUSH1 0x1 PUSH1 0x1 PUSH1 0xA0 SHL SUB AND DUP4 DUP2 EXTCODESIZE ISZERO PUSH2 0x1B1 JUMPI DUP4 SWAP2 PUSH1 0x4 PUSH1 0x40 MLOAD DUP1 SWAP5 DUP2 SWAP4 PUSH4 0x3147779 PUSH1 0xE2 SHL DUP4 MSTORE GAS CALL DUP1 ISZERO PUSH2 0x7FF JUMPI PUSH2 0x7EB JUMPI JUMPDEST POP PUSH2 0x72B JUMP JUMPDEST DUP4 PUSH2 0x7F8 SWAP2 SWAP5 SWAP3 SWAP5 PUSH2 0x101E JUMP JUMPDEST SWAP2 CODESIZE PUSH2 0x7E5 JUMP JUMPDEST PUSH1 0x40 MLOAD RETURNDATASIZE DUP7 DUP3 RETURNDATACOPY RETURNDATASIZE SWAP1 REVERT JUMPDEST PUSH4 0x34B20739 PUSH1 0xE1 SHL DUP5 MSTORE PUSH1 0x4 DUP5 REVERT JUMPDEST PUSH4 0xA8F6261F PUSH1 0xE0 SHL DUP6 MSTORE PUSH1 0x4 DUP6 REVERT JUMPDEST PUSH4 0x86EFBB55 PUSH1 0xE0 SHL DUP6 MSTORE PUSH1 0x4 DUP6 REVERT JUMPDEST POP CALLVALUE PUSH2 0x1B1 JUMPI PUSH1 0xA0 CALLDATASIZE PUSH1 0x3 NOT ADD SLT PUSH2 0x1B1 JUMPI PUSH2 0x851 PUSH2 0xFB3 JUMP JUMPDEST SWAP1 PUSH1 0x24 CALLDATALOAD SWAP2 PUSH1 0x44 CALLDATALOAD PUSH8 0xFFFFFFFFFFFFFFFF DUP2 GT PUSH2 0x3EC JUMPI CALLDATASIZE PUSH1 0x23 DUP3 ADD SLT ISZERO PUSH2 0x3EC JUMPI DUP1 PUSH1 0x4 ADD CALLDATALOAD PUSH8 0xFFFFFFFFFFFFFFFF DUP2 GT PUSH2 0xCD3 JUMPI CALLDATASIZE PUSH1 0x24 DUP3 DUP5 ADD ADD GT PUSH2 0xCD3 JUMPI PUSH1 0x84 CALLDATALOAD PUSH1 0x1 PUSH1 0x1 PUSH1 0xA0 SHL SUB DUP2 AND SWAP1 DUP2 SWAP1 SUB PUSH2 0x2D3 JUMPI PUSH1 0x8 SLOAD PUSH1 0x1 PUSH1 0x1 PUSH1 0xA0 SHL SUB AND CALLER SUB PUSH2 0xCC4 JUMPI PUSH1 0x40 MLOAD PUSH1 0x60 DUP2 ADD DUP2 DUP2 LT PUSH8 0xFFFFFFFFFFFFFFFF DUP3 GT OR PUSH2 0xCB0 JUMPI PUSH1 0x40 SWAP1 DUP2 MSTORE PUSH1 0x64 CALLDATALOAD DUP3 MSTORE PUSH1 0x20 DUP1 DUP4 ADD SWAP4 DUP5 MSTORE DUP3 DUP3 ADD DUP9 DUP2 MSTORE DUP10 DUP10 MSTORE PUSH1 0x9 DUP3 MSTORE DUP3 DUP10 KECCAK256 SWAP4 MLOAD DUP5 SSTORE SWAP4 MLOAD PUSH1 0x1 SWAP1 SWAP4 ADD DUP1 SLOAD SWAP5 MLOAD PUSH1 0x1 PUSH1 0x1 PUSH1 0xA8 SHL SUB NOT SWAP1 SWAP6 AND PUSH1 0x1 PUSH1 0x1 PUSH1 0xA0 SHL SUB SWAP1 SWAP5 AND SWAP4 SWAP1 SWAP4 OR SWAP4 ISZERO ISZERO PUSH1 0xA0 SHL PUSH1 0xFF PUSH1 0xA0 SHL AND SWAP4 SWAP1 SWAP4 OR SWAP1 SWAP2 SSTORE MLOAD SWAP1 SWAP4 SWAP1 PUSH2 0x941 DUP6 DUP3 PUSH2 0x101E JUMP JUMPDEST DUP6 DUP2 MSTORE PUSH1 0x1 PUSH1 0x1 PUSH1 0xA0 SHL SUB DUP3 AND SWAP2 DUP3 ISZERO PUSH2 0xC9C JUMPI DUP8 DUP8 MSTORE PUSH1 0x2 DUP7 MSTORE PUSH1 0x40 DUP8 KECCAK256 SLOAD PUSH1 0x1 PUSH1 0x1 PUSH1 0xA0 SHL SUB AND DUP1 ISZERO ISZERO SWAP1 DUP2 PUSH2 0xC68 JUMPI JUMPDEST DUP5 DUP10 MSTORE PUSH1 0x3 DUP9 MSTORE PUSH1 0x40 DUP1 DUP11 KECCAK256 DUP1 SLOAD PUSH1 0x1 ADD SWAP1 SSTORE DUP11 DUP11 MSTORE PUSH1 0x2 DUP10 MSTORE DUP10 KECCAK256 DUP1 SLOAD PUSH1 0x1 PUSH1 0x1 PUSH1 0xA0 SHL SUB NOT AND DUP7 OR SWAP1 SSTORE DUP10 DUP6 DUP3 PUSH32 0xDDF252AD1BE2C89B69C2B068FC378DAA952BA7F163C4A11628F55A4DF523B3EF DUP13 DUP1 LOG4 POP PUSH2 0xC54 JUMPI EXTCODESIZE PUSH2 0xB54 JUMPI JUMPDEST POP POP SWAP1 PUSH2 0x9E3 SWAP2 PUSH1 0x24 CALLDATASIZE SWAP3 ADD PUSH2 0x1072 JUMP JUMPDEST SWAP3 DUP1 DUP4 MSTORE PUSH1 0x6 DUP3 MSTORE PUSH1 0x40 DUP4 KECCAK256 DUP5 MLOAD SWAP5 PUSH8 0xFFFFFFFFFFFFFFFF DUP7 GT PUSH2 0xB40 JUMPI PUSH2 0xA0B DUP3 SLOAD PUSH2 0x10A9 JUMP JUMPDEST PUSH1 0x1F DUP2 GT PUSH2 0xAFD JUMPI JUMPDEST POP DUP4 SWAP1 PUSH1 0x1F DUP8 GT PUSH1 0x1 EQ PUSH2 0xA79 JUMPI SWAP6 DUP1 SWAP2 DUP7 SWAP8 PUSH32 0xF8E1A15ABA9398E019F0B49DF1A4FDE98EE17AE345CB5F6B5E2C27F5033E8CE7 SWAP8 SWAP3 PUSH2 0xA6E JUMPI JUMPDEST POP POP DUP2 PUSH1 0x1 SHL SWAP2 PUSH1 0x0 NOT SWAP1 PUSH1 0x3 SHL SHR NOT AND OR SWAP1 SSTORE JUMPDEST PUSH1 0x40 MLOAD SWAP1 DUP2 MSTORE LOG1 DUP1 RETURN JUMPDEST ADD MLOAD SWAP1 POP CODESIZE DUP1 PUSH2 0xA4F JUMP JUMPDEST DUP3 DUP7 MSTORE DUP5 DUP7 KECCAK256 SWAP2 SWAP1 PUSH1 0x1F NOT DUP9 AND DUP8 JUMPDEST DUP2 DUP2 LT PUSH2 0xAE6 JUMPI POP SWAP2 PUSH1 0x1 SWAP4 SWAP2 DUP10 PUSH32 0xF8E1A15ABA9398E019F0B49DF1A4FDE98EE17AE345CB5F6B5E2C27F5033E8CE7 SWAP10 SWAP11 SWAP5 LT PUSH2 0xACD JUMPI JUMPDEST POP POP POP DUP2 SHL ADD SWAP1 SSTORE PUSH2 0xA64 JUMP JUMPDEST ADD MLOAD PUSH1 0x0 NOT PUSH1 0xF8 DUP5 PUSH1 0x3 SHL AND SHR NOT AND SWAP1 SSTORE CODESIZE DUP1 DUP1 PUSH2 0xAC0 JUMP JUMPDEST SWAP3 SWAP4 DUP8 PUSH1 0x1 DUP2 SWAP3 DUP8 DUP7 ADD MLOAD DUP2 SSTORE ADD SWAP6 ADD SWAP4 ADD PUSH2 0xA88 JUMP JUMPDEST DUP3 DUP7 MSTORE DUP5 DUP7 KECCAK256 PUSH1 0x1F DUP9 ADD PUSH1 0x5 SHR DUP2 ADD SWAP2 DUP7 DUP10 LT PUSH2 0xB36 JUMPI JUMPDEST PUSH1 0x1F ADD PUSH1 0x5 SHR ADD SWAP1 JUMPDEST DUP2 DUP2 LT PUSH2 0xB2B JUMPI POP PUSH2 0xA14 JUMP JUMPDEST DUP7 DUP2 SSTORE PUSH1 0x1 ADD PUSH2 0xB1E JUMP JUMPDEST SWAP1 SWAP2 POP DUP2 SWAP1 PUSH2 0xB15 JUMP JUMPDEST PUSH4 0x4E487B71 PUSH1 0xE0 SHL DUP6 MSTORE PUSH1 0x41 PUSH1 0x4 MSTORE PUSH1 0x24 DUP6 REVERT JUMPDEST DUP5 PUSH2 0xB93 SWAP2 PUSH1 0x40 SWAP9 SWAP6 SWAP5 SWAP4 SWAP7 SWAP9 MLOAD DUP1 SWAP4 DUP2 SWAP3 PUSH4 0xA85BD01 PUSH1 0xE1 SHL DUP4 MSTORE CALLER PUSH1 0x4 DUP5 ADD MSTORE DUP11 PUSH1 0x24 DUP5 ADD MSTORE DUP9 PUSH1 0x44 DUP5 ADD MSTORE PUSH1 0x80 PUSH1 0x64 DUP5 ADD MSTORE PUSH1 0x84 DUP4 ADD SWAP1 PUSH2 0xF74 JUMP JUMPDEST SUB DUP2 DUP10 DUP10 GAS CALL DUP7 SWAP2 DUP2 PUSH2 0xC10 JUMPI JUMPDEST POP PUSH2 0xBD5 JUMPI POP POP POP POP PUSH2 0xBB2 PUSH2 0x128F JUMP JUMPDEST DUP1 MLOAD SWAP4 SWAP1 DUP5 PUSH2 0xBCF JUMPI PUSH4 0x32505749 PUSH1 0xE1 SHL DUP5 MSTORE PUSH1 0x4 DUP4 SWAP1 MSTORE PUSH1 0x24 DUP5 REVERT JUMPDEST DUP5 SWAP3 POP ADD REVERT JUMPDEST SWAP3 SWAP6 SWAP4 SWAP2 SWAP3 SWAP1 SWAP2 SWAP1 PUSH1 0x1 PUSH1 0x1 PUSH1 0xE0 SHL SUB NOT AND PUSH4 0x757A42FF PUSH1 0xE1 SHL ADD PUSH2 0xBFE JUMPI POP PUSH2 0x9E3 CODESIZE PUSH2 0x9D2 JUMP JUMPDEST PUSH4 0x32505749 PUSH1 0xE1 SHL DUP6 MSTORE PUSH1 0x4 MSTORE PUSH1 0x24 DUP5 REVERT JUMPDEST SWAP1 SWAP2 POP DUP8 DUP2 DUP2 RETURNDATASIZE DUP4 GT PUSH2 0xC4D JUMPI JUMPDEST PUSH2 0xC28 DUP2 DUP4 PUSH2 0x101E JUMP JUMPDEST DUP2 ADD SUB SLT PUSH2 0xC49 JUMPI MLOAD PUSH1 0x1 PUSH1 0x1 PUSH1 0xE0 SHL SUB NOT DUP2 AND DUP2 SUB PUSH2 0xC49 JUMPI SWAP1 CODESIZE PUSH2 0xBA1 JUMP JUMPDEST DUP7 DUP1 REVERT JUMPDEST POP RETURNDATASIZE PUSH2 0xC1E JUMP JUMPDEST PUSH4 0x39E35637 PUSH1 0xE1 SHL DUP8 MSTORE PUSH1 0x4 DUP8 SWAP1 MSTORE PUSH1 0x24 DUP8 REVERT JUMPDEST PUSH1 0x0 DUP11 DUP2 MSTORE PUSH1 0x4 PUSH1 0x20 MSTORE PUSH1 0x40 SWAP1 KECCAK256 DUP1 SLOAD PUSH1 0x1 PUSH1 0x1 PUSH1 0xA0 SHL SUB NOT AND SWAP1 SSTORE DUP1 DUP10 MSTORE PUSH1 0x3 DUP9 MSTORE PUSH1 0x40 DUP10 KECCAK256 DUP1 SLOAD PUSH1 0x0 NOT ADD SWAP1 SSTORE PUSH2 0x974 JUMP JUMPDEST PUSH4 0x32505749 PUSH1 0xE1 SHL DUP8 MSTORE PUSH1 0x4 DUP8 SWAP1 MSTORE PUSH1 0x24 DUP8 REVERT JUMPDEST PUSH4 0x4E487B71 PUSH1 0xE0 SHL DUP8 MSTORE PUSH1 0x41 PUSH1 0x4 MSTORE PUSH1 0x24 DUP8 REVERT JUMPDEST PUSH4 0x2B35006D PUSH1 0xE2 SHL DUP6 MSTORE PUSH1 0x4 DUP6 REVERT JUMPDEST DUP4 DUP1 REVERT JUMPDEST POP CALLVALUE PUSH2 0x1B1 JUMPI PUSH2 0x2D0 PUSH2 0xCE9 CALLDATASIZE PUSH2 0xFE4 JUMP JUMPDEST SWAP1 PUSH1 0x40 MLOAD SWAP3 PUSH2 0xCF9 PUSH1 0x20 DUP6 PUSH2 0x101E JUMP JUMPDEST DUP6 DUP5 MSTORE PUSH2 0x2CA DUP4 DUP4 DUP4 PUSH2 0x10E3 JUMP JUMPDEST POP CALLVALUE PUSH2 0x1B1 JUMPI PUSH2 0x2D0 PUSH2 0xD19 CALLDATASIZE PUSH2 0xFE4 JUMP JUMPDEST SWAP2 PUSH2 0x10E3 JUMP JUMPDEST POP CALLVALUE PUSH2 0x1B1 JUMPI PUSH1 0x40 CALLDATASIZE PUSH1 0x3 NOT ADD SLT PUSH2 0x1B1 JUMPI PUSH2 0xD39 PUSH2 0xFB3 JUMP JUMPDEST PUSH1 0x24 CALLDATALOAD PUSH2 0xD45 DUP2 PUSH2 0x138B JUMP JUMPDEST CALLER ISZERO ISZERO DUP1 PUSH2 0xDF4 JUMPI JUMPDEST DUP1 PUSH2 0xDC9 JUMPI JUMPDEST PUSH2 0xDB6 JUMPI DUP2 SWAP1 PUSH1 0x1 PUSH1 0x1 PUSH1 0xA0 SHL SUB DUP5 DUP2 AND SWAP2 AND PUSH32 0x8C5BE1E5EBEC7D5BD14F71427D1E84F3DD0314C0F7B2291E5B200AC8C7C3B925 DUP7 DUP1 LOG4 DUP3 MSTORE PUSH1 0x4 PUSH1 0x20 MSTORE PUSH1 0x40 DUP3 KECCAK256 DUP1 SLOAD PUSH1 0x1 PUSH1 0x1 PUSH1 0xA0 SHL SUB NOT AND PUSH1 0x1 PUSH1 0x1 PUSH1 0xA0 SHL SUB SWAP1 SWAP3 AND SWAP2 SWAP1 SWAP2 OR SWAP1 SSTORE DUP1 RETURN JUMPDEST PUSH4 0xA9FBF51F PUSH1 0xE0 SHL DUP5 MSTORE CALLER PUSH1 0x4 MSTORE PUSH1 0x24 DUP5 REVERT JUMPDEST POP PUSH1 0x1 PUSH1 0x1 PUSH1 0xA0 SHL SUB DUP2 AND DUP5 MSTORE PUSH1 0x5 PUSH1 0x20 SWAP1 DUP2 MSTORE PUSH1 0x40 DUP1 DUP7 KECCAK256 CALLER DUP8 MSTORE SWAP1 SWAP2 MSTORE DUP5 KECCAK256 SLOAD PUSH1 0xFF AND ISZERO PUSH2 0xD54 JUMP JUMPDEST POP PUSH1 0x1 PUSH1 0x1 PUSH1 0xA0 SHL SUB DUP2 AND CALLER EQ ISZERO PUSH2 0xD4E JUMP JUMPDEST POP CALLVALUE PUSH2 0x1B1 JUMPI PUSH1 0x20 CALLDATASIZE PUSH1 0x3 NOT ADD SLT PUSH2 0x1B1 JUMPI PUSH1 0x20 SWAP1 PUSH1 0x4 CALLDATALOAD PUSH2 0xE28 DUP2 PUSH2 0x138B JUMP JUMPDEST POP DUP2 MSTORE PUSH1 0x4 DUP3 MSTORE PUSH1 0x40 PUSH1 0x1 DUP1 PUSH1 0xA0 SHL SUB SWAP2 KECCAK256 SLOAD AND PUSH1 0x40 MLOAD SWAP1 DUP2 MSTORE RETURN JUMPDEST POP CALLVALUE PUSH2 0x1B1 JUMPI DUP1 PUSH1 0x3 NOT CALLDATASIZE ADD SLT PUSH2 0x1B1 JUMPI PUSH1 0x40 MLOAD SWAP1 DUP1 DUP1 SLOAD SWAP1 PUSH2 0xE66 DUP3 PUSH2 0x10A9 JUMP JUMPDEST DUP1 DUP6 MSTORE SWAP2 PUSH1 0x1 DUP2 AND SWAP1 DUP2 ISZERO PUSH2 0x498 JUMPI POP PUSH1 0x1 EQ PUSH2 0xE8D JUMPI PUSH2 0x242 DUP5 PUSH2 0x22E DUP2 DUP7 SUB DUP3 PUSH2 0x101E JUMP JUMPDEST DUP1 DUP1 MSTORE PUSH32 0x290DECD9548B62A8D60345A988386FC84BA6BC95484008F6362F93160EF3E563 SWAP4 SWAP3 POP SWAP1 JUMPDEST DUP1 DUP3 LT PUSH2 0xECF JUMPI POP SWAP1 SWAP2 POP DUP2 ADD PUSH1 0x20 ADD PUSH2 0x22E DUP3 PUSH2 0x42B JUMP JUMPDEST SWAP2 SWAP3 PUSH1 0x1 DUP2 PUSH1 0x20 SWAP3 SLOAD DUP4 DUP6 DUP9 ADD ADD MSTORE ADD SWAP2 ADD SWAP1 SWAP3 SWAP2 PUSH2 0xEB6 JUMP JUMPDEST SWAP1 POP CALLVALUE PUSH2 0xF70 JUMPI PUSH1 0x20 CALLDATASIZE PUSH1 0x3 NOT ADD SLT PUSH2 0xF70 JUMPI PUSH1 0x4 CALLDATALOAD PUSH4 0xFFFFFFFF PUSH1 0xE0 SHL DUP2 AND DUP1 SWAP2 SUB PUSH2 0x3EC JUMPI PUSH1 0x20 SWAP3 POP PUSH4 0x24832483 PUSH1 0xE1 SHL DUP2 EQ SWAP1 DUP2 ISZERO PUSH2 0xF2D JUMPI JUMPDEST POP ISZERO ISZERO DUP2 MSTORE RETURN JUMPDEST PUSH4 0x80AC58CD PUSH1 0xE0 SHL DUP2 EQ SWAP2 POP DUP2 ISZERO PUSH2 0xF5F JUMPI JUMPDEST DUP2 ISZERO PUSH2 0xF4E JUMPI JUMPDEST POP CODESIZE PUSH2 0xF26 JUMP JUMPDEST PUSH4 0x1FFC9A7 PUSH1 0xE0 SHL EQ SWAP1 POP CODESIZE PUSH2 0xF47 JUMP JUMPDEST PUSH4 0x5B5E139F PUSH1 0xE0 SHL DUP2 EQ SWAP2 POP PUSH2 0xF40 JUMP JUMPDEST POP DUP1 REVERT JUMPDEST SWAP2 SWAP1 DUP3 MLOAD DUP1 DUP3 MSTORE PUSH1 0x20 DUP1 DUP4 ADD SWAP5 ADD PUSH1 0x0 JUMPDEST DUP3 DUP2 LT PUSH2 0xFA3 JUMPI POP POP PUSH1 0x0 DUP2 PUSH1 0x20 SWAP5 SWAP6 ADD MSTORE PUSH1 0x1F DUP1 NOT SWAP2 ADD AND ADD ADD SWAP1 JUMP JUMPDEST DUP2 DUP2 ADD MLOAD DUP7 DUP3 ADD MSTORE PUSH1 0x20 ADD PUSH2 0xF85 JUMP JUMPDEST PUSH1 0x4 CALLDATALOAD SWAP1 PUSH1 0x1 PUSH1 0x1 PUSH1 0xA0 SHL SUB DUP3 AND DUP3 SUB PUSH2 0xFC9 JUMPI JUMP JUMPDEST PUSH1 0x0 DUP1 REVERT JUMPDEST PUSH1 0x24 CALLDATALOAD SWAP1 PUSH1 0x1 PUSH1 0x1 PUSH1 0xA0 SHL SUB DUP3 AND DUP3 SUB PUSH2 0xFC9 JUMPI JUMP JUMPDEST PUSH1 0x60 SWAP1 PUSH1 0x3 NOT ADD SLT PUSH2 0xFC9 JUMPI PUSH1 0x4 CALLDATALOAD PUSH1 0x1 PUSH1 0x1 PUSH1 0xA0 SHL SUB DUP2 AND DUP2 SUB PUSH2 0xFC9 JUMPI SWAP1 PUSH1 0x24 CALLDATALOAD PUSH1 0x1 PUSH1 0x1 PUSH1 0xA0 SHL SUB DUP2 AND DUP2 SUB PUSH2 0xFC9 JUMPI SWAP1 PUSH1 0x44 CALLDATALOAD SWAP1 JUMP JUMPDEST SWAP1 PUSH1 0x1F DUP1 NOT SWAP2 ADD AND DUP2 ADD SWAP1 DUP2 LT PUSH8 0xFFFFFFFFFFFFFFFF DUP3 GT OR PUSH2 0x1040 JUMPI PUSH1 0x40 MSTORE JUMP JUMPDEST PUSH4 0x4E487B71 PUSH1 0xE0 SHL PUSH1 0x0 MSTORE PUSH1 0x41 PUSH1 0x4 MSTORE PUSH1 0x24 PUSH1 0x0 REVERT JUMPDEST PUSH8 0xFFFFFFFFFFFFFFFF DUP2 GT PUSH2 0x1040 JUMPI PUSH1 0x1F ADD PUSH1 0x1F NOT AND PUSH1 0x20 ADD SWAP1 JUMP JUMPDEST SWAP3 SWAP2 SWAP3 PUSH2 0x107E DUP3 PUSH2 0x1056 JUMP JUMPDEST SWAP2 PUSH2 0x108C PUSH1 0x40 MLOAD SWAP4 DUP5 PUSH2 0x101E JUMP JUMPDEST DUP3 SWAP5 DUP2 DUP5 MSTORE DUP2 DUP4 ADD GT PUSH2 0xFC9 JUMPI DUP3 DUP2 PUSH1 0x20 SWAP4 DUP5 PUSH1 0x0 SWAP7 ADD CALLDATACOPY ADD ADD MSTORE JUMP JUMPDEST SWAP1 PUSH1 0x1 DUP3 DUP2 SHR SWAP3 AND DUP1 ISZERO PUSH2 0x10D9 JUMPI JUMPDEST PUSH1 0x20 DUP4 LT EQ PUSH2 0x10C3 JUMPI JUMP JUMPDEST PUSH4 0x4E487B71 PUSH1 0xE0 SHL PUSH1 0x0 MSTORE PUSH1 0x22 PUSH1 0x4 MSTORE PUSH1 0x24 PUSH1 0x0 REVERT JUMPDEST SWAP2 PUSH1 0x7F AND SWAP2 PUSH2 0x10B8 JUMP JUMPDEST PUSH1 0x1 PUSH1 0x1 PUSH1 0xA0 SHL SUB SWAP1 SWAP2 AND SWAP2 SWAP1 DUP3 ISZERO PUSH2 0x1279 JUMPI PUSH1 0x0 DUP3 DUP2 MSTORE PUSH1 0x2 PUSH1 0x20 MSTORE PUSH1 0x40 DUP2 KECCAK256 SLOAD PUSH1 0x1 PUSH1 0x1 PUSH1 0xA0 SHL SUB AND SWAP4 DUP4 SWAP2 DUP6 SWAP1 CALLER ISZERO ISZERO DUP1 PUSH2 0x11E1 JUMPI JUMPDEST POP PUSH32 0xDDF252AD1BE2C89B69C2B068FC378DAA952BA7F163C4A11628F55A4DF523B3EF SWAP1 DUP3 PUSH2 0x11AC JUMPI JUMPDEST DUP4 DUP2 MSTORE PUSH1 0x3 PUSH1 0x20 MSTORE PUSH1 0x40 DUP2 KECCAK256 PUSH1 0x1 DUP2 SLOAD ADD SWAP1 SSTORE DUP5 DUP2 MSTORE PUSH1 0x2 PUSH1 0x20 MSTORE PUSH1 0x40 DUP2 KECCAK256 DUP5 PUSH12 0xFFFFFFFFFFFFFFFFFFFFFFFF PUSH1 0xA0 SHL DUP3 SLOAD AND OR SWAP1 SSTORE DUP1 LOG4 PUSH1 0x1 PUSH1 0x1 PUSH1 0xA0 SHL SUB AND DUP1 DUP4 SUB PUSH2 0x1192 JUMPI POP POP POP JUMP JUMPDEST PUSH4 0x64283D7B PUSH1 0xE0 SHL PUSH1 0x0 MSTORE PUSH1 0x4 MSTORE PUSH1 0x24 MSTORE PUSH1 0x44 MSTORE PUSH1 0x64 PUSH1 0x0 REVERT JUMPDEST PUSH1 0x0 DUP6 DUP2 MSTORE PUSH1 0x4 PUSH1 0x20 MSTORE PUSH1 0x40 SWAP1 KECCAK256 DUP1 SLOAD PUSH1 0x1 PUSH1 0x1 PUSH1 0xA0 SHL SUB NOT AND SWAP1 SSTORE DUP3 DUP2 MSTORE PUSH1 0x3 PUSH1 0x20 MSTORE PUSH1 0x40 DUP2 KECCAK256 DUP1 SLOAD PUSH1 0x0 NOT ADD SWAP1 SSTORE PUSH2 0x1145 JUMP JUMPDEST SWAP2 POP SWAP2 SWAP3 POP DUP1 PUSH2 0x122A JUMPI JUMPDEST ISZERO PUSH2 0x11FB JUMPI SWAP1 DUP5 DUP5 SWAP3 CODESIZE PUSH2 0x111C JUMP JUMPDEST DUP4 SWAP1 DUP6 PUSH2 0x1214 JUMPI PUSH1 0x24 SWAP2 PUSH4 0x7E273289 PUSH1 0xE0 SHL DUP3 MSTORE PUSH1 0x4 MSTORE REVERT JUMPDEST PUSH1 0x44 SWAP2 PUSH4 0x177E802F PUSH1 0xE0 SHL DUP3 MSTORE CALLER PUSH1 0x4 MSTORE PUSH1 0x24 MSTORE REVERT JUMPDEST POP CALLER DUP6 EQ DUP1 ISZERO PUSH2 0x1258 JUMPI JUMPDEST DUP1 PUSH2 0x11EC JUMPI POP DUP4 DUP2 MSTORE PUSH1 0x4 PUSH1 0x20 MSTORE PUSH1 0x40 DUP2 KECCAK256 SLOAD PUSH1 0x1 PUSH1 0x1 PUSH1 0xA0 SHL SUB AND CALLER EQ PUSH2 0x11EC JUMP JUMPDEST POP DUP5 DUP2 MSTORE PUSH1 0x5 PUSH1 0x20 SWAP1 DUP2 MSTORE PUSH1 0x40 DUP1 DUP4 KECCAK256 CALLER DUP5 MSTORE SWAP1 SWAP2 MSTORE DUP2 KECCAK256 SLOAD PUSH1 0xFF AND PUSH2 0x1235 JUMP JUMPDEST PUSH4 0x32505749 PUSH1 0xE1 SHL PUSH1 0x0 MSTORE PUSH1 0x0 PUSH1 0x4 MSTORE PUSH1 0x24 PUSH1 0x0 REVERT JUMPDEST RETURNDATASIZE ISZERO PUSH2 0x12BA JUMPI RETURNDATASIZE SWAP1 PUSH2 0x12A0 DUP3 PUSH2 0x1056 JUMP JUMPDEST SWAP2 PUSH2 0x12AE PUSH1 0x40 MLOAD SWAP4 DUP5 PUSH2 0x101E JUMP JUMPDEST DUP3 MSTORE RETURNDATASIZE PUSH1 0x0 PUSH1 0x20 DUP5 ADD RETURNDATACOPY JUMP JUMPDEST PUSH1 0x60 SWAP1 JUMP JUMPDEST PUSH2 0x12C8 DUP2 PUSH2 0x138B JUMP JUMPDEST POP PUSH1 0x0 MSTORE PUSH1 0x6 PUSH1 0x20 MSTORE PUSH1 0x40 PUSH1 0x0 KECCAK256 PUSH1 0x40 MLOAD SWAP1 DUP2 PUSH1 0x0 DUP3 SLOAD SWAP3 PUSH2 0x12E9 DUP5 PUSH2 0x10A9 JUMP JUMPDEST DUP1 DUP5 MSTORE SWAP4 PUSH1 0x1 DUP2 AND SWAP1 DUP2 ISZERO PUSH2 0x1369 JUMPI POP PUSH1 0x1 EQ PUSH2 0x1322 JUMPI JUMPDEST POP PUSH2 0x130E SWAP3 POP SUB DUP3 PUSH2 0x101E JUMP JUMPDEST PUSH1 0x0 PUSH1 0x40 MLOAD PUSH2 0x131E PUSH1 0x20 DUP3 PUSH2 0x101E JUMP JUMPDEST MSTORE SWAP1 JUMP JUMPDEST SWAP1 POP PUSH1 0x0 SWAP3 SWAP2 SWAP3 MSTORE PUSH1 0x20 PUSH1 0x0 KECCAK256 SWAP1 PUSH1 0x0 SWAP2 JUMPDEST DUP2 DUP4 LT PUSH2 0x134D JUMPI POP POP SWAP1 PUSH1 0x20 PUSH2 0x130E SWAP3 DUP3 ADD ADD CODESIZE PUSH2 0x1301 JUMP JUMPDEST PUSH1 0x20 SWAP2 SWAP4 POP DUP1 PUSH1 0x1 SWAP2 SLOAD DUP4 DUP6 DUP9 ADD ADD MSTORE ADD SWAP2 ADD SWAP1 SWAP2 DUP4 SWAP3 PUSH2 0x1334 JUMP JUMPDEST SWAP1 POP PUSH1 0x20 SWAP3 POP PUSH2 0x130E SWAP5 SWAP2 POP PUSH1 0xFF NOT AND DUP3 DUP5 ADD MSTORE ISZERO ISZERO PUSH1 0x5 SHL DUP3 ADD ADD CODESIZE PUSH2 0x1301 JUMP JUMPDEST PUSH1 0x0 DUP2 DUP2 MSTORE PUSH1 0x2 PUSH1 0x20 MSTORE PUSH1 0x40 SWAP1 KECCAK256 SLOAD PUSH1 0x1 PUSH1 0x1 PUSH1 0xA0 SHL SUB AND SWAP1 DUP2 ISZERO PUSH2 0x13AE JUMPI POP SWAP1 JUMP JUMPDEST PUSH4 0x7E273289 PUSH1 0xE0 SHL PUSH1 0x0 MSTORE PUSH1 0x4 MSTORE PUSH1 0x24 PUSH1 0x0 REVERT JUMPDEST PUSH1 0x7 SLOAD PUSH1 0x1 PUSH1 0x1 PUSH1 0xA0 SHL SUB AND CALLER SUB PUSH2 0x13D6 JUMPI JUMP JUMPDEST PUSH4 0x118CDAA7 PUSH1 0xE0 SHL PUSH1 0x0 MSTORE CALLER PUSH1 0x4 MSTORE PUSH1 0x24 PUSH1 0x0 REVERT JUMPDEST DUP3 EXTCODESIZE PUSH2 0x13F9 JUMPI JUMPDEST POP POP POP POP POP JUMP JUMPDEST PUSH1 0x40 MLOAD PUSH4 0xA85BD01 PUSH1 0xE1 SHL DUP2 MSTORE PUSH1 0x1 PUSH1 0x1 PUSH1 0xA0 SHL SUB SWAP2 DUP3 AND PUSH1 0x4 DUP3 ADD MSTORE SWAP2 DUP2 AND PUSH1 0x24 DUP4 ADD MSTORE PUSH1 0x44 DUP3 ADD SWAP4 SWAP1 SWAP4 MSTORE PUSH1 0x80 PUSH1 0x64 DUP3 ADD MSTORE SWAP2 AND SWAP2 PUSH1 0x20 SWAP1 DUP3 SWAP1 DUP2 SWAP1 PUSH2 0x1445 SWAP1 PUSH1 0x84 DUP4 ADD SWAP1 PUSH2 0xF74 JUMP JUMPDEST SUB DUP2 PUSH1 0x0 DUP7 GAS CALL DUP1 SWAP2 PUSH1 0x0 SWAP2 PUSH2 0x14BD JUMPI JUMPDEST POP SWAP1 PUSH2 0x1487 JUMPI POP PUSH2 0x1465 PUSH2 0x128F JUMP JUMPDEST DUP1 MLOAD SWAP1 DUP2 PUSH2 0x1482 JUMPI DUP3 PUSH4 0x32505749 PUSH1 0xE1 SHL PUSH1 0x0 MSTORE PUSH1 0x4 MSTORE PUSH1 0x24 PUSH1 0x0 REVERT JUMPDEST PUSH1 0x20 ADD REVERT JUMPDEST PUSH1 0x1 PUSH1 0x1 PUSH1 0xE0 SHL SUB NOT AND PUSH4 0x757A42FF PUSH1 0xE1 SHL ADD PUSH2 0x14A9 JUMPI POP CODESIZE DUP1 DUP1 DUP1 DUP1 PUSH2 0x13F2 JUMP JUMPDEST PUSH4 0x32505749 PUSH1 0xE1 SHL PUSH1 0x0 MSTORE PUSH1 0x4 MSTORE PUSH1 0x24 PUSH1 0x0 REVERT JUMPDEST PUSH1 0x20 DUP2 RETURNDATASIZE PUSH1 0x20 GT PUSH2 0x14F8 JUMPI JUMPDEST DUP2 PUSH2 0x14D6 PUSH1 0x20 SWAP4 DUP4 PUSH2 0x101E JUMP JUMPDEST DUP2 ADD SUB SLT PUSH2 0xF70 JUMPI MLOAD SWAP1 PUSH1 0x1 PUSH1 0x1 PUSH1 0xE0 SHL SUB NOT DUP3 AND DUP3 SUB PUSH2 0x1B1 JUMPI POP CODESIZE PUSH2 0x1456 JUMP JUMPDEST RETURNDATASIZE SWAP2 POP PUSH2 0x14C9 JUMP INVALID LOG2 PUSH5 0x6970667358 0x22 SLT KECCAK256 PUSH18 0xDB785E38DA05854ACC8A42736D36F4D2AF3 BLOBHASH 0xE3 BLOBBASEFEE PUSH3 0x7CD063 LOG3 0xD3 0xEA 0x2A MLOAD XOR PUSH5 0x736F6C6343 STOP ADDMOD BYTE STOP CALLER "},"methodIdentifiers":{"FEE_BPS()":"bf333f2c","approve(address,uint256)":"095ea7b3","balanceOf(address)":"70a08231","getApproved(uint256)":"081812fc","invoiceData(uint256)":"ab23b646","isApprovedForAll(address,address)":"e985e9c5","isRepaid(uint256)":"8e1eb411","marketplace()":"abc8c7af","mintInvoice(address,uint256,string,uint256,address)":"44a61236","name()":"06fdde03","owner()":"8da5cb5b","ownerOf(uint256)":"6352211e","renounceOwnership()":"715018a6","repayInvoice(uint256)":"559034df","safeTransferFrom(address,address,uint256)":"42842e0e","safeTransferFrom(address,address,uint256,bytes)":"b88d4fde","setApprovalForAll(address,bool)":"a22cb465","setMarketplace(address)":"73ad6c2d","stakingRewards()":"64b87a70","supportsInterface(bytes4)":"01ffc9a7","symbol()":"95d89b41","tokenURI(uint256)":"c87b56dd","transferFrom(address,address,uint256)":"23b872dd","transferOwnership(address)":"f2fde38b"}}}}}