{"contracts/StakingRewards.sol":{"StakingRewards":{"abi":[{"inputs":[{"internalType":"address","name":"_stakingToken","type":"address"}],"stateMutability":"nonpayable","type":"constructor"},{"inputs":[],"name":"InsufficientBalance","type":"error"},{"inputs":[],"name":"NoStakers","type":"error"},{"inputs":[{"internalType":"address","name":"token","type":"address"}],"name":"SafeERC20FailedOperation","type":"error"},{"inputs":[],"name":"TransferFailed","type":"error"},{"inputs":[],"name":"ZeroAmount","type":"error"},{"anonymous":false,"inputs":[{"indexed":true,"internalType":"address","name":"user","type":"address"},{"indexed":false,"internalType":"uint256","name":"reward","type":"uint256"}],"name":"RewardPaid","type":"event"},{"anonymous":false,"inputs":[{"indexed":false,"internalType":"uint256","name":"amount","type":"uint256"}],"name":"RewardsAdded","type":"event"},{"anonymous":false,"inputs":[{"indexed":true,"internalType":"address","name":"user","type":"address"},{"indexed":false,"internalType":"uint256","name":"amount","type":"uint256"}],"name":"Staked","type":"event"},{"anonymous":false,"inputs":[{"indexed":true,"internalType":"address","name":"user","type":"address"},{"indexed":false,"internalType":"uint256","name":"amount","type":"uint256"}],"name":"Withdrawn","type":"event"},{"inputs":[{"internalType":"address","name":"account","type":"address"}],"name":"earned","outputs":[{"internalType":"uint256","name":"","type":"uint256"}],"stateMutability":"view","type":"function"},{"inputs":[],"name":"exit","outputs":[],"stateMutability":"nonpayable","type":"function"},{"inputs":[],"name":"getReward","outputs":[],"stateMutability":"nonpayable","type":"function"},{"inputs":[],"name":"notifyRewardAmount","outputs":[],"stateMutability":"payable","type":"function"},{"inputs":[{"internalType":"address","name":"","type":"address"}],"name":"pendingRewards","outputs":[{"internalType":"uint256","name":"","type":"uint256"}],"stateMutability":"view","type":"function"},{"inputs":[],"name":"rewardPerToken","outputs":[{"internalType":"uint256","name":"","type":"uint256"}],"stateMutability":"view","type":"function"},{"inputs":[],"name":"rewardPerTokenStored","outputs":[{"internalType":"uint256","name":"","type":"uint256"}],"stateMutability":"view","type":"function"},{"inputs":[{"internalType":"uint256","name":"amount","type":"uint256"}],"name":"stake","outputs":[],"stateMutability":"nonpayable","type":"function"},{"inputs":[{"internalType":"address","name":"","type":"address"}],"name":"stakedBalance","outputs":[{"internalType":"uint256","name":"","type":"uint256"}],"stateMutability":"view","type":"function"},{"inputs":[],"name":"stakingToken","outputs":[{"internalType":"contract IERC20","name":"","type":"address"}],"stateMutability":"view","type":"function"},{"inputs":[],"name":"totalStaked","outputs":[{"internalType":"uint256","name":"","type":"uint256"}],"stateMutability":"view","type":"function"},{"inputs":[{"internalType":"address","name":"","type":"address"}],"name":"userRewardPerTokenPaid","outputs":[{"internalType":"uint256","name":"","type":"uint256"}],"stateMutability":"view","type":"function"},{"inputs":[{"internalType":"uint256","name":"amount","type":"uint256"}],"name":"withdraw","outputs":[],"stateMutability":"nonpayable","type":"function"},{"stateMutability":"payable","type":"receive"}],"evm":{"bytecode":{"linkReferences":{},"object":"60a034606f57601f61087338819003918201601f19168301916001600160401b03831184841017607457808492602094604052833981010312606f57516001600160a01b03811690819003606f576080526040516107e8908161008b8239608051818181610240015261044a0152f35b600080fd5b634e487b7160e01b600052604160045260246000fdfe6080604052600436101561001b575b361561001957600080fd5b005b60003560e01c80628cc262146106115780630c51dde4146105fd5780632e1a7d4d1461052157806331d7a262146104e35780633d18b912146104b7578063602172671461047957806372f702f314610434578063817b1cd2146104165780638b876347146103d8578063a694fc3a1461030b578063cd3daf9d146102ed578063df136d65146102ed5763e9fad8ee0361000e57346102e85760003660031901126102e857336000526001602052604060002054801580156101d5575b5050336101a6575b336000526004602052604060002054806100f557005b33600052600460205260006040812055600080808084335af13d156101a1573d67ffffffffffffffff811161018b576040519061013c601f8201601f191660200183610729565b8152600060203d92013e5b1561017a576040519081527fe2403640ba68fed3a2f88b7557551d1993f84b99bb10ff833f0cf8db0c5e048660203392a2005b6312171d8360e31b60005260046000fd5b634e487b7160e01b600052604160045260246000fd5b610147565b6101af33610648565b3360005260046020526040600020556002543360005260036020526040600020556100df565b336102b9575b6102a8573360005260016020528060406000205410610297578060005403600055336000526001602052604060002081815403905561026460405163a9059cbb60e01b60208201523360248201528260448201526044815261023e606482610729565b7f000000000000000000000000000000000000000000000000000000000000000061074b565b6040519081527f7084f5476618d8e60b11ef0d7d3f06914655adb8793e28ff7f018d4c76d505d560203392a238806100d7565b631e9acf1760e31b60005260046000fd5b631f2a200560e01b60005260046000fd5b6102c233610648565b3360005260046020526040600020556002543360005260036020526040600020556101db565b600080fd5b346102e85760003660031901126102e8576020600254604051908152f35b346102e85760203660031901126102e857600435336103a9575b80156102a8578060005401600055336000526001602052604060002081815401905561037b6040516323b872dd60e01b60208201523360248201523060448201528260648201526064815261023e608482610729565b6040519081527f9e71bc8eea02a63969f509818f2dafb9254532904319f9dbda79b67bd34a5f3d60203392a2005b6103b233610648565b336000526004602052604060002055600254336000526003602052604060002055610325565b346102e85760203660031901126102e8576004356001600160a01b038116908190036102e85760005260036020526020604060002054604051908152f35b346102e85760003660031901126102e8576020600054604051908152f35b346102e85760003660031901126102e8576040517f00000000000000000000000000000000000000000000000000000000000000006001600160a01b03168152602090f35b346102e85760203660031901126102e8576004356001600160a01b038116908190036102e85760005260016020526020604060002054604051908152f35b346102e85760003660031901126102e857336101a657336000526004602052604060002054806100f557005b346102e85760203660031901126102e8576004356001600160a01b038116908190036102e85760005260046020526020604060002054604051908152f35b346102e85760203660031901126102e857600435336105ce575b80156102a857336000526001602052806040600020541061029757806000540360005533600052600160205260406000208181540390556105a060405163a9059cbb60e01b60208201523360248201528260448201526044815261023e606482610729565b6040519081527f7084f5476618d8e60b11ef0d7d3f06914655adb8793e28ff7f018d4c76d505d560203392a2005b6105d733610648565b33600052600460205260406000205560025433600052600360205260406000205561053b565b60003660031901126102e8576100196106ae565b346102e85760203660031901126102e8576004356001600160a01b03811681036102e857610640602091610648565b604051908152f35b6001600160a01b031660008181526001602052604090205490811561069b57670de0b6b3a76400009060025481600052600360205260406000205490039060005260046020526040600020549202040190565b9050600052600460205260406000205490565b34156102a85760005480156106fc57670de0b6b3a7640000340204600254016002557ff8fad42e780bfa5459be3fe691e8ba1aec70342250112139c5771c3fd155f3126020604051348152a1565b507ff8fad42e780bfa5459be3fe691e8ba1aec70342250112139c5771c3fd155f3126020604051348152a1565b90601f8019910116810190811067ffffffffffffffff82111761018b57604052565b906000602091828151910182855af1156107a6576000513d61079d57506001600160a01b0381163b155b61077c5750565b635274afe760e01b60009081526001600160a01b0391909116600452602490fd5b60011415610775565b6040513d6000823e3d90fdfea2646970667358221220f602ea3a39b87e51feaded748b2edd035b91e903f9b56a4a822ccc9fbc32ee6f64736f6c634300081a0033","opcodes":"PUSH1 0xA0 CALLVALUE PUSH1 0x6F JUMPI PUSH1 0x1F PUSH2 0x873 CODESIZE DUP2 SWAP1 SUB SWAP2 DUP3 ADD PUSH1 0x1F NOT AND DUP4 ADD SWAP2 PUSH1 0x1 PUSH1 0x1 PUSH1 0x40 SHL SUB DUP4 GT DUP5 DUP5 LT OR PUSH1 0x74 JUMPI DUP1 DUP5 SWAP3 PUSH1 0x20 SWAP5 PUSH1 0x40 MSTORE DUP4 CODECOPY DUP2 ADD SUB SLT PUSH1 0x6F JUMPI MLOAD PUSH1 0x1 PUSH1 0x1 PUSH1 0xA0 SHL SUB DUP2 AND SWAP1 DUP2 SWAP1 SUB PUSH1 0x6F JUMPI PUSH1 0x80 MSTORE PUSH1 0x40 MLOAD PUSH2 0x7E8 SWAP1 DUP2 PUSH2 0x8B DUP3 CODECOPY PUSH1 0x80 MLOAD DUP2 DUP2 DUP2 PUSH2 0x240 ADD MSTORE PUSH2 0x44A ADD MSTORE RETURN JUMPDEST PUSH1 0x0 DUP1 REVERT JUMPDEST PUSH4 0x4E487B71 PUSH1 0xE0 SHL PUSH1 0x0 MSTORE PUSH1 0x41 PUSH1 0x4 MSTORE PUSH1 0x24 PUSH1 0x0 REVERT INVALID PUSH1 0x80 PUSH1 0x40 MSTORE PUSH1 0x4 CALLDATASIZE LT ISZERO PUSH2 0x1B JUMPI JUMPDEST CALLDATASIZE ISZERO PUSH2 0x19 JUMPI PUSH1 0x0 DUP1 REVERT JUMPDEST STOP JUMPDEST PUSH1 0x0 CALLDATALOAD PUSH1 0xE0 SHR DUP1 PUSH3 0x8CC262 EQ PUSH2 0x611 JUMPI DUP1 PUSH4 0xC51DDE4 EQ PUSH2 0x5FD JUMPI DUP1 PUSH4 0x2E1A7D4D EQ PUSH2 0x521 JUMPI DUP1 PUSH4 0x31D7A262 EQ PUSH2 0x4E3 JUMPI DUP1 PUSH4 0x3D18B912 EQ PUSH2 0x4B7 JUMPI DUP1 PUSH4 0x60217267 EQ PUSH2 0x479 JUMPI DUP1 PUSH4 0x72F702F3 EQ PUSH2 0x434 JUMPI DUP1 PUSH4 0x817B1CD2 EQ PUSH2 0x416 JUMPI DUP1 PUSH4 0x8B876347 EQ PUSH2 0x3D8 JUMPI DUP1 PUSH4 0xA694FC3A EQ PUSH2 0x30B JUMPI DUP1 PUSH4 0xCD3DAF9D EQ PUSH2 0x2ED JUMPI DUP1 PUSH4 0xDF136D65 EQ PUSH2 0x2ED JUMPI PUSH4 0xE9FAD8EE SUB PUSH2 0xE JUMPI CALLVALUE PUSH2 0x2E8 JUMPI PUSH1 0x0 CALLDATASIZE PUSH1 0x3 NOT ADD SLT PUSH2 0x2E8 JUMPI CALLER PUSH1 0x0 MSTORE PUSH1 0x1 PUSH1 0x20 MSTORE PUSH1 0x40 PUSH1 0x0 KECCAK256 SLOAD DUP1 ISZERO DUP1 ISZERO PUSH2 0x1D5 JUMPI JUMPDEST POP POP CALLER PUSH2 0x1A6 JUMPI JUMPDEST CALLER PUSH1 0x0 MSTORE PUSH1 0x4 PUSH1 0x20 MSTORE PUSH1 0x40 PUSH1 0x0 KECCAK256 SLOAD DUP1 PUSH2 0xF5 JUMPI STOP JUMPDEST CALLER PUSH1 0x0 MSTORE PUSH1 0x4 PUSH1 0x20 MSTORE PUSH1 0x0 PUSH1 0x40 DUP2 KECCAK256 SSTORE PUSH1 0x0 DUP1 DUP1 DUP1 DUP5 CALLER GAS CALL RETURNDATASIZE ISZERO PUSH2 0x1A1 JUMPI RETURNDATASIZE PUSH8 0xFFFFFFFFFFFFFFFF DUP2 GT PUSH2 0x18B JUMPI PUSH1 0x40 MLOAD SWAP1 PUSH2 0x13C PUSH1 0x1F DUP3 ADD PUSH1 0x1F NOT AND PUSH1 0x20 ADD DUP4 PUSH2 0x729 JUMP JUMPDEST DUP2 MSTORE PUSH1 0x0 PUSH1 0x20 RETURNDATASIZE SWAP3 ADD RETURNDATACOPY JUMPDEST ISZERO PUSH2 0x17A JUMPI PUSH1 0x40 MLOAD SWAP1 DUP2 MSTORE PUSH32 0xE2403640BA68FED3A2F88B7557551D1993F84B99BB10FF833F0CF8DB0C5E0486 PUSH1 0x20 CALLER SWAP3 LOG2 STOP JUMPDEST PUSH4 0x12171D83 PUSH1 0xE3 SHL PUSH1 0x0 MSTORE PUSH1 0x4 PUSH1 0x0 REVERT JUMPDEST PUSH4 0x4E487B71 PUSH1 0xE0 SHL PUSH1 0x0 MSTORE PUSH1 0x41 PUSH1 0x4 MSTORE PUSH1 0x24 PUSH1 0x0 REVERT JUMPDEST PUSH2 0x147 JUMP JUMPDEST PUSH2 0x1AF CALLER PUSH2 0x648 JUMP JUMPDEST CALLER PUSH1 0x0 MSTORE PUSH1 0x4 PUSH1 0x20 MSTORE PUSH1 0x40 PUSH1 0x0 KECCAK256 SSTORE PUSH1 0x2 SLOAD CALLER PUSH1 0x0 MSTORE PUSH1 0x3 PUSH1 0x20 MSTORE PUSH1 0x40 PUSH1 0x0 KECCAK256 SSTORE PUSH2 0xDF JUMP JUMPDEST CALLER PUSH2 0x2B9 JUMPI JUMPDEST PUSH2 0x2A8 JUMPI CALLER PUSH1 0x0 MSTORE PUSH1 0x1 PUSH1 0x20 MSTORE DUP1 PUSH1 0x40 PUSH1 0x0 KECCAK256 SLOAD LT PUSH2 0x297 JUMPI DUP1 PUSH1 0x0 SLOAD SUB PUSH1 0x0 SSTORE CALLER PUSH1 0x0 MSTORE PUSH1 0x1 PUSH1 0x20 MSTORE PUSH1 0x40 PUSH1 0x0 KECCAK256 DUP2 DUP2 SLOAD SUB SWAP1 SSTORE PUSH2 0x264 PUSH1 0x40 MLOAD PUSH4 0xA9059CBB PUSH1 0xE0 SHL PUSH1 0x20 DUP3 ADD MSTORE CALLER PUSH1 0x24 DUP3 ADD MSTORE DUP3 PUSH1 0x44 DUP3 ADD MSTORE PUSH1 0x44 DUP2 MSTORE PUSH2 0x23E PUSH1 0x64 DUP3 PUSH2 0x729 JUMP JUMPDEST PUSH32 0x0 PUSH2 0x74B JUMP JUMPDEST PUSH1 0x40 MLOAD SWAP1 DUP2 MSTORE PUSH32 0x7084F5476618D8E60B11EF0D7D3F06914655ADB8793E28FF7F018D4C76D505D5 PUSH1 0x20 CALLER SWAP3 LOG2 CODESIZE DUP1 PUSH2 0xD7 JUMP JUMPDEST PUSH4 0x1E9ACF17 PUSH1 0xE3 SHL PUSH1 0x0 MSTORE PUSH1 0x4 PUSH1 0x0 REVERT JUMPDEST PUSH4 0x1F2A2005 PUSH1 0xE0 SHL PUSH1 0x0 MSTORE PUSH1 0x4 PUSH1 0x0 REVERT JUMPDEST PUSH2 0x2C2 CALLER PUSH2 0x648 JUMP JUMPDEST CALLER PUSH1 0x0 MSTORE PUSH1 0x4 PUSH1 0x20 MSTORE PUSH1 0x40 PUSH1 0x0 KECCAK256 SSTORE PUSH1 0x2 SLOAD CALLER PUSH1 0x0 MSTORE PUSH1 0x3 PUSH1 0x20 MSTORE PUSH1 0x40 PUSH1 0x0 KECCAK256 SSTORE PUSH2 0x1DB JUMP JUMPDEST PUSH1 0x0 DUP1 REVERT JUMPDEST CALLVALUE PUSH2 0x2E8 JUMPI PUSH1 0x0 CALLDATASIZE PUSH1 0x3 NOT ADD SLT PUSH2 0x2E8 JUMPI PUSH1 0x20 PUSH1 0x2 SLOAD PUSH1 0x40 MLOAD SWAP1 DUP2 MSTORE RETURN JUMPDEST CALLVALUE PUSH2 0x2E8 JUMPI PUSH1 0x20 CALLDATASIZE PUSH1 0x3 NOT ADD SLT PUSH2 0x2E8 JUMPI PUSH1 0x4 CALLDATALOAD CALLER PUSH2 0x3A9 JUMPI JUMPDEST DUP1 ISZERO PUSH2 0x2A8 JUMPI DUP1 PUSH1 0x0 SLOAD ADD PUSH1 0x0 SSTORE CALLER PUSH1 0x0 MSTORE PUSH1 0x1 PUSH1 0x20 MSTORE PUSH1 0x40 PUSH1 0x0 KECCAK256 DUP2 DUP2 SLOAD ADD SWAP1 SSTORE PUSH2 0x37B PUSH1 0x40 MLOAD PUSH4 0x23B872DD PUSH1 0xE0 SHL PUSH1 0x20 DUP3 ADD MSTORE CALLER PUSH1 0x24 DUP3 ADD MSTORE ADDRESS PUSH1 0x44 DUP3 ADD MSTORE DUP3 PUSH1 0x64 DUP3 ADD MSTORE PUSH1 0x64 DUP2 MSTORE PUSH2 0x23E PUSH1 0x84 DUP3 PUSH2 0x729 JUMP JUMPDEST PUSH1 0x40 MLOAD SWAP1 DUP2 MSTORE PUSH32 0x9E71BC8EEA02A63969F509818F2DAFB9254532904319F9DBDA79B67BD34A5F3D PUSH1 0x20 CALLER SWAP3 LOG2 STOP JUMPDEST PUSH2 0x3B2 CALLER PUSH2 0x648 JUMP JUMPDEST CALLER PUSH1 0x0 MSTORE PUSH1 0x4 PUSH1 0x20 MSTORE PUSH1 0x40 PUSH1 0x0 KECCAK256 SSTORE PUSH1 0x2 SLOAD CALLER PUSH1 0x0 MSTORE PUSH1 0x3 PUSH1 0x20 MSTORE PUSH1 0x40 PUSH1 0x0 KECCAK256 SSTORE PUSH2 0x325 JUMP JUMPDEST CALLVALUE PUSH2 0x2E8 JUMPI PUSH1 0x20 CALLDATASIZE PUSH1 0x3 NOT ADD SLT PUSH2 0x2E8 JUMPI PUSH1 0x4 CALLDATALOAD PUSH1 0x1 PUSH1 0x1 PUSH1 0xA0 SHL SUB DUP2 AND SWAP1 DUP2 SWAP1 SUB PUSH2 0x2E8 JUMPI PUSH1 0x0 MSTORE PUSH1 0x3 PUSH1 0x20 MSTORE PUSH1 0x20 PUSH1 0x40 PUSH1 0x0 KECCAK256 SLOAD PUSH1 0x40 MLOAD SWAP1 DUP2 MSTORE RETURN JUMPDEST CALLVALUE PUSH2 0x2E8 JUMPI PUSH1 0x0 CALLDATASIZE PUSH1 0x3 NOT ADD SLT PUSH2 0x2E8 JUMPI PUSH1 0x20 PUSH1 0x0 SLOAD PUSH1 0x40 MLOAD SWAP1 DUP2 MSTORE RETURN JUMPDEST CALLVALUE PUSH2 0x2E8 JUMPI PUSH1 0x0 CALLDATASIZE PUSH1 0x3 NOT ADD SLT PUSH2 0x2E8 JUMPI PUSH1 0x40 MLOAD PUSH32 0x0 PUSH1 0x1 PUSH1 0x1 PUSH1 0xA0 SHL SUB AND DUP2 MSTORE PUSH1 0x20 SWAP1 RETURN JUMPDEST CALLVALUE PUSH2 0x2E8 JUMPI PUSH1 0x20 CALLDATASIZE PUSH1 0x3 NOT ADD SLT PUSH2 0x2E8 JUMPI PUSH1 0x4 CALLDATALOAD PUSH1 0x1 PUSH1 0x1 PUSH1 0xA0 SHL SUB DUP2 AND SWAP1 DUP2 SWAP1 SUB PUSH2 0x2E8 JUMPI PUSH1 0x0 MSTORE PUSH1 0x1 PUSH1 0x20 MSTORE PUSH1 0x20 PUSH1 0x40 PUSH1 0x0 KECCAK256 SLOAD PUSH1 0x40 MLOAD SWAP1 DUP2 MSTORE RETURN JUMPDEST CALLVALUE PUSH2 0x2E8 JUMPI PUSH1 0x0 CALLDATASIZE PUSH1 0x3 NOT ADD SLT PUSH2 0x2E8 JUMPI CALLER PUSH2 0x1A6 JUMPI CALLER PUSH1 0x0 MSTORE PUSH1 0x4 PUSH1 0x20 MSTORE PUSH1 0x40 PUSH1 0x0 KECCAK256 SLOAD DUP1 PUSH2 0xF5 JUMPI STOP JUMPDEST CALLVALUE PUSH2 0x2E8 JUMPI PUSH1 0x20 CALLDATASIZE PUSH1 0x3 NOT ADD SLT PUSH2 0x2E8 JUMPI PUSH1 0x4 CALLDATALOAD PUSH1 0x1 PUSH1 0x1 PUSH1 0xA0 SHL SUB DUP2 AND SWAP1 DUP2 SWAP1 SUB PUSH2 0x2E8 JUMPI PUSH1 0x0 MSTORE PUSH1 0x4 PUSH1 0x20 MSTORE PUSH1 0x20 PUSH1 0x40 PUSH1 0x0 KECCAK256 SLOAD PUSH1 0x40 MLOAD SWAP1 DUP2 MSTORE RETURN JUMPDEST CALLVALUE PUSH2 0x2E8 JUMPI PUSH1 0x20 CALLDATASIZE PUSH1 0x3 NOT ADD SLT PUSH2 0x2E8 JUMPI PUSH1 0x4 CALLDATALOAD CALLER PUSH2 0x5CE JUMPI JUMPDEST DUP1 ISZERO PUSH2 0x2A8 JUMPI CALLER PUSH1 0x0 MSTORE PUSH1 0x1 PUSH1 0x20 MSTORE DUP1 PUSH1 0x40 PUSH1 0x0 KECCAK256 SLOAD LT PUSH2 0x297 JUMPI DUP1 PUSH1 0x0 SLOAD SUB PUSH1 0x0 SSTORE CALLER PUSH1 0x0 MSTORE PUSH1 0x1 PUSH1 0x20 MSTORE PUSH1 0x40 PUSH1 0x0 KECCAK256 DUP2 DUP2 SLOAD SUB SWAP1 SSTORE PUSH2 0x5A0 PUSH1 0x40 MLOAD PUSH4 0xA9059CBB PUSH1 0xE0 SHL PUSH1 0x20 DUP3 ADD MSTORE CALLER PUSH1 0x24 DUP3 ADD MSTORE DUP3 PUSH1 0x44 DUP3 ADD MSTORE PUSH1 0x44 DUP2 MSTORE PUSH2 0x23E PUSH1 0x64 DUP3 PUSH2 0x729 JUMP JUMPDEST PUSH1 0x40 MLOAD SWAP1 DUP2 MSTORE PUSH32 0x7084F5476618D8E60B11EF0D7D3F06914655ADB8793E28FF7F018D4C76D505D5 PUSH1 0x20 CALLER SWAP3 LOG2 STOP JUMPDEST PUSH2 0x5D7 CALLER PUSH2 0x648 JUMP JUMPDEST CALLER PUSH1 0x0 MSTORE PUSH1 0x4 PUSH1 0x20 MSTORE PUSH1 0x40 PUSH1 0x0 KECCAK256 SSTORE PUSH1 0x2 SLOAD CALLER PUSH1 0x0 MSTORE PUSH1 0x3 PUSH1 0x20 MSTORE PUSH1 0x40 PUSH1 0x0 KECCAK256 SSTORE PUSH2 0x53B JUMP JUMPDEST PUSH1 0x0 CALLDATASIZE PUSH1 0x3 NOT ADD SLT PUSH2 0x2E8 JUMPI PUSH2 0x19 PUSH2 0x6AE JUMP JUMPDEST CALLVALUE PUSH2 0x2E8 JUMPI PUSH1 0x20 CALLDATASIZE PUSH1 0x3 NOT ADD SLT PUSH2 0x2E8 JUMPI PUSH1 0x4 CALLDATALOAD PUSH1 0x1 PUSH1 0x1 PUSH1 0xA0 SHL SUB DUP2 AND DUP2 SUB PUSH2 0x2E8 JUMPI PUSH2 0x640 PUSH1 0x20 SWAP2 PUSH2 0x648 JUMP JUMPDEST PUSH1 0x40 MLOAD SWAP1 DUP2 MSTORE RETURN JUMPDEST PUSH1 0x1 PUSH1 0x1 PUSH1 0xA0 SHL SUB AND PUSH1 0x0 DUP2 DUP2 MSTORE PUSH1 0x1 PUSH1 0x20 MSTORE PUSH1 0x40 SWAP1 KECCAK256 SLOAD SWAP1 DUP2 ISZERO PUSH2 0x69B JUMPI PUSH8 0xDE0B6B3A7640000 SWAP1 PUSH1 0x2 SLOAD DUP2 PUSH1 0x0 MSTORE PUSH1 0x3 PUSH1 0x20 MSTORE PUSH1 0x40 PUSH1 0x0 KECCAK256 SLOAD SWAP1 SUB SWAP1 PUSH1 0x0 MSTORE PUSH1 0x4 PUSH1 0x20 MSTORE PUSH1 0x40 PUSH1 0x0 KECCAK256 SLOAD SWAP3 MUL DIV ADD SWAP1 JUMP JUMPDEST SWAP1 POP PUSH1 0x0 MSTORE PUSH1 0x4 PUSH1 0x20 MSTORE PUSH1 0x40 PUSH1 0x0 KECCAK256 SLOAD SWAP1 JUMP JUMPDEST CALLVALUE ISZERO PUSH2 0x2A8 JUMPI PUSH1 0x0 SLOAD DUP1 ISZERO PUSH2 0x6FC JUMPI PUSH8 0xDE0B6B3A7640000 CALLVALUE MUL DIV PUSH1 0x2 SLOAD ADD PUSH1 0x2 SSTORE PUSH32 0xF8FAD42E780BFA5459BE3FE691E8BA1AEC70342250112139C5771C3FD155F312 PUSH1 0x20 PUSH1 0x40 MLOAD CALLVALUE DUP2 MSTORE LOG1 JUMP JUMPDEST POP PUSH32 0xF8FAD42E780BFA5459BE3FE691E8BA1AEC70342250112139C5771C3FD155F312 PUSH1 0x20 PUSH1 0x40 MLOAD CALLVALUE DUP2 MSTORE LOG1 JUMP JUMPDEST SWAP1 PUSH1 0x1F DUP1 NOT SWAP2 ADD AND DUP2 ADD SWAP1 DUP2 LT PUSH8 0xFFFFFFFFFFFFFFFF DUP3 GT OR PUSH2 0x18B JUMPI PUSH1 0x40 MSTORE JUMP JUMPDEST SWAP1 PUSH1 0x0 PUSH1 0x20 SWAP2 DUP3 DUP2 MLOAD SWAP2 ADD DUP3 DUP6 GAS CALL ISZERO PUSH2 0x7A6 JUMPI PUSH1 0x0 MLOAD RETURNDATASIZE PUSH2 0x79D JUMPI POP PUSH1 0x1 PUSH1 0x1 PUSH1 0xA0 SHL SUB DUP2 AND EXTCODESIZE ISZERO JUMPDEST PUSH2 0x77C JUMPI POP JUMP JUMPDEST PUSH4 0x5274AFE7 PUSH1 0xE0 SHL PUSH1 0x0 SWAP1 DUP2 MSTORE PUSH1 0x1 PUSH1 0x1 PUSH1 0xA0 SHL SUB SWAP2 SWAP1 SWAP2 AND PUSH1 0x4 MSTORE PUSH1 0x24 SWAP1 REVERT JUMPDEST PUSH1 0x1 EQ ISZERO PUSH2 0x775 JUMP JUMPDEST PUSH1 0x40 MLOAD RETURNDATASIZE PUSH1 0x0 DUP3 RETURNDATACOPY RETURNDATASIZE SWAP1 REVERT INVALID LOG2 PUSH5 0x6970667358 0x22 SLT KECCAK256 0xF6 MUL 0xEA GASPRICE CODECOPY 0xB8 PUSH31 0x51FEADED748B2EDD035B91E903F9B56A4A822CCC9FBC32EE6F64736F6C6343 STOP ADDMOD BYTE STOP CALLER "},"methodIdentifiers":{"earned(address)":"008cc262","exit()":"e9fad8ee","getReward()":"3d18b912","notifyRewardAmount()":"0c51dde4","pendingRewards(address)":"31d7a262","rewardPerToken()":"cd3daf9d","rewardPerTokenStored()":"df136d65","stake(uint256)":"a694fc3a","stakedBalance(address)":"60217267","stakingToken()":"72f702f3","totalStaked()":"817b1cd2","userRewardPerTokenPaid(address)":"8b876347","withdraw(uint256)":"2e1a7d4d"}}}}}