{"contracts/InvoiceMarketplace.sol":{"InvoiceMarketplace":{"abi":[{"inputs":[],"name":"ReentrancyGuard","type":"error"},{"anonymous":false,"inputs":[{"indexed":true,"internalType":"uint256","name":"id","type":"uint256"},{"indexed":true,"internalType":"address","name":"investor","type":"address"},{"indexed":false,"internalType":"uint256","name":"amount","type":"uint256"},{"indexed":false,"internalType":"uint256","name":"fundedAmount","type":"uint256"}],"name":"Invested","type":"event"},{"anonymous":false,"inputs":[{"indexed":true,"internalType":"uint256","name":"id","type":"uint256"},{"indexed":true,"internalType":"address","name":"buyer","type":"address"}],"name":"InvoiceConfirmed","type":"event"},{"anonymous":false,"inputs":[{"indexed":true,"internalType":"uint256","name":"id","type":"uint256"},{"indexed":true,"internalType":"address","name":"msme","type":"address"},{"indexed":true,"internalType":"address","name":"buyer","type":"address"},{"indexed":false,"internalType":"uint256","name":"amount","type":"uint256"},{"indexed":false,"internalType":"uint256","name":"dueDate","type":"uint256"},{"indexed":false,"internalType":"uint256","name":"discountRate","type":"uint256"},{"indexed":false,"internalType":"string","name":"metadataURI","type":"string"},{"indexed":false,"internalType":"address","name":"exclusiveInvestor","type":"address"}],"name":"InvoiceCreated","type":"event"},{"anonymous":false,"inputs":[{"indexed":true,"internalType":"uint256","name":"id","type":"uint256"}],"name":"InvoiceDefaulted","type":"event"},{"anonymous":false,"inputs":[{"indexed":true,"internalType":"uint256","name":"id","type":"uint256"}],"name":"InvoiceFunded","type":"event"},{"anonymous":false,"inputs":[{"indexed":true,"internalType":"uint256","name":"id","type":"uint256"},{"indexed":false,"internalType":"uint256","name":"totalRepaid","type":"uint256"}],"name":"InvoiceRepaid","type":"event"},{"anonymous":false,"inputs":[{"indexed":true,"internalType":"uint256","name":"id","type":"uint256"},{"indexed":true,"internalType":"address","name":"investor","type":"address"},{"indexed":false,"internalType":"uint256","name":"amount","type":"uint256"}],"name":"RefundClaimed","type":"event"},{"anonymous":false,"inputs":[{"indexed":true,"internalType":"uint256","name":"id","type":"uint256"},{"indexed":true,"internalType":"address","name":"investor","type":"address"},{"indexed":false,"internalType":"uint256","name":"amount","type":"uint256"}],"name":"RepaymentClaimed","type":"event"},{"inputs":[{"internalType":"uint256","name":"id","type":"uint256"}],"name":"claimRefund","outputs":[],"stateMutability":"nonpayable","type":"function"},{"inputs":[{"internalType":"uint256","name":"id","type":"uint256"}],"name":"claimRepayment","outputs":[],"stateMutability":"nonpayable","type":"function"},{"inputs":[{"internalType":"uint256","name":"id","type":"uint256"}],"name":"confirmInvoice","outputs":[],"stateMutability":"nonpayable","type":"function"},{"inputs":[{"internalType":"address","name":"buyer","type":"address"},{"internalType":"uint256","name":"amount","type":"uint256"},{"internalType":"uint256","name":"dueDate","type":"uint256"},{"internalType":"uint256","name":"discountRate","type":"uint256"},{"internalType":"string","name":"metadataURI","type":"string"},{"internalType":"address","name":"exclusiveInvestor","type":"address"}],"name":"createInvoice","outputs":[{"internalType":"uint256","name":"","type":"uint256"}],"stateMutability":"nonpayable","type":"function"},{"inputs":[{"internalType":"uint256","name":"id","type":"uint256"}],"name":"getInvestors","outputs":[{"internalType":"address[]","name":"","type":"address[]"}],"stateMutability":"view","type":"function"},{"inputs":[{"internalType":"address","name":"_invoiceNFT","type":"address"}],"name":"initialize","outputs":[],"stateMutability":"nonpayable","type":"function"},{"inputs":[{"internalType":"uint256","name":"id","type":"uint256"}],"name":"investInInvoice","outputs":[],"stateMutability":"payable","type":"function"},{"inputs":[{"internalType":"uint256","name":"","type":"uint256"},{"internalType":"address","name":"","type":"address"}],"name":"investments","outputs":[{"internalType":"uint256","name":"","type":"uint256"}],"stateMutability":"view","type":"function"},{"inputs":[],"name":"invoiceNFT","outputs":[{"internalType":"contract InvoiceNFT","name":"","type":"address"}],"stateMutability":"view","type":"function"},{"inputs":[{"internalType":"uint256","name":"","type":"uint256"}],"name":"invoices","outputs":[{"internalType":"uint256","name":"id","type":"uint256"},{"internalType":"address","name":"msme","type":"address"},{"internalType":"address","name":"buyer","type":"address"},{"internalType":"uint256","name":"amount","type":"uint256"},{"internalType":"uint256","name":"fundedAmount","type":"uint256"},{"internalType":"uint256","name":"dueDate","type":"uint256"},{"internalType":"uint256","name":"discountRate","type":"uint256"},{"internalType":"enum InvoiceMarketplace.Status","name":"status","type":"uint8"},{"internalType":"string","name":"metadataURI","type":"string"},{"internalType":"address","name":"exclusiveInvestor","type":"address"}],"stateMutability":"view","type":"function"},{"inputs":[{"internalType":"uint256","name":"id","type":"uint256"}],"name":"markDefaulted","outputs":[],"stateMutability":"nonpayable","type":"function"},{"inputs":[{"internalType":"uint256","name":"id","type":"uint256"}],"name":"markRepaid","outputs":[],"stateMutability":"nonpayable","type":"function"},{"inputs":[],"name":"nextInvoiceId","outputs":[{"internalType":"uint256","name":"","type":"uint256"}],"stateMutability":"view","type":"function"},{"inputs":[],"name":"owner","outputs":[{"internalType":"address","name":"","type":"address"}],"stateMutability":"view","type":"function"},{"inputs":[{"internalType":"address","name":"_invoiceNFT","type":"address"}],"name":"setInvoiceNFT","outputs":[],"stateMutability":"nonpayable","type":"function"},{"inputs":[{"internalType":"uint256","name":"","type":"uint256"}],"name":"totalRepaid","outputs":[{"internalType":"uint256","name":"","type":"uint256"}],"stateMutability":"view","type":"function"},{"inputs":[{"internalType":"uint256","name":"","type":"uint256"}],"name":"totalRepaidForInvestors","outputs":[{"internalType":"uint256","name":"","type":"uint256"}],"stateMutability":"view","type":"function"},{"inputs":[{"internalType":"address","name":"newOwner","type":"address"}],"name":"transferOwnership","outputs":[],"stateMutability":"nonpayable","type":"function"},{"stateMutability":"payable","type":"receive"}],"evm":{"bytecode":{"linkReferences":{},"object":"60808060405234601557611991908161001b8239f35b600080fdfe6080604052600436101561001b575b361561001957600080fd5b005b6000803560e01c8062d878e8146115085780631139de55146114285780633b97f0da146113fe5780634bb6f06d146113d55780634e6d1405146112425780635b7baf641461107a5780635e78670e14610f455780635eaeafc914610f1b5780636ff2a95314610efe5780637321645014610df057806382c104171461088d5780638da5cb5b14610864578063b11b32d214610811578063b354983d14610461578063c4d66de8146103be578063c701c994146101cc578063f2fde38b146101475763f939f496146100ec575061000e565b3461014457602036600319011261014457610105611782565b61011a60018060a01b03600654163314611923565b6001600160a01b031661012e8115156118ec565b6001600160601b0360a01b600754161760075580f35b80fd5b503461014457602036600319011261014457610161611782565b60065490610179336001600160a01b03841614611923565b6001600160a01b031690811561019a576001600160a01b0319161760065580f35b60405162461bcd60e51b815260206004820152600a6024820152694f776e6572207a65726f60b01b6044820152606490fd5b503461014457602036600319011261014457600435808252600160205260ff60076040842001541660068110156103aa5761020890151561179d565b808252600160205260408220600781019060ff82541660068110156103965760030361035c57600754604051638e1eb41160e01b81526004810185905290602090829060249082906001600160a01b03165afa908115610351578591610312575b50156102dc576102b86020917fe57c83410ab16d767654351928d1ea4b894f6c93e04e4e6408bd7d301dcd82db93600460ff1982541617905561271060066003830154920154820204906118a8565b8385526004825280604086205583855260058252806040862055604051908152a280f35b60405162461bcd60e51b815260206004820152600e60248201526d139195081b9bdd081c995c185a5960921b6044820152606490fd5b90506020813d602011610349575b8161032d6020938361174a565b81010312610345575180151581036103455738610269565b8480fd5b3d9150610320565b6040513d87823e3d90fd5b60405162461bcd60e51b8152602060048201526012602482015271125b9d9bda58d9481b9bdd08199d5b99195960721b6044820152606490fd5b634e487b7160e01b85526021600452602485fd5b634e487b7160e01b83526021600452602483fd5b5034610144576020366003190112610144576103d8611782565b6007549060ff8260a01c16610426576001600160a01b03166103fb8115156118ec565b600680546001600160a01b031916331790556001600160a81b031990911617600160a01b1760075580f35b60405162461bcd60e51b8152602060048201526013602482015272105b1c9958591e481a5b9a5d1a585b1a5e9959606a1b6044820152606490fd5b5060203660031901126101445760043590818152600160205260ff60076040832001541660068110156107fd5761049990151561179d565b60075460ff8160a81c166107ee5760ff60a81b1916600160a81b176007908155828252600160205260408220908101805490939060ff1660068110156107da5760026104e5911461186a565b600582015442116107a35760098201546001600160a01b031680610752575b50341561071d57600482019361051b3486546118a8565b60038401908154106106ea57828552600360209081526040808720336000908152925290205415610674575b849583865260036020526040862060018060a01b03331660005260205260406000206105743482546118a8565b90556105813482546118a8565b809155604051348152816020820152847f271dec505c61c970bdd791a963b7162d814edf6292f40c4beef2af1e48eea1e860403393a38154146105d0575b6007805460ff60a81b191690558480f35b849384938493600360ff198254161790557f9548b965d6392cc4c2ca0c182c4a0fcc35a558cb167fba8bfea4b501eee20f5d8480a2600101549054906001600160a01b03165af161061f61183a565b501561062f5780388080806105bf565b60405162461bcd60e51b815260206004820152601760248201527f5472616e7366657220746f204d534d45206661696c65640000000000000000006044820152606490fd5b828552600260205260408520958654680100000000000000008110156106d657600181018089558110156106c257968652602086209690960180546001600160a01b03191633179055610547565b634e487b7160e01b87526032600452602487fd5b634e487b7160e01b87526041600452602487fd5b60405162461bcd60e51b815260206004820152600b60248201526a4f76657266756e64696e6760a81b6044820152606490fd5b60405162461bcd60e51b815260206004820152600d60248201526c139bc81d985b1d59481cd95b9d609a1b6044820152606490fd5b330361075e5738610504565b60405162461bcd60e51b815260206004820152601f60248201527f4f6e6c79206578636c757369766520696e766573746f7220616c6c6f776564006044820152606490fd5b60405162461bcd60e51b815260206004820152600f60248201526e125b9d9bda58d948195e1c1a5c9959608a1b6044820152606490fd5b634e487b7160e01b84526021600452602484fd5b6345f5ce8b60e11b8252600482fd5b634e487b7160e01b82526021600452602482fd5b503461014457604036600319011261014457602435906001600160a01b03821682036101445760409060043581526003602052209060018060a01b03166000526020526020604060002054604051908152f35b50346101445780600319360112610144576006546040516001600160a01b039091168152602090f35b50346101445760c0366003190112610144576108a7611782565b906084359067ffffffffffffffff821161014457366023830112156101445767ffffffffffffffff826004013511610144573660248360040135840101116101445760a435916001600160a01b0383168303610dec576001600160a01b03841615610db65760243515610d7c57426044351115610d3757815492600184018411610d2357600184018355604051610140810181811067ffffffffffffffff821117610d0f5760405260018501815260208101903382526040810160018060a01b03881681526060820160243581526080830187815260a08401604435815260c0850191606435835260e0860193600185526109a58a6004013561181e565b956109b3604051978861174a565b60048b013580885260248c0160208901378b60208c6004013589010152610100880196875260018060a01b038a1661012089015260018d018c52600160205260408c209888518a5560018060a01b0390511660018a019060018060a01b03166001600160601b0360a01b82541617905560018060a01b03905116600289019060018060a01b03166001600160601b0360a01b8254161790555160038801555160048701555160058601555160068501556007840190516006811015610cfb5760ff801983541691161790555180519067ffffffffffffffff82116106d657610a9e6008850154611710565b601f8111610cb3575b50602090601f8311600114610c44576009939291889183610c39575b50508160011b916000199060031b1c19161760088401555b61012060018060a01b039101511691019060018060a01b03166001600160601b0360a01b82541617905560405160243581526044356020820152606435604082015260a06060820152610b3960a082018460040135602486016118cb565b6001600160a01b03928316608083015291861691339160018701917f06d2a84410abbe5194267c8b6d1554aa8292266b54988855383145617c8795b8919081900390a46007546001600160a01b03169081610b9d575b602084600160405191018152f35b813b15610c35578291610be79183604051809881958294632253091b60e11b845233600485015260018b01602485015260a0604485015260a48401906024816004013591016118cb565b60243560648401526001600160a01b03909116608483015203925af1928315610c2857602093610c18575b80610b8f565b81610c229161174a565b38610c12565b50604051903d90823e3d90fd5b8280fd5b015190503880610ac3565b9060088501885280882091885b601f1985168110610c9b575091839160019360099695601f19811610610c82575b505050811b016008840155610adb565b015160001960f88460031b161c19169055388080610c72565b91926020600181928685015181550194019201610c51565b60088501885260208820601f840160051c81019160208510610cf1575b601f0160051c01905b818110610ce65750610aa7565b888155600101610cd9565b9091508190610cd0565b634e487b7160e01b88526021600452602488fd5b634e487b7160e01b85526041600452602485fd5b634e487b7160e01b83526011600452602483fd5b60405162461bcd60e51b815260206004820152601a60248201527f4475652064617465206d75737420626520696e206675747572650000000000006044820152606490fd5b60405162461bcd60e51b81526020600482015260126024820152710416d6f756e74206d757374206265203e20360741b6044820152606490fd5b60405162461bcd60e51b815260206004820152600e60248201526d109d5e595c881c995c5d5a5c995960921b6044820152606490fd5b5080fd5b503461014457602036600319011261014457600435808252600160205260ff60076040842001541660068110156103aa57610e2c90151561179d565b808252600160205260408220600781019060ff825416600681101561039657600303610ec85760050154421115610e8f57805460ff191660051790557fdad3d8c24c5e0a13ffb0c0fa573014d3c4ba10367d5cba3549fa7c9ac18b93a48280a280f35b60405162461bcd60e51b81526020600482015260116024820152704e6f74207061737420647565206461746560781b6044820152606490fd5b60405162461bcd60e51b815260206004820152600e60248201526d10d85b9b9bdd08191959985d5b1d60921b6044820152606490fd5b503461014457806003193601126101445760209054604051908152f35b50346101445760203660031901126101445760406020916004358152600583522054604051908152f35b503461014457602036600319011261014457600435808252600160205260ff60076040842001541660068110156103aa57610f8190151561179d565b808252600160205260408220600201546001600160a01b0316330361103f578082526001602052604082206007810160ff81541660068110156103965760010361100657805460ff1916600290811790915501546001600160a01b0316907f5ad1f83fed722a2f75a27916c297196db29e3d208589663ebe1fef5ab880ad508380a380f35b60405162461bcd60e51b81526020600482015260116024820152702bb0b4ba34b733903337b910213abcb2b960791b6044820152606490fd5b60405162461bcd60e51b815260206004820152601360248201527213db9b1e48189d5e595c8818d85b8818d85b1b606a1b6044820152606490fd5b503461014457602036600319011261014457600435808252600160205260ff60076040842001541660068110156103aa576110b690151561179d565b60075460ff8160a81c166112335760ff60a81b1916600160a81b1760079081558183526001602052604083209081015490919060ff1660068110156107da576002611101911461186a565b60058201544211156111f857808352600360209081526040808520338652909152832054916004906111348415156117e2565b8285526003602090815260408087203388529091528520859055018054838103919082116111e457558280808085335af161116d61183a565b50156111af576040519182527ff3f402280ef0a7905e124aa621b65eaeb2725c343e8b36d398ed78c29daf285c60203393a36007805460ff60a81b1916905580f35b60405162461bcd60e51b815260206004820152600d60248201526c1499599d5b990819985a5b1959609a1b6044820152606490fd5b634e487b7160e01b85526011600452602485fd5b60405162461bcd60e51b8152602060048201526013602482015272125b9d9bda58d9481b9bdd08195e1c1a5c9959606a1b6044820152606490fd5b6345f5ce8b60e11b8352600483fd5b503461014457602036600319011261014457600435815260016020526040812080549160018060a01b036001830154169060018060a01b036002840154166003840154600485015460058601549060068701549260ff600789015416946008890198604051998a898254926112b684611710565b80845293600181169081156113b35750600114611373575b506112db9250038b61174a565b600960018060a01b0391015416976040519a8b5260208b015260408a01526060890152608088015260a087015260c086015260068110156107fd5791849260e084015261014061010084015283519182610140850152805b83811061135a57506101608095508385010152610120830152601f80199101168101030190f35b6020868201810151610160898401015287955001611333565b8b525060208a2090918a915b8183106113985750509060206112db92820101386112ce565b80602092948385600194549201015201910190918c9261137f565b9050602092506112db94915060ff191682840152151560051b820101386112ce565b50346101445780600319360112610144576007546040516001600160a01b039091168152602090f35b50346101445760203660031901126101445760406020916004358152600483522054604051908152f35b503461014457602036600319011261014457600435808252600160205260ff60076040842001541660068110156103aa5761146490151561179d565b8152600260205260408120604051908160208254918281520190819285526020852090855b8181106114e9575050508261149f91038361174a565b604051928392602084019060208552518091526040840192915b8181106114c7575050500390f35b82516001600160a01b03168452859450602093840193909201916001016114b9565b82546001600160a01b0316845260209093019260019283019201611489565b503461014457602036600319011261014457600435808252600160205260ff60076040842001541660068110156103aa5761154490151561179d565b60075460ff8160a81c166112335760ff60a81b1916600160a81b1760079081558183526001602052604083209081015460ff1660068110156107da576004036116d657818352600360209081526040808520338652909152832054906115ab8215156117e2565b828452600560205260408420549182156116a65780830292830403611692576003015490811561167e57049080835260036020526040832060018060a01b03331684526020528260408120558280808085335af161160761183a565b5015611649576040519182527fce6a22bbf33075e9460462739ab01c9d01afbe41eb32f517824218012b2e656e60203393a36007805460ff60a81b1916905580f35b60405162461bcd60e51b815260206004820152600d60248201526c14185e5bdd5d0819985a5b1959609a1b6044820152606490fd5b634e487b7160e01b84526012600452602484fd5b634e487b7160e01b84526011600452602484fd5b60405162461bcd60e51b81526020600482015260086024820152674e6f2066756e647360c01b6044820152606490fd5b60405162461bcd60e51b8152602060048201526012602482015271125b9d9bda58d9481b9bdd081c995c185a5960721b6044820152606490fd5b90600182811c92168015611740575b602083101461172a57565b634e487b7160e01b600052602260045260246000fd5b91607f169161171f565b90601f8019910116810190811067ffffffffffffffff82111761176c57604052565b634e487b7160e01b600052604160045260246000fd5b600435906001600160a01b038216820361179857565b600080fd5b156117a457565b60405162461bcd60e51b8152602060048201526016602482015275125b9d9bda58d948191bd95cc81b9bdd08195e1a5cdd60521b6044820152606490fd5b156117e957565b60405162461bcd60e51b815260206004820152600d60248201526c139bc81a5b9d995cdd1b595b9d609a1b6044820152606490fd5b67ffffffffffffffff811161176c57601f01601f191660200190565b3d15611865573d9061184b8261181e565b91611859604051938461174a565b82523d6000602084013e565b606090565b1561187157565b60405162461bcd60e51b815260206004820152600f60248201526e4e6f742066756e6472616973696e6760881b6044820152606490fd5b919082018092116118b557565b634e487b7160e01b600052601160045260246000fd5b908060209392818452848401376000828201840152601f01601f1916010190565b156118f357565b60405162461bcd60e51b81526020600482015260086024820152674e4654207a65726f60c01b6044820152606490fd5b1561192a57565b60405162461bcd60e51b81526020600482015260096024820152682737ba1037bbb732b960b91b6044820152606490fdfea26469706673582212200cfa8ba13ba93ae4fa1852781f41f0f24ff646df5589fc2eafd5b5c8aef63e5064736f6c634300081a0033","opcodes":"PUSH1 0x80 DUP1 PUSH1 0x40 MSTORE CALLVALUE PUSH1 0x15 JUMPI PUSH2 0x1991 SWAP1 DUP2 PUSH2 0x1B DUP3 CODECOPY RETURN JUMPDEST PUSH1 0x0 DUP1 REVERT INVALID PUSH1 0x80 PUSH1 0x40 MSTORE PUSH1 0x4 CALLDATASIZE LT ISZERO PUSH2 0x1B JUMPI JUMPDEST CALLDATASIZE ISZERO PUSH2 0x19 JUMPI PUSH1 0x0 DUP1 REVERT JUMPDEST STOP JUMPDEST PUSH1 0x0 DUP1 CALLDATALOAD PUSH1 0xE0 SHR DUP1 PUSH3 0xD878E8 EQ PUSH2 0x1508 JUMPI DUP1 PUSH4 0x1139DE55 EQ PUSH2 0x1428 JUMPI DUP1 PUSH4 0x3B97F0DA EQ PUSH2 0x13FE JUMPI DUP1 PUSH4 0x4BB6F06D EQ PUSH2 0x13D5 JUMPI DUP1 PUSH4 0x4E6D1405 EQ PUSH2 0x1242 JUMPI DUP1 PUSH4 0x5B7BAF64 EQ PUSH2 0x107A JUMPI DUP1 PUSH4 0x5E78670E EQ PUSH2 0xF45 JUMPI DUP1 PUSH4 0x5EAEAFC9 EQ PUSH2 0xF1B JUMPI DUP1 PUSH4 0x6FF2A953 EQ PUSH2 0xEFE JUMPI DUP1 PUSH4 0x73216450 EQ PUSH2 0xDF0 JUMPI DUP1 PUSH4 0x82C10417 EQ PUSH2 0x88D JUMPI DUP1 PUSH4 0x8DA5CB5B EQ PUSH2 0x864 JUMPI DUP1 PUSH4 0xB11B32D2 EQ PUSH2 0x811 JUMPI DUP1 PUSH4 0xB354983D EQ PUSH2 0x461 JUMPI DUP1 PUSH4 0xC4D66DE8 EQ PUSH2 0x3BE JUMPI DUP1 PUSH4 0xC701C994 EQ PUSH2 0x1CC JUMPI DUP1 PUSH4 0xF2FDE38B EQ PUSH2 0x147 JUMPI PUSH4 0xF939F496 EQ PUSH2 0xEC JUMPI POP PUSH2 0xE JUMP JUMPDEST CALLVALUE PUSH2 0x144 JUMPI PUSH1 0x20 CALLDATASIZE PUSH1 0x3 NOT ADD SLT PUSH2 0x144 JUMPI PUSH2 0x105 PUSH2 0x1782 JUMP JUMPDEST PUSH2 0x11A PUSH1 0x1 DUP1 PUSH1 0xA0 SHL SUB PUSH1 0x6 SLOAD AND CALLER EQ PUSH2 0x1923 JUMP JUMPDEST PUSH1 0x1 PUSH1 0x1 PUSH1 0xA0 SHL SUB AND PUSH2 0x12E DUP2 ISZERO ISZERO PUSH2 0x18EC JUMP JUMPDEST PUSH1 0x1 PUSH1 0x1 PUSH1 0x60 SHL SUB PUSH1 0xA0 SHL PUSH1 0x7 SLOAD AND OR PUSH1 0x7 SSTORE DUP1 RETURN JUMPDEST DUP1 REVERT JUMPDEST POP CALLVALUE PUSH2 0x144 JUMPI PUSH1 0x20 CALLDATASIZE PUSH1 0x3 NOT ADD SLT PUSH2 0x144 JUMPI PUSH2 0x161 PUSH2 0x1782 JUMP JUMPDEST PUSH1 0x6 SLOAD SWAP1 PUSH2 0x179 CALLER PUSH1 0x1 PUSH1 0x1 PUSH1 0xA0 SHL SUB DUP5 AND EQ PUSH2 0x1923 JUMP JUMPDEST PUSH1 0x1 PUSH1 0x1 PUSH1 0xA0 SHL SUB AND SWAP1 DUP2 ISZERO PUSH2 0x19A JUMPI PUSH1 0x1 PUSH1 0x1 PUSH1 0xA0 SHL SUB NOT AND OR PUSH1 0x6 SSTORE DUP1 RETURN JUMPDEST PUSH1 0x40 MLOAD PUSH3 0x461BCD PUSH1 0xE5 SHL DUP2 MSTORE PUSH1 0x20 PUSH1 0x4 DUP3 ADD MSTORE PUSH1 0xA PUSH1 0x24 DUP3 ADD MSTORE PUSH10 0x4F776E6572207A65726F PUSH1 0xB0 SHL PUSH1 0x44 DUP3 ADD MSTORE PUSH1 0x64 SWAP1 REVERT JUMPDEST POP CALLVALUE PUSH2 0x144 JUMPI PUSH1 0x20 CALLDATASIZE PUSH1 0x3 NOT ADD SLT PUSH2 0x144 JUMPI PUSH1 0x4 CALLDATALOAD DUP1 DUP3 MSTORE PUSH1 0x1 PUSH1 0x20 MSTORE PUSH1 0xFF PUSH1 0x7 PUSH1 0x40 DUP5 KECCAK256 ADD SLOAD AND PUSH1 0x6 DUP2 LT ISZERO PUSH2 0x3AA JUMPI PUSH2 0x208 SWAP1 ISZERO ISZERO PUSH2 0x179D JUMP JUMPDEST DUP1 DUP3 MSTORE PUSH1 0x1 PUSH1 0x20 MSTORE PUSH1 0x40 DUP3 KECCAK256 PUSH1 0x7 DUP2 ADD SWAP1 PUSH1 0xFF DUP3 SLOAD AND PUSH1 0x6 DUP2 LT ISZERO PUSH2 0x396 JUMPI PUSH1 0x3 SUB PUSH2 0x35C JUMPI PUSH1 0x7 SLOAD PUSH1 0x40 MLOAD PUSH4 0x8E1EB411 PUSH1 0xE0 SHL DUP2 MSTORE PUSH1 0x4 DUP2 ADD DUP6 SWAP1 MSTORE SWAP1 PUSH1 0x20 SWAP1 DUP3 SWAP1 PUSH1 0x24 SWAP1 DUP3 SWAP1 PUSH1 0x1 PUSH1 0x1 PUSH1 0xA0 SHL SUB AND GAS STATICCALL SWAP1 DUP2 ISZERO PUSH2 0x351 JUMPI DUP6 SWAP2 PUSH2 0x312 JUMPI JUMPDEST POP ISZERO PUSH2 0x2DC JUMPI PUSH2 0x2B8 PUSH1 0x20 SWAP2 PUSH32 0xE57C83410AB16D767654351928D1EA4B894F6C93E04E4E6408BD7D301DCD82DB SWAP4 PUSH1 0x4 PUSH1 0xFF NOT DUP3 SLOAD AND OR SWAP1 SSTORE PUSH2 0x2710 PUSH1 0x6 PUSH1 0x3 DUP4 ADD SLOAD SWAP3 ADD SLOAD DUP3 MUL DIV SWAP1 PUSH2 0x18A8 JUMP JUMPDEST DUP4 DUP6 MSTORE PUSH1 0x4 DUP3 MSTORE DUP1 PUSH1 0x40 DUP7 KECCAK256 SSTORE DUP4 DUP6 MSTORE PUSH1 0x5 DUP3 MSTORE DUP1 PUSH1 0x40 DUP7 KECCAK256 SSTORE PUSH1 0x40 MLOAD SWAP1 DUP2 MSTORE LOG2 DUP1 RETURN JUMPDEST PUSH1 0x40 MLOAD PUSH3 0x461BCD PUSH1 0xE5 SHL DUP2 MSTORE PUSH1 0x20 PUSH1 0x4 DUP3 ADD MSTORE PUSH1 0xE PUSH1 0x24 DUP3 ADD MSTORE PUSH14 0x139195081B9BDD081C995C185A59 PUSH1 0x92 SHL PUSH1 0x44 DUP3 ADD MSTORE PUSH1 0x64 SWAP1 REVERT JUMPDEST SWAP1 POP PUSH1 0x20 DUP2 RETURNDATASIZE PUSH1 0x20 GT PUSH2 0x349 JUMPI JUMPDEST DUP2 PUSH2 0x32D PUSH1 0x20 SWAP4 DUP4 PUSH2 0x174A JUMP JUMPDEST DUP2 ADD SUB SLT PUSH2 0x345 JUMPI MLOAD DUP1 ISZERO ISZERO DUP2 SUB PUSH2 0x345 JUMPI CODESIZE PUSH2 0x269 JUMP JUMPDEST DUP5 DUP1 REVERT JUMPDEST RETURNDATASIZE SWAP2 POP PUSH2 0x320 JUMP JUMPDEST PUSH1 0x40 MLOAD RETURNDATASIZE DUP8 DUP3 RETURNDATACOPY RETURNDATASIZE SWAP1 REVERT JUMPDEST PUSH1 0x40 MLOAD PUSH3 0x461BCD PUSH1 0xE5 SHL DUP2 MSTORE PUSH1 0x20 PUSH1 0x4 DUP3 ADD MSTORE PUSH1 0x12 PUSH1 0x24 DUP3 ADD MSTORE PUSH18 0x125B9D9BDA58D9481B9BDD08199D5B991959 PUSH1 0x72 SHL PUSH1 0x44 DUP3 ADD MSTORE PUSH1 0x64 SWAP1 REVERT JUMPDEST PUSH4 0x4E487B71 PUSH1 0xE0 SHL DUP6 MSTORE PUSH1 0x21 PUSH1 0x4 MSTORE PUSH1 0x24 DUP6 REVERT JUMPDEST PUSH4 0x4E487B71 PUSH1 0xE0 SHL DUP4 MSTORE PUSH1 0x21 PUSH1 0x4 MSTORE PUSH1 0x24 DUP4 REVERT JUMPDEST POP CALLVALUE PUSH2 0x144 JUMPI PUSH1 0x20 CALLDATASIZE PUSH1 0x3 NOT ADD SLT PUSH2 0x144 JUMPI PUSH2 0x3D8 PUSH2 0x1782 JUMP JUMPDEST PUSH1 0x7 SLOAD SWAP1 PUSH1 0xFF DUP3 PUSH1 0xA0 SHR AND PUSH2 0x426 JUMPI PUSH1 0x1 PUSH1 0x1 PUSH1 0xA0 SHL SUB AND PUSH2 0x3FB DUP2 ISZERO ISZERO PUSH2 0x18EC JUMP JUMPDEST PUSH1 0x6 DUP1 SLOAD PUSH1 0x1 PUSH1 0x1 PUSH1 0xA0 SHL SUB NOT AND CALLER OR SWAP1 SSTORE PUSH1 0x1 PUSH1 0x1 PUSH1 0xA8 SHL SUB NOT SWAP1 SWAP2 AND OR PUSH1 0x1 PUSH1 0xA0 SHL OR PUSH1 0x7 SSTORE DUP1 RETURN JUMPDEST PUSH1 0x40 MLOAD PUSH3 0x461BCD PUSH1 0xE5 SHL DUP2 MSTORE PUSH1 0x20 PUSH1 0x4 DUP3 ADD MSTORE PUSH1 0x13 PUSH1 0x24 DUP3 ADD MSTORE PUSH19 0x105B1C9958591E481A5B9A5D1A585B1A5E9959 PUSH1 0x6A SHL PUSH1 0x44 DUP3 ADD MSTORE PUSH1 0x64 SWAP1 REVERT JUMPDEST POP PUSH1 0x20 CALLDATASIZE PUSH1 0x3 NOT ADD SLT PUSH2 0x144 JUMPI PUSH1 0x4 CALLDATALOAD SWAP1 DUP2 DUP2 MSTORE PUSH1 0x1 PUSH1 0x20 MSTORE PUSH1 0xFF PUSH1 0x7 PUSH1 0x40 DUP4 KECCAK256 ADD SLOAD AND PUSH1 0x6 DUP2 LT ISZERO PUSH2 0x7FD JUMPI PUSH2 0x499 SWAP1 ISZERO ISZERO PUSH2 0x179D JUMP JUMPDEST PUSH1 0x7 SLOAD PUSH1 0xFF DUP2 PUSH1 0xA8 SHR AND PUSH2 0x7EE JUMPI PUSH1 0xFF PUSH1 0xA8 SHL NOT AND PUSH1 0x1 PUSH1 0xA8 SHL OR PUSH1 0x7 SWAP1 DUP2 SSTORE DUP3 DUP3 MSTORE PUSH1 0x1 PUSH1 0x20 MSTORE PUSH1 0x40 DUP3 KECCAK256 SWAP1 DUP2 ADD DUP1 SLOAD SWAP1 SWAP4 SWAP1 PUSH1 0xFF AND PUSH1 0x6 DUP2 LT ISZERO PUSH2 0x7DA JUMPI PUSH1 0x2 PUSH2 0x4E5 SWAP2 EQ PUSH2 0x186A JUMP JUMPDEST PUSH1 0x5 DUP3 ADD SLOAD TIMESTAMP GT PUSH2 0x7A3 JUMPI PUSH1 0x9 DUP3 ADD SLOAD PUSH1 0x1 PUSH1 0x1 PUSH1 0xA0 SHL SUB AND DUP1 PUSH2 0x752 JUMPI JUMPDEST POP CALLVALUE ISZERO PUSH2 0x71D JUMPI PUSH1 0x4 DUP3 ADD SWAP4 PUSH2 0x51B CALLVALUE DUP7 SLOAD PUSH2 0x18A8 JUMP JUMPDEST PUSH1 0x3 DUP5 ADD SWAP1 DUP2 SLOAD LT PUSH2 0x6EA JUMPI DUP3 DUP6 MSTORE PUSH1 0x3 PUSH1 0x20 SWAP1 DUP2 MSTORE PUSH1 0x40 DUP1 DUP8 KECCAK256 CALLER PUSH1 0x0 SWAP1 DUP2 MSTORE SWAP3 MSTORE SWAP1 KECCAK256 SLOAD ISZERO PUSH2 0x674 JUMPI JUMPDEST DUP5 SWAP6 DUP4 DUP7 MSTORE PUSH1 0x3 PUSH1 0x20 MSTORE PUSH1 0x40 DUP7 KECCAK256 PUSH1 0x1 DUP1 PUSH1 0xA0 SHL SUB CALLER AND PUSH1 0x0 MSTORE PUSH1 0x20 MSTORE PUSH1 0x40 PUSH1 0x0 KECCAK256 PUSH2 0x574 CALLVALUE DUP3 SLOAD PUSH2 0x18A8 JUMP JUMPDEST SWAP1 SSTORE PUSH2 0x581 CALLVALUE DUP3 SLOAD PUSH2 0x18A8 JUMP JUMPDEST DUP1 SWAP2 SSTORE PUSH1 0x40 MLOAD CALLVALUE DUP2 MSTORE DUP2 PUSH1 0x20 DUP3 ADD MSTORE DUP5 PUSH32 0x271DEC505C61C970BDD791A963B7162D814EDF6292F40C4BEEF2AF1E48EEA1E8 PUSH1 0x40 CALLER SWAP4 LOG3 DUP2 SLOAD EQ PUSH2 0x5D0 JUMPI JUMPDEST PUSH1 0x7 DUP1 SLOAD PUSH1 0xFF PUSH1 0xA8 SHL NOT AND SWAP1 SSTORE DUP5 DUP1 RETURN JUMPDEST DUP5 SWAP4 DUP5 SWAP4 DUP5 SWAP4 PUSH1 0x3 PUSH1 0xFF NOT DUP3 SLOAD AND OR SWAP1 SSTORE PUSH32 0x9548B965D6392CC4C2CA0C182C4A0FCC35A558CB167FBA8BFEA4B501EEE20F5D DUP5 DUP1 LOG2 PUSH1 0x1 ADD SLOAD SWAP1 SLOAD SWAP1 PUSH1 0x1 PUSH1 0x1 PUSH1 0xA0 SHL SUB AND GAS CALL PUSH2 0x61F PUSH2 0x183A JUMP JUMPDEST POP ISZERO PUSH2 0x62F JUMPI DUP1 CODESIZE DUP1 DUP1 DUP1 PUSH2 0x5BF JUMP JUMPDEST PUSH1 0x40 MLOAD PUSH3 0x461BCD PUSH1 0xE5 SHL DUP2 MSTORE PUSH1 0x20 PUSH1 0x4 DUP3 ADD MSTORE PUSH1 0x17 PUSH1 0x24 DUP3 ADD MSTORE PUSH32 0x5472616E7366657220746F204D534D45206661696C6564000000000000000000 PUSH1 0x44 DUP3 ADD MSTORE PUSH1 0x64 SWAP1 REVERT JUMPDEST DUP3 DUP6 MSTORE PUSH1 0x2 PUSH1 0x20 MSTORE PUSH1 0x40 DUP6 KECCAK256 SWAP6 DUP7 SLOAD PUSH9 0x10000000000000000 DUP2 LT ISZERO PUSH2 0x6D6 JUMPI PUSH1 0x1 DUP2 ADD DUP1 DUP10 SSTORE DUP2 LT ISZERO PUSH2 0x6C2 JUMPI SWAP7 DUP7 MSTORE PUSH1 0x20 DUP7 KECCAK256 SWAP7 SWAP1 SWAP7 ADD DUP1 SLOAD PUSH1 0x1 PUSH1 0x1 PUSH1 0xA0 SHL SUB NOT AND CALLER OR SWAP1 SSTORE PUSH2 0x547 JUMP JUMPDEST PUSH4 0x4E487B71 PUSH1 0xE0 SHL DUP8 MSTORE PUSH1 0x32 PUSH1 0x4 MSTORE PUSH1 0x24 DUP8 REVERT JUMPDEST PUSH4 0x4E487B71 PUSH1 0xE0 SHL DUP8 MSTORE PUSH1 0x41 PUSH1 0x4 MSTORE PUSH1 0x24 DUP8 REVERT JUMPDEST PUSH1 0x40 MLOAD PUSH3 0x461BCD PUSH1 0xE5 SHL DUP2 MSTORE PUSH1 0x20 PUSH1 0x4 DUP3 ADD MSTORE PUSH1 0xB PUSH1 0x24 DUP3 ADD MSTORE PUSH11 0x4F76657266756E64696E67 PUSH1 0xA8 SHL PUSH1 0x44 DUP3 ADD MSTORE PUSH1 0x64 SWAP1 REVERT JUMPDEST PUSH1 0x40 MLOAD PUSH3 0x461BCD PUSH1 0xE5 SHL DUP2 MSTORE PUSH1 0x20 PUSH1 0x4 DUP3 ADD MSTORE PUSH1 0xD PUSH1 0x24 DUP3 ADD MSTORE PUSH13 0x139BC81D985B1D59481CD95B9D PUSH1 0x9A SHL PUSH1 0x44 DUP3 ADD MSTORE PUSH1 0x64 SWAP1 REVERT JUMPDEST CALLER SUB PUSH2 0x75E JUMPI CODESIZE PUSH2 0x504 JUMP JUMPDEST PUSH1 0x40 MLOAD PUSH3 0x461BCD PUSH1 0xE5 SHL DUP2 MSTORE PUSH1 0x20 PUSH1 0x4 DUP3 ADD MSTORE PUSH1 0x1F PUSH1 0x24 DUP3 ADD MSTORE PUSH32 0x4F6E6C79206578636C757369766520696E766573746F7220616C6C6F77656400 PUSH1 0x44 DUP3 ADD MSTORE PUSH1 0x64 SWAP1 REVERT JUMPDEST PUSH1 0x40 MLOAD PUSH3 0x461BCD PUSH1 0xE5 SHL DUP2 MSTORE PUSH1 0x20 PUSH1 0x4 DUP3 ADD MSTORE PUSH1 0xF PUSH1 0x24 DUP3 ADD MSTORE PUSH15 0x125B9D9BDA58D948195E1C1A5C9959 PUSH1 0x8A SHL PUSH1 0x44 DUP3 ADD MSTORE PUSH1 0x64 SWAP1 REVERT JUMPDEST PUSH4 0x4E487B71 PUSH1 0xE0 SHL DUP5 MSTORE PUSH1 0x21 PUSH1 0x4 MSTORE PUSH1 0x24 DUP5 REVERT JUMPDEST PUSH4 0x45F5CE8B PUSH1 0xE1 SHL DUP3 MSTORE PUSH1 0x4 DUP3 REVERT JUMPDEST PUSH4 0x4E487B71 PUSH1 0xE0 SHL DUP3 MSTORE PUSH1 0x21 PUSH1 0x4 MSTORE PUSH1 0x24 DUP3 REVERT JUMPDEST POP CALLVALUE PUSH2 0x144 JUMPI PUSH1 0x40 CALLDATASIZE PUSH1 0x3 NOT ADD SLT PUSH2 0x144 JUMPI PUSH1 0x24 CALLDATALOAD SWAP1 PUSH1 0x1 PUSH1 0x1 PUSH1 0xA0 SHL SUB DUP3 AND DUP3 SUB PUSH2 0x144 JUMPI PUSH1 0x40 SWAP1 PUSH1 0x4 CALLDATALOAD DUP2 MSTORE PUSH1 0x3 PUSH1 0x20 MSTORE KECCAK256 SWAP1 PUSH1 0x1 DUP1 PUSH1 0xA0 SHL SUB AND PUSH1 0x0 MSTORE PUSH1 0x20 MSTORE PUSH1 0x20 PUSH1 0x40 PUSH1 0x0 KECCAK256 SLOAD PUSH1 0x40 MLOAD SWAP1 DUP2 MSTORE RETURN JUMPDEST POP CALLVALUE PUSH2 0x144 JUMPI DUP1 PUSH1 0x3 NOT CALLDATASIZE ADD SLT PUSH2 0x144 JUMPI PUSH1 0x6 SLOAD PUSH1 0x40 MLOAD PUSH1 0x1 PUSH1 0x1 PUSH1 0xA0 SHL SUB SWAP1 SWAP2 AND DUP2 MSTORE PUSH1 0x20 SWAP1 RETURN JUMPDEST POP CALLVALUE PUSH2 0x144 JUMPI PUSH1 0xC0 CALLDATASIZE PUSH1 0x3 NOT ADD SLT PUSH2 0x144 JUMPI PUSH2 0x8A7 PUSH2 0x1782 JUMP JUMPDEST SWAP1 PUSH1 0x84 CALLDATALOAD SWAP1 PUSH8 0xFFFFFFFFFFFFFFFF DUP3 GT PUSH2 0x144 JUMPI CALLDATASIZE PUSH1 0x23 DUP4 ADD SLT ISZERO PUSH2 0x144 JUMPI PUSH8 0xFFFFFFFFFFFFFFFF DUP3 PUSH1 0x4 ADD CALLDATALOAD GT PUSH2 0x144 JUMPI CALLDATASIZE PUSH1 0x24 DUP4 PUSH1 0x4 ADD CALLDATALOAD DUP5 ADD ADD GT PUSH2 0x144 JUMPI PUSH1 0xA4 CALLDATALOAD SWAP2 PUSH1 0x1 PUSH1 0x1 PUSH1 0xA0 SHL SUB DUP4 AND DUP4 SUB PUSH2 0xDEC JUMPI PUSH1 0x1 PUSH1 0x1 PUSH1 0xA0 SHL SUB DUP5 AND ISZERO PUSH2 0xDB6 JUMPI PUSH1 0x24 CALLDATALOAD ISZERO PUSH2 0xD7C JUMPI TIMESTAMP PUSH1 0x44 CALLDATALOAD GT ISZERO PUSH2 0xD37 JUMPI DUP2 SLOAD SWAP3 PUSH1 0x1 DUP5 ADD DUP5 GT PUSH2 0xD23 JUMPI PUSH1 0x1 DUP5 ADD DUP4 SSTORE PUSH1 0x40 MLOAD PUSH2 0x140 DUP2 ADD DUP2 DUP2 LT PUSH8 0xFFFFFFFFFFFFFFFF DUP3 GT OR PUSH2 0xD0F JUMPI PUSH1 0x40 MSTORE PUSH1 0x1 DUP6 ADD DUP2 MSTORE PUSH1 0x20 DUP2 ADD SWAP1 CALLER DUP3 MSTORE PUSH1 0x40 DUP2 ADD PUSH1 0x1 DUP1 PUSH1 0xA0 SHL SUB DUP9 AND DUP2 MSTORE PUSH1 0x60 DUP3 ADD PUSH1 0x24 CALLDATALOAD DUP2 MSTORE PUSH1 0x80 DUP4 ADD DUP8 DUP2 MSTORE PUSH1 0xA0 DUP5 ADD PUSH1 0x44 CALLDATALOAD DUP2 MSTORE PUSH1 0xC0 DUP6 ADD SWAP2 PUSH1 0x64 CALLDATALOAD DUP4 MSTORE PUSH1 0xE0 DUP7 ADD SWAP4 PUSH1 0x1 DUP6 MSTORE PUSH2 0x9A5 DUP11 PUSH1 0x4 ADD CALLDATALOAD PUSH2 0x181E JUMP JUMPDEST SWAP6 PUSH2 0x9B3 PUSH1 0x40 MLOAD SWAP8 DUP9 PUSH2 0x174A JUMP JUMPDEST PUSH1 0x4 DUP12 ADD CALLDATALOAD DUP1 DUP9 MSTORE PUSH1 0x24 DUP13 ADD PUSH1 0x20 DUP10 ADD CALLDATACOPY DUP12 PUSH1 0x20 DUP13 PUSH1 0x4 ADD CALLDATALOAD DUP10 ADD ADD MSTORE PUSH2 0x100 DUP9 ADD SWAP7 DUP8 MSTORE PUSH1 0x1 DUP1 PUSH1 0xA0 SHL SUB DUP11 AND PUSH2 0x120 DUP10 ADD MSTORE PUSH1 0x1 DUP14 ADD DUP13 MSTORE PUSH1 0x1 PUSH1 0x20 MSTORE PUSH1 0x40 DUP13 KECCAK256 SWAP9 DUP9 MLOAD DUP11 SSTORE PUSH1 0x1 DUP1 PUSH1 0xA0 SHL SUB SWAP1 MLOAD AND PUSH1 0x1 DUP11 ADD SWAP1 PUSH1 0x1 DUP1 PUSH1 0xA0 SHL SUB AND PUSH1 0x1 PUSH1 0x1 PUSH1 0x60 SHL SUB PUSH1 0xA0 SHL DUP3 SLOAD AND OR SWAP1 SSTORE PUSH1 0x1 DUP1 PUSH1 0xA0 SHL SUB SWAP1 MLOAD AND PUSH1 0x2 DUP10 ADD SWAP1 PUSH1 0x1 DUP1 PUSH1 0xA0 SHL SUB AND PUSH1 0x1 PUSH1 0x1 PUSH1 0x60 SHL SUB PUSH1 0xA0 SHL DUP3 SLOAD AND OR SWAP1 SSTORE MLOAD PUSH1 0x3 DUP9 ADD SSTORE MLOAD PUSH1 0x4 DUP8 ADD SSTORE MLOAD PUSH1 0x5 DUP7 ADD SSTORE MLOAD PUSH1 0x6 DUP6 ADD SSTORE PUSH1 0x7 DUP5 ADD SWAP1 MLOAD PUSH1 0x6 DUP2 LT ISZERO PUSH2 0xCFB JUMPI PUSH1 0xFF DUP1 NOT DUP4 SLOAD AND SWAP2 AND OR SWAP1 SSTORE MLOAD DUP1 MLOAD SWAP1 PUSH8 0xFFFFFFFFFFFFFFFF DUP3 GT PUSH2 0x6D6 JUMPI PUSH2 0xA9E PUSH1 0x8 DUP6 ADD SLOAD PUSH2 0x1710 JUMP JUMPDEST PUSH1 0x1F DUP2 GT PUSH2 0xCB3 JUMPI JUMPDEST POP PUSH1 0x20 SWAP1 PUSH1 0x1F DUP4 GT PUSH1 0x1 EQ PUSH2 0xC44 JUMPI PUSH1 0x9 SWAP4 SWAP3 SWAP2 DUP9 SWAP2 DUP4 PUSH2 0xC39 JUMPI JUMPDEST POP POP DUP2 PUSH1 0x1 SHL SWAP2 PUSH1 0x0 NOT SWAP1 PUSH1 0x3 SHL SHR NOT AND OR PUSH1 0x8 DUP5 ADD SSTORE JUMPDEST PUSH2 0x120 PUSH1 0x1 DUP1 PUSH1 0xA0 SHL SUB SWAP2 ADD MLOAD AND SWAP2 ADD SWAP1 PUSH1 0x1 DUP1 PUSH1 0xA0 SHL SUB AND PUSH1 0x1 PUSH1 0x1 PUSH1 0x60 SHL SUB PUSH1 0xA0 SHL DUP3 SLOAD AND OR SWAP1 SSTORE PUSH1 0x40 MLOAD PUSH1 0x24 CALLDATALOAD DUP2 MSTORE PUSH1 0x44 CALLDATALOAD PUSH1 0x20 DUP3 ADD MSTORE PUSH1 0x64 CALLDATALOAD PUSH1 0x40 DUP3 ADD MSTORE PUSH1 0xA0 PUSH1 0x60 DUP3 ADD MSTORE PUSH2 0xB39 PUSH1 0xA0 DUP3 ADD DUP5 PUSH1 0x4 ADD CALLDATALOAD PUSH1 0x24 DUP7 ADD PUSH2 0x18CB JUMP JUMPDEST PUSH1 0x1 PUSH1 0x1 PUSH1 0xA0 SHL SUB SWAP3 DUP4 AND PUSH1 0x80 DUP4 ADD MSTORE SWAP2 DUP7 AND SWAP2 CALLER SWAP2 PUSH1 0x1 DUP8 ADD SWAP2 PUSH32 0x6D2A84410ABBE5194267C8B6D1554AA8292266B54988855383145617C8795B8 SWAP2 SWAP1 DUP2 SWAP1 SUB SWAP1 LOG4 PUSH1 0x7 SLOAD PUSH1 0x1 PUSH1 0x1 PUSH1 0xA0 SHL SUB AND SWAP1 DUP2 PUSH2 0xB9D JUMPI JUMPDEST PUSH1 0x20 DUP5 PUSH1 0x1 PUSH1 0x40 MLOAD SWAP2 ADD DUP2 MSTORE RETURN JUMPDEST DUP2 EXTCODESIZE ISZERO PUSH2 0xC35 JUMPI DUP3 SWAP2 PUSH2 0xBE7 SWAP2 DUP4 PUSH1 0x40 MLOAD DUP1 SWAP9 DUP2 SWAP6 DUP3 SWAP5 PUSH4 0x2253091B PUSH1 0xE1 SHL DUP5 MSTORE CALLER PUSH1 0x4 DUP6 ADD MSTORE PUSH1 0x1 DUP12 ADD PUSH1 0x24 DUP6 ADD MSTORE PUSH1 0xA0 PUSH1 0x44 DUP6 ADD MSTORE PUSH1 0xA4 DUP5 ADD SWAP1 PUSH1 0x24 DUP2 PUSH1 0x4 ADD CALLDATALOAD SWAP2 ADD PUSH2 0x18CB JUMP JUMPDEST PUSH1 0x24 CALLDATALOAD PUSH1 0x64 DUP5 ADD MSTORE PUSH1 0x1 PUSH1 0x1 PUSH1 0xA0 SHL SUB SWAP1 SWAP2 AND PUSH1 0x84 DUP4 ADD MSTORE SUB SWAP3 GAS CALL SWAP3 DUP4 ISZERO PUSH2 0xC28 JUMPI PUSH1 0x20 SWAP4 PUSH2 0xC18 JUMPI JUMPDEST DUP1 PUSH2 0xB8F JUMP JUMPDEST DUP2 PUSH2 0xC22 SWAP2 PUSH2 0x174A JUMP JUMPDEST CODESIZE PUSH2 0xC12 JUMP JUMPDEST POP PUSH1 0x40 MLOAD SWAP1 RETURNDATASIZE SWAP1 DUP3 RETURNDATACOPY RETURNDATASIZE SWAP1 REVERT JUMPDEST DUP3 DUP1 REVERT JUMPDEST ADD MLOAD SWAP1 POP CODESIZE DUP1 PUSH2 0xAC3 JUMP JUMPDEST SWAP1 PUSH1 0x8 DUP6 ADD DUP9 MSTORE DUP1 DUP9 KECCAK256 SWAP2 DUP9 JUMPDEST PUSH1 0x1F NOT DUP6 AND DUP2 LT PUSH2 0xC9B JUMPI POP SWAP2 DUP4 SWAP2 PUSH1 0x1 SWAP4 PUSH1 0x9 SWAP7 SWAP6 PUSH1 0x1F NOT DUP2 AND LT PUSH2 0xC82 JUMPI JUMPDEST POP POP POP DUP2 SHL ADD PUSH1 0x8 DUP5 ADD SSTORE PUSH2 0xADB JUMP JUMPDEST ADD MLOAD PUSH1 0x0 NOT PUSH1 0xF8 DUP5 PUSH1 0x3 SHL AND SHR NOT AND SWAP1 SSTORE CODESIZE DUP1 DUP1 PUSH2 0xC72 JUMP JUMPDEST SWAP2 SWAP3 PUSH1 0x20 PUSH1 0x1 DUP2 SWAP3 DUP7 DUP6 ADD MLOAD DUP2 SSTORE ADD SWAP5 ADD SWAP3 ADD PUSH2 0xC51 JUMP JUMPDEST PUSH1 0x8 DUP6 ADD DUP9 MSTORE PUSH1 0x20 DUP9 KECCAK256 PUSH1 0x1F DUP5 ADD PUSH1 0x5 SHR DUP2 ADD SWAP2 PUSH1 0x20 DUP6 LT PUSH2 0xCF1 JUMPI JUMPDEST PUSH1 0x1F ADD PUSH1 0x5 SHR ADD SWAP1 JUMPDEST DUP2 DUP2 LT PUSH2 0xCE6 JUMPI POP PUSH2 0xAA7 JUMP JUMPDEST DUP9 DUP2 SSTORE PUSH1 0x1 ADD PUSH2 0xCD9 JUMP JUMPDEST SWAP1 SWAP2 POP DUP2 SWAP1 PUSH2 0xCD0 JUMP JUMPDEST PUSH4 0x4E487B71 PUSH1 0xE0 SHL DUP9 MSTORE PUSH1 0x21 PUSH1 0x4 MSTORE PUSH1 0x24 DUP9 REVERT JUMPDEST PUSH4 0x4E487B71 PUSH1 0xE0 SHL DUP6 MSTORE PUSH1 0x41 PUSH1 0x4 MSTORE PUSH1 0x24 DUP6 REVERT JUMPDEST PUSH4 0x4E487B71 PUSH1 0xE0 SHL DUP4 MSTORE PUSH1 0x11 PUSH1 0x4 MSTORE PUSH1 0x24 DUP4 REVERT JUMPDEST PUSH1 0x40 MLOAD PUSH3 0x461BCD PUSH1 0xE5 SHL DUP2 MSTORE PUSH1 0x20 PUSH1 0x4 DUP3 ADD MSTORE PUSH1 0x1A PUSH1 0x24 DUP3 ADD MSTORE PUSH32 0x4475652064617465206D75737420626520696E20667574757265000000000000 PUSH1 0x44 DUP3 ADD MSTORE PUSH1 0x64 SWAP1 REVERT JUMPDEST PUSH1 0x40 MLOAD PUSH3 0x461BCD PUSH1 0xE5 SHL DUP2 MSTORE PUSH1 0x20 PUSH1 0x4 DUP3 ADD MSTORE PUSH1 0x12 PUSH1 0x24 DUP3 ADD MSTORE PUSH18 0x416D6F756E74206D757374206265203E203 PUSH1 0x74 SHL PUSH1 0x44 DUP3 ADD MSTORE PUSH1 0x64 SWAP1 REVERT JUMPDEST PUSH1 0x40 MLOAD PUSH3 0x461BCD PUSH1 0xE5 SHL DUP2 MSTORE PUSH1 0x20 PUSH1 0x4 DUP3 ADD MSTORE PUSH1 0xE PUSH1 0x24 DUP3 ADD MSTORE PUSH14 0x109D5E595C881C995C5D5A5C9959 PUSH1 0x92 SHL PUSH1 0x44 DUP3 ADD MSTORE PUSH1 0x64 SWAP1 REVERT JUMPDEST POP DUP1 REVERT JUMPDEST POP CALLVALUE PUSH2 0x144 JUMPI PUSH1 0x20 CALLDATASIZE PUSH1 0x3 NOT ADD SLT PUSH2 0x144 JUMPI PUSH1 0x4 CALLDATALOAD DUP1 DUP3 MSTORE PUSH1 0x1 PUSH1 0x20 MSTORE PUSH1 0xFF PUSH1 0x7 PUSH1 0x40 DUP5 KECCAK256 ADD SLOAD AND PUSH1 0x6 DUP2 LT ISZERO PUSH2 0x3AA JUMPI PUSH2 0xE2C SWAP1 ISZERO ISZERO PUSH2 0x179D JUMP JUMPDEST DUP1 DUP3 MSTORE PUSH1 0x1 PUSH1 0x20 MSTORE PUSH1 0x40 DUP3 KECCAK256 PUSH1 0x7 DUP2 ADD SWAP1 PUSH1 0xFF DUP3 SLOAD AND PUSH1 0x6 DUP2 LT ISZERO PUSH2 0x396 JUMPI PUSH1 0x3 SUB PUSH2 0xEC8 JUMPI PUSH1 0x5 ADD SLOAD TIMESTAMP GT ISZERO PUSH2 0xE8F JUMPI DUP1 SLOAD PUSH1 0xFF NOT AND PUSH1 0x5 OR SWAP1 SSTORE PUSH32 0xDAD3D8C24C5E0A13FFB0C0FA573014D3C4BA10367D5CBA3549FA7C9AC18B93A4 DUP3 DUP1 LOG2 DUP1 RETURN JUMPDEST PUSH1 0x40 MLOAD PUSH3 0x461BCD PUSH1 0xE5 SHL DUP2 MSTORE PUSH1 0x20 PUSH1 0x4 DUP3 ADD MSTORE PUSH1 0x11 PUSH1 0x24 DUP3 ADD MSTORE PUSH17 0x4E6F742070617374206475652064617465 PUSH1 0x78 SHL PUSH1 0x44 DUP3 ADD MSTORE PUSH1 0x64 SWAP1 REVERT JUMPDEST PUSH1 0x40 MLOAD PUSH3 0x461BCD PUSH1 0xE5 SHL DUP2 MSTORE PUSH1 0x20 PUSH1 0x4 DUP3 ADD MSTORE PUSH1 0xE PUSH1 0x24 DUP3 ADD MSTORE PUSH14 0x10D85B9B9BDD08191959985D5B1D PUSH1 0x92 SHL PUSH1 0x44 DUP3 ADD MSTORE PUSH1 0x64 SWAP1 REVERT JUMPDEST POP CALLVALUE PUSH2 0x144 JUMPI DUP1 PUSH1 0x3 NOT CALLDATASIZE ADD SLT PUSH2 0x144 JUMPI PUSH1 0x20 SWAP1 SLOAD PUSH1 0x40 MLOAD SWAP1 DUP2 MSTORE RETURN JUMPDEST POP CALLVALUE PUSH2 0x144 JUMPI PUSH1 0x20 CALLDATASIZE PUSH1 0x3 NOT ADD SLT PUSH2 0x144 JUMPI PUSH1 0x40 PUSH1 0x20 SWAP2 PUSH1 0x4 CALLDATALOAD DUP2 MSTORE PUSH1 0x5 DUP4 MSTORE KECCAK256 SLOAD PUSH1 0x40 MLOAD SWAP1 DUP2 MSTORE RETURN JUMPDEST POP CALLVALUE PUSH2 0x144 JUMPI PUSH1 0x20 CALLDATASIZE PUSH1 0x3 NOT ADD SLT PUSH2 0x144 JUMPI PUSH1 0x4 CALLDATALOAD DUP1 DUP3 MSTORE PUSH1 0x1 PUSH1 0x20 MSTORE PUSH1 0xFF PUSH1 0x7 PUSH1 0x40 DUP5 KECCAK256 ADD SLOAD AND PUSH1 0x6 DUP2 LT ISZERO PUSH2 0x3AA JUMPI PUSH2 0xF81 SWAP1 ISZERO ISZERO PUSH2 0x179D JUMP JUMPDEST DUP1 DUP3 MSTORE PUSH1 0x1 PUSH1 0x20 MSTORE PUSH1 0x40 DUP3 KECCAK256 PUSH1 0x2 ADD SLOAD PUSH1 0x1 PUSH1 0x1 PUSH1 0xA0 SHL SUB AND CALLER SUB PUSH2 0x103F JUMPI DUP1 DUP3 MSTORE PUSH1 0x1 PUSH1 0x20 MSTORE PUSH1 0x40 DUP3 KECCAK256 PUSH1 0x7 DUP2 ADD PUSH1 0xFF DUP2 SLOAD AND PUSH1 0x6 DUP2 LT ISZERO PUSH2 0x396 JUMPI PUSH1 0x1 SUB PUSH2 0x1006 JUMPI DUP1 SLOAD PUSH1 0xFF NOT AND PUSH1 0x2 SWAP1 DUP2 OR SWAP1 SWAP2 SSTORE ADD SLOAD PUSH1 0x1 PUSH1 0x1 PUSH1 0xA0 SHL SUB AND SWAP1 PUSH32 0x5AD1F83FED722A2F75A27916C297196DB29E3D208589663EBE1FEF5AB880AD50 DUP4 DUP1 LOG3 DUP1 RETURN JUMPDEST PUSH1 0x40 MLOAD PUSH3 0x461BCD PUSH1 0xE5 SHL DUP2 MSTORE PUSH1 0x20 PUSH1 0x4 DUP3 ADD MSTORE PUSH1 0x11 PUSH1 0x24 DUP3 ADD MSTORE PUSH17 0x2BB0B4BA34B733903337B910213ABCB2B9 PUSH1 0x79 SHL PUSH1 0x44 DUP3 ADD MSTORE PUSH1 0x64 SWAP1 REVERT JUMPDEST PUSH1 0x40 MLOAD PUSH3 0x461BCD PUSH1 0xE5 SHL DUP2 MSTORE PUSH1 0x20 PUSH1 0x4 DUP3 ADD MSTORE PUSH1 0x13 PUSH1 0x24 DUP3 ADD MSTORE PUSH19 0x13DB9B1E48189D5E595C8818D85B8818D85B1B PUSH1 0x6A SHL PUSH1 0x44 DUP3 ADD MSTORE PUSH1 0x64 SWAP1 REVERT JUMPDEST POP CALLVALUE PUSH2 0x144 JUMPI PUSH1 0x20 CALLDATASIZE PUSH1 0x3 NOT ADD SLT PUSH2 0x144 JUMPI PUSH1 0x4 CALLDATALOAD DUP1 DUP3 MSTORE PUSH1 0x1 PUSH1 0x20 MSTORE PUSH1 0xFF PUSH1 0x7 PUSH1 0x40 DUP5 KECCAK256 ADD SLOAD AND PUSH1 0x6 DUP2 LT ISZERO PUSH2 0x3AA JUMPI PUSH2 0x10B6 SWAP1 ISZERO ISZERO PUSH2 0x179D JUMP JUMPDEST PUSH1 0x7 SLOAD PUSH1 0xFF DUP2 PUSH1 0xA8 SHR AND PUSH2 0x1233 JUMPI PUSH1 0xFF PUSH1 0xA8 SHL NOT AND PUSH1 0x1 PUSH1 0xA8 SHL OR PUSH1 0x7 SWAP1 DUP2 SSTORE DUP2 DUP4 MSTORE PUSH1 0x1 PUSH1 0x20 MSTORE PUSH1 0x40 DUP4 KECCAK256 SWAP1 DUP2 ADD SLOAD SWAP1 SWAP2 SWAP1 PUSH1 0xFF AND PUSH1 0x6 DUP2 LT ISZERO PUSH2 0x7DA JUMPI PUSH1 0x2 PUSH2 0x1101 SWAP2 EQ PUSH2 0x186A JUMP JUMPDEST PUSH1 0x5 DUP3 ADD SLOAD TIMESTAMP GT ISZERO PUSH2 0x11F8 JUMPI DUP1 DUP4 MSTORE PUSH1 0x3 PUSH1 0x20 SWAP1 DUP2 MSTORE PUSH1 0x40 DUP1 DUP6 KECCAK256 CALLER DUP7 MSTORE SWAP1 SWAP2 MSTORE DUP4 KECCAK256 SLOAD SWAP2 PUSH1 0x4 SWAP1 PUSH2 0x1134 DUP5 ISZERO ISZERO PUSH2 0x17E2 JUMP JUMPDEST DUP3 DUP6 MSTORE PUSH1 0x3 PUSH1 0x20 SWAP1 DUP2 MSTORE PUSH1 0x40 DUP1 DUP8 KECCAK256 CALLER DUP9 MSTORE SWAP1 SWAP2 MSTORE DUP6 KECCAK256 DUP6 SWAP1 SSTORE ADD DUP1 SLOAD DUP4 DUP2 SUB SWAP2 SWAP1 DUP3 GT PUSH2 0x11E4 JUMPI SSTORE DUP3 DUP1 DUP1 DUP1 DUP6 CALLER GAS CALL PUSH2 0x116D PUSH2 0x183A JUMP JUMPDEST POP ISZERO PUSH2 0x11AF JUMPI PUSH1 0x40 MLOAD SWAP2 DUP3 MSTORE PUSH32 0xF3F402280EF0A7905E124AA621B65EAEB2725C343E8B36D398ED78C29DAF285C PUSH1 0x20 CALLER SWAP4 LOG3 PUSH1 0x7 DUP1 SLOAD PUSH1 0xFF PUSH1 0xA8 SHL NOT AND SWAP1 SSTORE DUP1 RETURN JUMPDEST PUSH1 0x40 MLOAD PUSH3 0x461BCD PUSH1 0xE5 SHL DUP2 MSTORE PUSH1 0x20 PUSH1 0x4 DUP3 ADD MSTORE PUSH1 0xD PUSH1 0x24 DUP3 ADD MSTORE PUSH13 0x1499599D5B990819985A5B1959 PUSH1 0x9A SHL PUSH1 0x44 DUP3 ADD MSTORE PUSH1 0x64 SWAP1 REVERT JUMPDEST PUSH4 0x4E487B71 PUSH1 0xE0 SHL DUP6 MSTORE PUSH1 0x11 PUSH1 0x4 MSTORE PUSH1 0x24 DUP6 REVERT JUMPDEST PUSH1 0x40 MLOAD PUSH3 0x461BCD PUSH1 0xE5 SHL DUP2 MSTORE PUSH1 0x20 PUSH1 0x4 DUP3 ADD MSTORE PUSH1 0x13 PUSH1 0x24 DUP3 ADD MSTORE PUSH19 0x125B9D9BDA58D9481B9BDD08195E1C1A5C9959 PUSH1 0x6A SHL PUSH1 0x44 DUP3 ADD MSTORE PUSH1 0x64 SWAP1 REVERT JUMPDEST PUSH4 0x45F5CE8B PUSH1 0xE1 SHL DUP4 MSTORE PUSH1 0x4 DUP4 REVERT JUMPDEST POP CALLVALUE PUSH2 0x144 JUMPI PUSH1 0x20 CALLDATASIZE PUSH1 0x3 NOT ADD SLT PUSH2 0x144 JUMPI PUSH1 0x4 CALLDATALOAD DUP2 MSTORE PUSH1 0x1 PUSH1 0x20 MSTORE PUSH1 0x40 DUP2 KECCAK256 DUP1 SLOAD SWAP2 PUSH1 0x1 DUP1 PUSH1 0xA0 SHL SUB PUSH1 0x1 DUP4 ADD SLOAD AND SWAP1 PUSH1 0x1 DUP1 PUSH1 0xA0 SHL SUB PUSH1 0x2 DUP5 ADD SLOAD AND PUSH1 0x3 DUP5 ADD SLOAD PUSH1 0x4 DUP6 ADD SLOAD PUSH1 0x5 DUP7 ADD SLOAD SWAP1 PUSH1 0x6 DUP8 ADD SLOAD SWAP3 PUSH1 0xFF PUSH1 0x7 DUP10 ADD SLOAD AND SWAP5 PUSH1 0x8 DUP10 ADD SWAP9 PUSH1 0x40 MLOAD SWAP10 DUP11 DUP10 DUP3 SLOAD SWAP3 PUSH2 0x12B6 DUP5 PUSH2 0x1710 JUMP JUMPDEST DUP1 DUP5 MSTORE SWAP4 PUSH1 0x1 DUP2 AND SWAP1 DUP2 ISZERO PUSH2 0x13B3 JUMPI POP PUSH1 0x1 EQ PUSH2 0x1373 JUMPI JUMPDEST POP PUSH2 0x12DB SWAP3 POP SUB DUP12 PUSH2 0x174A JUMP JUMPDEST PUSH1 0x9 PUSH1 0x1 DUP1 PUSH1 0xA0 SHL SUB SWAP2 ADD SLOAD AND SWAP8 PUSH1 0x40 MLOAD SWAP11 DUP12 MSTORE PUSH1 0x20 DUP12 ADD MSTORE PUSH1 0x40 DUP11 ADD MSTORE PUSH1 0x60 DUP10 ADD MSTORE PUSH1 0x80 DUP9 ADD MSTORE PUSH1 0xA0 DUP8 ADD MSTORE PUSH1 0xC0 DUP7 ADD MSTORE PUSH1 0x6 DUP2 LT ISZERO PUSH2 0x7FD JUMPI SWAP2 DUP5 SWAP3 PUSH1 0xE0 DUP5 ADD MSTORE PUSH2 0x140 PUSH2 0x100 DUP5 ADD MSTORE DUP4 MLOAD SWAP2 DUP3 PUSH2 0x140 DUP6 ADD MSTORE DUP1 JUMPDEST DUP4 DUP2 LT PUSH2 0x135A JUMPI POP PUSH2 0x160 DUP1 SWAP6 POP DUP4 DUP6 ADD ADD MSTORE PUSH2 0x120 DUP4 ADD MSTORE PUSH1 0x1F DUP1 NOT SWAP2 ADD AND DUP2 ADD SUB ADD SWAP1 RETURN JUMPDEST PUSH1 0x20 DUP7 DUP3 ADD DUP2 ADD MLOAD PUSH2 0x160 DUP10 DUP5 ADD ADD MSTORE DUP8 SWAP6 POP ADD PUSH2 0x1333 JUMP JUMPDEST DUP12 MSTORE POP PUSH1 0x20 DUP11 KECCAK256 SWAP1 SWAP2 DUP11 SWAP2 JUMPDEST DUP2 DUP4 LT PUSH2 0x1398 JUMPI POP POP SWAP1 PUSH1 0x20 PUSH2 0x12DB SWAP3 DUP3 ADD ADD CODESIZE PUSH2 0x12CE JUMP JUMPDEST DUP1 PUSH1 0x20 SWAP3 SWAP5 DUP4 DUP6 PUSH1 0x1 SWAP5 SLOAD SWAP3 ADD ADD MSTORE ADD SWAP2 ADD SWAP1 SWAP2 DUP13 SWAP3 PUSH2 0x137F JUMP JUMPDEST SWAP1 POP PUSH1 0x20 SWAP3 POP PUSH2 0x12DB SWAP5 SWAP2 POP PUSH1 0xFF NOT AND DUP3 DUP5 ADD MSTORE ISZERO ISZERO PUSH1 0x5 SHL DUP3 ADD ADD CODESIZE PUSH2 0x12CE JUMP JUMPDEST POP CALLVALUE PUSH2 0x144 JUMPI DUP1 PUSH1 0x3 NOT CALLDATASIZE ADD SLT PUSH2 0x144 JUMPI PUSH1 0x7 SLOAD PUSH1 0x40 MLOAD PUSH1 0x1 PUSH1 0x1 PUSH1 0xA0 SHL SUB SWAP1 SWAP2 AND DUP2 MSTORE PUSH1 0x20 SWAP1 RETURN JUMPDEST POP CALLVALUE PUSH2 0x144 JUMPI PUSH1 0x20 CALLDATASIZE PUSH1 0x3 NOT ADD SLT PUSH2 0x144 JUMPI PUSH1 0x40 PUSH1 0x20 SWAP2 PUSH1 0x4 CALLDATALOAD DUP2 MSTORE PUSH1 0x4 DUP4 MSTORE KECCAK256 SLOAD PUSH1 0x40 MLOAD SWAP1 DUP2 MSTORE RETURN JUMPDEST POP CALLVALUE PUSH2 0x144 JUMPI PUSH1 0x20 CALLDATASIZE PUSH1 0x3 NOT ADD SLT PUSH2 0x144 JUMPI PUSH1 0x4 CALLDATALOAD DUP1 DUP3 MSTORE PUSH1 0x1 PUSH1 0x20 MSTORE PUSH1 0xFF PUSH1 0x7 PUSH1 0x40 DUP5 KECCAK256 ADD SLOAD AND PUSH1 0x6 DUP2 LT ISZERO PUSH2 0x3AA JUMPI PUSH2 0x1464 SWAP1 ISZERO ISZERO PUSH2 0x179D JUMP JUMPDEST DUP2 MSTORE PUSH1 0x2 PUSH1 0x20 MSTORE PUSH1 0x40 DUP2 KECCAK256 PUSH1 0x40 MLOAD SWAP1 DUP2 PUSH1 0x20 DUP3 SLOAD SWAP2 DUP3 DUP2 MSTORE ADD SWAP1 DUP2 SWAP3 DUP6 MSTORE PUSH1 0x20 DUP6 KECCAK256 SWAP1 DUP6 JUMPDEST DUP2 DUP2 LT PUSH2 0x14E9 JUMPI POP POP POP DUP3 PUSH2 0x149F SWAP2 SUB DUP4 PUSH2 0x174A JUMP JUMPDEST PUSH1 0x40 MLOAD SWAP3 DUP4 SWAP3 PUSH1 0x20 DUP5 ADD SWAP1 PUSH1 0x20 DUP6 MSTORE MLOAD DUP1 SWAP2 MSTORE PUSH1 0x40 DUP5 ADD SWAP3 SWAP2 JUMPDEST DUP2 DUP2 LT PUSH2 0x14C7 JUMPI POP POP POP SUB SWAP1 RETURN JUMPDEST DUP3 MLOAD PUSH1 0x1 PUSH1 0x1 PUSH1 0xA0 SHL SUB AND DUP5 MSTORE DUP6 SWAP5 POP PUSH1 0x20 SWAP4 DUP5 ADD SWAP4 SWAP1 SWAP3 ADD SWAP2 PUSH1 0x1 ADD PUSH2 0x14B9 JUMP JUMPDEST DUP3 SLOAD PUSH1 0x1 PUSH1 0x1 PUSH1 0xA0 SHL SUB AND DUP5 MSTORE PUSH1 0x20 SWAP1 SWAP4 ADD SWAP3 PUSH1 0x1 SWAP3 DUP4 ADD SWAP3 ADD PUSH2 0x1489 JUMP JUMPDEST POP CALLVALUE PUSH2 0x144 JUMPI PUSH1 0x20 CALLDATASIZE PUSH1 0x3 NOT ADD SLT PUSH2 0x144 JUMPI PUSH1 0x4 CALLDATALOAD DUP1 DUP3 MSTORE PUSH1 0x1 PUSH1 0x20 MSTORE PUSH1 0xFF PUSH1 0x7 PUSH1 0x40 DUP5 KECCAK256 ADD SLOAD AND PUSH1 0x6 DUP2 LT ISZERO PUSH2 0x3AA JUMPI PUSH2 0x1544 SWAP1 ISZERO ISZERO PUSH2 0x179D JUMP JUMPDEST PUSH1 0x7 SLOAD PUSH1 0xFF DUP2 PUSH1 0xA8 SHR AND PUSH2 0x1233 JUMPI PUSH1 0xFF PUSH1 0xA8 SHL NOT AND PUSH1 0x1 PUSH1 0xA8 SHL OR PUSH1 0x7 SWAP1 DUP2 SSTORE DUP2 DUP4 MSTORE PUSH1 0x1 PUSH1 0x20 MSTORE PUSH1 0x40 DUP4 KECCAK256 SWAP1 DUP2 ADD SLOAD PUSH1 0xFF AND PUSH1 0x6 DUP2 LT ISZERO PUSH2 0x7DA JUMPI PUSH1 0x4 SUB PUSH2 0x16D6 JUMPI DUP2 DUP4 MSTORE PUSH1 0x3 PUSH1 0x20 SWAP1 DUP2 MSTORE PUSH1 0x40 DUP1 DUP6 KECCAK256 CALLER DUP7 MSTORE SWAP1 SWAP2 MSTORE DUP4 KECCAK256 SLOAD SWAP1 PUSH2 0x15AB DUP3 ISZERO ISZERO PUSH2 0x17E2 JUMP JUMPDEST DUP3 DUP5 MSTORE PUSH1 0x5 PUSH1 0x20 MSTORE PUSH1 0x40 DUP5 KECCAK256 SLOAD SWAP2 DUP3 ISZERO PUSH2 0x16A6 JUMPI DUP1 DUP4 MUL SWAP3 DUP4 DIV SUB PUSH2 0x1692 JUMPI PUSH1 0x3 ADD SLOAD SWAP1 DUP2 ISZERO PUSH2 0x167E JUMPI DIV SWAP1 DUP1 DUP4 MSTORE PUSH1 0x3 PUSH1 0x20 MSTORE PUSH1 0x40 DUP4 KECCAK256 PUSH1 0x1 DUP1 PUSH1 0xA0 SHL SUB CALLER AND DUP5 MSTORE PUSH1 0x20 MSTORE DUP3 PUSH1 0x40 DUP2 KECCAK256 SSTORE DUP3 DUP1 DUP1 DUP1 DUP6 CALLER GAS CALL PUSH2 0x1607 PUSH2 0x183A JUMP JUMPDEST POP ISZERO PUSH2 0x1649 JUMPI PUSH1 0x40 MLOAD SWAP2 DUP3 MSTORE PUSH32 0xCE6A22BBF33075E9460462739AB01C9D01AFBE41EB32F517824218012B2E656E PUSH1 0x20 CALLER SWAP4 LOG3 PUSH1 0x7 DUP1 SLOAD PUSH1 0xFF PUSH1 0xA8 SHL NOT AND SWAP1 SSTORE DUP1 RETURN JUMPDEST PUSH1 0x40 MLOAD PUSH3 0x461BCD PUSH1 0xE5 SHL DUP2 MSTORE PUSH1 0x20 PUSH1 0x4 DUP3 ADD MSTORE PUSH1 0xD PUSH1 0x24 DUP3 ADD MSTORE PUSH13 0x14185E5BDD5D0819985A5B1959 PUSH1 0x9A SHL PUSH1 0x44 DUP3 ADD MSTORE PUSH1 0x64 SWAP1 REVERT JUMPDEST PUSH4 0x4E487B71 PUSH1 0xE0 SHL DUP5 MSTORE PUSH1 0x12 PUSH1 0x4 MSTORE PUSH1 0x24 DUP5 REVERT JUMPDEST PUSH4 0x4E487B71 PUSH1 0xE0 SHL DUP5 MSTORE PUSH1 0x11 PUSH1 0x4 MSTORE PUSH1 0x24 DUP5 REVERT JUMPDEST PUSH1 0x40 MLOAD PUSH3 0x461BCD PUSH1 0xE5 SHL DUP2 MSTORE PUSH1 0x20 PUSH1 0x4 DUP3 ADD MSTORE PUSH1 0x8 PUSH1 0x24 DUP3 ADD MSTORE PUSH8 0x4E6F2066756E6473 PUSH1 0xC0 SHL PUSH1 0x44 DUP3 ADD MSTORE PUSH1 0x64 SWAP1 REVERT JUMPDEST PUSH1 0x40 MLOAD PUSH3 0x461BCD PUSH1 0xE5 SHL DUP2 MSTORE PUSH1 0x20 PUSH1 0x4 DUP3 ADD MSTORE PUSH1 0x12 PUSH1 0x24 DUP3 ADD MSTORE PUSH18 0x125B9D9BDA58D9481B9BDD081C995C185A59 PUSH1 0x72 SHL PUSH1 0x44 DUP3 ADD MSTORE PUSH1 0x64 SWAP1 REVERT JUMPDEST SWAP1 PUSH1 0x1 DUP3 DUP2 SHR SWAP3 AND DUP1 ISZERO PUSH2 0x1740 JUMPI JUMPDEST PUSH1 0x20 DUP4 LT EQ PUSH2 0x172A JUMPI JUMP JUMPDEST PUSH4 0x4E487B71 PUSH1 0xE0 SHL PUSH1 0x0 MSTORE PUSH1 0x22 PUSH1 0x4 MSTORE PUSH1 0x24 PUSH1 0x0 REVERT JUMPDEST SWAP2 PUSH1 0x7F AND SWAP2 PUSH2 0x171F JUMP JUMPDEST SWAP1 PUSH1 0x1F DUP1 NOT SWAP2 ADD AND DUP2 ADD SWAP1 DUP2 LT PUSH8 0xFFFFFFFFFFFFFFFF DUP3 GT OR PUSH2 0x176C JUMPI PUSH1 0x40 MSTORE JUMP JUMPDEST PUSH4 0x4E487B71 PUSH1 0xE0 SHL PUSH1 0x0 MSTORE PUSH1 0x41 PUSH1 0x4 MSTORE PUSH1 0x24 PUSH1 0x0 REVERT JUMPDEST PUSH1 0x4 CALLDATALOAD SWAP1 PUSH1 0x1 PUSH1 0x1 PUSH1 0xA0 SHL SUB DUP3 AND DUP3 SUB PUSH2 0x1798 JUMPI JUMP JUMPDEST PUSH1 0x0 DUP1 REVERT JUMPDEST ISZERO PUSH2 0x17A4 JUMPI JUMP JUMPDEST PUSH1 0x40 MLOAD PUSH3 0x461BCD PUSH1 0xE5 SHL DUP2 MSTORE PUSH1 0x20 PUSH1 0x4 DUP3 ADD MSTORE PUSH1 0x16 PUSH1 0x24 DUP3 ADD MSTORE PUSH22 0x125B9D9BDA58D948191BD95CC81B9BDD08195E1A5CDD PUSH1 0x52 SHL PUSH1 0x44 DUP3 ADD MSTORE PUSH1 0x64 SWAP1 REVERT JUMPDEST ISZERO PUSH2 0x17E9 JUMPI JUMP JUMPDEST PUSH1 0x40 MLOAD PUSH3 0x461BCD PUSH1 0xE5 SHL DUP2 MSTORE PUSH1 0x20 PUSH1 0x4 DUP3 ADD MSTORE PUSH1 0xD PUSH1 0x24 DUP3 ADD MSTORE PUSH13 0x139BC81A5B9D995CDD1B595B9D PUSH1 0x9A SHL PUSH1 0x44 DUP3 ADD MSTORE PUSH1 0x64 SWAP1 REVERT JUMPDEST PUSH8 0xFFFFFFFFFFFFFFFF DUP2 GT PUSH2 0x176C JUMPI PUSH1 0x1F ADD PUSH1 0x1F NOT AND PUSH1 0x20 ADD SWAP1 JUMP JUMPDEST RETURNDATASIZE ISZERO PUSH2 0x1865 JUMPI RETURNDATASIZE SWAP1 PUSH2 0x184B DUP3 PUSH2 0x181E JUMP JUMPDEST SWAP2 PUSH2 0x1859 PUSH1 0x40 MLOAD SWAP4 DUP5 PUSH2 0x174A JUMP JUMPDEST DUP3 MSTORE RETURNDATASIZE PUSH1 0x0 PUSH1 0x20 DUP5 ADD RETURNDATACOPY JUMP JUMPDEST PUSH1 0x60 SWAP1 JUMP JUMPDEST ISZERO PUSH2 0x1871 JUMPI JUMP JUMPDEST PUSH1 0x40 MLOAD PUSH3 0x461BCD PUSH1 0xE5 SHL DUP2 MSTORE PUSH1 0x20 PUSH1 0x4 DUP3 ADD MSTORE PUSH1 0xF PUSH1 0x24 DUP3 ADD MSTORE PUSH15 0x4E6F742066756E6472616973696E67 PUSH1 0x88 SHL PUSH1 0x44 DUP3 ADD MSTORE PUSH1 0x64 SWAP1 REVERT JUMPDEST SWAP2 SWAP1 DUP3 ADD DUP1 SWAP3 GT PUSH2 0x18B5 JUMPI JUMP JUMPDEST PUSH4 0x4E487B71 PUSH1 0xE0 SHL PUSH1 0x0 MSTORE PUSH1 0x11 PUSH1 0x4 MSTORE PUSH1 0x24 PUSH1 0x0 REVERT JUMPDEST SWAP1 DUP1 PUSH1 0x20 SWAP4 SWAP3 DUP2 DUP5 MSTORE DUP5 DUP5 ADD CALLDATACOPY PUSH1 0x0 DUP3 DUP3 ADD DUP5 ADD MSTORE PUSH1 0x1F ADD PUSH1 0x1F NOT AND ADD ADD SWAP1 JUMP JUMPDEST ISZERO PUSH2 0x18F3 JUMPI JUMP JUMPDEST PUSH1 0x40 MLOAD PUSH3 0x461BCD PUSH1 0xE5 SHL DUP2 MSTORE PUSH1 0x20 PUSH1 0x4 DUP3 ADD MSTORE PUSH1 0x8 PUSH1 0x24 DUP3 ADD MSTORE PUSH8 0x4E4654207A65726F PUSH1 0xC0 SHL PUSH1 0x44 DUP3 ADD MSTORE PUSH1 0x64 SWAP1 REVERT JUMPDEST ISZERO PUSH2 0x192A JUMPI JUMP JUMPDEST PUSH1 0x40 MLOAD PUSH3 0x461BCD PUSH1 0xE5 SHL DUP2 MSTORE PUSH1 0x20 PUSH1 0x4 DUP3 ADD MSTORE PUSH1 0x9 PUSH1 0x24 DUP3 ADD MSTORE PUSH9 0x2737BA1037BBB732B9 PUSH1 0xB9 SHL PUSH1 0x44 DUP3 ADD MSTORE PUSH1 0x64 SWAP1 REVERT INVALID LOG2 PUSH5 0x6970667358 0x22 SLT KECCAK256 0xC STATICCALL DUP12 LOG1 EXTCODESIZE 0xA9 GASPRICE 0xE4 STATICCALL XOR MSTORE PUSH25 0x1F41F0F24FF646DF5589FC2EAFD5B5C8AEF63E5064736F6C63 NUMBER STOP ADDMOD BYTE STOP CALLER "},"methodIdentifiers":{"claimRefund(uint256)":"5b7baf64","claimRepayment(uint256)":"00d878e8","confirmInvoice(uint256)":"5e78670e","createInvoice(address,uint256,uint256,uint256,string,address)":"82c10417","getInvestors(uint256)":"1139de55","initialize(address)":"c4d66de8","investInInvoice(uint256)":"b354983d","investments(uint256,address)":"b11b32d2","invoiceNFT()":"4bb6f06d","invoices(uint256)":"4e6d1405","markDefaulted(uint256)":"73216450","markRepaid(uint256)":"c701c994","nextInvoiceId()":"6ff2a953","owner()":"8da5cb5b","setInvoiceNFT(address)":"f939f496","totalRepaid(uint256)":"3b97f0da","totalRepaidForInvestors(uint256)":"5eaeafc9","transferOwnership(address)":"f2fde38b"}}}}}