{"contracts/InvoiceMarketplace.sol":{"InvoiceMarketplace":{"abi":[{"inputs":[],"name":"ReentrancyGuardReentrantCall","type":"error"},{"anonymous":false,"inputs":[{"indexed":true,"internalType":"uint256","name":"id","type":"uint256"},{"indexed":true,"internalType":"address","name":"investor","type":"address"},{"indexed":false,"internalType":"uint256","name":"amount","type":"uint256"},{"indexed":false,"internalType":"uint256","name":"fundedAmount","type":"uint256"}],"name":"Invested","type":"event"},{"anonymous":false,"inputs":[{"indexed":true,"internalType":"uint256","name":"id","type":"uint256"},{"indexed":true,"internalType":"address","name":"buyer","type":"address"}],"name":"InvoiceConfirmed","type":"event"},{"anonymous":false,"inputs":[{"indexed":true,"internalType":"uint256","name":"id","type":"uint256"},{"indexed":true,"internalType":"address","name":"msme","type":"address"},{"indexed":true,"internalType":"address","name":"buyer","type":"address"},{"indexed":false,"internalType":"uint256","name":"amount","type":"uint256"},{"indexed":false,"internalType":"uint256","name":"dueDate","type":"uint256"},{"indexed":false,"internalType":"uint256","name":"discountRate","type":"uint256"},{"indexed":false,"internalType":"string","name":"metadataURI","type":"string"},{"indexed":false,"internalType":"address","name":"exclusiveInvestor","type":"address"}],"name":"InvoiceCreated","type":"event"},{"anonymous":false,"inputs":[{"indexed":true,"internalType":"uint256","name":"id","type":"uint256"}],"name":"InvoiceDefaulted","type":"event"},{"anonymous":false,"inputs":[{"indexed":true,"internalType":"uint256","name":"id","type":"uint256"}],"name":"InvoiceFunded","type":"event"},{"anonymous":false,"inputs":[{"indexed":true,"internalType":"uint256","name":"id","type":"uint256"},{"indexed":false,"internalType":"uint256","name":"totalRepaid","type":"uint256"}],"name":"InvoiceRepaid","type":"event"},{"anonymous":false,"inputs":[{"indexed":true,"internalType":"uint256","name":"id","type":"uint256"},{"indexed":true,"internalType":"address","name":"investor","type":"address"},{"indexed":false,"internalType":"uint256","name":"amount","type":"uint256"}],"name":"RefundClaimed","type":"event"},{"anonymous":false,"inputs":[{"indexed":true,"internalType":"uint256","name":"id","type":"uint256"},{"indexed":true,"internalType":"address","name":"investor","type":"address"},{"indexed":false,"internalType":"uint256","name":"amount","type":"uint256"}],"name":"RepaymentClaimed","type":"event"},{"inputs":[{"internalType":"uint256","name":"id","type":"uint256"}],"name":"claimRefund","outputs":[],"stateMutability":"nonpayable","type":"function"},{"inputs":[{"internalType":"uint256","name":"id","type":"uint256"}],"name":"claimRepayment","outputs":[],"stateMutability":"nonpayable","type":"function"},{"inputs":[{"internalType":"uint256","name":"id","type":"uint256"}],"name":"confirmInvoice","outputs":[],"stateMutability":"nonpayable","type":"function"},{"inputs":[{"internalType":"address","name":"buyer","type":"address"},{"internalType":"uint256","name":"amount","type":"uint256"},{"internalType":"uint256","name":"dueDate","type":"uint256"},{"internalType":"uint256","name":"discountRate","type":"uint256"},{"internalType":"string","name":"metadataURI","type":"string"},{"internalType":"address","name":"exclusiveInvestor","type":"address"}],"name":"createInvoice","outputs":[{"internalType":"uint256","name":"","type":"uint256"}],"stateMutability":"nonpayable","type":"function"},{"inputs":[],"name":"feeBps","outputs":[{"internalType":"uint256","name":"","type":"uint256"}],"stateMutability":"view","type":"function"},{"inputs":[{"internalType":"uint256","name":"id","type":"uint256"}],"name":"getInvestors","outputs":[{"internalType":"address[]","name":"","type":"address[]"}],"stateMutability":"view","type":"function"},{"inputs":[{"internalType":"address","name":"_invoiceNFT","type":"address"},{"internalType":"address payable","name":"_stakingRewards","type":"address"},{"internalType":"uint256","name":"_feeBps","type":"uint256"}],"name":"initialize","outputs":[],"stateMutability":"nonpayable","type":"function"},{"inputs":[{"internalType":"uint256","name":"id","type":"uint256"}],"name":"investInInvoice","outputs":[],"stateMutability":"payable","type":"function"},{"inputs":[{"internalType":"uint256","name":"","type":"uint256"},{"internalType":"address","name":"","type":"address"}],"name":"investments","outputs":[{"internalType":"uint256","name":"","type":"uint256"}],"stateMutability":"view","type":"function"},{"inputs":[],"name":"invoiceNFT","outputs":[{"internalType":"contract InvoiceNFT","name":"","type":"address"}],"stateMutability":"view","type":"function"},{"inputs":[{"internalType":"uint256","name":"","type":"uint256"}],"name":"invoices","outputs":[{"internalType":"uint256","name":"id","type":"uint256"},{"internalType":"address","name":"msme","type":"address"},{"internalType":"address","name":"buyer","type":"address"},{"internalType":"uint256","name":"amount","type":"uint256"},{"internalType":"uint256","name":"fundedAmount","type":"uint256"},{"internalType":"uint256","name":"dueDate","type":"uint256"},{"internalType":"uint256","name":"discountRate","type":"uint256"},{"internalType":"enum InvoiceMarketplace.Status","name":"status","type":"uint8"},{"internalType":"string","name":"metadataURI","type":"string"},{"internalType":"address","name":"exclusiveInvestor","type":"address"}],"stateMutability":"view","type":"function"},{"inputs":[{"internalType":"uint256","name":"id","type":"uint256"}],"name":"markDefaulted","outputs":[],"stateMutability":"nonpayable","type":"function"},{"inputs":[],"name":"nextInvoiceId","outputs":[{"internalType":"uint256","name":"","type":"uint256"}],"stateMutability":"view","type":"function"},{"inputs":[],"name":"owner","outputs":[{"internalType":"address","name":"","type":"address"}],"stateMutability":"view","type":"function"},{"inputs":[],"name":"pause","outputs":[],"stateMutability":"nonpayable","type":"function"},{"inputs":[],"name":"paused","outputs":[{"internalType":"bool","name":"","type":"bool"}],"stateMutability":"view","type":"function"},{"inputs":[{"internalType":"uint256","name":"id","type":"uint256"}],"name":"repayInvoice","outputs":[],"stateMutability":"payable","type":"function"},{"inputs":[{"internalType":"uint256","name":"_feeBps","type":"uint256"}],"name":"setFeeBps","outputs":[],"stateMutability":"nonpayable","type":"function"},{"inputs":[{"internalType":"address","name":"_invoiceNFT","type":"address"}],"name":"setInvoiceNFT","outputs":[],"stateMutability":"nonpayable","type":"function"},{"inputs":[{"internalType":"address payable","name":"_stakingRewards","type":"address"}],"name":"setStakingRewards","outputs":[],"stateMutability":"nonpayable","type":"function"},{"inputs":[],"name":"stakingRewards","outputs":[{"internalType":"contract StakingRewards","name":"","type":"address"}],"stateMutability":"view","type":"function"},{"inputs":[{"internalType":"uint256","name":"","type":"uint256"}],"name":"totalRepaid","outputs":[{"internalType":"uint256","name":"","type":"uint256"}],"stateMutability":"view","type":"function"},{"inputs":[{"internalType":"uint256","name":"","type":"uint256"}],"name":"totalRepaidForInvestors","outputs":[{"internalType":"uint256","name":"","type":"uint256"}],"stateMutability":"view","type":"function"},{"inputs":[{"internalType":"address","name":"newOwner","type":"address"}],"name":"transferOwnership","outputs":[],"stateMutability":"nonpayable","type":"function"},{"inputs":[],"name":"unpause","outputs":[],"stateMutability":"nonpayable","type":"function"}],"evm":{"bytecode":{"linkReferences":{},"object":"6080806040523461001b576001600055611c6990816100218239f35b600080fdfe6080604052600436101561001257600080fd5b6000803560e01c8062d878e8146116d65780631139de55146115fe5780631794bb3c1461151f57806324a9d853146115015780633b97f0da146114d75780633f4ba83a146114a25780634bb6f06d146114795780634e6d1405146112e0578063559034df146110a15780635b7baf6414610f165780635c975abb14610ef05780635e78670e14610dc65780635eaeafc914610d9c57806364b87a7014610d735780636fb83a5714610d1d5780636ff2a95314610cff57806372c27b6214610cc15780637321645014610b9f57806382c104171461062f5780638456cb59146105f45780638da5cb5b146105cb578063b11b32d214610584578063b354983d14610206578063f2fde38b146101875763f939f4961461012f57600080fd5b34610184576020366003190112610184576101486118a9565b6007546001600160a01b0391906101629083163314611b1d565b1661016e811515611a70565b6001600160601b0360a01b600954161760095580f35b80fd5b5034610184576020366003190112610184576101a16118a9565b600754906001600160a01b03906101bb3383851614611b1d565b169081156101d4576001600160a01b0319161760075580f35b60405162461bcd60e51b815260206004820152600a6024820152694f776e6572207a65726f60b01b6044820152606490fd5b506020908160031936011261018457600435918282526002815260ff60076040842001541660068110156105705761023f901515611945565b61025160ff60075460a01c161561198a565b610259611c10565b8282526002815260408220600781019060ff825416600681101561055c5760026102839114611bb1565b600581015442116105255760098101546001600160a01b0395908616806104d4575b50341561049f57600482016102bb348254611b97565b96600384019788541061046c578287526004865260408720336000528652604060002054156103f8575b869783889798526004885260408720336000528852604060002061030a348254611b97565b9055610317348454611b97565b8093556040513481528389820152847f271dec505c61c970bdd791a963b7162d814edf6292f40c4beef2af1e48eea1e860403393a35480921461035d575b856001815580f35b60018695948695948695600360ff198254161790557f9548b965d6392cc4c2ca0c182c4a0fcc35a558cb167fba8bfea4b501eee20f5d8680a20154165af16103a3611a40565b50156103b457818180808080610355565b6064906040519062461bcd60e51b82526004820152601760248201527f5472616e7366657220746f204d534d45206661696c65640000000000000000006044820152fd5b8287526003865260408720978854680100000000000000008110156104585760018101808b55811015610444579888528688209890980180546001600160a01b031916331790556102e5565b634e487b7160e01b89526032600452602489fd5b634e487b7160e01b89526041600452602489fd5b60405162461bcd60e51b815260048101879052600b60248201526a4f76657266756e64696e6760a81b6044820152606490fd5b60405162461bcd60e51b815260048101859052600d60248201526c139bc81d985b1d59481cd95b9d609a1b6044820152606490fd5b33036104e057386102a5565b60405162461bcd60e51b815260048101859052601f60248201527f4f6e6c79206578636c757369766520696e766573746f7220616c6c6f776564006044820152606490fd5b60405162461bcd60e51b815260048101849052600f60248201526e125b9d9bda58d948195e1c1a5c9959608a1b6044820152606490fd5b634e487b7160e01b85526021600452602485fd5b634e487b7160e01b83526021600452602483fd5b50346101845760403660031901126101845760406105a06118bf565b9160043581526004602052209060018060a01b03166000526020526020604060002054604051908152f35b50346101845780600319360112610184576007546040516001600160a01b039091168152602090f35b503461018457806003193601126101845760075461061c336001600160a01b03831614611b1d565b60ff60a01b1916600160a01b1760075580f35b50346101845760c0366003190112610184576106496118a9565b6084359167ffffffffffffffff831161018457366023840112156101845767ffffffffffffffff836004013511610184573660248460040135850101116101845760a4356001600160a01b0381168103610b9a576106af60ff60075460a01c161561198a565b6001600160a01b03831615610b645760243515610b2a57426044351115610ae55760015492600184018411610ad157600184016001556040518061014081011067ffffffffffffffff61014083011117610abb57610140810160405260018501815233602082015260018060a01b0382166040820152602435606082015283608082015260443560a082015260643560c0820152600160e08201526107578660040135611a24565b6107646040519182611923565b600487013580825260248801602083013784602088600401358301015261010082015260018060a01b038316610120820152600185018452600260205260408420815181556001810160018060a01b036020840151166001600160601b0360a01b8254161790556002810160018060a01b036040840151166001600160601b0360a01b825416179055606082015160038201556080820151600482015560a0820151600582015560c082015160068201556007810160e08301516006811015610aa75760ff8019835416911617905561010082015180519067ffffffffffffffff8211610a935761085860088401546118d5565b601f8111610a4f575b50602090601f83116001146109df5760099392918891836109d4575b50508160011b916000199060031b1c19161760088201555b019061012060018060a01b03910151166001600160601b0360a01b8254161790556040519060243582526044356020830152606435604083015260a060608301526108eb60a08301876004013560248901611bef565b6001600160a01b039384166080840152921691339160018601917f06d2a84410abbe5194267c8b6d1554aa8292266b54988855383145617c8795b8919081900390a46009546001600160a01b03168061094d575b602083600160405191018152f35b8193813b156109d057829161099891604051948580948193633b32d61360e21b835233600484015260018a016024840152606060448401526064830190602481600401359101611bef565b03925af180156109c5576109ad575b8061093f565b6109b7839161190f565b6109c157816109a7565b5080fd5b6040513d85823e3d90fd5b8280fd5b01519050388061087d565b906008840188526020882091885b601f1985168110610a37575091839160019360099695601f19811610610a1e575b505050811b016008820155610895565b015160001960f88460031b161c19169055388080610a0e565b919260206001819286850151815501940192016109ed565b60088401885260208820601f840160051c810160208510610a8c575b601f830160051c82018110610a81575050610861565b898155600101610a6b565b5080610a6b565b634e487b7160e01b87526041600452602487fd5b634e487b7160e01b87526021600452602487fd5b634e487b7160e01b600052604160045260246000fd5b634e487b7160e01b83526011600452602483fd5b60405162461bcd60e51b815260206004820152601a60248201527f4475652064617465206d75737420626520696e206675747572650000000000006044820152606490fd5b60405162461bcd60e51b81526020600482015260126024820152710416d6f756e74206d757374206265203e20360741b6044820152606490fd5b60405162461bcd60e51b815260206004820152600e60248201526d109d5e595c881c995c5d5a5c995960921b6044820152606490fd5b600080fd5b503461018457602036600319011261018457600435808252600260205260ff600760408420015416600681101561057057610bdb901515611945565b808252600260205260408220600781019081549060ff82166006811015610cad57600303610c775760050154421115610c3e5760ff191660051790557fdad3d8c24c5e0a13ffb0c0fa573014d3c4ba10367d5cba3549fa7c9ac18b93a48280a280f35b60405162461bcd60e51b81526020600482015260116024820152704e6f74207061737420647565206461746560781b6044820152606490fd5b60405162461bcd60e51b815260206004820152600e60248201526d10d85b9b9bdd08191959985d5b1d60921b6044820152606490fd5b634e487b7160e01b86526021600452602486fd5b503461018457602036600319011261018457600435610ceb60018060a01b03600754163314611b1d565b610cf9612710821115611ae2565b60085580f35b50346101845780600319360112610184576020600154604051908152f35b503461018457602036600319011261018457610d376118a9565b6007546001600160a01b039190610d519083163314611b1d565b16610d5d811515611aa7565b6001600160601b0360a01b600a541617600a5580f35b5034610184578060031936011261018457600a546040516001600160a01b039091168152602090f35b50346101845760203660031901126101845760406020916004358152600683522054604051908152f35b50346101845760203660031901126101845760043580825260028060205260ff6007604085200154166006811015610edc57610e03901515611945565b8183528060205260018060a01b0390610e258282604087200154163314611b55565b610e3760ff60075460a01c161561198a565b828452806020526040842060078101805460ff81166006811015610ec857600103610e8f5760ff191683179055015416907f5ad1f83fed722a2f75a27916c297196db29e3d208589663ebe1fef5ab880ad508380a380f35b60405162461bcd60e51b81526020600482015260116024820152702bb0b4ba34b733903337b910213abcb2b960791b6044820152606490fd5b634e487b7160e01b88526021600452602488fd5b634e487b7160e01b84526021600452602484fd5b5034610184578060031936011261018457602060ff60075460a01c166040519015158152f35b5034610184576020806003193601126109c1576004358083526002825260ff6007604085200154166006811015610edc57610f52901515611945565b610f6460ff60075460a01c161561198a565b610f6c611c10565b80835260028252604083209160ff600784015416600681101561055c576002610f959114611bb1565b6005830154421115611067578184526004815260408420336000528152600460406000205493610fc68515156119bf565b838652818352604086203360005283528560406000205501610fe9848254611ba4565b90558380808086335af1610ffb611a40565b5015611033577ff3f402280ef0a7905e124aa621b65eaeb2725c343e8b36d398ed78c29daf285c906040519384523393a36001815580f35b6064906040519062461bcd60e51b82526004820152600d60248201526c1499599d5b990819985a5b1959609a1b6044820152fd5b6064906040519062461bcd60e51b825260048201526013602482015272125b9d9bda58d9481b9bdd08195e1c1a5c9959606a1b6044820152fd5b506020806003193601126109c157600435908183526002815260ff6007604085200154166006811015610edc576110d9901515611945565b81835260028082526040842001546001600160a01b03906110fd9082163314611b55565b61110f60ff60075460a01c161561198a565b611117611c10565b828452600282526040842060078101805460ff81166006811015610ec8576003036112a657908291611163600360069501549361115b6127109687920154866119fb565b048094611b97565b34036112615760ff1916600417905560085486929161118291906119fb565b049161118e8334611ba4565b8583526005855234604084205560068552604083205582151580611254575b6111e4575b50837fe57c83410ab16d767654351928d1ea4b894f6c93e04e4e6408bd7d301dcd82db84604051348152a26001815580f35b600a5416803b156109c157600460405180948193630314777960e21b83525af1801561124957611216575b83816111b2565b926112427fe57c83410ab16d767654351928d1ea4b894f6c93e04e4e6408bd7d301dcd82db929461190f565b929061120f565b6040513d86823e3d90fd5b5080600a541615156111ad565b60405162461bcd60e51b815260048101879052601a60248201527f496e636f72726563742072657061796d656e7420616d6f756e740000000000006044820152606490fd5b60405162461bcd60e51b8152600481018690526012602482015271125b9d9bda58d9481b9bdd08199d5b99195960721b6044820152606490fd5b503461018457602036600319011261018457600435815260026020526040812090815460019260018060a01b036001820154169360018060a01b03600283015416916003810154600482015460058301549060068401549260ff600786015416946008810160405180988c90835493611358856118d5565b80855294600181169081156114555750600114611417575b505061137e92500388611923565b600960018060a01b0391015416966040519a610140998c5260208c015260408b015260608a0152608089015260a088015260c0870152600681101561055c57908593929160e08501528261010085015280518093850152845b8381106113fe57505061016093848385010152610120830152601f80199101168101030190f35b60208282018101516101608984010152879550016113d7565b8e5260208e208e92505b84831061143b575061137e93505081016020013880611370565b908181946020858195549201015201910190918a92611421565b9150506020925061137e94915060ff191682840152151560051b8201013880611370565b50346101845780600319360112610184576009546040516001600160a01b039091168152602090f35b50346101845780600319360112610184576007546114ca336001600160a01b03831614611b1d565b60ff60a01b191660075580f35b50346101845760203660031901126101845760406020916004358152600583522054604051908152f35b50346101845780600319360112610184576020600854604051908152f35b5034610184576060366003190112610184576115396118a9565b6115416118bf565b604435600a549260ff8460a01c166115c3576001600160a01b039081169261156a841515611a70565b1691611577831515611aa7565b611585612710831115611ae2565b6001600160601b0360a01b338160075416176007556009541617600955600855600160a01b916affffffffffffffffffffff60a81b161717600a5580f35b60405162461bcd60e51b8152602060048201526013602482015272105b1c9958591e481a5b9a5d1a585b1a5e9959606a1b6044820152606490fd5b5034610184576020806003193601126109c1576004358083526002825260ff6007604085200154166006811015610edc5761163a901515611945565b8252600381526040822060405192838383549182815201908193835284832090835b8181106116b95750505084611672910385611923565b60405193838594850191818652518092526040850193925b82811061169957505050500390f35b83516001600160a01b03168552869550938101939281019260010161168a565b82546001600160a01b03168452928601926001928301920161165c565b5034610184576020806003193601126109c1576004358083526002825260ff6007604085200154166006811015610edc57611712901515611945565b61172460ff60075460a01c161561198a565b61172c611c10565b808352600282526040832060ff600782015416600681101561055c5760040361186f5781845260048352604084203385528352604084205461176f8115156119bf565b828552600684526040852054801561183f5760039161178d916119fb565b91015490811561182b570491818452600481526040842033855281528360408120558380808086335af16117bf611a40565b50156117f7577fce6a22bbf33075e9460462739ab01c9d01afbe41eb32f517824218012b2e656e906040519384523393a36001815580f35b6064906040519062461bcd60e51b82526004820152600d60248201526c14185e5bdd5d0819985a5b1959609a1b6044820152fd5b634e487b7160e01b85526012600452602485fd5b60405162461bcd60e51b81526004810186905260086024820152674e6f2066756e647360c01b6044820152606490fd5b60405162461bcd60e51b8152600481018490526012602482015271125b9d9bda58d9481b9bdd081c995c185a5960721b6044820152606490fd5b600435906001600160a01b0382168203610b9a57565b602435906001600160a01b0382168203610b9a57565b90600182811c92168015611905575b60208310146118ef57565b634e487b7160e01b600052602260045260246000fd5b91607f16916118e4565b67ffffffffffffffff8111610abb57604052565b90601f8019910116810190811067ffffffffffffffff821117610abb57604052565b1561194c57565b60405162461bcd60e51b8152602060048201526016602482015275125b9d9bda58d948191bd95cc81b9bdd08195e1a5cdd60521b6044820152606490fd5b1561199157565b60405162461bcd60e51b815260206004820152600660248201526514185d5cd95960d21b6044820152606490fd5b156119c657565b60405162461bcd60e51b815260206004820152600d60248201526c139bc81a5b9d995cdd1b595b9d609a1b6044820152606490fd5b81810292918115918404141715611a0e57565b634e487b7160e01b600052601160045260246000fd5b67ffffffffffffffff8111610abb57601f01601f191660200190565b3d15611a6b573d90611a5182611a24565b91611a5f6040519384611923565b82523d6000602084013e565b606090565b15611a7757565b60405162461bcd60e51b81526020600482015260086024820152674e4654207a65726f60c01b6044820152606490fd5b15611aae57565b60405162461bcd60e51b815260206004820152600c60248201526b5374616b696e67207a65726f60a01b6044820152606490fd5b15611ae957565b60405162461bcd60e51b815260206004820152600c60248201526b0cccaca40e8dede40d0d2ced60a31b6044820152606490fd5b15611b2457565b60405162461bcd60e51b81526020600482015260096024820152682737ba1037bbb732b960b91b6044820152606490fd5b15611b5c57565b60405162461bcd60e51b815260206004820152601360248201527213db9b1e48189d5e595c8818d85b8818d85b1b606a1b6044820152606490fd5b91908201809211611a0e57565b91908203918211611a0e57565b15611bb857565b60405162461bcd60e51b815260206004820152600f60248201526e4e6f742066756e6472616973696e6760881b6044820152606490fd5b908060209392818452848401376000828201840152601f01601f1916010190565b600260005414611c21576002600055565b604051633ee5aeb560e01b8152600490fdfea264697066735822122018b565b3f734adac65c47ce7027e65e8c6d02c3ed828639ee2c6d060a762af7b64736f6c63430008160033","opcodes":"PUSH1 0x80 DUP1 PUSH1 0x40 MSTORE CALLVALUE PUSH2 0x1B JUMPI PUSH1 0x1 PUSH1 0x0 SSTORE PUSH2 0x1C69 SWAP1 DUP2 PUSH2 0x21 DUP3 CODECOPY RETURN JUMPDEST PUSH1 0x0 DUP1 REVERT INVALID PUSH1 0x80 PUSH1 0x40 MSTORE PUSH1 0x4 CALLDATASIZE LT ISZERO PUSH2 0x12 JUMPI PUSH1 0x0 DUP1 REVERT JUMPDEST PUSH1 0x0 DUP1 CALLDATALOAD PUSH1 0xE0 SHR DUP1 PUSH3 0xD878E8 EQ PUSH2 0x16D6 JUMPI DUP1 PUSH4 0x1139DE55 EQ PUSH2 0x15FE JUMPI DUP1 PUSH4 0x1794BB3C EQ PUSH2 0x151F JUMPI DUP1 PUSH4 0x24A9D853 EQ PUSH2 0x1501 JUMPI DUP1 PUSH4 0x3B97F0DA EQ PUSH2 0x14D7 JUMPI DUP1 PUSH4 0x3F4BA83A EQ PUSH2 0x14A2 JUMPI DUP1 PUSH4 0x4BB6F06D EQ PUSH2 0x1479 JUMPI DUP1 PUSH4 0x4E6D1405 EQ PUSH2 0x12E0 JUMPI DUP1 PUSH4 0x559034DF EQ PUSH2 0x10A1 JUMPI DUP1 PUSH4 0x5B7BAF64 EQ PUSH2 0xF16 JUMPI DUP1 PUSH4 0x5C975ABB EQ PUSH2 0xEF0 JUMPI DUP1 PUSH4 0x5E78670E EQ PUSH2 0xDC6 JUMPI DUP1 PUSH4 0x5EAEAFC9 EQ PUSH2 0xD9C JUMPI DUP1 PUSH4 0x64B87A70 EQ PUSH2 0xD73 JUMPI DUP1 PUSH4 0x6FB83A57 EQ PUSH2 0xD1D JUMPI DUP1 PUSH4 0x6FF2A953 EQ PUSH2 0xCFF JUMPI DUP1 PUSH4 0x72C27B62 EQ PUSH2 0xCC1 JUMPI DUP1 PUSH4 0x73216450 EQ PUSH2 0xB9F JUMPI DUP1 PUSH4 0x82C10417 EQ PUSH2 0x62F JUMPI DUP1 PUSH4 0x8456CB59 EQ PUSH2 0x5F4 JUMPI DUP1 PUSH4 0x8DA5CB5B EQ PUSH2 0x5CB JUMPI DUP1 PUSH4 0xB11B32D2 EQ PUSH2 0x584 JUMPI DUP1 PUSH4 0xB354983D EQ PUSH2 0x206 JUMPI DUP1 PUSH4 0xF2FDE38B EQ PUSH2 0x187 JUMPI PUSH4 0xF939F496 EQ PUSH2 0x12F JUMPI PUSH1 0x0 DUP1 REVERT JUMPDEST CALLVALUE PUSH2 0x184 JUMPI PUSH1 0x20 CALLDATASIZE PUSH1 0x3 NOT ADD SLT PUSH2 0x184 JUMPI PUSH2 0x148 PUSH2 0x18A9 JUMP JUMPDEST PUSH1 0x7 SLOAD PUSH1 0x1 PUSH1 0x1 PUSH1 0xA0 SHL SUB SWAP2 SWAP1 PUSH2 0x162 SWAP1 DUP4 AND CALLER EQ PUSH2 0x1B1D JUMP JUMPDEST AND PUSH2 0x16E DUP2 ISZERO ISZERO PUSH2 0x1A70 JUMP JUMPDEST PUSH1 0x1 PUSH1 0x1 PUSH1 0x60 SHL SUB PUSH1 0xA0 SHL PUSH1 0x9 SLOAD AND OR PUSH1 0x9 SSTORE DUP1 RETURN JUMPDEST DUP1 REVERT JUMPDEST POP CALLVALUE PUSH2 0x184 JUMPI PUSH1 0x20 CALLDATASIZE PUSH1 0x3 NOT ADD SLT PUSH2 0x184 JUMPI PUSH2 0x1A1 PUSH2 0x18A9 JUMP JUMPDEST PUSH1 0x7 SLOAD SWAP1 PUSH1 0x1 PUSH1 0x1 PUSH1 0xA0 SHL SUB SWAP1 PUSH2 0x1BB CALLER DUP4 DUP6 AND EQ PUSH2 0x1B1D JUMP JUMPDEST AND SWAP1 DUP2 ISZERO PUSH2 0x1D4 JUMPI PUSH1 0x1 PUSH1 0x1 PUSH1 0xA0 SHL SUB NOT AND OR PUSH1 0x7 SSTORE DUP1 RETURN JUMPDEST PUSH1 0x40 MLOAD PUSH3 0x461BCD PUSH1 0xE5 SHL DUP2 MSTORE PUSH1 0x20 PUSH1 0x4 DUP3 ADD MSTORE PUSH1 0xA PUSH1 0x24 DUP3 ADD MSTORE PUSH10 0x4F776E6572207A65726F PUSH1 0xB0 SHL PUSH1 0x44 DUP3 ADD MSTORE PUSH1 0x64 SWAP1 REVERT JUMPDEST POP PUSH1 0x20 SWAP1 DUP2 PUSH1 0x3 NOT CALLDATASIZE ADD SLT PUSH2 0x184 JUMPI PUSH1 0x4 CALLDATALOAD SWAP2 DUP3 DUP3 MSTORE PUSH1 0x2 DUP2 MSTORE PUSH1 0xFF PUSH1 0x7 PUSH1 0x40 DUP5 KECCAK256 ADD SLOAD AND PUSH1 0x6 DUP2 LT ISZERO PUSH2 0x570 JUMPI PUSH2 0x23F SWAP1 ISZERO ISZERO PUSH2 0x1945 JUMP JUMPDEST PUSH2 0x251 PUSH1 0xFF PUSH1 0x7 SLOAD PUSH1 0xA0 SHR AND ISZERO PUSH2 0x198A JUMP JUMPDEST PUSH2 0x259 PUSH2 0x1C10 JUMP JUMPDEST DUP3 DUP3 MSTORE PUSH1 0x2 DUP2 MSTORE PUSH1 0x40 DUP3 KECCAK256 PUSH1 0x7 DUP2 ADD SWAP1 PUSH1 0xFF DUP3 SLOAD AND PUSH1 0x6 DUP2 LT ISZERO PUSH2 0x55C JUMPI PUSH1 0x2 PUSH2 0x283 SWAP2 EQ PUSH2 0x1BB1 JUMP JUMPDEST PUSH1 0x5 DUP2 ADD SLOAD TIMESTAMP GT PUSH2 0x525 JUMPI PUSH1 0x9 DUP2 ADD SLOAD PUSH1 0x1 PUSH1 0x1 PUSH1 0xA0 SHL SUB SWAP6 SWAP1 DUP7 AND DUP1 PUSH2 0x4D4 JUMPI JUMPDEST POP CALLVALUE ISZERO PUSH2 0x49F JUMPI PUSH1 0x4 DUP3 ADD PUSH2 0x2BB CALLVALUE DUP3 SLOAD PUSH2 0x1B97 JUMP JUMPDEST SWAP7 PUSH1 0x3 DUP5 ADD SWAP8 DUP9 SLOAD LT PUSH2 0x46C JUMPI DUP3 DUP8 MSTORE PUSH1 0x4 DUP7 MSTORE PUSH1 0x40 DUP8 KECCAK256 CALLER PUSH1 0x0 MSTORE DUP7 MSTORE PUSH1 0x40 PUSH1 0x0 KECCAK256 SLOAD ISZERO PUSH2 0x3F8 JUMPI JUMPDEST DUP7 SWAP8 DUP4 DUP9 SWAP8 SWAP9 MSTORE PUSH1 0x4 DUP9 MSTORE PUSH1 0x40 DUP8 KECCAK256 CALLER PUSH1 0x0 MSTORE DUP9 MSTORE PUSH1 0x40 PUSH1 0x0 KECCAK256 PUSH2 0x30A CALLVALUE DUP3 SLOAD PUSH2 0x1B97 JUMP JUMPDEST SWAP1 SSTORE PUSH2 0x317 CALLVALUE DUP5 SLOAD PUSH2 0x1B97 JUMP JUMPDEST DUP1 SWAP4 SSTORE PUSH1 0x40 MLOAD CALLVALUE DUP2 MSTORE DUP4 DUP10 DUP3 ADD MSTORE DUP5 PUSH32 0x271DEC505C61C970BDD791A963B7162D814EDF6292F40C4BEEF2AF1E48EEA1E8 PUSH1 0x40 CALLER SWAP4 LOG3 SLOAD DUP1 SWAP3 EQ PUSH2 0x35D JUMPI JUMPDEST DUP6 PUSH1 0x1 DUP2 SSTORE DUP1 RETURN JUMPDEST PUSH1 0x1 DUP7 SWAP6 SWAP5 DUP7 SWAP6 SWAP5 DUP7 SWAP6 PUSH1 0x3 PUSH1 0xFF NOT DUP3 SLOAD AND OR SWAP1 SSTORE PUSH32 0x9548B965D6392CC4C2CA0C182C4A0FCC35A558CB167FBA8BFEA4B501EEE20F5D DUP7 DUP1 LOG2 ADD SLOAD AND GAS CALL PUSH2 0x3A3 PUSH2 0x1A40 JUMP JUMPDEST POP ISZERO PUSH2 0x3B4 JUMPI DUP2 DUP2 DUP1 DUP1 DUP1 DUP1 PUSH2 0x355 JUMP JUMPDEST PUSH1 0x64 SWAP1 PUSH1 0x40 MLOAD SWAP1 PUSH3 0x461BCD PUSH1 0xE5 SHL DUP3 MSTORE PUSH1 0x4 DUP3 ADD MSTORE PUSH1 0x17 PUSH1 0x24 DUP3 ADD MSTORE PUSH32 0x5472616E7366657220746F204D534D45206661696C6564000000000000000000 PUSH1 0x44 DUP3 ADD MSTORE REVERT JUMPDEST DUP3 DUP8 MSTORE PUSH1 0x3 DUP7 MSTORE PUSH1 0x40 DUP8 KECCAK256 SWAP8 DUP9 SLOAD PUSH9 0x10000000000000000 DUP2 LT ISZERO PUSH2 0x458 JUMPI PUSH1 0x1 DUP2 ADD DUP1 DUP12 SSTORE DUP2 LT ISZERO PUSH2 0x444 JUMPI SWAP9 DUP9 MSTORE DUP7 DUP9 KECCAK256 SWAP9 SWAP1 SWAP9 ADD DUP1 SLOAD PUSH1 0x1 PUSH1 0x1 PUSH1 0xA0 SHL SUB NOT AND CALLER OR SWAP1 SSTORE PUSH2 0x2E5 JUMP JUMPDEST PUSH4 0x4E487B71 PUSH1 0xE0 SHL DUP10 MSTORE PUSH1 0x32 PUSH1 0x4 MSTORE PUSH1 0x24 DUP10 REVERT JUMPDEST PUSH4 0x4E487B71 PUSH1 0xE0 SHL DUP10 MSTORE PUSH1 0x41 PUSH1 0x4 MSTORE PUSH1 0x24 DUP10 REVERT JUMPDEST PUSH1 0x40 MLOAD PUSH3 0x461BCD PUSH1 0xE5 SHL DUP2 MSTORE PUSH1 0x4 DUP2 ADD DUP8 SWAP1 MSTORE PUSH1 0xB PUSH1 0x24 DUP3 ADD MSTORE PUSH11 0x4F76657266756E64696E67 PUSH1 0xA8 SHL PUSH1 0x44 DUP3 ADD MSTORE PUSH1 0x64 SWAP1 REVERT JUMPDEST PUSH1 0x40 MLOAD PUSH3 0x461BCD PUSH1 0xE5 SHL DUP2 MSTORE PUSH1 0x4 DUP2 ADD DUP6 SWAP1 MSTORE PUSH1 0xD PUSH1 0x24 DUP3 ADD MSTORE PUSH13 0x139BC81D985B1D59481CD95B9D PUSH1 0x9A SHL PUSH1 0x44 DUP3 ADD MSTORE PUSH1 0x64 SWAP1 REVERT JUMPDEST CALLER SUB PUSH2 0x4E0 JUMPI CODESIZE PUSH2 0x2A5 JUMP JUMPDEST PUSH1 0x40 MLOAD PUSH3 0x461BCD PUSH1 0xE5 SHL DUP2 MSTORE PUSH1 0x4 DUP2 ADD DUP6 SWAP1 MSTORE PUSH1 0x1F PUSH1 0x24 DUP3 ADD MSTORE PUSH32 0x4F6E6C79206578636C757369766520696E766573746F7220616C6C6F77656400 PUSH1 0x44 DUP3 ADD MSTORE PUSH1 0x64 SWAP1 REVERT JUMPDEST PUSH1 0x40 MLOAD PUSH3 0x461BCD PUSH1 0xE5 SHL DUP2 MSTORE PUSH1 0x4 DUP2 ADD DUP5 SWAP1 MSTORE PUSH1 0xF PUSH1 0x24 DUP3 ADD MSTORE PUSH15 0x125B9D9BDA58D948195E1C1A5C9959 PUSH1 0x8A SHL PUSH1 0x44 DUP3 ADD MSTORE PUSH1 0x64 SWAP1 REVERT JUMPDEST PUSH4 0x4E487B71 PUSH1 0xE0 SHL DUP6 MSTORE PUSH1 0x21 PUSH1 0x4 MSTORE PUSH1 0x24 DUP6 REVERT JUMPDEST PUSH4 0x4E487B71 PUSH1 0xE0 SHL DUP4 MSTORE PUSH1 0x21 PUSH1 0x4 MSTORE PUSH1 0x24 DUP4 REVERT JUMPDEST POP CALLVALUE PUSH2 0x184 JUMPI PUSH1 0x40 CALLDATASIZE PUSH1 0x3 NOT ADD SLT PUSH2 0x184 JUMPI PUSH1 0x40 PUSH2 0x5A0 PUSH2 0x18BF JUMP JUMPDEST SWAP2 PUSH1 0x4 CALLDATALOAD DUP2 MSTORE PUSH1 0x4 PUSH1 0x20 MSTORE KECCAK256 SWAP1 PUSH1 0x1 DUP1 PUSH1 0xA0 SHL SUB AND PUSH1 0x0 MSTORE PUSH1 0x20 MSTORE PUSH1 0x20 PUSH1 0x40 PUSH1 0x0 KECCAK256 SLOAD PUSH1 0x40 MLOAD SWAP1 DUP2 MSTORE RETURN JUMPDEST POP CALLVALUE PUSH2 0x184 JUMPI DUP1 PUSH1 0x3 NOT CALLDATASIZE ADD SLT PUSH2 0x184 JUMPI PUSH1 0x7 SLOAD PUSH1 0x40 MLOAD PUSH1 0x1 PUSH1 0x1 PUSH1 0xA0 SHL SUB SWAP1 SWAP2 AND DUP2 MSTORE PUSH1 0x20 SWAP1 RETURN JUMPDEST POP CALLVALUE PUSH2 0x184 JUMPI DUP1 PUSH1 0x3 NOT CALLDATASIZE ADD SLT PUSH2 0x184 JUMPI PUSH1 0x7 SLOAD PUSH2 0x61C CALLER PUSH1 0x1 PUSH1 0x1 PUSH1 0xA0 SHL SUB DUP4 AND EQ PUSH2 0x1B1D JUMP JUMPDEST PUSH1 0xFF PUSH1 0xA0 SHL NOT AND PUSH1 0x1 PUSH1 0xA0 SHL OR PUSH1 0x7 SSTORE DUP1 RETURN JUMPDEST POP CALLVALUE PUSH2 0x184 JUMPI PUSH1 0xC0 CALLDATASIZE PUSH1 0x3 NOT ADD SLT PUSH2 0x184 JUMPI PUSH2 0x649 PUSH2 0x18A9 JUMP JUMPDEST PUSH1 0x84 CALLDATALOAD SWAP2 PUSH8 0xFFFFFFFFFFFFFFFF DUP4 GT PUSH2 0x184 JUMPI CALLDATASIZE PUSH1 0x23 DUP5 ADD SLT ISZERO PUSH2 0x184 JUMPI PUSH8 0xFFFFFFFFFFFFFFFF DUP4 PUSH1 0x4 ADD CALLDATALOAD GT PUSH2 0x184 JUMPI CALLDATASIZE PUSH1 0x24 DUP5 PUSH1 0x4 ADD CALLDATALOAD DUP6 ADD ADD GT PUSH2 0x184 JUMPI PUSH1 0xA4 CALLDATALOAD PUSH1 0x1 PUSH1 0x1 PUSH1 0xA0 SHL SUB DUP2 AND DUP2 SUB PUSH2 0xB9A JUMPI PUSH2 0x6AF PUSH1 0xFF PUSH1 0x7 SLOAD PUSH1 0xA0 SHR AND ISZERO PUSH2 0x198A JUMP JUMPDEST PUSH1 0x1 PUSH1 0x1 PUSH1 0xA0 SHL SUB DUP4 AND ISZERO PUSH2 0xB64 JUMPI PUSH1 0x24 CALLDATALOAD ISZERO PUSH2 0xB2A JUMPI TIMESTAMP PUSH1 0x44 CALLDATALOAD GT ISZERO PUSH2 0xAE5 JUMPI PUSH1 0x1 SLOAD SWAP3 PUSH1 0x1 DUP5 ADD DUP5 GT PUSH2 0xAD1 JUMPI PUSH1 0x1 DUP5 ADD PUSH1 0x1 SSTORE PUSH1 0x40 MLOAD DUP1 PUSH2 0x140 DUP2 ADD LT PUSH8 0xFFFFFFFFFFFFFFFF PUSH2 0x140 DUP4 ADD GT OR PUSH2 0xABB JUMPI PUSH2 0x140 DUP2 ADD PUSH1 0x40 MSTORE PUSH1 0x1 DUP6 ADD DUP2 MSTORE CALLER PUSH1 0x20 DUP3 ADD MSTORE PUSH1 0x1 DUP1 PUSH1 0xA0 SHL SUB DUP3 AND PUSH1 0x40 DUP3 ADD MSTORE PUSH1 0x24 CALLDATALOAD PUSH1 0x60 DUP3 ADD MSTORE DUP4 PUSH1 0x80 DUP3 ADD MSTORE PUSH1 0x44 CALLDATALOAD PUSH1 0xA0 DUP3 ADD MSTORE PUSH1 0x64 CALLDATALOAD PUSH1 0xC0 DUP3 ADD MSTORE PUSH1 0x1 PUSH1 0xE0 DUP3 ADD MSTORE PUSH2 0x757 DUP7 PUSH1 0x4 ADD CALLDATALOAD PUSH2 0x1A24 JUMP JUMPDEST PUSH2 0x764 PUSH1 0x40 MLOAD SWAP2 DUP3 PUSH2 0x1923 JUMP JUMPDEST PUSH1 0x4 DUP8 ADD CALLDATALOAD DUP1 DUP3 MSTORE PUSH1 0x24 DUP9 ADD PUSH1 0x20 DUP4 ADD CALLDATACOPY DUP5 PUSH1 0x20 DUP9 PUSH1 0x4 ADD CALLDATALOAD DUP4 ADD ADD MSTORE PUSH2 0x100 DUP3 ADD MSTORE PUSH1 0x1 DUP1 PUSH1 0xA0 SHL SUB DUP4 AND PUSH2 0x120 DUP3 ADD MSTORE PUSH1 0x1 DUP6 ADD DUP5 MSTORE PUSH1 0x2 PUSH1 0x20 MSTORE PUSH1 0x40 DUP5 KECCAK256 DUP2 MLOAD DUP2 SSTORE PUSH1 0x1 DUP2 ADD PUSH1 0x1 DUP1 PUSH1 0xA0 SHL SUB PUSH1 0x20 DUP5 ADD MLOAD AND PUSH1 0x1 PUSH1 0x1 PUSH1 0x60 SHL SUB PUSH1 0xA0 SHL DUP3 SLOAD AND OR SWAP1 SSTORE PUSH1 0x2 DUP2 ADD PUSH1 0x1 DUP1 PUSH1 0xA0 SHL SUB PUSH1 0x40 DUP5 ADD MLOAD AND PUSH1 0x1 PUSH1 0x1 PUSH1 0x60 SHL SUB PUSH1 0xA0 SHL DUP3 SLOAD AND OR SWAP1 SSTORE PUSH1 0x60 DUP3 ADD MLOAD PUSH1 0x3 DUP3 ADD SSTORE PUSH1 0x80 DUP3 ADD MLOAD PUSH1 0x4 DUP3 ADD SSTORE PUSH1 0xA0 DUP3 ADD MLOAD PUSH1 0x5 DUP3 ADD SSTORE PUSH1 0xC0 DUP3 ADD MLOAD PUSH1 0x6 DUP3 ADD SSTORE PUSH1 0x7 DUP2 ADD PUSH1 0xE0 DUP4 ADD MLOAD PUSH1 0x6 DUP2 LT ISZERO PUSH2 0xAA7 JUMPI PUSH1 0xFF DUP1 NOT DUP4 SLOAD AND SWAP2 AND OR SWAP1 SSTORE PUSH2 0x100 DUP3 ADD MLOAD DUP1 MLOAD SWAP1 PUSH8 0xFFFFFFFFFFFFFFFF DUP3 GT PUSH2 0xA93 JUMPI PUSH2 0x858 PUSH1 0x8 DUP5 ADD SLOAD PUSH2 0x18D5 JUMP JUMPDEST PUSH1 0x1F DUP2 GT PUSH2 0xA4F JUMPI JUMPDEST POP PUSH1 0x20 SWAP1 PUSH1 0x1F DUP4 GT PUSH1 0x1 EQ PUSH2 0x9DF JUMPI PUSH1 0x9 SWAP4 SWAP3 SWAP2 DUP9 SWAP2 DUP4 PUSH2 0x9D4 JUMPI JUMPDEST POP POP DUP2 PUSH1 0x1 SHL SWAP2 PUSH1 0x0 NOT SWAP1 PUSH1 0x3 SHL SHR NOT AND OR PUSH1 0x8 DUP3 ADD SSTORE JUMPDEST ADD SWAP1 PUSH2 0x120 PUSH1 0x1 DUP1 PUSH1 0xA0 SHL SUB SWAP2 ADD MLOAD AND PUSH1 0x1 PUSH1 0x1 PUSH1 0x60 SHL SUB PUSH1 0xA0 SHL DUP3 SLOAD AND OR SWAP1 SSTORE PUSH1 0x40 MLOAD SWAP1 PUSH1 0x24 CALLDATALOAD DUP3 MSTORE PUSH1 0x44 CALLDATALOAD PUSH1 0x20 DUP4 ADD MSTORE PUSH1 0x64 CALLDATALOAD PUSH1 0x40 DUP4 ADD MSTORE PUSH1 0xA0 PUSH1 0x60 DUP4 ADD MSTORE PUSH2 0x8EB PUSH1 0xA0 DUP4 ADD DUP8 PUSH1 0x4 ADD CALLDATALOAD PUSH1 0x24 DUP10 ADD PUSH2 0x1BEF JUMP JUMPDEST PUSH1 0x1 PUSH1 0x1 PUSH1 0xA0 SHL SUB SWAP4 DUP5 AND PUSH1 0x80 DUP5 ADD MSTORE SWAP3 AND SWAP2 CALLER SWAP2 PUSH1 0x1 DUP7 ADD SWAP2 PUSH32 0x6D2A84410ABBE5194267C8B6D1554AA8292266B54988855383145617C8795B8 SWAP2 SWAP1 DUP2 SWAP1 SUB SWAP1 LOG4 PUSH1 0x9 SLOAD PUSH1 0x1 PUSH1 0x1 PUSH1 0xA0 SHL SUB AND DUP1 PUSH2 0x94D JUMPI JUMPDEST PUSH1 0x20 DUP4 PUSH1 0x1 PUSH1 0x40 MLOAD SWAP2 ADD DUP2 MSTORE RETURN JUMPDEST DUP2 SWAP4 DUP2 EXTCODESIZE ISZERO PUSH2 0x9D0 JUMPI DUP3 SWAP2 PUSH2 0x998 SWAP2 PUSH1 0x40 MLOAD SWAP5 DUP6 DUP1 SWAP5 DUP2 SWAP4 PUSH4 0x3B32D613 PUSH1 0xE2 SHL DUP4 MSTORE CALLER PUSH1 0x4 DUP5 ADD MSTORE PUSH1 0x1 DUP11 ADD PUSH1 0x24 DUP5 ADD MSTORE PUSH1 0x60 PUSH1 0x44 DUP5 ADD MSTORE PUSH1 0x64 DUP4 ADD SWAP1 PUSH1 0x24 DUP2 PUSH1 0x4 ADD CALLDATALOAD SWAP2 ADD PUSH2 0x1BEF JUMP JUMPDEST SUB SWAP3 GAS CALL DUP1 ISZERO PUSH2 0x9C5 JUMPI PUSH2 0x9AD JUMPI JUMPDEST DUP1 PUSH2 0x93F JUMP JUMPDEST PUSH2 0x9B7 DUP4 SWAP2 PUSH2 0x190F JUMP JUMPDEST PUSH2 0x9C1 JUMPI DUP2 PUSH2 0x9A7 JUMP JUMPDEST POP DUP1 REVERT JUMPDEST PUSH1 0x40 MLOAD RETURNDATASIZE DUP6 DUP3 RETURNDATACOPY RETURNDATASIZE SWAP1 REVERT JUMPDEST DUP3 DUP1 REVERT JUMPDEST ADD MLOAD SWAP1 POP CODESIZE DUP1 PUSH2 0x87D JUMP JUMPDEST SWAP1 PUSH1 0x8 DUP5 ADD DUP9 MSTORE PUSH1 0x20 DUP9 KECCAK256 SWAP2 DUP9 JUMPDEST PUSH1 0x1F NOT DUP6 AND DUP2 LT PUSH2 0xA37 JUMPI POP SWAP2 DUP4 SWAP2 PUSH1 0x1 SWAP4 PUSH1 0x9 SWAP7 SWAP6 PUSH1 0x1F NOT DUP2 AND LT PUSH2 0xA1E JUMPI JUMPDEST POP POP POP DUP2 SHL ADD PUSH1 0x8 DUP3 ADD SSTORE PUSH2 0x895 JUMP JUMPDEST ADD MLOAD PUSH1 0x0 NOT PUSH1 0xF8 DUP5 PUSH1 0x3 SHL AND SHR NOT AND SWAP1 SSTORE CODESIZE DUP1 DUP1 PUSH2 0xA0E JUMP JUMPDEST SWAP2 SWAP3 PUSH1 0x20 PUSH1 0x1 DUP2 SWAP3 DUP7 DUP6 ADD MLOAD DUP2 SSTORE ADD SWAP5 ADD SWAP3 ADD PUSH2 0x9ED JUMP JUMPDEST PUSH1 0x8 DUP5 ADD DUP9 MSTORE PUSH1 0x20 DUP9 KECCAK256 PUSH1 0x1F DUP5 ADD PUSH1 0x5 SHR DUP2 ADD PUSH1 0x20 DUP6 LT PUSH2 0xA8C JUMPI JUMPDEST PUSH1 0x1F DUP4 ADD PUSH1 0x5 SHR DUP3 ADD DUP2 LT PUSH2 0xA81 JUMPI POP POP PUSH2 0x861 JUMP JUMPDEST DUP10 DUP2 SSTORE PUSH1 0x1 ADD PUSH2 0xA6B JUMP JUMPDEST POP DUP1 PUSH2 0xA6B JUMP JUMPDEST PUSH4 0x4E487B71 PUSH1 0xE0 SHL DUP8 MSTORE PUSH1 0x41 PUSH1 0x4 MSTORE PUSH1 0x24 DUP8 REVERT JUMPDEST PUSH4 0x4E487B71 PUSH1 0xE0 SHL DUP8 MSTORE PUSH1 0x21 PUSH1 0x4 MSTORE PUSH1 0x24 DUP8 REVERT JUMPDEST PUSH4 0x4E487B71 PUSH1 0xE0 SHL PUSH1 0x0 MSTORE PUSH1 0x41 PUSH1 0x4 MSTORE PUSH1 0x24 PUSH1 0x0 REVERT JUMPDEST PUSH4 0x4E487B71 PUSH1 0xE0 SHL DUP4 MSTORE PUSH1 0x11 PUSH1 0x4 MSTORE PUSH1 0x24 DUP4 REVERT JUMPDEST PUSH1 0x40 MLOAD PUSH3 0x461BCD PUSH1 0xE5 SHL DUP2 MSTORE PUSH1 0x20 PUSH1 0x4 DUP3 ADD MSTORE PUSH1 0x1A PUSH1 0x24 DUP3 ADD MSTORE PUSH32 0x4475652064617465206D75737420626520696E20667574757265000000000000 PUSH1 0x44 DUP3 ADD MSTORE PUSH1 0x64 SWAP1 REVERT JUMPDEST PUSH1 0x40 MLOAD PUSH3 0x461BCD PUSH1 0xE5 SHL DUP2 MSTORE PUSH1 0x20 PUSH1 0x4 DUP3 ADD MSTORE PUSH1 0x12 PUSH1 0x24 DUP3 ADD MSTORE PUSH18 0x416D6F756E74206D757374206265203E203 PUSH1 0x74 SHL PUSH1 0x44 DUP3 ADD MSTORE PUSH1 0x64 SWAP1 REVERT JUMPDEST PUSH1 0x40 MLOAD PUSH3 0x461BCD PUSH1 0xE5 SHL DUP2 MSTORE PUSH1 0x20 PUSH1 0x4 DUP3 ADD MSTORE PUSH1 0xE PUSH1 0x24 DUP3 ADD MSTORE PUSH14 0x109D5E595C881C995C5D5A5C9959 PUSH1 0x92 SHL PUSH1 0x44 DUP3 ADD MSTORE PUSH1 0x64 SWAP1 REVERT JUMPDEST PUSH1 0x0 DUP1 REVERT JUMPDEST POP CALLVALUE PUSH2 0x184 JUMPI PUSH1 0x20 CALLDATASIZE PUSH1 0x3 NOT ADD SLT PUSH2 0x184 JUMPI PUSH1 0x4 CALLDATALOAD DUP1 DUP3 MSTORE PUSH1 0x2 PUSH1 0x20 MSTORE PUSH1 0xFF PUSH1 0x7 PUSH1 0x40 DUP5 KECCAK256 ADD SLOAD AND PUSH1 0x6 DUP2 LT ISZERO PUSH2 0x570 JUMPI PUSH2 0xBDB SWAP1 ISZERO ISZERO PUSH2 0x1945 JUMP JUMPDEST DUP1 DUP3 MSTORE PUSH1 0x2 PUSH1 0x20 MSTORE PUSH1 0x40 DUP3 KECCAK256 PUSH1 0x7 DUP2 ADD SWAP1 DUP2 SLOAD SWAP1 PUSH1 0xFF DUP3 AND PUSH1 0x6 DUP2 LT ISZERO PUSH2 0xCAD JUMPI PUSH1 0x3 SUB PUSH2 0xC77 JUMPI PUSH1 0x5 ADD SLOAD TIMESTAMP GT ISZERO PUSH2 0xC3E JUMPI PUSH1 0xFF NOT AND PUSH1 0x5 OR SWAP1 SSTORE PUSH32 0xDAD3D8C24C5E0A13FFB0C0FA573014D3C4BA10367D5CBA3549FA7C9AC18B93A4 DUP3 DUP1 LOG2 DUP1 RETURN JUMPDEST PUSH1 0x40 MLOAD PUSH3 0x461BCD PUSH1 0xE5 SHL DUP2 MSTORE PUSH1 0x20 PUSH1 0x4 DUP3 ADD MSTORE PUSH1 0x11 PUSH1 0x24 DUP3 ADD MSTORE PUSH17 0x4E6F742070617374206475652064617465 PUSH1 0x78 SHL PUSH1 0x44 DUP3 ADD MSTORE PUSH1 0x64 SWAP1 REVERT JUMPDEST PUSH1 0x40 MLOAD PUSH3 0x461BCD PUSH1 0xE5 SHL DUP2 MSTORE PUSH1 0x20 PUSH1 0x4 DUP3 ADD MSTORE PUSH1 0xE PUSH1 0x24 DUP3 ADD MSTORE PUSH14 0x10D85B9B9BDD08191959985D5B1D PUSH1 0x92 SHL PUSH1 0x44 DUP3 ADD MSTORE PUSH1 0x64 SWAP1 REVERT JUMPDEST PUSH4 0x4E487B71 PUSH1 0xE0 SHL DUP7 MSTORE PUSH1 0x21 PUSH1 0x4 MSTORE PUSH1 0x24 DUP7 REVERT JUMPDEST POP CALLVALUE PUSH2 0x184 JUMPI PUSH1 0x20 CALLDATASIZE PUSH1 0x3 NOT ADD SLT PUSH2 0x184 JUMPI PUSH1 0x4 CALLDATALOAD PUSH2 0xCEB PUSH1 0x1 DUP1 PUSH1 0xA0 SHL SUB PUSH1 0x7 SLOAD AND CALLER EQ PUSH2 0x1B1D JUMP JUMPDEST PUSH2 0xCF9 PUSH2 0x2710 DUP3 GT ISZERO PUSH2 0x1AE2 JUMP JUMPDEST PUSH1 0x8 SSTORE DUP1 RETURN JUMPDEST POP CALLVALUE PUSH2 0x184 JUMPI DUP1 PUSH1 0x3 NOT CALLDATASIZE ADD SLT PUSH2 0x184 JUMPI PUSH1 0x20 PUSH1 0x1 SLOAD PUSH1 0x40 MLOAD SWAP1 DUP2 MSTORE RETURN JUMPDEST POP CALLVALUE PUSH2 0x184 JUMPI PUSH1 0x20 CALLDATASIZE PUSH1 0x3 NOT ADD SLT PUSH2 0x184 JUMPI PUSH2 0xD37 PUSH2 0x18A9 JUMP JUMPDEST PUSH1 0x7 SLOAD PUSH1 0x1 PUSH1 0x1 PUSH1 0xA0 SHL SUB SWAP2 SWAP1 PUSH2 0xD51 SWAP1 DUP4 AND CALLER EQ PUSH2 0x1B1D JUMP JUMPDEST AND PUSH2 0xD5D DUP2 ISZERO ISZERO PUSH2 0x1AA7 JUMP JUMPDEST PUSH1 0x1 PUSH1 0x1 PUSH1 0x60 SHL SUB PUSH1 0xA0 SHL PUSH1 0xA SLOAD AND OR PUSH1 0xA SSTORE DUP1 RETURN JUMPDEST POP CALLVALUE PUSH2 0x184 JUMPI DUP1 PUSH1 0x3 NOT CALLDATASIZE ADD SLT PUSH2 0x184 JUMPI PUSH1 0xA SLOAD PUSH1 0x40 MLOAD PUSH1 0x1 PUSH1 0x1 PUSH1 0xA0 SHL SUB SWAP1 SWAP2 AND DUP2 MSTORE PUSH1 0x20 SWAP1 RETURN JUMPDEST POP CALLVALUE PUSH2 0x184 JUMPI PUSH1 0x20 CALLDATASIZE PUSH1 0x3 NOT ADD SLT PUSH2 0x184 JUMPI PUSH1 0x40 PUSH1 0x20 SWAP2 PUSH1 0x4 CALLDATALOAD DUP2 MSTORE PUSH1 0x6 DUP4 MSTORE KECCAK256 SLOAD PUSH1 0x40 MLOAD SWAP1 DUP2 MSTORE RETURN JUMPDEST POP CALLVALUE PUSH2 0x184 JUMPI PUSH1 0x20 CALLDATASIZE PUSH1 0x3 NOT ADD SLT PUSH2 0x184 JUMPI PUSH1 0x4 CALLDATALOAD DUP1 DUP3 MSTORE PUSH1 0x2 DUP1 PUSH1 0x20 MSTORE PUSH1 0xFF PUSH1 0x7 PUSH1 0x40 DUP6 KECCAK256 ADD SLOAD AND PUSH1 0x6 DUP2 LT ISZERO PUSH2 0xEDC JUMPI PUSH2 0xE03 SWAP1 ISZERO ISZERO PUSH2 0x1945 JUMP JUMPDEST DUP2 DUP4 MSTORE DUP1 PUSH1 0x20 MSTORE PUSH1 0x1 DUP1 PUSH1 0xA0 SHL SUB SWAP1 PUSH2 0xE25 DUP3 DUP3 PUSH1 0x40 DUP8 KECCAK256 ADD SLOAD AND CALLER EQ PUSH2 0x1B55 JUMP JUMPDEST PUSH2 0xE37 PUSH1 0xFF PUSH1 0x7 SLOAD PUSH1 0xA0 SHR AND ISZERO PUSH2 0x198A JUMP JUMPDEST DUP3 DUP5 MSTORE DUP1 PUSH1 0x20 MSTORE PUSH1 0x40 DUP5 KECCAK256 PUSH1 0x7 DUP2 ADD DUP1 SLOAD PUSH1 0xFF DUP2 AND PUSH1 0x6 DUP2 LT ISZERO PUSH2 0xEC8 JUMPI PUSH1 0x1 SUB PUSH2 0xE8F JUMPI PUSH1 0xFF NOT AND DUP4 OR SWAP1 SSTORE ADD SLOAD AND SWAP1 PUSH32 0x5AD1F83FED722A2F75A27916C297196DB29E3D208589663EBE1FEF5AB880AD50 DUP4 DUP1 LOG3 DUP1 RETURN JUMPDEST PUSH1 0x40 MLOAD PUSH3 0x461BCD PUSH1 0xE5 SHL DUP2 MSTORE PUSH1 0x20 PUSH1 0x4 DUP3 ADD MSTORE PUSH1 0x11 PUSH1 0x24 DUP3 ADD MSTORE PUSH17 0x2BB0B4BA34B733903337B910213ABCB2B9 PUSH1 0x79 SHL PUSH1 0x44 DUP3 ADD MSTORE PUSH1 0x64 SWAP1 REVERT JUMPDEST PUSH4 0x4E487B71 PUSH1 0xE0 SHL DUP9 MSTORE PUSH1 0x21 PUSH1 0x4 MSTORE PUSH1 0x24 DUP9 REVERT JUMPDEST PUSH4 0x4E487B71 PUSH1 0xE0 SHL DUP5 MSTORE PUSH1 0x21 PUSH1 0x4 MSTORE PUSH1 0x24 DUP5 REVERT JUMPDEST POP CALLVALUE PUSH2 0x184 JUMPI DUP1 PUSH1 0x3 NOT CALLDATASIZE ADD SLT PUSH2 0x184 JUMPI PUSH1 0x20 PUSH1 0xFF PUSH1 0x7 SLOAD PUSH1 0xA0 SHR AND PUSH1 0x40 MLOAD SWAP1 ISZERO ISZERO DUP2 MSTORE RETURN JUMPDEST POP CALLVALUE PUSH2 0x184 JUMPI PUSH1 0x20 DUP1 PUSH1 0x3 NOT CALLDATASIZE ADD SLT PUSH2 0x9C1 JUMPI PUSH1 0x4 CALLDATALOAD DUP1 DUP4 MSTORE PUSH1 0x2 DUP3 MSTORE PUSH1 0xFF PUSH1 0x7 PUSH1 0x40 DUP6 KECCAK256 ADD SLOAD AND PUSH1 0x6 DUP2 LT ISZERO PUSH2 0xEDC JUMPI PUSH2 0xF52 SWAP1 ISZERO ISZERO PUSH2 0x1945 JUMP JUMPDEST PUSH2 0xF64 PUSH1 0xFF PUSH1 0x7 SLOAD PUSH1 0xA0 SHR AND ISZERO PUSH2 0x198A JUMP JUMPDEST PUSH2 0xF6C PUSH2 0x1C10 JUMP JUMPDEST DUP1 DUP4 MSTORE PUSH1 0x2 DUP3 MSTORE PUSH1 0x40 DUP4 KECCAK256 SWAP2 PUSH1 0xFF PUSH1 0x7 DUP5 ADD SLOAD AND PUSH1 0x6 DUP2 LT ISZERO PUSH2 0x55C JUMPI PUSH1 0x2 PUSH2 0xF95 SWAP2 EQ PUSH2 0x1BB1 JUMP JUMPDEST PUSH1 0x5 DUP4 ADD SLOAD TIMESTAMP GT ISZERO PUSH2 0x1067 JUMPI DUP2 DUP5 MSTORE PUSH1 0x4 DUP2 MSTORE PUSH1 0x40 DUP5 KECCAK256 CALLER PUSH1 0x0 MSTORE DUP2 MSTORE PUSH1 0x4 PUSH1 0x40 PUSH1 0x0 KECCAK256 SLOAD SWAP4 PUSH2 0xFC6 DUP6 ISZERO ISZERO PUSH2 0x19BF JUMP JUMPDEST DUP4 DUP7 MSTORE DUP2 DUP4 MSTORE PUSH1 0x40 DUP7 KECCAK256 CALLER PUSH1 0x0 MSTORE DUP4 MSTORE DUP6 PUSH1 0x40 PUSH1 0x0 KECCAK256 SSTORE ADD PUSH2 0xFE9 DUP5 DUP3 SLOAD PUSH2 0x1BA4 JUMP JUMPDEST SWAP1 SSTORE DUP4 DUP1 DUP1 DUP1 DUP7 CALLER GAS CALL PUSH2 0xFFB PUSH2 0x1A40 JUMP JUMPDEST POP ISZERO PUSH2 0x1033 JUMPI PUSH32 0xF3F402280EF0A7905E124AA621B65EAEB2725C343E8B36D398ED78C29DAF285C SWAP1 PUSH1 0x40 MLOAD SWAP4 DUP5 MSTORE CALLER SWAP4 LOG3 PUSH1 0x1 DUP2 SSTORE DUP1 RETURN JUMPDEST PUSH1 0x64 SWAP1 PUSH1 0x40 MLOAD SWAP1 PUSH3 0x461BCD PUSH1 0xE5 SHL DUP3 MSTORE PUSH1 0x4 DUP3 ADD MSTORE PUSH1 0xD PUSH1 0x24 DUP3 ADD MSTORE PUSH13 0x1499599D5B990819985A5B1959 PUSH1 0x9A SHL PUSH1 0x44 DUP3 ADD MSTORE REVERT JUMPDEST PUSH1 0x64 SWAP1 PUSH1 0x40 MLOAD SWAP1 PUSH3 0x461BCD PUSH1 0xE5 SHL DUP3 MSTORE PUSH1 0x4 DUP3 ADD MSTORE PUSH1 0x13 PUSH1 0x24 DUP3 ADD MSTORE PUSH19 0x125B9D9BDA58D9481B9BDD08195E1C1A5C9959 PUSH1 0x6A SHL PUSH1 0x44 DUP3 ADD MSTORE REVERT JUMPDEST POP PUSH1 0x20 DUP1 PUSH1 0x3 NOT CALLDATASIZE ADD SLT PUSH2 0x9C1 JUMPI PUSH1 0x4 CALLDATALOAD SWAP1 DUP2 DUP4 MSTORE PUSH1 0x2 DUP2 MSTORE PUSH1 0xFF PUSH1 0x7 PUSH1 0x40 DUP6 KECCAK256 ADD SLOAD AND PUSH1 0x6 DUP2 LT ISZERO PUSH2 0xEDC JUMPI PUSH2 0x10D9 SWAP1 ISZERO ISZERO PUSH2 0x1945 JUMP JUMPDEST DUP2 DUP4 MSTORE PUSH1 0x2 DUP1 DUP3 MSTORE PUSH1 0x40 DUP5 KECCAK256 ADD SLOAD PUSH1 0x1 PUSH1 0x1 PUSH1 0xA0 SHL SUB SWAP1 PUSH2 0x10FD SWAP1 DUP3 AND CALLER EQ PUSH2 0x1B55 JUMP JUMPDEST PUSH2 0x110F PUSH1 0xFF PUSH1 0x7 SLOAD PUSH1 0xA0 SHR AND ISZERO PUSH2 0x198A JUMP JUMPDEST PUSH2 0x1117 PUSH2 0x1C10 JUMP JUMPDEST DUP3 DUP5 MSTORE PUSH1 0x2 DUP3 MSTORE PUSH1 0x40 DUP5 KECCAK256 PUSH1 0x7 DUP2 ADD DUP1 SLOAD PUSH1 0xFF DUP2 AND PUSH1 0x6 DUP2 LT ISZERO PUSH2 0xEC8 JUMPI PUSH1 0x3 SUB PUSH2 0x12A6 JUMPI SWAP1 DUP3 SWAP2 PUSH2 0x1163 PUSH1 0x3 PUSH1 0x6 SWAP6 ADD SLOAD SWAP4 PUSH2 0x115B PUSH2 0x2710 SWAP7 DUP8 SWAP3 ADD SLOAD DUP7 PUSH2 0x19FB JUMP JUMPDEST DIV DUP1 SWAP5 PUSH2 0x1B97 JUMP JUMPDEST CALLVALUE SUB PUSH2 0x1261 JUMPI PUSH1 0xFF NOT AND PUSH1 0x4 OR SWAP1 SSTORE PUSH1 0x8 SLOAD DUP7 SWAP3 SWAP2 PUSH2 0x1182 SWAP2 SWAP1 PUSH2 0x19FB JUMP JUMPDEST DIV SWAP2 PUSH2 0x118E DUP4 CALLVALUE PUSH2 0x1BA4 JUMP JUMPDEST DUP6 DUP4 MSTORE PUSH1 0x5 DUP6 MSTORE CALLVALUE PUSH1 0x40 DUP5 KECCAK256 SSTORE PUSH1 0x6 DUP6 MSTORE PUSH1 0x40 DUP4 KECCAK256 SSTORE DUP3 ISZERO ISZERO DUP1 PUSH2 0x1254 JUMPI JUMPDEST PUSH2 0x11E4 JUMPI JUMPDEST POP DUP4 PUSH32 0xE57C83410AB16D767654351928D1EA4B894F6C93E04E4E6408BD7D301DCD82DB DUP5 PUSH1 0x40 MLOAD CALLVALUE DUP2 MSTORE LOG2 PUSH1 0x1 DUP2 SSTORE DUP1 RETURN JUMPDEST PUSH1 0xA SLOAD AND DUP1 EXTCODESIZE ISZERO PUSH2 0x9C1 JUMPI PUSH1 0x4 PUSH1 0x40 MLOAD DUP1 SWAP5 DUP2 SWAP4 PUSH4 0x3147779 PUSH1 0xE2 SHL DUP4 MSTORE GAS CALL DUP1 ISZERO PUSH2 0x1249 JUMPI PUSH2 0x1216 JUMPI JUMPDEST DUP4 DUP2 PUSH2 0x11B2 JUMP JUMPDEST SWAP3 PUSH2 0x1242 PUSH32 0xE57C83410AB16D767654351928D1EA4B894F6C93E04E4E6408BD7D301DCD82DB SWAP3 SWAP5 PUSH2 0x190F JUMP JUMPDEST SWAP3 SWAP1 PUSH2 0x120F JUMP JUMPDEST PUSH1 0x40 MLOAD RETURNDATASIZE DUP7 DUP3 RETURNDATACOPY RETURNDATASIZE SWAP1 REVERT JUMPDEST POP DUP1 PUSH1 0xA SLOAD AND ISZERO ISZERO PUSH2 0x11AD JUMP JUMPDEST PUSH1 0x40 MLOAD PUSH3 0x461BCD PUSH1 0xE5 SHL DUP2 MSTORE PUSH1 0x4 DUP2 ADD DUP8 SWAP1 MSTORE PUSH1 0x1A PUSH1 0x24 DUP3 ADD MSTORE PUSH32 0x496E636F72726563742072657061796D656E7420616D6F756E74000000000000 PUSH1 0x44 DUP3 ADD MSTORE PUSH1 0x64 SWAP1 REVERT JUMPDEST PUSH1 0x40 MLOAD PUSH3 0x461BCD PUSH1 0xE5 SHL DUP2 MSTORE PUSH1 0x4 DUP2 ADD DUP7 SWAP1 MSTORE PUSH1 0x12 PUSH1 0x24 DUP3 ADD MSTORE PUSH18 0x125B9D9BDA58D9481B9BDD08199D5B991959 PUSH1 0x72 SHL PUSH1 0x44 DUP3 ADD MSTORE PUSH1 0x64 SWAP1 REVERT JUMPDEST POP CALLVALUE PUSH2 0x184 JUMPI PUSH1 0x20 CALLDATASIZE PUSH1 0x3 NOT ADD SLT PUSH2 0x184 JUMPI PUSH1 0x4 CALLDATALOAD DUP2 MSTORE PUSH1 0x2 PUSH1 0x20 MSTORE PUSH1 0x40 DUP2 KECCAK256 SWAP1 DUP2 SLOAD PUSH1 0x1 SWAP3 PUSH1 0x1 DUP1 PUSH1 0xA0 SHL SUB PUSH1 0x1 DUP3 ADD SLOAD AND SWAP4 PUSH1 0x1 DUP1 PUSH1 0xA0 SHL SUB PUSH1 0x2 DUP4 ADD SLOAD AND SWAP2 PUSH1 0x3 DUP2 ADD SLOAD PUSH1 0x4 DUP3 ADD SLOAD PUSH1 0x5 DUP4 ADD SLOAD SWAP1 PUSH1 0x6 DUP5 ADD SLOAD SWAP3 PUSH1 0xFF PUSH1 0x7 DUP7 ADD SLOAD AND SWAP5 PUSH1 0x8 DUP2 ADD PUSH1 0x40 MLOAD DUP1 SWAP9 DUP13 SWAP1 DUP4 SLOAD SWAP4 PUSH2 0x1358 DUP6 PUSH2 0x18D5 JUMP JUMPDEST DUP1 DUP6 MSTORE SWAP5 PUSH1 0x1 DUP2 AND SWAP1 DUP2 ISZERO PUSH2 0x1455 JUMPI POP PUSH1 0x1 EQ PUSH2 0x1417 JUMPI JUMPDEST POP POP PUSH2 0x137E SWAP3 POP SUB DUP9 PUSH2 0x1923 JUMP JUMPDEST PUSH1 0x9 PUSH1 0x1 DUP1 PUSH1 0xA0 SHL SUB SWAP2 ADD SLOAD AND SWAP7 PUSH1 0x40 MLOAD SWAP11 PUSH2 0x140 SWAP10 DUP13 MSTORE PUSH1 0x20 DUP13 ADD MSTORE PUSH1 0x40 DUP12 ADD MSTORE PUSH1 0x60 DUP11 ADD MSTORE PUSH1 0x80 DUP10 ADD MSTORE PUSH1 0xA0 DUP9 ADD MSTORE PUSH1 0xC0 DUP8 ADD MSTORE PUSH1 0x6 DUP2 LT ISZERO PUSH2 0x55C JUMPI SWAP1 DUP6 SWAP4 SWAP3 SWAP2 PUSH1 0xE0 DUP6 ADD MSTORE DUP3 PUSH2 0x100 DUP6 ADD MSTORE DUP1 MLOAD DUP1 SWAP4 DUP6 ADD MSTORE DUP5 JUMPDEST DUP4 DUP2 LT PUSH2 0x13FE JUMPI POP POP PUSH2 0x160 SWAP4 DUP5 DUP4 DUP6 ADD ADD MSTORE PUSH2 0x120 DUP4 ADD MSTORE PUSH1 0x1F DUP1 NOT SWAP2 ADD AND DUP2 ADD SUB ADD SWAP1 RETURN JUMPDEST PUSH1 0x20 DUP3 DUP3 ADD DUP2 ADD MLOAD PUSH2 0x160 DUP10 DUP5 ADD ADD MSTORE DUP8 SWAP6 POP ADD PUSH2 0x13D7 JUMP JUMPDEST DUP15 MSTORE PUSH1 0x20 DUP15 KECCAK256 DUP15 SWAP3 POP JUMPDEST DUP5 DUP4 LT PUSH2 0x143B JUMPI POP PUSH2 0x137E SWAP4 POP POP DUP2 ADD PUSH1 0x20 ADD CODESIZE DUP1 PUSH2 0x1370 JUMP JUMPDEST SWAP1 DUP2 DUP2 SWAP5 PUSH1 0x20 DUP6 DUP2 SWAP6 SLOAD SWAP3 ADD ADD MSTORE ADD SWAP2 ADD SWAP1 SWAP2 DUP11 SWAP3 PUSH2 0x1421 JUMP JUMPDEST SWAP2 POP POP PUSH1 0x20 SWAP3 POP PUSH2 0x137E SWAP5 SWAP2 POP PUSH1 0xFF NOT AND DUP3 DUP5 ADD MSTORE ISZERO ISZERO PUSH1 0x5 SHL DUP3 ADD ADD CODESIZE DUP1 PUSH2 0x1370 JUMP JUMPDEST POP CALLVALUE PUSH2 0x184 JUMPI DUP1 PUSH1 0x3 NOT CALLDATASIZE ADD SLT PUSH2 0x184 JUMPI PUSH1 0x9 SLOAD PUSH1 0x40 MLOAD PUSH1 0x1 PUSH1 0x1 PUSH1 0xA0 SHL SUB SWAP1 SWAP2 AND DUP2 MSTORE PUSH1 0x20 SWAP1 RETURN JUMPDEST POP CALLVALUE PUSH2 0x184 JUMPI DUP1 PUSH1 0x3 NOT CALLDATASIZE ADD SLT PUSH2 0x184 JUMPI PUSH1 0x7 SLOAD PUSH2 0x14CA CALLER PUSH1 0x1 PUSH1 0x1 PUSH1 0xA0 SHL SUB DUP4 AND EQ PUSH2 0x1B1D JUMP JUMPDEST PUSH1 0xFF PUSH1 0xA0 SHL NOT AND PUSH1 0x7 SSTORE DUP1 RETURN JUMPDEST POP CALLVALUE PUSH2 0x184 JUMPI PUSH1 0x20 CALLDATASIZE PUSH1 0x3 NOT ADD SLT PUSH2 0x184 JUMPI PUSH1 0x40 PUSH1 0x20 SWAP2 PUSH1 0x4 CALLDATALOAD DUP2 MSTORE PUSH1 0x5 DUP4 MSTORE KECCAK256 SLOAD PUSH1 0x40 MLOAD SWAP1 DUP2 MSTORE RETURN JUMPDEST POP CALLVALUE PUSH2 0x184 JUMPI DUP1 PUSH1 0x3 NOT CALLDATASIZE ADD SLT PUSH2 0x184 JUMPI PUSH1 0x20 PUSH1 0x8 SLOAD PUSH1 0x40 MLOAD SWAP1 DUP2 MSTORE RETURN JUMPDEST POP CALLVALUE PUSH2 0x184 JUMPI PUSH1 0x60 CALLDATASIZE PUSH1 0x3 NOT ADD SLT PUSH2 0x184 JUMPI PUSH2 0x1539 PUSH2 0x18A9 JUMP JUMPDEST PUSH2 0x1541 PUSH2 0x18BF JUMP JUMPDEST PUSH1 0x44 CALLDATALOAD PUSH1 0xA SLOAD SWAP3 PUSH1 0xFF DUP5 PUSH1 0xA0 SHR AND PUSH2 0x15C3 JUMPI PUSH1 0x1 PUSH1 0x1 PUSH1 0xA0 SHL SUB SWAP1 DUP2 AND SWAP3 PUSH2 0x156A DUP5 ISZERO ISZERO PUSH2 0x1A70 JUMP JUMPDEST AND SWAP2 PUSH2 0x1577 DUP4 ISZERO ISZERO PUSH2 0x1AA7 JUMP JUMPDEST PUSH2 0x1585 PUSH2 0x2710 DUP4 GT ISZERO PUSH2 0x1AE2 JUMP JUMPDEST PUSH1 0x1 PUSH1 0x1 PUSH1 0x60 SHL SUB PUSH1 0xA0 SHL CALLER DUP2 PUSH1 0x7 SLOAD AND OR PUSH1 0x7 SSTORE PUSH1 0x9 SLOAD AND OR PUSH1 0x9 SSTORE PUSH1 0x8 SSTORE PUSH1 0x1 PUSH1 0xA0 SHL SWAP2 PUSH11 0xFFFFFFFFFFFFFFFFFFFFFF PUSH1 0xA8 SHL AND OR OR PUSH1 0xA SSTORE DUP1 RETURN JUMPDEST PUSH1 0x40 MLOAD PUSH3 0x461BCD PUSH1 0xE5 SHL DUP2 MSTORE PUSH1 0x20 PUSH1 0x4 DUP3 ADD MSTORE PUSH1 0x13 PUSH1 0x24 DUP3 ADD MSTORE PUSH19 0x105B1C9958591E481A5B9A5D1A585B1A5E9959 PUSH1 0x6A SHL PUSH1 0x44 DUP3 ADD MSTORE PUSH1 0x64 SWAP1 REVERT JUMPDEST POP CALLVALUE PUSH2 0x184 JUMPI PUSH1 0x20 DUP1 PUSH1 0x3 NOT CALLDATASIZE ADD SLT PUSH2 0x9C1 JUMPI PUSH1 0x4 CALLDATALOAD DUP1 DUP4 MSTORE PUSH1 0x2 DUP3 MSTORE PUSH1 0xFF PUSH1 0x7 PUSH1 0x40 DUP6 KECCAK256 ADD SLOAD AND PUSH1 0x6 DUP2 LT ISZERO PUSH2 0xEDC JUMPI PUSH2 0x163A SWAP1 ISZERO ISZERO PUSH2 0x1945 JUMP JUMPDEST DUP3 MSTORE PUSH1 0x3 DUP2 MSTORE PUSH1 0x40 DUP3 KECCAK256 PUSH1 0x40 MLOAD SWAP3 DUP4 DUP4 DUP4 SLOAD SWAP2 DUP3 DUP2 MSTORE ADD SWAP1 DUP2 SWAP4 DUP4 MSTORE DUP5 DUP4 KECCAK256 SWAP1 DUP4 JUMPDEST DUP2 DUP2 LT PUSH2 0x16B9 JUMPI POP POP POP DUP5 PUSH2 0x1672 SWAP2 SUB DUP6 PUSH2 0x1923 JUMP JUMPDEST PUSH1 0x40 MLOAD SWAP4 DUP4 DUP6 SWAP5 DUP6 ADD SWAP2 DUP2 DUP7 MSTORE MLOAD DUP1 SWAP3 MSTORE PUSH1 0x40 DUP6 ADD SWAP4 SWAP3 JUMPDEST DUP3 DUP2 LT PUSH2 0x1699 JUMPI POP POP POP POP SUB SWAP1 RETURN JUMPDEST DUP4 MLOAD PUSH1 0x1 PUSH1 0x1 PUSH1 0xA0 SHL SUB AND DUP6 MSTORE DUP7 SWAP6 POP SWAP4 DUP2 ADD SWAP4 SWAP3 DUP2 ADD SWAP3 PUSH1 0x1 ADD PUSH2 0x168A JUMP JUMPDEST DUP3 SLOAD PUSH1 0x1 PUSH1 0x1 PUSH1 0xA0 SHL SUB AND DUP5 MSTORE SWAP3 DUP7 ADD SWAP3 PUSH1 0x1 SWAP3 DUP4 ADD SWAP3 ADD PUSH2 0x165C JUMP JUMPDEST POP CALLVALUE PUSH2 0x184 JUMPI PUSH1 0x20 DUP1 PUSH1 0x3 NOT CALLDATASIZE ADD SLT PUSH2 0x9C1 JUMPI PUSH1 0x4 CALLDATALOAD DUP1 DUP4 MSTORE PUSH1 0x2 DUP3 MSTORE PUSH1 0xFF PUSH1 0x7 PUSH1 0x40 DUP6 KECCAK256 ADD SLOAD AND PUSH1 0x6 DUP2 LT ISZERO PUSH2 0xEDC JUMPI PUSH2 0x1712 SWAP1 ISZERO ISZERO PUSH2 0x1945 JUMP JUMPDEST PUSH2 0x1724 PUSH1 0xFF PUSH1 0x7 SLOAD PUSH1 0xA0 SHR AND ISZERO PUSH2 0x198A JUMP JUMPDEST PUSH2 0x172C PUSH2 0x1C10 JUMP JUMPDEST DUP1 DUP4 MSTORE PUSH1 0x2 DUP3 MSTORE PUSH1 0x40 DUP4 KECCAK256 PUSH1 0xFF PUSH1 0x7 DUP3 ADD SLOAD AND PUSH1 0x6 DUP2 LT ISZERO PUSH2 0x55C JUMPI PUSH1 0x4 SUB PUSH2 0x186F JUMPI DUP2 DUP5 MSTORE PUSH1 0x4 DUP4 MSTORE PUSH1 0x40 DUP5 KECCAK256 CALLER DUP6 MSTORE DUP4 MSTORE PUSH1 0x40 DUP5 KECCAK256 SLOAD PUSH2 0x176F DUP2 ISZERO ISZERO PUSH2 0x19BF JUMP JUMPDEST DUP3 DUP6 MSTORE PUSH1 0x6 DUP5 MSTORE PUSH1 0x40 DUP6 KECCAK256 SLOAD DUP1 ISZERO PUSH2 0x183F JUMPI PUSH1 0x3 SWAP2 PUSH2 0x178D SWAP2 PUSH2 0x19FB JUMP JUMPDEST SWAP2 ADD SLOAD SWAP1 DUP2 ISZERO PUSH2 0x182B JUMPI DIV SWAP2 DUP2 DUP5 MSTORE PUSH1 0x4 DUP2 MSTORE PUSH1 0x40 DUP5 KECCAK256 CALLER DUP6 MSTORE DUP2 MSTORE DUP4 PUSH1 0x40 DUP2 KECCAK256 SSTORE DUP4 DUP1 DUP1 DUP1 DUP7 CALLER GAS CALL PUSH2 0x17BF PUSH2 0x1A40 JUMP JUMPDEST POP ISZERO PUSH2 0x17F7 JUMPI PUSH32 0xCE6A22BBF33075E9460462739AB01C9D01AFBE41EB32F517824218012B2E656E SWAP1 PUSH1 0x40 MLOAD SWAP4 DUP5 MSTORE CALLER SWAP4 LOG3 PUSH1 0x1 DUP2 SSTORE DUP1 RETURN JUMPDEST PUSH1 0x64 SWAP1 PUSH1 0x40 MLOAD SWAP1 PUSH3 0x461BCD PUSH1 0xE5 SHL DUP3 MSTORE PUSH1 0x4 DUP3 ADD MSTORE PUSH1 0xD PUSH1 0x24 DUP3 ADD MSTORE PUSH13 0x14185E5BDD5D0819985A5B1959 PUSH1 0x9A SHL PUSH1 0x44 DUP3 ADD MSTORE REVERT JUMPDEST PUSH4 0x4E487B71 PUSH1 0xE0 SHL DUP6 MSTORE PUSH1 0x12 PUSH1 0x4 MSTORE PUSH1 0x24 DUP6 REVERT JUMPDEST PUSH1 0x40 MLOAD PUSH3 0x461BCD PUSH1 0xE5 SHL DUP2 MSTORE PUSH1 0x4 DUP2 ADD DUP7 SWAP1 MSTORE PUSH1 0x8 PUSH1 0x24 DUP3 ADD MSTORE PUSH8 0x4E6F2066756E6473 PUSH1 0xC0 SHL PUSH1 0x44 DUP3 ADD MSTORE PUSH1 0x64 SWAP1 REVERT JUMPDEST PUSH1 0x40 MLOAD PUSH3 0x461BCD PUSH1 0xE5 SHL DUP2 MSTORE PUSH1 0x4 DUP2 ADD DUP5 SWAP1 MSTORE PUSH1 0x12 PUSH1 0x24 DUP3 ADD MSTORE PUSH18 0x125B9D9BDA58D9481B9BDD081C995C185A59 PUSH1 0x72 SHL PUSH1 0x44 DUP3 ADD MSTORE PUSH1 0x64 SWAP1 REVERT JUMPDEST PUSH1 0x4 CALLDATALOAD SWAP1 PUSH1 0x1 PUSH1 0x1 PUSH1 0xA0 SHL SUB DUP3 AND DUP3 SUB PUSH2 0xB9A JUMPI JUMP JUMPDEST PUSH1 0x24 CALLDATALOAD SWAP1 PUSH1 0x1 PUSH1 0x1 PUSH1 0xA0 SHL SUB DUP3 AND DUP3 SUB PUSH2 0xB9A JUMPI JUMP JUMPDEST SWAP1 PUSH1 0x1 DUP3 DUP2 SHR SWAP3 AND DUP1 ISZERO PUSH2 0x1905 JUMPI JUMPDEST PUSH1 0x20 DUP4 LT EQ PUSH2 0x18EF JUMPI JUMP JUMPDEST PUSH4 0x4E487B71 PUSH1 0xE0 SHL PUSH1 0x0 MSTORE PUSH1 0x22 PUSH1 0x4 MSTORE PUSH1 0x24 PUSH1 0x0 REVERT JUMPDEST SWAP2 PUSH1 0x7F AND SWAP2 PUSH2 0x18E4 JUMP JUMPDEST PUSH8 0xFFFFFFFFFFFFFFFF DUP2 GT PUSH2 0xABB JUMPI PUSH1 0x40 MSTORE JUMP JUMPDEST SWAP1 PUSH1 0x1F DUP1 NOT SWAP2 ADD AND DUP2 ADD SWAP1 DUP2 LT PUSH8 0xFFFFFFFFFFFFFFFF DUP3 GT OR PUSH2 0xABB JUMPI PUSH1 0x40 MSTORE JUMP JUMPDEST ISZERO PUSH2 0x194C JUMPI JUMP JUMPDEST PUSH1 0x40 MLOAD PUSH3 0x461BCD PUSH1 0xE5 SHL DUP2 MSTORE PUSH1 0x20 PUSH1 0x4 DUP3 ADD MSTORE PUSH1 0x16 PUSH1 0x24 DUP3 ADD MSTORE PUSH22 0x125B9D9BDA58D948191BD95CC81B9BDD08195E1A5CDD PUSH1 0x52 SHL PUSH1 0x44 DUP3 ADD MSTORE PUSH1 0x64 SWAP1 REVERT JUMPDEST ISZERO PUSH2 0x1991 JUMPI JUMP JUMPDEST PUSH1 0x40 MLOAD PUSH3 0x461BCD PUSH1 0xE5 SHL DUP2 MSTORE PUSH1 0x20 PUSH1 0x4 DUP3 ADD MSTORE PUSH1 0x6 PUSH1 0x24 DUP3 ADD MSTORE PUSH6 0x14185D5CD959 PUSH1 0xD2 SHL PUSH1 0x44 DUP3 ADD MSTORE PUSH1 0x64 SWAP1 REVERT JUMPDEST ISZERO PUSH2 0x19C6 JUMPI JUMP JUMPDEST PUSH1 0x40 MLOAD PUSH3 0x461BCD PUSH1 0xE5 SHL DUP2 MSTORE PUSH1 0x20 PUSH1 0x4 DUP3 ADD MSTORE PUSH1 0xD PUSH1 0x24 DUP3 ADD MSTORE PUSH13 0x139BC81A5B9D995CDD1B595B9D PUSH1 0x9A SHL PUSH1 0x44 DUP3 ADD MSTORE PUSH1 0x64 SWAP1 REVERT JUMPDEST DUP2 DUP2 MUL SWAP3 SWAP2 DUP2 ISZERO SWAP2 DUP5 DIV EQ OR ISZERO PUSH2 0x1A0E JUMPI JUMP JUMPDEST PUSH4 0x4E487B71 PUSH1 0xE0 SHL PUSH1 0x0 MSTORE PUSH1 0x11 PUSH1 0x4 MSTORE PUSH1 0x24 PUSH1 0x0 REVERT JUMPDEST PUSH8 0xFFFFFFFFFFFFFFFF DUP2 GT PUSH2 0xABB JUMPI PUSH1 0x1F ADD PUSH1 0x1F NOT AND PUSH1 0x20 ADD SWAP1 JUMP JUMPDEST RETURNDATASIZE ISZERO PUSH2 0x1A6B JUMPI RETURNDATASIZE SWAP1 PUSH2 0x1A51 DUP3 PUSH2 0x1A24 JUMP JUMPDEST SWAP2 PUSH2 0x1A5F PUSH1 0x40 MLOAD SWAP4 DUP5 PUSH2 0x1923 JUMP JUMPDEST DUP3 MSTORE RETURNDATASIZE PUSH1 0x0 PUSH1 0x20 DUP5 ADD RETURNDATACOPY JUMP JUMPDEST PUSH1 0x60 SWAP1 JUMP JUMPDEST ISZERO PUSH2 0x1A77 JUMPI JUMP JUMPDEST PUSH1 0x40 MLOAD PUSH3 0x461BCD PUSH1 0xE5 SHL DUP2 MSTORE PUSH1 0x20 PUSH1 0x4 DUP3 ADD MSTORE PUSH1 0x8 PUSH1 0x24 DUP3 ADD MSTORE PUSH8 0x4E4654207A65726F PUSH1 0xC0 SHL PUSH1 0x44 DUP3 ADD MSTORE PUSH1 0x64 SWAP1 REVERT JUMPDEST ISZERO PUSH2 0x1AAE JUMPI JUMP JUMPDEST PUSH1 0x40 MLOAD PUSH3 0x461BCD PUSH1 0xE5 SHL DUP2 MSTORE PUSH1 0x20 PUSH1 0x4 DUP3 ADD MSTORE PUSH1 0xC PUSH1 0x24 DUP3 ADD MSTORE PUSH12 0x5374616B696E67207A65726F PUSH1 0xA0 SHL PUSH1 0x44 DUP3 ADD MSTORE PUSH1 0x64 SWAP1 REVERT JUMPDEST ISZERO PUSH2 0x1AE9 JUMPI JUMP JUMPDEST PUSH1 0x40 MLOAD PUSH3 0x461BCD PUSH1 0xE5 SHL DUP2 MSTORE PUSH1 0x20 PUSH1 0x4 DUP3 ADD MSTORE PUSH1 0xC PUSH1 0x24 DUP3 ADD MSTORE PUSH12 0xCCCACA40E8DEDE40D0D2CED PUSH1 0xA3 SHL PUSH1 0x44 DUP3 ADD MSTORE PUSH1 0x64 SWAP1 REVERT JUMPDEST ISZERO PUSH2 0x1B24 JUMPI JUMP JUMPDEST PUSH1 0x40 MLOAD PUSH3 0x461BCD PUSH1 0xE5 SHL DUP2 MSTORE PUSH1 0x20 PUSH1 0x4 DUP3 ADD MSTORE PUSH1 0x9 PUSH1 0x24 DUP3 ADD MSTORE PUSH9 0x2737BA1037BBB732B9 PUSH1 0xB9 SHL PUSH1 0x44 DUP3 ADD MSTORE PUSH1 0x64 SWAP1 REVERT JUMPDEST ISZERO PUSH2 0x1B5C JUMPI JUMP JUMPDEST PUSH1 0x40 MLOAD PUSH3 0x461BCD PUSH1 0xE5 SHL DUP2 MSTORE PUSH1 0x20 PUSH1 0x4 DUP3 ADD MSTORE PUSH1 0x13 PUSH1 0x24 DUP3 ADD MSTORE PUSH19 0x13DB9B1E48189D5E595C8818D85B8818D85B1B PUSH1 0x6A SHL PUSH1 0x44 DUP3 ADD MSTORE PUSH1 0x64 SWAP1 REVERT JUMPDEST SWAP2 SWAP1 DUP3 ADD DUP1 SWAP3 GT PUSH2 0x1A0E JUMPI JUMP JUMPDEST SWAP2 SWAP1 DUP3 SUB SWAP2 DUP3 GT PUSH2 0x1A0E JUMPI JUMP JUMPDEST ISZERO PUSH2 0x1BB8 JUMPI JUMP JUMPDEST PUSH1 0x40 MLOAD PUSH3 0x461BCD PUSH1 0xE5 SHL DUP2 MSTORE PUSH1 0x20 PUSH1 0x4 DUP3 ADD MSTORE PUSH1 0xF PUSH1 0x24 DUP3 ADD MSTORE PUSH15 0x4E6F742066756E6472616973696E67 PUSH1 0x88 SHL PUSH1 0x44 DUP3 ADD MSTORE PUSH1 0x64 SWAP1 REVERT JUMPDEST SWAP1 DUP1 PUSH1 0x20 SWAP4 SWAP3 DUP2 DUP5 MSTORE DUP5 DUP5 ADD CALLDATACOPY PUSH1 0x0 DUP3 DUP3 ADD DUP5 ADD MSTORE PUSH1 0x1F ADD PUSH1 0x1F NOT AND ADD ADD SWAP1 JUMP JUMPDEST PUSH1 0x2 PUSH1 0x0 SLOAD EQ PUSH2 0x1C21 JUMPI PUSH1 0x2 PUSH1 0x0 SSTORE JUMP JUMPDEST PUSH1 0x40 MLOAD PUSH4 0x3EE5AEB5 PUSH1 0xE0 SHL DUP2 MSTORE PUSH1 0x4 SWAP1 REVERT INVALID LOG2 PUSH5 0x6970667358 0x22 SLT KECCAK256 XOR 0xB5 PUSH6 0xB3F734ADAC65 0xC4 PUSH29 0xE7027E65E8C6D02C3ED828639EE2C6D060A762AF7B64736F6C63430008 AND STOP CALLER "},"methodIdentifiers":{"claimRefund(uint256)":"5b7baf64","claimRepayment(uint256)":"00d878e8","confirmInvoice(uint256)":"5e78670e","createInvoice(address,uint256,uint256,uint256,string,address)":"82c10417","feeBps()":"24a9d853","getInvestors(uint256)":"1139de55","initialize(address,address,uint256)":"1794bb3c","investInInvoice(uint256)":"b354983d","investments(uint256,address)":"b11b32d2","invoiceNFT()":"4bb6f06d","invoices(uint256)":"4e6d1405","markDefaulted(uint256)":"73216450","nextInvoiceId()":"6ff2a953","owner()":"8da5cb5b","pause()":"8456cb59","paused()":"5c975abb","repayInvoice(uint256)":"559034df","setFeeBps(uint256)":"72c27b62","setInvoiceNFT(address)":"f939f496","setStakingRewards(address)":"6fb83a57","stakingRewards()":"64b87a70","totalRepaid(uint256)":"3b97f0da","totalRepaidForInvestors(uint256)":"5eaeafc9","transferOwnership(address)":"f2fde38b","unpause()":"3f4ba83a"}}}}}