{"contracts/InvoiceNFT.sol":{"InvoiceNFT":{"abi":[{"inputs":[],"stateMutability":"nonpayable","type":"constructor"},{"inputs":[{"internalType":"address","name":"sender","type":"address"},{"internalType":"uint256","name":"tokenId","type":"uint256"},{"internalType":"address","name":"owner","type":"address"}],"name":"ERC721IncorrectOwner","type":"error"},{"inputs":[{"internalType":"address","name":"operator","type":"address"},{"internalType":"uint256","name":"tokenId","type":"uint256"}],"name":"ERC721InsufficientApproval","type":"error"},{"inputs":[{"internalType":"address","name":"approver","type":"address"}],"name":"ERC721InvalidApprover","type":"error"},{"inputs":[{"internalType":"address","name":"operator","type":"address"}],"name":"ERC721InvalidOperator","type":"error"},{"inputs":[{"internalType":"address","name":"owner","type":"address"}],"name":"ERC721InvalidOwner","type":"error"},{"inputs":[{"internalType":"address","name":"receiver","type":"address"}],"name":"ERC721InvalidReceiver","type":"error"},{"inputs":[{"internalType":"address","name":"sender","type":"address"}],"name":"ERC721InvalidSender","type":"error"},{"inputs":[{"internalType":"uint256","name":"tokenId","type":"uint256"}],"name":"ERC721NonexistentToken","type":"error"},{"inputs":[{"internalType":"address","name":"owner","type":"address"}],"name":"OwnableInvalidOwner","type":"error"},{"inputs":[{"internalType":"address","name":"account","type":"address"}],"name":"OwnableUnauthorizedAccount","type":"error"},{"anonymous":false,"inputs":[{"indexed":true,"internalType":"address","name":"owner","type":"address"},{"indexed":true,"internalType":"address","name":"approved","type":"address"},{"indexed":true,"internalType":"uint256","name":"tokenId","type":"uint256"}],"name":"Approval","type":"event"},{"anonymous":false,"inputs":[{"indexed":true,"internalType":"address","name":"owner","type":"address"},{"indexed":true,"internalType":"address","name":"operator","type":"address"},{"indexed":false,"internalType":"bool","name":"approved","type":"bool"}],"name":"ApprovalForAll","type":"event"},{"anonymous":false,"inputs":[{"indexed":false,"internalType":"uint256","name":"_fromTokenId","type":"uint256"},{"indexed":false,"internalType":"uint256","name":"_toTokenId","type":"uint256"}],"name":"BatchMetadataUpdate","type":"event"},{"anonymous":false,"inputs":[{"indexed":true,"internalType":"address","name":"oldMarketplace","type":"address"},{"indexed":true,"internalType":"address","name":"newMarketplace","type":"address"}],"name":"MarketplaceUpdated","type":"event"},{"anonymous":false,"inputs":[{"indexed":false,"internalType":"uint256","name":"_tokenId","type":"uint256"}],"name":"MetadataUpdate","type":"event"},{"anonymous":false,"inputs":[{"indexed":true,"internalType":"address","name":"previousOwner","type":"address"},{"indexed":true,"internalType":"address","name":"newOwner","type":"address"}],"name":"OwnershipTransferred","type":"event"},{"anonymous":false,"inputs":[{"indexed":true,"internalType":"address","name":"from","type":"address"},{"indexed":true,"internalType":"address","name":"to","type":"address"},{"indexed":true,"internalType":"uint256","name":"tokenId","type":"uint256"}],"name":"Transfer","type":"event"},{"inputs":[{"internalType":"address","name":"to","type":"address"},{"internalType":"uint256","name":"tokenId","type":"uint256"}],"name":"approve","outputs":[],"stateMutability":"nonpayable","type":"function"},{"inputs":[{"internalType":"address","name":"owner","type":"address"}],"name":"balanceOf","outputs":[{"internalType":"uint256","name":"","type":"uint256"}],"stateMutability":"view","type":"function"},{"inputs":[{"internalType":"uint256","name":"tokenId","type":"uint256"}],"name":"getApproved","outputs":[{"internalType":"address","name":"","type":"address"}],"stateMutability":"view","type":"function"},{"inputs":[{"internalType":"address","name":"owner","type":"address"},{"internalType":"address","name":"operator","type":"address"}],"name":"isApprovedForAll","outputs":[{"internalType":"bool","name":"","type":"bool"}],"stateMutability":"view","type":"function"},{"inputs":[],"name":"marketplace","outputs":[{"internalType":"address","name":"","type":"address"}],"stateMutability":"view","type":"function"},{"inputs":[{"internalType":"address","name":"to","type":"address"},{"internalType":"uint256","name":"tokenId","type":"uint256"},{"internalType":"string","name":"uri","type":"string"}],"name":"mintInvoice","outputs":[],"stateMutability":"nonpayable","type":"function"},{"inputs":[],"name":"name","outputs":[{"internalType":"string","name":"","type":"string"}],"stateMutability":"view","type":"function"},{"inputs":[],"name":"owner","outputs":[{"internalType":"address","name":"","type":"address"}],"stateMutability":"view","type":"function"},{"inputs":[{"internalType":"uint256","name":"tokenId","type":"uint256"}],"name":"ownerOf","outputs":[{"internalType":"address","name":"","type":"address"}],"stateMutability":"view","type":"function"},{"inputs":[],"name":"renounceOwnership","outputs":[],"stateMutability":"nonpayable","type":"function"},{"inputs":[{"internalType":"address","name":"from","type":"address"},{"internalType":"address","name":"to","type":"address"},{"internalType":"uint256","name":"tokenId","type":"uint256"}],"name":"safeTransferFrom","outputs":[],"stateMutability":"nonpayable","type":"function"},{"inputs":[{"internalType":"address","name":"from","type":"address"},{"internalType":"address","name":"to","type":"address"},{"internalType":"uint256","name":"tokenId","type":"uint256"},{"internalType":"bytes","name":"data","type":"bytes"}],"name":"safeTransferFrom","outputs":[],"stateMutability":"nonpayable","type":"function"},{"inputs":[{"internalType":"address","name":"operator","type":"address"},{"internalType":"bool","name":"approved","type":"bool"}],"name":"setApprovalForAll","outputs":[],"stateMutability":"nonpayable","type":"function"},{"inputs":[{"internalType":"address","name":"_marketplace","type":"address"}],"name":"setMarketplace","outputs":[],"stateMutability":"nonpayable","type":"function"},{"inputs":[{"internalType":"bytes4","name":"interfaceId","type":"bytes4"}],"name":"supportsInterface","outputs":[{"internalType":"bool","name":"","type":"bool"}],"stateMutability":"view","type":"function"},{"inputs":[],"name":"symbol","outputs":[{"internalType":"string","name":"","type":"string"}],"stateMutability":"view","type":"function"},{"inputs":[{"internalType":"uint256","name":"tokenId","type":"uint256"}],"name":"tokenURI","outputs":[{"internalType":"string","name":"","type":"string"}],"stateMutability":"view","type":"function"},{"inputs":[{"internalType":"address","name":"from","type":"address"},{"internalType":"address","name":"to","type":"address"},{"internalType":"uint256","name":"tokenId","type":"uint256"}],"name":"transferFrom","outputs":[],"stateMutability":"nonpayable","type":"function"},{"inputs":[{"internalType":"address","name":"newOwner","type":"address"}],"name":"transferOwnership","outputs":[],"stateMutability":"nonpayable","type":"function"}],"evm":{"bytecode":{"linkReferences":{},"object":"6080346200037e576001600160401b039060408181018381118382101762000368578152600d82526020916c437265645820496e766f69636560981b838201528151938285018581108282111762000368578352600885526743494e564f49434560c01b84860152815181811162000368576000948554916001948584811c941680156200035d575b8385101462000349578190601f94858111620002f6575b5083908583116001146200029257899262000286575b5050600019600383901b1c191690851b1786555b8651928311620002725783548481811c9116801562000267575b8282101462000253578281116200020b575b5080918311600114620001a457508495829394959262000198575b5050600019600383901b1c191690821b1790555b3315620001805760078054336001600160a01b03198216811790925591519290916001600160a01b0316907f8be0079c531659141344cd1fd0a4f28419497f9722a3daafe3b4186f6b6457e09080a361129d9081620003848239f35b51631e4fbdf760e01b81526004810191909152602490fd5b01519050388062000110565b90601f198316968487528287209287905b898210620001f3575050838596979810620001d9575b505050811b01905562000124565b015160001960f88460031b161c19169055388080620001cb565b808785968294968601518155019501930190620001b5565b8487528187208380860160051c82019284871062000249575b0160051c019085905b8281106200023d575050620000f5565b8881550185906200022d565b9250819262000224565b634e487b7160e01b87526022600452602487fd5b90607f1690620000e3565b634e487b7160e01b86526041600452602486fd5b015190503880620000b5565b898052848a208894509190601f1984168b5b87828210620002df5750508411620002c5575b505050811b018655620000c9565b015160001960f88460031b161c19169055388080620002b7565b8385015186558b97909501949384019301620002a4565b9091508880528389208580850160051c8201928686106200033f575b918991869594930160051c01915b828110620003305750506200009f565b8b815585945089910162000320565b9250819262000312565b634e487b7160e01b88526022600452602488fd5b93607f169362000088565b634e487b7160e01b600052604160045260246000fd5b600080fdfe6080604081815260048036101561001557600080fd5b600092833560e01c90816301ffc9a714610d0a5750806306fdde0314610c59578063081812fc14610c1e578063095ea7b314610b4257806323b872dd14610b2a57806342842e0e14610afb5780636352211e14610aca57806370a0823114610a75578063715018a614610a1857806373ad6c2d146109625780638da5cb5b1461093957806395d89b411461084b578063a22cb465146107aa578063abc8c7af14610781578063b88d4fde1461070e578063c87b56dd14610618578063e985e9c5146105ca578063eccb584c146101865763f2fde38b146100f457600080fd5b346101825760203660031901126101825761010d610dd0565b906101166110f1565b6001600160a01b0391821692831561016c575050600754826bffffffffffffffffffffffff60a01b821617600755167f8be0079c531659141344cd1fd0a4f28419497f9722a3daafe3b4186f6b6457e08380a380f35b51631e4fbdf760e01b8152908101849052602490fd5b8280fd5b508290346105c65760603660031901126105c6576101a2610dd0565b9060249384359160443567ffffffffffffffff968782116105c257366023830112156105c25781830135918883116105be57368284830101116105be576008546001600160a01b039390841633036105895785516101ff81610e36565b89815284891698891561057357908991898c528b8a60209c8d9960028b528c842054168015159384610540575b82815260038c528d8120805460019081019091558482526002909c528d812080546001600160a01b031916841790557fddf252ad1be2c89b69c2b068fc378daa952ba7f163c4a11628f55a4df523b3ef9080a461052a573b6103fa575b5050906102999183369201610ea6565b9085885260068752848820938251998a116103e95750506102ba8354610edd565b601f81116103a3575b508590601f8911600114610325579780928192899a7ff8e1a15aba9398e019f0b49df1a4fde98ee17ae345cb5f6b5e2c27f5033e8ce79a9461031a575b50501b916000199060031b1c19161790555b51908152a180f35b015192508a80610300565b838852868820909891601f198316895b81811061038e575099837ff8e1a15aba9398e019f0b49df1a4fde98ee17ae345cb5f6b5e2c27f5033e8ce79a9b10610375575b505050811b019055610312565b015160001960f88460031b161c19169055888080610368565b8b830151845592850192918901918901610335565b838852868820601f8a0160051c810191888b106103df575b601f0160051c019083905b8281106103d45750506102c3565b8981550183906103c6565b90915081906103bb565b634e487b7160e01b89526041905287fd5b956104438a839b98879e989695948e859f8d9e9a819e5196879586948593630a85bd0160e11b9b8c865233908601528401528d6044840152608060648401526084830190610d90565b03925af18991816104e6575b506104ac57505050505050503d6000146104a3573d61046d81610e8a565b9061047a85519283610e68565b81528092823d92013e5b815191826104a0575050505191633250574960e11b8352820152fd5b01fd5b60609150610484565b63ffffffff60e09d969a999c989b939495979d1b16036104d057506102998b610289565b93505050925191633250574960e11b8352820152fd5b9091508881813d8311610523575b6104fe8183610e68565b8101031261051f57516001600160e01b03198116810361051f57908e61044f565b8980fd5b503d6104f4565b88516339e3563760e11b81528089018d90528690fd5b600084815260046020526040902080546001600160a01b031916905581815260038c528d8120805460001901905561022c565b8751633250574960e11b81528088018c90528590fd5b855162461bcd60e51b81526020818701526010818501526f4f6e6c79206d61726b6574706c61636560801b6044820152606490fd5b8780fd5b8680fd5b5080fd5b5050346105c657806003193601126105c65760ff816020936105ea610dd0565b6105f2610deb565b6001600160a01b0391821683526005875283832091168252855220549151911615158152f35b509034610182576020918260031936011261070a5735610637816110b6565b5083526006825280832092815180948290805461065381610edd565b91828552600191886001821691826000146106e35750506001146106a5575b5050506106a1939291610686910386610e68565b815161069181610e36565b5251928284938452830190610d90565b0390f35b8552868520879350859291905b8284106106cb57505050820101816106866106a1610672565b8054848b0186015289955088949093019281016106b2565b60ff19168782015293151560051b8601909301935084925061068691506106a19050610672565b8380fd5b8382346105c65760803660031901126105c657610729610dd0565b610731610deb565b6044359060643567ffffffffffffffff811161077d573660238201121561077d5761077a9481602461076893369301359101610ea6565b92610774838383610f17565b3361111d565b80f35b8580fd5b5050346105c657816003193601126105c65760085490516001600160a01b039091168152602090f35b5090346101825780600319360112610182576107c4610dd0565b9060243591821515809303610847576001600160a01b03169283156108325750338452600560205280842083855260205280842060ff1981541660ff8416179055519081527f17307eab39ab6107e8899845ad3d59bd9653f200f220920489ca2b5937696c3160203392a380f35b836024925191630b61174360e31b8352820152fd5b8480fd5b82843461093657806003193601126109365781519182826001936001549461087286610edd565b918285526020968760018216918260001461090f5750506001146108b3575b5050506106a192916108a4910385610e68565b51928284938452830190610d90565b9190869350600183527fb10e2d527612073b26eecdfd717e6a320cf44b4afac2b0732d9fcbe2b7fa0cf65b8284106108f757505050820101816108a46106a1610891565b8054848a0186015288955087949093019281016108de565b60ff19168782015293151560051b860190930193508492506108a491506106a19050610891565b80fd5b5050346105c657816003193601126105c65760075490516001600160a01b039091168152602090f35b50346101825760203660031901126101825761097c610dd0565b906109856110f1565b6001600160a01b039182169283156109d5575050816008549182167fc3e7368ef0a668941a4115b651a9c4f3fa3a13cc6ea105bb91e12bcaa932293c8580a36001600160a01b0319161760085580f35b906020606492519162461bcd60e51b8352820152601860248201527f4d61726b6574706c616365207a65726f206164647265737300000000000000006044820152fd5b8334610936578060031936011261093657610a316110f1565b600780546001600160a01b0319811690915581906001600160a01b03167f8be0079c531659141344cd1fd0a4f28419497f9722a3daafe3b4186f6b6457e08280a380f35b509134610936576020366003190112610936576001600160a01b03610a98610dd0565b16928315610ab55750806020938392526003845220549051908152f35b91516322718ad960e21b815291820152602490fd5b5091346109365760203660031901126109365750610aea602092356110b6565b90516001600160a01b039091168152f35b5050346105c65761077a90610b0f36610e01565b91925192610b1c84610e36565b858452610774838383610f17565b83346109365761077a610b3c36610e01565b91610f17565b509034610182578060031936011261018257610b5c610dd0565b91602435610b69816110b6565b33151580610c0b575b80610be2575b610bcc576001600160a01b039485169482918691167f8c5be1e5ebec7d5bd14f71427d1e84f3dd0314c0f7b2291e5b200ac8c7c3b9258880a48452602052822080546001600160a01b031916909117905580f35b835163a9fbf51f60e01b81523381850152602490fd5b506001600160a01b03811686526005602090815284872033885290528386205460ff1615610b78565b506001600160a01b038116331415610b72565b503461018257602036600319011261018257918260209335610c3f816110b6565b50825283528190205490516001600160a01b039091168152f35b82843461093657806003193601126109365781519182828354610c7b81610edd565b908184526020956001918760018216918260001461090f575050600114610caf575050506106a192916108a4910385610e68565b91908693508280527f290decd9548b62a8d60345a988386fc84ba6bc95484008f6362f93160ef3e5635b828410610cf257505050820101816108a46106a1610891565b8054848a018601528895508794909301928101610cd9565b92505034610182576020366003190112610182573563ffffffff60e01b81168091036101825760209250632483248360e11b8114908115610d4d575b5015158152f35b6380ac58cd60e01b811491508115610d7f575b8115610d6e575b5038610d46565b6301ffc9a760e01b14905038610d67565b635b5e139f60e01b81149150610d60565b919082519283825260005b848110610dbc575050826000602080949584010152601f8019910116010190565b602081830181015184830182015201610d9b565b600435906001600160a01b0382168203610de657565b600080fd5b602435906001600160a01b0382168203610de657565b6060906003190112610de6576001600160a01b03906004358281168103610de657916024359081168103610de6579060443590565b6020810190811067ffffffffffffffff821117610e5257604052565b634e487b7160e01b600052604160045260246000fd5b90601f8019910116810190811067ffffffffffffffff821117610e5257604052565b67ffffffffffffffff8111610e5257601f01601f191660200190565b929192610eb282610e8a565b91610ec06040519384610e68565b829481845281830111610de6578281602093846000960137010152565b90600182811c92168015610f0d575b6020831014610ef757565b634e487b7160e01b600052602260045260246000fd5b91607f1691610eec565b6001600160a01b03918216929091831561109d57600092828452826020956002875260409684888820541696879133151580611007575b509060027fddf252ad1be2c89b69c2b068fc378daa952ba7f163c4a11628f55a4df523b3ef9284610fd4575b858352600381528b8320805460010190558683525289812080546001600160a01b0319168517905580a41692838303610fb35750505050565b6064945051926364283d7b60e01b8452600484015260248301526044820152fd5b600087815260046020526040902080546001600160a01b0319169055848352600381528b83208054600019019055610f7a565b9193945091508061105c575b1561102357859291879138610f4e565b878688611040576024915190637e27328960e01b82526004820152fd5b604491519063177e802f60e01b82523360048301526024820152fd5b503387148015611081575b806110135750858252600481523385898420541614611013565b5086825260058152878220338352815260ff8883205416611067565b604051633250574960e11b815260006004820152602490fd5b6000818152600260205260409020546001600160a01b03169081156110d9575090565b60249060405190637e27328960e01b82526004820152fd5b6007546001600160a01b0316330361110557565b60405163118cdaa760e01b8152336004820152602490fd5b90939192833b61112f575b5050505050565b604051630a85bd0160e11b8082526001600160a01b03938416600483015295831660248201526044810191909152608060648201529492169260209291859061117c906084830190610d90565b039483816000978189895af1869181611227575b506111f1575050503d6000146111e8573d6111aa81610e8a565b906111b86040519283610e68565b81528093823d92013e5b825192836111e357604051633250574960e11b815260048101849052602490fd5b019050fd5b606092506111c2565b919450915063ffffffff60e01b160361120f57503880808080611128565b60249060405190633250574960e11b82526004820152fd5b9091508481813d8311611260575b61123f8183610e68565b810103126105c257516001600160e01b0319811681036105c2579038611190565b503d61123556fea2646970667358221220bb31b0104138d6d9c2531dc208fe42fff4c0642b2899b91aed5cc15b610c3f9664736f6c63430008160033","opcodes":"PUSH1 0x80 CALLVALUE PUSH3 0x37E JUMPI PUSH1 0x1 PUSH1 0x1 PUSH1 0x40 SHL SUB SWAP1 PUSH1 0x40 DUP2 DUP2 ADD DUP4 DUP2 GT DUP4 DUP3 LT OR PUSH3 0x368 JUMPI DUP2 MSTORE PUSH1 0xD DUP3 MSTORE PUSH1 0x20 SWAP2 PUSH13 0x437265645820496E766F696365 PUSH1 0x98 SHL DUP4 DUP3 ADD MSTORE DUP2 MLOAD SWAP4 DUP3 DUP6 ADD DUP6 DUP2 LT DUP3 DUP3 GT OR PUSH3 0x368 JUMPI DUP4 MSTORE PUSH1 0x8 DUP6 MSTORE PUSH8 0x43494E564F494345 PUSH1 0xC0 SHL DUP5 DUP7 ADD MSTORE DUP2 MLOAD DUP2 DUP2 GT PUSH3 0x368 JUMPI PUSH1 0x0 SWAP5 DUP6 SLOAD SWAP2 PUSH1 0x1 SWAP5 DUP6 DUP5 DUP2 SHR SWAP5 AND DUP1 ISZERO PUSH3 0x35D JUMPI JUMPDEST DUP4 DUP6 LT EQ PUSH3 0x349 JUMPI DUP2 SWAP1 PUSH1 0x1F SWAP5 DUP6 DUP2 GT PUSH3 0x2F6 JUMPI JUMPDEST POP DUP4 SWAP1 DUP6 DUP4 GT PUSH1 0x1 EQ PUSH3 0x292 JUMPI DUP10 SWAP3 PUSH3 0x286 JUMPI JUMPDEST POP POP PUSH1 0x0 NOT PUSH1 0x3 DUP4 SWAP1 SHL SHR NOT AND SWAP1 DUP6 SHL OR DUP7 SSTORE JUMPDEST DUP7 MLOAD SWAP3 DUP4 GT PUSH3 0x272 JUMPI DUP4 SLOAD DUP5 DUP2 DUP2 SHR SWAP2 AND DUP1 ISZERO PUSH3 0x267 JUMPI JUMPDEST DUP3 DUP3 LT EQ PUSH3 0x253 JUMPI DUP3 DUP2 GT PUSH3 0x20B JUMPI JUMPDEST POP DUP1 SWAP2 DUP4 GT PUSH1 0x1 EQ PUSH3 0x1A4 JUMPI POP DUP5 SWAP6 DUP3 SWAP4 SWAP5 SWAP6 SWAP3 PUSH3 0x198 JUMPI JUMPDEST POP POP PUSH1 0x0 NOT PUSH1 0x3 DUP4 SWAP1 SHL SHR NOT AND SWAP1 DUP3 SHL OR SWAP1 SSTORE JUMPDEST CALLER ISZERO PUSH3 0x180 JUMPI PUSH1 0x7 DUP1 SLOAD CALLER PUSH1 0x1 PUSH1 0x1 PUSH1 0xA0 SHL SUB NOT DUP3 AND DUP2 OR SWAP1 SWAP3 SSTORE SWAP2 MLOAD SWAP3 SWAP1 SWAP2 PUSH1 0x1 PUSH1 0x1 PUSH1 0xA0 SHL SUB AND SWAP1 PUSH32 0x8BE0079C531659141344CD1FD0A4F28419497F9722A3DAAFE3B4186F6B6457E0 SWAP1 DUP1 LOG3 PUSH2 0x129D SWAP1 DUP2 PUSH3 0x384 DUP3 CODECOPY RETURN JUMPDEST MLOAD PUSH4 0x1E4FBDF7 PUSH1 0xE0 SHL DUP2 MSTORE PUSH1 0x4 DUP2 ADD SWAP2 SWAP1 SWAP2 MSTORE PUSH1 0x24 SWAP1 REVERT JUMPDEST ADD MLOAD SWAP1 POP CODESIZE DUP1 PUSH3 0x110 JUMP JUMPDEST SWAP1 PUSH1 0x1F NOT DUP4 AND SWAP7 DUP5 DUP8 MSTORE DUP3 DUP8 KECCAK256 SWAP3 DUP8 SWAP1 JUMPDEST DUP10 DUP3 LT PUSH3 0x1F3 JUMPI POP POP DUP4 DUP6 SWAP7 SWAP8 SWAP9 LT PUSH3 0x1D9 JUMPI JUMPDEST POP POP POP DUP2 SHL ADD SWAP1 SSTORE PUSH3 0x124 JUMP JUMPDEST ADD MLOAD PUSH1 0x0 NOT PUSH1 0xF8 DUP5 PUSH1 0x3 SHL AND SHR NOT AND SWAP1 SSTORE CODESIZE DUP1 DUP1 PUSH3 0x1CB JUMP JUMPDEST DUP1 DUP8 DUP6 SWAP7 DUP3 SWAP5 SWAP7 DUP7 ADD MLOAD DUP2 SSTORE ADD SWAP6 ADD SWAP4 ADD SWAP1 PUSH3 0x1B5 JUMP JUMPDEST DUP5 DUP8 MSTORE DUP2 DUP8 KECCAK256 DUP4 DUP1 DUP7 ADD PUSH1 0x5 SHR DUP3 ADD SWAP3 DUP5 DUP8 LT PUSH3 0x249 JUMPI JUMPDEST ADD PUSH1 0x5 SHR ADD SWAP1 DUP6 SWAP1 JUMPDEST DUP3 DUP2 LT PUSH3 0x23D JUMPI POP POP PUSH3 0xF5 JUMP JUMPDEST DUP9 DUP2 SSTORE ADD DUP6 SWAP1 PUSH3 0x22D JUMP JUMPDEST SWAP3 POP DUP2 SWAP3 PUSH3 0x224 JUMP JUMPDEST PUSH4 0x4E487B71 PUSH1 0xE0 SHL DUP8 MSTORE PUSH1 0x22 PUSH1 0x4 MSTORE PUSH1 0x24 DUP8 REVERT JUMPDEST SWAP1 PUSH1 0x7F AND SWAP1 PUSH3 0xE3 JUMP JUMPDEST PUSH4 0x4E487B71 PUSH1 0xE0 SHL DUP7 MSTORE PUSH1 0x41 PUSH1 0x4 MSTORE PUSH1 0x24 DUP7 REVERT JUMPDEST ADD MLOAD SWAP1 POP CODESIZE DUP1 PUSH3 0xB5 JUMP JUMPDEST DUP10 DUP1 MSTORE DUP5 DUP11 KECCAK256 DUP9 SWAP5 POP SWAP2 SWAP1 PUSH1 0x1F NOT DUP5 AND DUP12 JUMPDEST DUP8 DUP3 DUP3 LT PUSH3 0x2DF JUMPI POP POP DUP5 GT PUSH3 0x2C5 JUMPI JUMPDEST POP POP POP DUP2 SHL ADD DUP7 SSTORE PUSH3 0xC9 JUMP JUMPDEST ADD MLOAD PUSH1 0x0 NOT PUSH1 0xF8 DUP5 PUSH1 0x3 SHL AND SHR NOT AND SWAP1 SSTORE CODESIZE DUP1 DUP1 PUSH3 0x2B7 JUMP JUMPDEST DUP4 DUP6 ADD MLOAD DUP7 SSTORE DUP12 SWAP8 SWAP1 SWAP6 ADD SWAP5 SWAP4 DUP5 ADD SWAP4 ADD PUSH3 0x2A4 JUMP JUMPDEST SWAP1 SWAP2 POP DUP9 DUP1 MSTORE DUP4 DUP10 KECCAK256 DUP6 DUP1 DUP6 ADD PUSH1 0x5 SHR DUP3 ADD SWAP3 DUP7 DUP7 LT PUSH3 0x33F JUMPI JUMPDEST SWAP2 DUP10 SWAP2 DUP7 SWAP6 SWAP5 SWAP4 ADD PUSH1 0x5 SHR ADD SWAP2 JUMPDEST DUP3 DUP2 LT PUSH3 0x330 JUMPI POP POP PUSH3 0x9F JUMP JUMPDEST DUP12 DUP2 SSTORE DUP6 SWAP5 POP DUP10 SWAP2 ADD PUSH3 0x320 JUMP JUMPDEST SWAP3 POP DUP2 SWAP3 PUSH3 0x312 JUMP JUMPDEST PUSH4 0x4E487B71 PUSH1 0xE0 SHL DUP9 MSTORE PUSH1 0x22 PUSH1 0x4 MSTORE PUSH1 0x24 DUP9 REVERT JUMPDEST SWAP4 PUSH1 0x7F AND SWAP4 PUSH3 0x88 JUMP JUMPDEST PUSH4 0x4E487B71 PUSH1 0xE0 SHL PUSH1 0x0 MSTORE PUSH1 0x41 PUSH1 0x4 MSTORE PUSH1 0x24 PUSH1 0x0 REVERT JUMPDEST PUSH1 0x0 DUP1 REVERT INVALID PUSH1 0x80 PUSH1 0x40 DUP2 DUP2 MSTORE PUSH1 0x4 DUP1 CALLDATASIZE LT ISZERO PUSH2 0x15 JUMPI PUSH1 0x0 DUP1 REVERT JUMPDEST PUSH1 0x0 SWAP3 DUP4 CALLDATALOAD PUSH1 0xE0 SHR SWAP1 DUP2 PUSH4 0x1FFC9A7 EQ PUSH2 0xD0A JUMPI POP DUP1 PUSH4 0x6FDDE03 EQ PUSH2 0xC59 JUMPI DUP1 PUSH4 0x81812FC EQ PUSH2 0xC1E JUMPI DUP1 PUSH4 0x95EA7B3 EQ PUSH2 0xB42 JUMPI DUP1 PUSH4 0x23B872DD EQ PUSH2 0xB2A JUMPI DUP1 PUSH4 0x42842E0E EQ PUSH2 0xAFB JUMPI DUP1 PUSH4 0x6352211E EQ PUSH2 0xACA JUMPI DUP1 PUSH4 0x70A08231 EQ PUSH2 0xA75 JUMPI DUP1 PUSH4 0x715018A6 EQ PUSH2 0xA18 JUMPI DUP1 PUSH4 0x73AD6C2D EQ PUSH2 0x962 JUMPI DUP1 PUSH4 0x8DA5CB5B EQ PUSH2 0x939 JUMPI DUP1 PUSH4 0x95D89B41 EQ PUSH2 0x84B JUMPI DUP1 PUSH4 0xA22CB465 EQ PUSH2 0x7AA JUMPI DUP1 PUSH4 0xABC8C7AF EQ PUSH2 0x781 JUMPI DUP1 PUSH4 0xB88D4FDE EQ PUSH2 0x70E JUMPI DUP1 PUSH4 0xC87B56DD EQ PUSH2 0x618 JUMPI DUP1 PUSH4 0xE985E9C5 EQ PUSH2 0x5CA JUMPI DUP1 PUSH4 0xECCB584C EQ PUSH2 0x186 JUMPI PUSH4 0xF2FDE38B EQ PUSH2 0xF4 JUMPI PUSH1 0x0 DUP1 REVERT JUMPDEST CALLVALUE PUSH2 0x182 JUMPI PUSH1 0x20 CALLDATASIZE PUSH1 0x3 NOT ADD SLT PUSH2 0x182 JUMPI PUSH2 0x10D PUSH2 0xDD0 JUMP JUMPDEST SWAP1 PUSH2 0x116 PUSH2 0x10F1 JUMP JUMPDEST PUSH1 0x1 PUSH1 0x1 PUSH1 0xA0 SHL SUB SWAP2 DUP3 AND SWAP3 DUP4 ISZERO PUSH2 0x16C JUMPI POP POP PUSH1 0x7 SLOAD DUP3 PUSH12 0xFFFFFFFFFFFFFFFFFFFFFFFF PUSH1 0xA0 SHL DUP3 AND OR PUSH1 0x7 SSTORE AND PUSH32 0x8BE0079C531659141344CD1FD0A4F28419497F9722A3DAAFE3B4186F6B6457E0 DUP4 DUP1 LOG3 DUP1 RETURN JUMPDEST MLOAD PUSH4 0x1E4FBDF7 PUSH1 0xE0 SHL DUP2 MSTORE SWAP1 DUP2 ADD DUP5 SWAP1 MSTORE PUSH1 0x24 SWAP1 REVERT JUMPDEST DUP3 DUP1 REVERT JUMPDEST POP DUP3 SWAP1 CALLVALUE PUSH2 0x5C6 JUMPI PUSH1 0x60 CALLDATASIZE PUSH1 0x3 NOT ADD SLT PUSH2 0x5C6 JUMPI PUSH2 0x1A2 PUSH2 0xDD0 JUMP JUMPDEST SWAP1 PUSH1 0x24 SWAP4 DUP5 CALLDATALOAD SWAP2 PUSH1 0x44 CALLDATALOAD PUSH8 0xFFFFFFFFFFFFFFFF SWAP7 DUP8 DUP3 GT PUSH2 0x5C2 JUMPI CALLDATASIZE PUSH1 0x23 DUP4 ADD SLT ISZERO PUSH2 0x5C2 JUMPI DUP2 DUP4 ADD CALLDATALOAD SWAP2 DUP9 DUP4 GT PUSH2 0x5BE JUMPI CALLDATASIZE DUP3 DUP5 DUP4 ADD ADD GT PUSH2 0x5BE JUMPI PUSH1 0x8 SLOAD PUSH1 0x1 PUSH1 0x1 PUSH1 0xA0 SHL SUB SWAP4 SWAP1 DUP5 AND CALLER SUB PUSH2 0x589 JUMPI DUP6 MLOAD PUSH2 0x1FF DUP2 PUSH2 0xE36 JUMP JUMPDEST DUP10 DUP2 MSTORE DUP5 DUP10 AND SWAP9 DUP10 ISZERO PUSH2 0x573 JUMPI SWAP1 DUP10 SWAP2 DUP10 DUP13 MSTORE DUP12 DUP11 PUSH1 0x20 SWAP13 DUP14 SWAP10 PUSH1 0x2 DUP12 MSTORE DUP13 DUP5 KECCAK256 SLOAD AND DUP1 ISZERO ISZERO SWAP4 DUP5 PUSH2 0x540 JUMPI JUMPDEST DUP3 DUP2 MSTORE PUSH1 0x3 DUP13 MSTORE DUP14 DUP2 KECCAK256 DUP1 SLOAD PUSH1 0x1 SWAP1 DUP2 ADD SWAP1 SWAP2 SSTORE DUP5 DUP3 MSTORE PUSH1 0x2 SWAP1 SWAP13 MSTORE DUP14 DUP2 KECCAK256 DUP1 SLOAD PUSH1 0x1 PUSH1 0x1 PUSH1 0xA0 SHL SUB NOT AND DUP5 OR SWAP1 SSTORE PUSH32 0xDDF252AD1BE2C89B69C2B068FC378DAA952BA7F163C4A11628F55A4DF523B3EF SWAP1 DUP1 LOG4 PUSH2 0x52A JUMPI EXTCODESIZE PUSH2 0x3FA JUMPI JUMPDEST POP POP SWAP1 PUSH2 0x299 SWAP2 DUP4 CALLDATASIZE SWAP3 ADD PUSH2 0xEA6 JUMP JUMPDEST SWAP1 DUP6 DUP9 MSTORE PUSH1 0x6 DUP8 MSTORE DUP5 DUP9 KECCAK256 SWAP4 DUP3 MLOAD SWAP10 DUP11 GT PUSH2 0x3E9 JUMPI POP POP PUSH2 0x2BA DUP4 SLOAD PUSH2 0xEDD JUMP JUMPDEST PUSH1 0x1F DUP2 GT PUSH2 0x3A3 JUMPI JUMPDEST POP DUP6 SWAP1 PUSH1 0x1F DUP10 GT PUSH1 0x1 EQ PUSH2 0x325 JUMPI SWAP8 DUP1 SWAP3 DUP2 SWAP3 DUP10 SWAP11 PUSH32 0xF8E1A15ABA9398E019F0B49DF1A4FDE98EE17AE345CB5F6B5E2C27F5033E8CE7 SWAP11 SWAP5 PUSH2 0x31A JUMPI JUMPDEST POP POP SHL SWAP2 PUSH1 0x0 NOT SWAP1 PUSH1 0x3 SHL SHR NOT AND OR SWAP1 SSTORE JUMPDEST MLOAD SWAP1 DUP2 MSTORE LOG1 DUP1 RETURN JUMPDEST ADD MLOAD SWAP3 POP DUP11 DUP1 PUSH2 0x300 JUMP JUMPDEST DUP4 DUP9 MSTORE DUP7 DUP9 KECCAK256 SWAP1 SWAP9 SWAP2 PUSH1 0x1F NOT DUP4 AND DUP10 JUMPDEST DUP2 DUP2 LT PUSH2 0x38E JUMPI POP SWAP10 DUP4 PUSH32 0xF8E1A15ABA9398E019F0B49DF1A4FDE98EE17AE345CB5F6B5E2C27F5033E8CE7 SWAP11 SWAP12 LT PUSH2 0x375 JUMPI JUMPDEST POP POP POP DUP2 SHL ADD SWAP1 SSTORE PUSH2 0x312 JUMP JUMPDEST ADD MLOAD PUSH1 0x0 NOT PUSH1 0xF8 DUP5 PUSH1 0x3 SHL AND SHR NOT AND SWAP1 SSTORE DUP9 DUP1 DUP1 PUSH2 0x368 JUMP JUMPDEST DUP12 DUP4 ADD MLOAD DUP5 SSTORE SWAP3 DUP6 ADD SWAP3 SWAP2 DUP10 ADD SWAP2 DUP10 ADD PUSH2 0x335 JUMP JUMPDEST DUP4 DUP9 MSTORE DUP7 DUP9 KECCAK256 PUSH1 0x1F DUP11 ADD PUSH1 0x5 SHR DUP2 ADD SWAP2 DUP9 DUP12 LT PUSH2 0x3DF JUMPI JUMPDEST PUSH1 0x1F ADD PUSH1 0x5 SHR ADD SWAP1 DUP4 SWAP1 JUMPDEST DUP3 DUP2 LT PUSH2 0x3D4 JUMPI POP POP PUSH2 0x2C3 JUMP JUMPDEST DUP10 DUP2 SSTORE ADD DUP4 SWAP1 PUSH2 0x3C6 JUMP JUMPDEST SWAP1 SWAP2 POP DUP2 SWAP1 PUSH2 0x3BB JUMP JUMPDEST PUSH4 0x4E487B71 PUSH1 0xE0 SHL DUP10 MSTORE PUSH1 0x41 SWAP1 MSTORE DUP8 REVERT JUMPDEST SWAP6 PUSH2 0x443 DUP11 DUP4 SWAP12 SWAP9 DUP8 SWAP15 SWAP9 SWAP7 SWAP6 SWAP5 DUP15 DUP6 SWAP16 DUP14 SWAP15 SWAP11 DUP2 SWAP15 MLOAD SWAP7 DUP8 SWAP6 DUP7 SWAP5 DUP6 SWAP4 PUSH4 0xA85BD01 PUSH1 0xE1 SHL SWAP12 DUP13 DUP7 MSTORE CALLER SWAP1 DUP7 ADD MSTORE DUP5 ADD MSTORE DUP14 PUSH1 0x44 DUP5 ADD MSTORE PUSH1 0x80 PUSH1 0x64 DUP5 ADD MSTORE PUSH1 0x84 DUP4 ADD SWAP1 PUSH2 0xD90 JUMP JUMPDEST SUB SWAP3 GAS CALL DUP10 SWAP2 DUP2 PUSH2 0x4E6 JUMPI JUMPDEST POP PUSH2 0x4AC JUMPI POP POP POP POP POP POP POP RETURNDATASIZE PUSH1 0x0 EQ PUSH2 0x4A3 JUMPI RETURNDATASIZE PUSH2 0x46D DUP2 PUSH2 0xE8A JUMP JUMPDEST SWAP1 PUSH2 0x47A DUP6 MLOAD SWAP3 DUP4 PUSH2 0xE68 JUMP JUMPDEST DUP2 MSTORE DUP1 SWAP3 DUP3 RETURNDATASIZE SWAP3 ADD RETURNDATACOPY JUMPDEST DUP2 MLOAD SWAP2 DUP3 PUSH2 0x4A0 JUMPI POP POP POP MLOAD SWAP2 PUSH4 0x32505749 PUSH1 0xE1 SHL DUP4 MSTORE DUP3 ADD MSTORE REVERT JUMPDEST ADD REVERT JUMPDEST PUSH1 0x60 SWAP2 POP PUSH2 0x484 JUMP JUMPDEST PUSH4 0xFFFFFFFF PUSH1 0xE0 SWAP14 SWAP7 SWAP11 SWAP10 SWAP13 SWAP9 SWAP12 SWAP4 SWAP5 SWAP6 SWAP8 SWAP14 SHL AND SUB PUSH2 0x4D0 JUMPI POP PUSH2 0x299 DUP12 PUSH2 0x289 JUMP JUMPDEST SWAP4 POP POP POP SWAP3 MLOAD SWAP2 PUSH4 0x32505749 PUSH1 0xE1 SHL DUP4 MSTORE DUP3 ADD MSTORE REVERT JUMPDEST SWAP1 SWAP2 POP DUP9 DUP2 DUP2 RETURNDATASIZE DUP4 GT PUSH2 0x523 JUMPI JUMPDEST PUSH2 0x4FE DUP2 DUP4 PUSH2 0xE68 JUMP JUMPDEST DUP2 ADD SUB SLT PUSH2 0x51F JUMPI MLOAD PUSH1 0x1 PUSH1 0x1 PUSH1 0xE0 SHL SUB NOT DUP2 AND DUP2 SUB PUSH2 0x51F JUMPI SWAP1 DUP15 PUSH2 0x44F JUMP JUMPDEST DUP10 DUP1 REVERT JUMPDEST POP RETURNDATASIZE PUSH2 0x4F4 JUMP JUMPDEST DUP9 MLOAD PUSH4 0x39E35637 PUSH1 0xE1 SHL DUP2 MSTORE DUP1 DUP10 ADD DUP14 SWAP1 MSTORE DUP7 SWAP1 REVERT JUMPDEST PUSH1 0x0 DUP5 DUP2 MSTORE PUSH1 0x4 PUSH1 0x20 MSTORE PUSH1 0x40 SWAP1 KECCAK256 DUP1 SLOAD PUSH1 0x1 PUSH1 0x1 PUSH1 0xA0 SHL SUB NOT AND SWAP1 SSTORE DUP2 DUP2 MSTORE PUSH1 0x3 DUP13 MSTORE DUP14 DUP2 KECCAK256 DUP1 SLOAD PUSH1 0x0 NOT ADD SWAP1 SSTORE PUSH2 0x22C JUMP JUMPDEST DUP8 MLOAD PUSH4 0x32505749 PUSH1 0xE1 SHL DUP2 MSTORE DUP1 DUP9 ADD DUP13 SWAP1 MSTORE DUP6 SWAP1 REVERT JUMPDEST DUP6 MLOAD PUSH3 0x461BCD PUSH1 0xE5 SHL DUP2 MSTORE PUSH1 0x20 DUP2 DUP8 ADD MSTORE PUSH1 0x10 DUP2 DUP6 ADD MSTORE PUSH16 0x4F6E6C79206D61726B6574706C616365 PUSH1 0x80 SHL PUSH1 0x44 DUP3 ADD MSTORE PUSH1 0x64 SWAP1 REVERT JUMPDEST DUP8 DUP1 REVERT JUMPDEST DUP7 DUP1 REVERT JUMPDEST POP DUP1 REVERT JUMPDEST POP POP CALLVALUE PUSH2 0x5C6 JUMPI DUP1 PUSH1 0x3 NOT CALLDATASIZE ADD SLT PUSH2 0x5C6 JUMPI PUSH1 0xFF DUP2 PUSH1 0x20 SWAP4 PUSH2 0x5EA PUSH2 0xDD0 JUMP JUMPDEST PUSH2 0x5F2 PUSH2 0xDEB JUMP JUMPDEST PUSH1 0x1 PUSH1 0x1 PUSH1 0xA0 SHL SUB SWAP2 DUP3 AND DUP4 MSTORE PUSH1 0x5 DUP8 MSTORE DUP4 DUP4 KECCAK256 SWAP2 AND DUP3 MSTORE DUP6 MSTORE KECCAK256 SLOAD SWAP2 MLOAD SWAP2 AND ISZERO ISZERO DUP2 MSTORE RETURN JUMPDEST POP SWAP1 CALLVALUE PUSH2 0x182 JUMPI PUSH1 0x20 SWAP2 DUP3 PUSH1 0x3 NOT CALLDATASIZE ADD SLT PUSH2 0x70A JUMPI CALLDATALOAD PUSH2 0x637 DUP2 PUSH2 0x10B6 JUMP JUMPDEST POP DUP4 MSTORE PUSH1 0x6 DUP3 MSTORE DUP1 DUP4 KECCAK256 SWAP3 DUP2 MLOAD DUP1 SWAP5 DUP3 SWAP1 DUP1 SLOAD PUSH2 0x653 DUP2 PUSH2 0xEDD JUMP JUMPDEST SWAP2 DUP3 DUP6 MSTORE PUSH1 0x1 SWAP2 DUP9 PUSH1 0x1 DUP3 AND SWAP2 DUP3 PUSH1 0x0 EQ PUSH2 0x6E3 JUMPI POP POP PUSH1 0x1 EQ PUSH2 0x6A5 JUMPI JUMPDEST POP POP POP PUSH2 0x6A1 SWAP4 SWAP3 SWAP2 PUSH2 0x686 SWAP2 SUB DUP7 PUSH2 0xE68 JUMP JUMPDEST DUP2 MLOAD PUSH2 0x691 DUP2 PUSH2 0xE36 JUMP JUMPDEST MSTORE MLOAD SWAP3 DUP3 DUP5 SWAP4 DUP5 MSTORE DUP4 ADD SWAP1 PUSH2 0xD90 JUMP JUMPDEST SUB SWAP1 RETURN JUMPDEST DUP6 MSTORE DUP7 DUP6 KECCAK256 DUP8 SWAP4 POP DUP6 SWAP3 SWAP2 SWAP1 JUMPDEST DUP3 DUP5 LT PUSH2 0x6CB JUMPI POP POP POP DUP3 ADD ADD DUP2 PUSH2 0x686 PUSH2 0x6A1 PUSH2 0x672 JUMP JUMPDEST DUP1 SLOAD DUP5 DUP12 ADD DUP7 ADD MSTORE DUP10 SWAP6 POP DUP9 SWAP5 SWAP1 SWAP4 ADD SWAP3 DUP2 ADD PUSH2 0x6B2 JUMP JUMPDEST PUSH1 0xFF NOT AND DUP8 DUP3 ADD MSTORE SWAP4 ISZERO ISZERO PUSH1 0x5 SHL DUP7 ADD SWAP1 SWAP4 ADD SWAP4 POP DUP5 SWAP3 POP PUSH2 0x686 SWAP2 POP PUSH2 0x6A1 SWAP1 POP PUSH2 0x672 JUMP JUMPDEST DUP4 DUP1 REVERT JUMPDEST DUP4 DUP3 CALLVALUE PUSH2 0x5C6 JUMPI PUSH1 0x80 CALLDATASIZE PUSH1 0x3 NOT ADD SLT PUSH2 0x5C6 JUMPI PUSH2 0x729 PUSH2 0xDD0 JUMP JUMPDEST PUSH2 0x731 PUSH2 0xDEB JUMP JUMPDEST PUSH1 0x44 CALLDATALOAD SWAP1 PUSH1 0x64 CALLDATALOAD PUSH8 0xFFFFFFFFFFFFFFFF DUP2 GT PUSH2 0x77D JUMPI CALLDATASIZE PUSH1 0x23 DUP3 ADD SLT ISZERO PUSH2 0x77D JUMPI PUSH2 0x77A SWAP5 DUP2 PUSH1 0x24 PUSH2 0x768 SWAP4 CALLDATASIZE SWAP4 ADD CALLDATALOAD SWAP2 ADD PUSH2 0xEA6 JUMP JUMPDEST SWAP3 PUSH2 0x774 DUP4 DUP4 DUP4 PUSH2 0xF17 JUMP JUMPDEST CALLER PUSH2 0x111D JUMP JUMPDEST DUP1 RETURN JUMPDEST DUP6 DUP1 REVERT JUMPDEST POP POP CALLVALUE PUSH2 0x5C6 JUMPI DUP2 PUSH1 0x3 NOT CALLDATASIZE ADD SLT PUSH2 0x5C6 JUMPI PUSH1 0x8 SLOAD SWAP1 MLOAD PUSH1 0x1 PUSH1 0x1 PUSH1 0xA0 SHL SUB SWAP1 SWAP2 AND DUP2 MSTORE PUSH1 0x20 SWAP1 RETURN JUMPDEST POP SWAP1 CALLVALUE PUSH2 0x182 JUMPI DUP1 PUSH1 0x3 NOT CALLDATASIZE ADD SLT PUSH2 0x182 JUMPI PUSH2 0x7C4 PUSH2 0xDD0 JUMP JUMPDEST SWAP1 PUSH1 0x24 CALLDATALOAD SWAP2 DUP3 ISZERO ISZERO DUP1 SWAP4 SUB PUSH2 0x847 JUMPI PUSH1 0x1 PUSH1 0x1 PUSH1 0xA0 SHL SUB AND SWAP3 DUP4 ISZERO PUSH2 0x832 JUMPI POP CALLER DUP5 MSTORE PUSH1 0x5 PUSH1 0x20 MSTORE DUP1 DUP5 KECCAK256 DUP4 DUP6 MSTORE PUSH1 0x20 MSTORE DUP1 DUP5 KECCAK256 PUSH1 0xFF NOT DUP2 SLOAD AND PUSH1 0xFF DUP5 AND OR SWAP1 SSTORE MLOAD SWAP1 DUP2 MSTORE PUSH32 0x17307EAB39AB6107E8899845AD3D59BD9653F200F220920489CA2B5937696C31 PUSH1 0x20 CALLER SWAP3 LOG3 DUP1 RETURN JUMPDEST DUP4 PUSH1 0x24 SWAP3 MLOAD SWAP2 PUSH4 0xB611743 PUSH1 0xE3 SHL DUP4 MSTORE DUP3 ADD MSTORE REVERT JUMPDEST DUP5 DUP1 REVERT JUMPDEST DUP3 DUP5 CALLVALUE PUSH2 0x936 JUMPI DUP1 PUSH1 0x3 NOT CALLDATASIZE ADD SLT PUSH2 0x936 JUMPI DUP2 MLOAD SWAP2 DUP3 DUP3 PUSH1 0x1 SWAP4 PUSH1 0x1 SLOAD SWAP5 PUSH2 0x872 DUP7 PUSH2 0xEDD JUMP JUMPDEST SWAP2 DUP3 DUP6 MSTORE PUSH1 0x20 SWAP7 DUP8 PUSH1 0x1 DUP3 AND SWAP2 DUP3 PUSH1 0x0 EQ PUSH2 0x90F JUMPI POP POP PUSH1 0x1 EQ PUSH2 0x8B3 JUMPI JUMPDEST POP POP POP PUSH2 0x6A1 SWAP3 SWAP2 PUSH2 0x8A4 SWAP2 SUB DUP6 PUSH2 0xE68 JUMP JUMPDEST MLOAD SWAP3 DUP3 DUP5 SWAP4 DUP5 MSTORE DUP4 ADD SWAP1 PUSH2 0xD90 JUMP JUMPDEST SWAP2 SWAP1 DUP7 SWAP4 POP PUSH1 0x1 DUP4 MSTORE PUSH32 0xB10E2D527612073B26EECDFD717E6A320CF44B4AFAC2B0732D9FCBE2B7FA0CF6 JUMPDEST DUP3 DUP5 LT PUSH2 0x8F7 JUMPI POP POP POP DUP3 ADD ADD DUP2 PUSH2 0x8A4 PUSH2 0x6A1 PUSH2 0x891 JUMP JUMPDEST DUP1 SLOAD DUP5 DUP11 ADD DUP7 ADD MSTORE DUP9 SWAP6 POP DUP8 SWAP5 SWAP1 SWAP4 ADD SWAP3 DUP2 ADD PUSH2 0x8DE JUMP JUMPDEST PUSH1 0xFF NOT AND DUP8 DUP3 ADD MSTORE SWAP4 ISZERO ISZERO PUSH1 0x5 SHL DUP7 ADD SWAP1 SWAP4 ADD SWAP4 POP DUP5 SWAP3 POP PUSH2 0x8A4 SWAP2 POP PUSH2 0x6A1 SWAP1 POP PUSH2 0x891 JUMP JUMPDEST DUP1 REVERT JUMPDEST POP POP CALLVALUE PUSH2 0x5C6 JUMPI DUP2 PUSH1 0x3 NOT CALLDATASIZE ADD SLT PUSH2 0x5C6 JUMPI PUSH1 0x7 SLOAD SWAP1 MLOAD PUSH1 0x1 PUSH1 0x1 PUSH1 0xA0 SHL SUB SWAP1 SWAP2 AND DUP2 MSTORE PUSH1 0x20 SWAP1 RETURN JUMPDEST POP CALLVALUE PUSH2 0x182 JUMPI PUSH1 0x20 CALLDATASIZE PUSH1 0x3 NOT ADD SLT PUSH2 0x182 JUMPI PUSH2 0x97C PUSH2 0xDD0 JUMP JUMPDEST SWAP1 PUSH2 0x985 PUSH2 0x10F1 JUMP JUMPDEST PUSH1 0x1 PUSH1 0x1 PUSH1 0xA0 SHL SUB SWAP2 DUP3 AND SWAP3 DUP4 ISZERO PUSH2 0x9D5 JUMPI POP POP DUP2 PUSH1 0x8 SLOAD SWAP2 DUP3 AND PUSH32 0xC3E7368EF0A668941A4115B651A9C4F3FA3A13CC6EA105BB91E12BCAA932293C DUP6 DUP1 LOG3 PUSH1 0x1 PUSH1 0x1 PUSH1 0xA0 SHL SUB NOT AND OR PUSH1 0x8 SSTORE DUP1 RETURN JUMPDEST SWAP1 PUSH1 0x20 PUSH1 0x64 SWAP3 MLOAD SWAP2 PUSH3 0x461BCD PUSH1 0xE5 SHL DUP4 MSTORE DUP3 ADD MSTORE PUSH1 0x18 PUSH1 0x24 DUP3 ADD MSTORE PUSH32 0x4D61726B6574706C616365207A65726F20616464726573730000000000000000 PUSH1 0x44 DUP3 ADD MSTORE REVERT JUMPDEST DUP4 CALLVALUE PUSH2 0x936 JUMPI DUP1 PUSH1 0x3 NOT CALLDATASIZE ADD SLT PUSH2 0x936 JUMPI PUSH2 0xA31 PUSH2 0x10F1 JUMP JUMPDEST PUSH1 0x7 DUP1 SLOAD PUSH1 0x1 PUSH1 0x1 PUSH1 0xA0 SHL SUB NOT DUP2 AND SWAP1 SWAP2 SSTORE DUP2 SWAP1 PUSH1 0x1 PUSH1 0x1 PUSH1 0xA0 SHL SUB AND PUSH32 0x8BE0079C531659141344CD1FD0A4F28419497F9722A3DAAFE3B4186F6B6457E0 DUP3 DUP1 LOG3 DUP1 RETURN JUMPDEST POP SWAP2 CALLVALUE PUSH2 0x936 JUMPI PUSH1 0x20 CALLDATASIZE PUSH1 0x3 NOT ADD SLT PUSH2 0x936 JUMPI PUSH1 0x1 PUSH1 0x1 PUSH1 0xA0 SHL SUB PUSH2 0xA98 PUSH2 0xDD0 JUMP JUMPDEST AND SWAP3 DUP4 ISZERO PUSH2 0xAB5 JUMPI POP DUP1 PUSH1 0x20 SWAP4 DUP4 SWAP3 MSTORE PUSH1 0x3 DUP5 MSTORE KECCAK256 SLOAD SWAP1 MLOAD SWAP1 DUP2 MSTORE RETURN JUMPDEST SWAP2 MLOAD PUSH4 0x22718AD9 PUSH1 0xE2 SHL DUP2 MSTORE SWAP2 DUP3 ADD MSTORE PUSH1 0x24 SWAP1 REVERT JUMPDEST POP SWAP2 CALLVALUE PUSH2 0x936 JUMPI PUSH1 0x20 CALLDATASIZE PUSH1 0x3 NOT ADD SLT PUSH2 0x936 JUMPI POP PUSH2 0xAEA PUSH1 0x20 SWAP3 CALLDATALOAD PUSH2 0x10B6 JUMP JUMPDEST SWAP1 MLOAD PUSH1 0x1 PUSH1 0x1 PUSH1 0xA0 SHL SUB SWAP1 SWAP2 AND DUP2 MSTORE RETURN JUMPDEST POP POP CALLVALUE PUSH2 0x5C6 JUMPI PUSH2 0x77A SWAP1 PUSH2 0xB0F CALLDATASIZE PUSH2 0xE01 JUMP JUMPDEST SWAP2 SWAP3 MLOAD SWAP3 PUSH2 0xB1C DUP5 PUSH2 0xE36 JUMP JUMPDEST DUP6 DUP5 MSTORE PUSH2 0x774 DUP4 DUP4 DUP4 PUSH2 0xF17 JUMP JUMPDEST DUP4 CALLVALUE PUSH2 0x936 JUMPI PUSH2 0x77A PUSH2 0xB3C CALLDATASIZE PUSH2 0xE01 JUMP JUMPDEST SWAP2 PUSH2 0xF17 JUMP JUMPDEST POP SWAP1 CALLVALUE PUSH2 0x182 JUMPI DUP1 PUSH1 0x3 NOT CALLDATASIZE ADD SLT PUSH2 0x182 JUMPI PUSH2 0xB5C PUSH2 0xDD0 JUMP JUMPDEST SWAP2 PUSH1 0x24 CALLDATALOAD PUSH2 0xB69 DUP2 PUSH2 0x10B6 JUMP JUMPDEST CALLER ISZERO ISZERO DUP1 PUSH2 0xC0B JUMPI JUMPDEST DUP1 PUSH2 0xBE2 JUMPI JUMPDEST PUSH2 0xBCC JUMPI PUSH1 0x1 PUSH1 0x1 PUSH1 0xA0 SHL SUB SWAP5 DUP6 AND SWAP5 DUP3 SWAP2 DUP7 SWAP2 AND PUSH32 0x8C5BE1E5EBEC7D5BD14F71427D1E84F3DD0314C0F7B2291E5B200AC8C7C3B925 DUP9 DUP1 LOG4 DUP5 MSTORE PUSH1 0x20 MSTORE DUP3 KECCAK256 DUP1 SLOAD PUSH1 0x1 PUSH1 0x1 PUSH1 0xA0 SHL SUB NOT AND SWAP1 SWAP2 OR SWAP1 SSTORE DUP1 RETURN JUMPDEST DUP4 MLOAD PUSH4 0xA9FBF51F PUSH1 0xE0 SHL DUP2 MSTORE CALLER DUP2 DUP6 ADD MSTORE PUSH1 0x24 SWAP1 REVERT JUMPDEST POP PUSH1 0x1 PUSH1 0x1 PUSH1 0xA0 SHL SUB DUP2 AND DUP7 MSTORE PUSH1 0x5 PUSH1 0x20 SWAP1 DUP2 MSTORE DUP5 DUP8 KECCAK256 CALLER DUP9 MSTORE SWAP1 MSTORE DUP4 DUP7 KECCAK256 SLOAD PUSH1 0xFF AND ISZERO PUSH2 0xB78 JUMP JUMPDEST POP PUSH1 0x1 PUSH1 0x1 PUSH1 0xA0 SHL SUB DUP2 AND CALLER EQ ISZERO PUSH2 0xB72 JUMP JUMPDEST POP CALLVALUE PUSH2 0x182 JUMPI PUSH1 0x20 CALLDATASIZE PUSH1 0x3 NOT ADD SLT PUSH2 0x182 JUMPI SWAP2 DUP3 PUSH1 0x20 SWAP4 CALLDATALOAD PUSH2 0xC3F DUP2 PUSH2 0x10B6 JUMP JUMPDEST POP DUP3 MSTORE DUP4 MSTORE DUP2 SWAP1 KECCAK256 SLOAD SWAP1 MLOAD PUSH1 0x1 PUSH1 0x1 PUSH1 0xA0 SHL SUB SWAP1 SWAP2 AND DUP2 MSTORE RETURN JUMPDEST DUP3 DUP5 CALLVALUE PUSH2 0x936 JUMPI DUP1 PUSH1 0x3 NOT CALLDATASIZE ADD SLT PUSH2 0x936 JUMPI DUP2 MLOAD SWAP2 DUP3 DUP3 DUP4 SLOAD PUSH2 0xC7B DUP2 PUSH2 0xEDD JUMP JUMPDEST SWAP1 DUP2 DUP5 MSTORE PUSH1 0x20 SWAP6 PUSH1 0x1 SWAP2 DUP8 PUSH1 0x1 DUP3 AND SWAP2 DUP3 PUSH1 0x0 EQ PUSH2 0x90F JUMPI POP POP PUSH1 0x1 EQ PUSH2 0xCAF JUMPI POP POP POP PUSH2 0x6A1 SWAP3 SWAP2 PUSH2 0x8A4 SWAP2 SUB DUP6 PUSH2 0xE68 JUMP JUMPDEST SWAP2 SWAP1 DUP7 SWAP4 POP DUP3 DUP1 MSTORE PUSH32 0x290DECD9548B62A8D60345A988386FC84BA6BC95484008F6362F93160EF3E563 JUMPDEST DUP3 DUP5 LT PUSH2 0xCF2 JUMPI POP POP POP DUP3 ADD ADD DUP2 PUSH2 0x8A4 PUSH2 0x6A1 PUSH2 0x891 JUMP JUMPDEST DUP1 SLOAD DUP5 DUP11 ADD DUP7 ADD MSTORE DUP9 SWAP6 POP DUP8 SWAP5 SWAP1 SWAP4 ADD SWAP3 DUP2 ADD PUSH2 0xCD9 JUMP JUMPDEST SWAP3 POP POP CALLVALUE PUSH2 0x182 JUMPI PUSH1 0x20 CALLDATASIZE PUSH1 0x3 NOT ADD SLT PUSH2 0x182 JUMPI CALLDATALOAD PUSH4 0xFFFFFFFF PUSH1 0xE0 SHL DUP2 AND DUP1 SWAP2 SUB PUSH2 0x182 JUMPI PUSH1 0x20 SWAP3 POP PUSH4 0x24832483 PUSH1 0xE1 SHL DUP2 EQ SWAP1 DUP2 ISZERO PUSH2 0xD4D JUMPI JUMPDEST POP ISZERO ISZERO DUP2 MSTORE RETURN JUMPDEST PUSH4 0x80AC58CD PUSH1 0xE0 SHL DUP2 EQ SWAP2 POP DUP2 ISZERO PUSH2 0xD7F JUMPI JUMPDEST DUP2 ISZERO PUSH2 0xD6E JUMPI JUMPDEST POP CODESIZE PUSH2 0xD46 JUMP JUMPDEST PUSH4 0x1FFC9A7 PUSH1 0xE0 SHL EQ SWAP1 POP CODESIZE PUSH2 0xD67 JUMP JUMPDEST PUSH4 0x5B5E139F PUSH1 0xE0 SHL DUP2 EQ SWAP2 POP PUSH2 0xD60 JUMP JUMPDEST SWAP2 SWAP1 DUP3 MLOAD SWAP3 DUP4 DUP3 MSTORE PUSH1 0x0 JUMPDEST DUP5 DUP2 LT PUSH2 0xDBC JUMPI POP POP DUP3 PUSH1 0x0 PUSH1 0x20 DUP1 SWAP5 SWAP6 DUP5 ADD ADD MSTORE PUSH1 0x1F DUP1 NOT SWAP2 ADD AND ADD ADD SWAP1 JUMP JUMPDEST PUSH1 0x20 DUP2 DUP4 ADD DUP2 ADD MLOAD DUP5 DUP4 ADD DUP3 ADD MSTORE ADD PUSH2 0xD9B JUMP JUMPDEST PUSH1 0x4 CALLDATALOAD SWAP1 PUSH1 0x1 PUSH1 0x1 PUSH1 0xA0 SHL SUB DUP3 AND DUP3 SUB PUSH2 0xDE6 JUMPI JUMP JUMPDEST PUSH1 0x0 DUP1 REVERT JUMPDEST PUSH1 0x24 CALLDATALOAD SWAP1 PUSH1 0x1 PUSH1 0x1 PUSH1 0xA0 SHL SUB DUP3 AND DUP3 SUB PUSH2 0xDE6 JUMPI JUMP JUMPDEST PUSH1 0x60 SWAP1 PUSH1 0x3 NOT ADD SLT PUSH2 0xDE6 JUMPI PUSH1 0x1 PUSH1 0x1 PUSH1 0xA0 SHL SUB SWAP1 PUSH1 0x4 CALLDATALOAD DUP3 DUP2 AND DUP2 SUB PUSH2 0xDE6 JUMPI SWAP2 PUSH1 0x24 CALLDATALOAD SWAP1 DUP2 AND DUP2 SUB PUSH2 0xDE6 JUMPI SWAP1 PUSH1 0x44 CALLDATALOAD SWAP1 JUMP JUMPDEST PUSH1 0x20 DUP2 ADD SWAP1 DUP2 LT PUSH8 0xFFFFFFFFFFFFFFFF DUP3 GT OR PUSH2 0xE52 JUMPI PUSH1 0x40 MSTORE JUMP JUMPDEST PUSH4 0x4E487B71 PUSH1 0xE0 SHL PUSH1 0x0 MSTORE PUSH1 0x41 PUSH1 0x4 MSTORE PUSH1 0x24 PUSH1 0x0 REVERT JUMPDEST SWAP1 PUSH1 0x1F DUP1 NOT SWAP2 ADD AND DUP2 ADD SWAP1 DUP2 LT PUSH8 0xFFFFFFFFFFFFFFFF DUP3 GT OR PUSH2 0xE52 JUMPI PUSH1 0x40 MSTORE JUMP JUMPDEST PUSH8 0xFFFFFFFFFFFFFFFF DUP2 GT PUSH2 0xE52 JUMPI PUSH1 0x1F ADD PUSH1 0x1F NOT AND PUSH1 0x20 ADD SWAP1 JUMP JUMPDEST SWAP3 SWAP2 SWAP3 PUSH2 0xEB2 DUP3 PUSH2 0xE8A JUMP JUMPDEST SWAP2 PUSH2 0xEC0 PUSH1 0x40 MLOAD SWAP4 DUP5 PUSH2 0xE68 JUMP JUMPDEST DUP3 SWAP5 DUP2 DUP5 MSTORE DUP2 DUP4 ADD GT PUSH2 0xDE6 JUMPI DUP3 DUP2 PUSH1 0x20 SWAP4 DUP5 PUSH1 0x0 SWAP7 ADD CALLDATACOPY ADD ADD MSTORE JUMP JUMPDEST SWAP1 PUSH1 0x1 DUP3 DUP2 SHR SWAP3 AND DUP1 ISZERO PUSH2 0xF0D JUMPI JUMPDEST PUSH1 0x20 DUP4 LT EQ PUSH2 0xEF7 JUMPI JUMP JUMPDEST PUSH4 0x4E487B71 PUSH1 0xE0 SHL PUSH1 0x0 MSTORE PUSH1 0x22 PUSH1 0x4 MSTORE PUSH1 0x24 PUSH1 0x0 REVERT JUMPDEST SWAP2 PUSH1 0x7F AND SWAP2 PUSH2 0xEEC JUMP JUMPDEST PUSH1 0x1 PUSH1 0x1 PUSH1 0xA0 SHL SUB SWAP2 DUP3 AND SWAP3 SWAP1 SWAP2 DUP4 ISZERO PUSH2 0x109D JUMPI PUSH1 0x0 SWAP3 DUP3 DUP5 MSTORE DUP3 PUSH1 0x20 SWAP6 PUSH1 0x2 DUP8 MSTORE PUSH1 0x40 SWAP7 DUP5 DUP9 DUP9 KECCAK256 SLOAD AND SWAP7 DUP8 SWAP2 CALLER ISZERO ISZERO DUP1 PUSH2 0x1007 JUMPI JUMPDEST POP SWAP1 PUSH1 0x2 PUSH32 0xDDF252AD1BE2C89B69C2B068FC378DAA952BA7F163C4A11628F55A4DF523B3EF SWAP3 DUP5 PUSH2 0xFD4 JUMPI JUMPDEST DUP6 DUP4 MSTORE PUSH1 0x3 DUP2 MSTORE DUP12 DUP4 KECCAK256 DUP1 SLOAD PUSH1 0x1 ADD SWAP1 SSTORE DUP7 DUP4 MSTORE MSTORE DUP10 DUP2 KECCAK256 DUP1 SLOAD PUSH1 0x1 PUSH1 0x1 PUSH1 0xA0 SHL SUB NOT AND DUP6 OR SWAP1 SSTORE DUP1 LOG4 AND SWAP3 DUP4 DUP4 SUB PUSH2 0xFB3 JUMPI POP POP POP POP JUMP JUMPDEST PUSH1 0x64 SWAP5 POP MLOAD SWAP3 PUSH4 0x64283D7B PUSH1 0xE0 SHL DUP5 MSTORE PUSH1 0x4 DUP5 ADD MSTORE PUSH1 0x24 DUP4 ADD MSTORE PUSH1 0x44 DUP3 ADD MSTORE REVERT JUMPDEST PUSH1 0x0 DUP8 DUP2 MSTORE PUSH1 0x4 PUSH1 0x20 MSTORE PUSH1 0x40 SWAP1 KECCAK256 DUP1 SLOAD PUSH1 0x1 PUSH1 0x1 PUSH1 0xA0 SHL SUB NOT AND SWAP1 SSTORE DUP5 DUP4 MSTORE PUSH1 0x3 DUP2 MSTORE DUP12 DUP4 KECCAK256 DUP1 SLOAD PUSH1 0x0 NOT ADD SWAP1 SSTORE PUSH2 0xF7A JUMP JUMPDEST SWAP2 SWAP4 SWAP5 POP SWAP2 POP DUP1 PUSH2 0x105C JUMPI JUMPDEST ISZERO PUSH2 0x1023 JUMPI DUP6 SWAP3 SWAP2 DUP8 SWAP2 CODESIZE PUSH2 0xF4E JUMP JUMPDEST DUP8 DUP7 DUP9 PUSH2 0x1040 JUMPI PUSH1 0x24 SWAP2 MLOAD SWAP1 PUSH4 0x7E273289 PUSH1 0xE0 SHL DUP3 MSTORE PUSH1 0x4 DUP3 ADD MSTORE REVERT JUMPDEST PUSH1 0x44 SWAP2 MLOAD SWAP1 PUSH4 0x177E802F PUSH1 0xE0 SHL DUP3 MSTORE CALLER PUSH1 0x4 DUP4 ADD MSTORE PUSH1 0x24 DUP3 ADD MSTORE REVERT JUMPDEST POP CALLER DUP8 EQ DUP1 ISZERO PUSH2 0x1081 JUMPI JUMPDEST DUP1 PUSH2 0x1013 JUMPI POP DUP6 DUP3 MSTORE PUSH1 0x4 DUP2 MSTORE CALLER DUP6 DUP10 DUP5 KECCAK256 SLOAD AND EQ PUSH2 0x1013 JUMP JUMPDEST POP DUP7 DUP3 MSTORE PUSH1 0x5 DUP2 MSTORE DUP8 DUP3 KECCAK256 CALLER DUP4 MSTORE DUP2 MSTORE PUSH1 0xFF DUP9 DUP4 KECCAK256 SLOAD AND PUSH2 0x1067 JUMP JUMPDEST PUSH1 0x40 MLOAD PUSH4 0x32505749 PUSH1 0xE1 SHL DUP2 MSTORE PUSH1 0x0 PUSH1 0x4 DUP3 ADD MSTORE PUSH1 0x24 SWAP1 REVERT JUMPDEST PUSH1 0x0 DUP2 DUP2 MSTORE PUSH1 0x2 PUSH1 0x20 MSTORE PUSH1 0x40 SWAP1 KECCAK256 SLOAD PUSH1 0x1 PUSH1 0x1 PUSH1 0xA0 SHL SUB AND SWAP1 DUP2 ISZERO PUSH2 0x10D9 JUMPI POP SWAP1 JUMP JUMPDEST PUSH1 0x24 SWAP1 PUSH1 0x40 MLOAD SWAP1 PUSH4 0x7E273289 PUSH1 0xE0 SHL DUP3 MSTORE PUSH1 0x4 DUP3 ADD MSTORE REVERT JUMPDEST PUSH1 0x7 SLOAD PUSH1 0x1 PUSH1 0x1 PUSH1 0xA0 SHL SUB AND CALLER SUB PUSH2 0x1105 JUMPI JUMP JUMPDEST PUSH1 0x40 MLOAD PUSH4 0x118CDAA7 PUSH1 0xE0 SHL DUP2 MSTORE CALLER PUSH1 0x4 DUP3 ADD MSTORE PUSH1 0x24 SWAP1 REVERT JUMPDEST SWAP1 SWAP4 SWAP2 SWAP3 DUP4 EXTCODESIZE PUSH2 0x112F JUMPI JUMPDEST POP POP POP POP POP JUMP JUMPDEST PUSH1 0x40 MLOAD PUSH4 0xA85BD01 PUSH1 0xE1 SHL DUP1 DUP3 MSTORE PUSH1 0x1 PUSH1 0x1 PUSH1 0xA0 SHL SUB SWAP4 DUP5 AND PUSH1 0x4 DUP4 ADD MSTORE SWAP6 DUP4 AND PUSH1 0x24 DUP3 ADD MSTORE PUSH1 0x44 DUP2 ADD SWAP2 SWAP1 SWAP2 MSTORE PUSH1 0x80 PUSH1 0x64 DUP3 ADD MSTORE SWAP5 SWAP3 AND SWAP3 PUSH1 0x20 SWAP3 SWAP2 DUP6 SWAP1 PUSH2 0x117C SWAP1 PUSH1 0x84 DUP4 ADD SWAP1 PUSH2 0xD90 JUMP JUMPDEST SUB SWAP5 DUP4 DUP2 PUSH1 0x0 SWAP8 DUP2 DUP10 DUP10 GAS CALL DUP7 SWAP2 DUP2 PUSH2 0x1227 JUMPI JUMPDEST POP PUSH2 0x11F1 JUMPI POP POP POP RETURNDATASIZE PUSH1 0x0 EQ PUSH2 0x11E8 JUMPI RETURNDATASIZE PUSH2 0x11AA DUP2 PUSH2 0xE8A JUMP JUMPDEST SWAP1 PUSH2 0x11B8 PUSH1 0x40 MLOAD SWAP3 DUP4 PUSH2 0xE68 JUMP JUMPDEST DUP2 MSTORE DUP1 SWAP4 DUP3 RETURNDATASIZE SWAP3 ADD RETURNDATACOPY JUMPDEST DUP3 MLOAD SWAP3 DUP4 PUSH2 0x11E3 JUMPI PUSH1 0x40 MLOAD PUSH4 0x32505749 PUSH1 0xE1 SHL DUP2 MSTORE PUSH1 0x4 DUP2 ADD DUP5 SWAP1 MSTORE PUSH1 0x24 SWAP1 REVERT JUMPDEST ADD SWAP1 POP REVERT JUMPDEST PUSH1 0x60 SWAP3 POP PUSH2 0x11C2 JUMP JUMPDEST SWAP2 SWAP5 POP SWAP2 POP PUSH4 0xFFFFFFFF PUSH1 0xE0 SHL AND SUB PUSH2 0x120F JUMPI POP CODESIZE DUP1 DUP1 DUP1 DUP1 PUSH2 0x1128 JUMP JUMPDEST PUSH1 0x24 SWAP1 PUSH1 0x40 MLOAD SWAP1 PUSH4 0x32505749 PUSH1 0xE1 SHL DUP3 MSTORE PUSH1 0x4 DUP3 ADD MSTORE REVERT JUMPDEST SWAP1 SWAP2 POP DUP5 DUP2 DUP2 RETURNDATASIZE DUP4 GT PUSH2 0x1260 JUMPI JUMPDEST PUSH2 0x123F DUP2 DUP4 PUSH2 0xE68 JUMP JUMPDEST DUP2 ADD SUB SLT PUSH2 0x5C2 JUMPI MLOAD PUSH1 0x1 PUSH1 0x1 PUSH1 0xE0 SHL SUB NOT DUP2 AND DUP2 SUB PUSH2 0x5C2 JUMPI SWAP1 CODESIZE PUSH2 0x1190 JUMP JUMPDEST POP RETURNDATASIZE PUSH2 0x1235 JUMP INVALID LOG2 PUSH5 0x6970667358 0x22 SLT KECCAK256 0xBB BALANCE 0xB0 LT COINBASE CODESIZE 0xD6 0xD9 0xC2 MSTORE8 SAR 0xC2 ADDMOD INVALID TIMESTAMP SELFDESTRUCT DELEGATECALL 0xC0 PUSH5 0x2B2899B91A 0xED 0x5C 0xC1 JUMPDEST PUSH2 0xC3F SWAP7 PUSH5 0x736F6C6343 STOP ADDMOD AND STOP CALLER "},"methodIdentifiers":{"approve(address,uint256)":"095ea7b3","balanceOf(address)":"70a08231","getApproved(uint256)":"081812fc","isApprovedForAll(address,address)":"e985e9c5","marketplace()":"abc8c7af","mintInvoice(address,uint256,string)":"eccb584c","name()":"06fdde03","owner()":"8da5cb5b","ownerOf(uint256)":"6352211e","renounceOwnership()":"715018a6","safeTransferFrom(address,address,uint256)":"42842e0e","safeTransferFrom(address,address,uint256,bytes)":"b88d4fde","setApprovalForAll(address,bool)":"a22cb465","setMarketplace(address)":"73ad6c2d","supportsInterface(bytes4)":"01ffc9a7","symbol()":"95d89b41","tokenURI(uint256)":"c87b56dd","transferFrom(address,address,uint256)":"23b872dd","transferOwnership(address)":"f2fde38b"}}}}}