{"contracts/StakingRewards.sol":{"StakingRewards":{"abi":[{"inputs":[{"internalType":"address","name":"_stakingToken","type":"address"}],"stateMutability":"nonpayable","type":"constructor"},{"inputs":[],"name":"ReentrancyGuardReentrantCall","type":"error"},{"anonymous":false,"inputs":[{"indexed":true,"internalType":"address","name":"user","type":"address"},{"indexed":false,"internalType":"uint256","name":"reward","type":"uint256"}],"name":"RewardPaid","type":"event"},{"anonymous":false,"inputs":[{"indexed":false,"internalType":"uint256","name":"amount","type":"uint256"}],"name":"RewardsAdded","type":"event"},{"anonymous":false,"inputs":[{"indexed":true,"internalType":"address","name":"user","type":"address"},{"indexed":false,"internalType":"uint256","name":"amount","type":"uint256"}],"name":"Staked","type":"event"},{"anonymous":false,"inputs":[{"indexed":true,"internalType":"address","name":"user","type":"address"},{"indexed":false,"internalType":"uint256","name":"amount","type":"uint256"}],"name":"Withdrawn","type":"event"},{"inputs":[{"internalType":"address","name":"","type":"address"}],"name":"balances","outputs":[{"internalType":"uint256","name":"","type":"uint256"}],"stateMutability":"view","type":"function"},{"inputs":[{"internalType":"address","name":"account","type":"address"}],"name":"earned","outputs":[{"internalType":"uint256","name":"","type":"uint256"}],"stateMutability":"view","type":"function"},{"inputs":[],"name":"exit","outputs":[],"stateMutability":"nonpayable","type":"function"},{"inputs":[],"name":"getReward","outputs":[],"stateMutability":"nonpayable","type":"function"},{"inputs":[],"name":"notifyRewardAmount","outputs":[],"stateMutability":"payable","type":"function"},{"inputs":[],"name":"rewardPerToken","outputs":[{"internalType":"uint256","name":"","type":"uint256"}],"stateMutability":"view","type":"function"},{"inputs":[],"name":"rewardPerTokenStored","outputs":[{"internalType":"uint256","name":"","type":"uint256"}],"stateMutability":"view","type":"function"},{"inputs":[{"internalType":"address","name":"","type":"address"}],"name":"rewards","outputs":[{"internalType":"uint256","name":"","type":"uint256"}],"stateMutability":"view","type":"function"},{"inputs":[{"internalType":"uint256","name":"amount","type":"uint256"}],"name":"stake","outputs":[],"stateMutability":"nonpayable","type":"function"},{"inputs":[],"name":"stakingToken","outputs":[{"internalType":"contract IERC20","name":"","type":"address"}],"stateMutability":"view","type":"function"},{"inputs":[],"name":"totalSupply","outputs":[{"internalType":"uint256","name":"","type":"uint256"}],"stateMutability":"view","type":"function"},{"inputs":[{"internalType":"address","name":"","type":"address"}],"name":"userRewardPerTokenPaid","outputs":[{"internalType":"uint256","name":"","type":"uint256"}],"stateMutability":"view","type":"function"},{"inputs":[{"internalType":"uint256","name":"amount","type":"uint256"}],"name":"withdraw","outputs":[],"stateMutability":"nonpayable","type":"function"},{"stateMutability":"payable","type":"receive"}],"evm":{"bytecode":{"linkReferences":{},"object":"60a0346100d157601f610d2238819003918201601f19168301916001600160401b038311848410176100d6578084926020946040528339810103126100d157516001600160a01b038116908190036100d1576001600055801561008c57608052604051610c3590816100ed823960805181818161014701528181610472015281816105ea01526107c90152f35b60405162461bcd60e51b815260206004820152601560248201527f5374616b696e6720746f6b656e206973207a65726f00000000000000000000006044820152606490fd5b600080fd5b634e487b7160e01b600052604160045260246000fdfe60406080815260048036101561001f575b5050361561001d57600080fd5b005b600091823560e01c80628cc26214610a955780630700037d14610a5b5780630c51dde41461097b57806318160ddd1461095c57806327e235e3146109225780632e1a7d4d146107475780633d18b9121461061957806372f702f3146105d55780638b8763471461059b578063a694fc3a146103fb578063cd3daf9d146103d8578063df136d65146103d85763e9fad8ee146100ba5750610010565b346103d457826003193601126103d45733835260209060028252808420546100e0610bdc565b33151590816103b1575b801561037a57338652600284528083872054106103405761010d81600154610ad0565b60015533865260028452828620610125828254610ad0565b9055825163a9059cbb60e01b815233868201526024810182905284816044818a7f00000000000000000000000000000000000000000000000000000000000000006001600160a01b03165af1908115610336578791610309575b50156102cb5782519081527f7084f5476618d8e60b11ef0d7d3f06914655adb8793e28ff7f018d4c76d505d5843392a2600185556101bb610bdc565b6102a8575b338452600582528084209284845494856101dd575b506001815580f35b558480808087335af13d156102a3573d67ffffffffffffffff811161029057835190610212601f8201601f1916870183610b87565b815286853d92013e5b156102565750907fe2403640ba68fed3a2f88b7557551d1993f84b99bb10ff833f0cf8db0c5e048691519283523392a23880808084816101d5565b82606492519162461bcd60e51b8352820152601660248201527514995dd85c99081d1c985b9cd9995c8819985a5b195960521b6044820152fd5b634e487b7160e01b875260418352602487fd5b61021b565b6102b133610b00565b3385526005835281852055600354838352818520556101c0565b50505162461bcd60e51b815291820152601860248201527715da5d1a191c985dc81d1c985b9cd9995c8819985a5b195960421b604482015260649150fd5b6103299150853d871161032f575b6103218183610b87565b810190610bbf565b3861017f565b503d610317565b84513d89823e3d90fd5b50505162461bcd60e51b8152918201526014602482015273496e73756666696369656e742062616c616e636560601b604482015260649150fd5b50505162461bcd60e51b8152918201526011602482015270043616e6e6f74207769746864726177203607c1b604482015260649150fd5b6103ba33610b00565b3387526005855283872055600354858552838720556100ea565b8280fd5b8382346103f757816003193601126103f7576020906003549051908152f35b5080fd5b50346103d457602090816003193601126105975782359261041a610bdc565b33610574575b83156105425761043284600154610af3565b6001553385526002835281852061044a858254610af3565b905581516323b872dd60e01b81523382820152306024820152604481018590528381606481897f00000000000000000000000000000000000000000000000000000000000000006001600160a01b03165af190811561053857869161051b575b50156104e25750907f9e71bc8eea02a63969f509818f2dafb9254532904319f9dbda79b67bd34a5f3d91519283523392a26001815580f35b82606492519162461bcd60e51b8352820152601560248201527414dd185ad9481d1c985b9cd9995c8819985a5b1959605a1b6044820152fd5b6105329150843d861161032f576103218183610b87565b386104aa565b83513d88823e3d90fd5b82606492519162461bcd60e51b8352820152600e60248201526d043616e6e6f74207374616b6520360941b6044820152fd5b61057d33610b00565b338652600584528286205560035481845282862055610420565b8380fd5b5090346103d45760203660031901126103d45780356001600160a01b03811690819003610597579282916020948252845220549051908152f35b8382346103f757816003193601126103f757517f00000000000000000000000000000000000000000000000000000000000000006001600160a01b03168152602090f35b50346103d457826003193601126103d457610632610bdc565b33610722575b338352600560205280832091838354938461065557506001815580f35b558380808086335af13d1561071d573d67ffffffffffffffff811161070a5783519061068b601f8201601f191660200183610b87565b81528560203d92013e5b156106cf5750519081527fe2403640ba68fed3a2f88b7557551d1993f84b99bb10ff833f0cf8db0c5e048660203392a238808083816101d5565b6020606492519162461bcd60e51b8352820152601660248201527514995dd85c99081d1c985b9cd9995c8819985a5b195960521b6044820152fd5b634e487b7160e01b865260418352602486fd5b610695565b61072b33610b00565b3384526005602052818420556003548260205281842055610638565b50346103d4576020908160031936011261059757823592610766610bdc565b336108ff575b83156108ca57338552600283528382862054106108925761078f84600154610ad0565b600155338552600283528185206107a7858254610ad0565b9055815163a9059cbb60e01b81523382820152602481018590528381604481897f00000000000000000000000000000000000000000000000000000000000000006001600160a01b03165af1908115610538578691610875575b50156108395750907f7084f5476618d8e60b11ef0d7d3f06914655adb8793e28ff7f018d4c76d505d591519283523392a26001815580f35b82606492519162461bcd60e51b8352820152601860248201527715da5d1a191c985dc81d1c985b9cd9995c8819985a5b195960421b6044820152fd5b61088c9150843d861161032f576103218183610b87565b38610801565b82606492519162461bcd60e51b83528201526014602482015273496e73756666696369656e742062616c616e636560601b6044820152fd5b82606492519162461bcd60e51b83528201526011602482015270043616e6e6f74207769746864726177203607c1b6044820152fd5b61090833610b00565b33865260058452828620556003548184528286205561076c565b5090346103d45760203660031901126103d457356001600160a01b038116908190036103d457828291602094526002845220549051908152f35b8382346103f757816003193601126103f7576020906001549051908152f35b508290816003193601126103f7573415610a2d5760015480156109fd57670de0b6b3a764000080340290348204036109ea57916109df6020927ff8fad42e780bfa5459be3fe691e8ba1aec70342250112139c5771c3fd155f3129404600354610af3565b60035551348152a180f35b634e487b7160e01b845260118552602484fd5b815162461bcd60e51b8152602081860152600a6024820152694e6f207374616b65727360b01b6044820152606490fd5b5162461bcd60e51b81526020818401526009602482015268139bc81c995dd85c9960ba1b6044820152606490fd5b5090346103d45760203660031901126103d457356001600160a01b038116908190036103d457828291602094526005845220549051908152f35b5090346103d45760203660031901126103d45735916001600160a01b0383168303610acd5750610ac6602092610b00565b9051908152f35b80fd5b91908203918211610add57565b634e487b7160e01b600052601160045260246000fd5b91908201809211610add57565b6001600160a01b031660008181526002602052604081205490918115610b78576004602052610b356040842054600354610ad0565b80830292830403610b6457670de0b6b3a76400008392604092610b619552600560205204912054610af3565b90565b634e487b7160e01b83526011600452602483fd5b50506040906005602052205490565b90601f8019910116810190811067ffffffffffffffff821117610ba957604052565b634e487b7160e01b600052604160045260246000fd5b90816020910312610bd757518015158103610bd75790565b600080fd5b600260005414610bed576002600055565b604051633ee5aeb560e01b8152600490fdfea2646970667358221220c41276e81f56f58609a188e1b0a76f631c30bca91dcc6e18c6a7574f27c4f75e64736f6c63430008160033","opcodes":"PUSH1 0xA0 CALLVALUE PUSH2 0xD1 JUMPI PUSH1 0x1F PUSH2 0xD22 CODESIZE DUP2 SWAP1 SUB SWAP2 DUP3 ADD PUSH1 0x1F NOT AND DUP4 ADD SWAP2 PUSH1 0x1 PUSH1 0x1 PUSH1 0x40 SHL SUB DUP4 GT DUP5 DUP5 LT OR PUSH2 0xD6 JUMPI DUP1 DUP5 SWAP3 PUSH1 0x20 SWAP5 PUSH1 0x40 MSTORE DUP4 CODECOPY DUP2 ADD SUB SLT PUSH2 0xD1 JUMPI MLOAD PUSH1 0x1 PUSH1 0x1 PUSH1 0xA0 SHL SUB DUP2 AND SWAP1 DUP2 SWAP1 SUB PUSH2 0xD1 JUMPI PUSH1 0x1 PUSH1 0x0 SSTORE DUP1 ISZERO PUSH2 0x8C JUMPI PUSH1 0x80 MSTORE PUSH1 0x40 MLOAD PUSH2 0xC35 SWAP1 DUP2 PUSH2 0xED DUP3 CODECOPY PUSH1 0x80 MLOAD DUP2 DUP2 DUP2 PUSH2 0x147 ADD MSTORE DUP2 DUP2 PUSH2 0x472 ADD MSTORE DUP2 DUP2 PUSH2 0x5EA ADD MSTORE PUSH2 0x7C9 ADD MSTORE RETURN JUMPDEST PUSH1 0x40 MLOAD PUSH3 0x461BCD PUSH1 0xE5 SHL DUP2 MSTORE PUSH1 0x20 PUSH1 0x4 DUP3 ADD MSTORE PUSH1 0x15 PUSH1 0x24 DUP3 ADD MSTORE PUSH32 0x5374616B696E6720746F6B656E206973207A65726F0000000000000000000000 PUSH1 0x44 DUP3 ADD MSTORE PUSH1 0x64 SWAP1 REVERT JUMPDEST PUSH1 0x0 DUP1 REVERT JUMPDEST PUSH4 0x4E487B71 PUSH1 0xE0 SHL PUSH1 0x0 MSTORE PUSH1 0x41 PUSH1 0x4 MSTORE PUSH1 0x24 PUSH1 0x0 REVERT INVALID PUSH1 0x40 PUSH1 0x80 DUP2 MSTORE PUSH1 0x4 DUP1 CALLDATASIZE LT ISZERO PUSH2 0x1F JUMPI JUMPDEST POP POP CALLDATASIZE ISZERO PUSH2 0x1D JUMPI PUSH1 0x0 DUP1 REVERT JUMPDEST STOP JUMPDEST PUSH1 0x0 SWAP2 DUP3 CALLDATALOAD PUSH1 0xE0 SHR DUP1 PUSH3 0x8CC262 EQ PUSH2 0xA95 JUMPI DUP1 PUSH4 0x700037D EQ PUSH2 0xA5B JUMPI DUP1 PUSH4 0xC51DDE4 EQ PUSH2 0x97B JUMPI DUP1 PUSH4 0x18160DDD EQ PUSH2 0x95C JUMPI DUP1 PUSH4 0x27E235E3 EQ PUSH2 0x922 JUMPI DUP1 PUSH4 0x2E1A7D4D EQ PUSH2 0x747 JUMPI DUP1 PUSH4 0x3D18B912 EQ PUSH2 0x619 JUMPI DUP1 PUSH4 0x72F702F3 EQ PUSH2 0x5D5 JUMPI DUP1 PUSH4 0x8B876347 EQ PUSH2 0x59B JUMPI DUP1 PUSH4 0xA694FC3A EQ PUSH2 0x3FB JUMPI DUP1 PUSH4 0xCD3DAF9D EQ PUSH2 0x3D8 JUMPI DUP1 PUSH4 0xDF136D65 EQ PUSH2 0x3D8 JUMPI PUSH4 0xE9FAD8EE EQ PUSH2 0xBA JUMPI POP PUSH2 0x10 JUMP JUMPDEST CALLVALUE PUSH2 0x3D4 JUMPI DUP3 PUSH1 0x3 NOT CALLDATASIZE ADD SLT PUSH2 0x3D4 JUMPI CALLER DUP4 MSTORE PUSH1 0x20 SWAP1 PUSH1 0x2 DUP3 MSTORE DUP1 DUP5 KECCAK256 SLOAD PUSH2 0xE0 PUSH2 0xBDC JUMP JUMPDEST CALLER ISZERO ISZERO SWAP1 DUP2 PUSH2 0x3B1 JUMPI JUMPDEST DUP1 ISZERO PUSH2 0x37A JUMPI CALLER DUP7 MSTORE PUSH1 0x2 DUP5 MSTORE DUP1 DUP4 DUP8 KECCAK256 SLOAD LT PUSH2 0x340 JUMPI PUSH2 0x10D DUP2 PUSH1 0x1 SLOAD PUSH2 0xAD0 JUMP JUMPDEST PUSH1 0x1 SSTORE CALLER DUP7 MSTORE PUSH1 0x2 DUP5 MSTORE DUP3 DUP7 KECCAK256 PUSH2 0x125 DUP3 DUP3 SLOAD PUSH2 0xAD0 JUMP JUMPDEST SWAP1 SSTORE DUP3 MLOAD PUSH4 0xA9059CBB PUSH1 0xE0 SHL DUP2 MSTORE CALLER DUP7 DUP3 ADD MSTORE PUSH1 0x24 DUP2 ADD DUP3 SWAP1 MSTORE DUP5 DUP2 PUSH1 0x44 DUP2 DUP11 PUSH32 0x0 PUSH1 0x1 PUSH1 0x1 PUSH1 0xA0 SHL SUB AND GAS CALL SWAP1 DUP2 ISZERO PUSH2 0x336 JUMPI DUP8 SWAP2 PUSH2 0x309 JUMPI JUMPDEST POP ISZERO PUSH2 0x2CB JUMPI DUP3 MLOAD SWAP1 DUP2 MSTORE PUSH32 0x7084F5476618D8E60B11EF0D7D3F06914655ADB8793E28FF7F018D4C76D505D5 DUP5 CALLER SWAP3 LOG2 PUSH1 0x1 DUP6 SSTORE PUSH2 0x1BB PUSH2 0xBDC JUMP JUMPDEST PUSH2 0x2A8 JUMPI JUMPDEST CALLER DUP5 MSTORE PUSH1 0x5 DUP3 MSTORE DUP1 DUP5 KECCAK256 SWAP3 DUP5 DUP5 SLOAD SWAP5 DUP6 PUSH2 0x1DD JUMPI JUMPDEST POP PUSH1 0x1 DUP2 SSTORE DUP1 RETURN JUMPDEST SSTORE DUP5 DUP1 DUP1 DUP1 DUP8 CALLER GAS CALL RETURNDATASIZE ISZERO PUSH2 0x2A3 JUMPI RETURNDATASIZE PUSH8 0xFFFFFFFFFFFFFFFF DUP2 GT PUSH2 0x290 JUMPI DUP4 MLOAD SWAP1 PUSH2 0x212 PUSH1 0x1F DUP3 ADD PUSH1 0x1F NOT AND DUP8 ADD DUP4 PUSH2 0xB87 JUMP JUMPDEST DUP2 MSTORE DUP7 DUP6 RETURNDATASIZE SWAP3 ADD RETURNDATACOPY JUMPDEST ISZERO PUSH2 0x256 JUMPI POP SWAP1 PUSH32 0xE2403640BA68FED3A2F88B7557551D1993F84B99BB10FF833F0CF8DB0C5E0486 SWAP2 MLOAD SWAP3 DUP4 MSTORE CALLER SWAP3 LOG2 CODESIZE DUP1 DUP1 DUP1 DUP5 DUP2 PUSH2 0x1D5 JUMP JUMPDEST DUP3 PUSH1 0x64 SWAP3 MLOAD SWAP2 PUSH3 0x461BCD PUSH1 0xE5 SHL DUP4 MSTORE DUP3 ADD MSTORE PUSH1 0x16 PUSH1 0x24 DUP3 ADD MSTORE PUSH22 0x14995DD85C99081D1C985B9CD9995C8819985A5B1959 PUSH1 0x52 SHL PUSH1 0x44 DUP3 ADD MSTORE REVERT JUMPDEST PUSH4 0x4E487B71 PUSH1 0xE0 SHL DUP8 MSTORE PUSH1 0x41 DUP4 MSTORE PUSH1 0x24 DUP8 REVERT JUMPDEST PUSH2 0x21B JUMP JUMPDEST PUSH2 0x2B1 CALLER PUSH2 0xB00 JUMP JUMPDEST CALLER DUP6 MSTORE PUSH1 0x5 DUP4 MSTORE DUP2 DUP6 KECCAK256 SSTORE PUSH1 0x3 SLOAD DUP4 DUP4 MSTORE DUP2 DUP6 KECCAK256 SSTORE PUSH2 0x1C0 JUMP JUMPDEST POP POP MLOAD PUSH3 0x461BCD PUSH1 0xE5 SHL DUP2 MSTORE SWAP2 DUP3 ADD MSTORE PUSH1 0x18 PUSH1 0x24 DUP3 ADD MSTORE PUSH24 0x15DA5D1A191C985DC81D1C985B9CD9995C8819985A5B1959 PUSH1 0x42 SHL PUSH1 0x44 DUP3 ADD MSTORE PUSH1 0x64 SWAP2 POP REVERT JUMPDEST PUSH2 0x329 SWAP2 POP DUP6 RETURNDATASIZE DUP8 GT PUSH2 0x32F JUMPI JUMPDEST PUSH2 0x321 DUP2 DUP4 PUSH2 0xB87 JUMP JUMPDEST DUP2 ADD SWAP1 PUSH2 0xBBF JUMP JUMPDEST CODESIZE PUSH2 0x17F JUMP JUMPDEST POP RETURNDATASIZE PUSH2 0x317 JUMP JUMPDEST DUP5 MLOAD RETURNDATASIZE DUP10 DUP3 RETURNDATACOPY RETURNDATASIZE SWAP1 REVERT JUMPDEST POP POP MLOAD PUSH3 0x461BCD PUSH1 0xE5 SHL DUP2 MSTORE SWAP2 DUP3 ADD MSTORE PUSH1 0x14 PUSH1 0x24 DUP3 ADD MSTORE PUSH20 0x496E73756666696369656E742062616C616E6365 PUSH1 0x60 SHL PUSH1 0x44 DUP3 ADD MSTORE PUSH1 0x64 SWAP2 POP REVERT JUMPDEST POP POP MLOAD PUSH3 0x461BCD PUSH1 0xE5 SHL DUP2 MSTORE SWAP2 DUP3 ADD MSTORE PUSH1 0x11 PUSH1 0x24 DUP3 ADD MSTORE PUSH17 0x43616E6E6F74207769746864726177203 PUSH1 0x7C SHL PUSH1 0x44 DUP3 ADD MSTORE PUSH1 0x64 SWAP2 POP REVERT JUMPDEST PUSH2 0x3BA CALLER PUSH2 0xB00 JUMP JUMPDEST CALLER DUP8 MSTORE PUSH1 0x5 DUP6 MSTORE DUP4 DUP8 KECCAK256 SSTORE PUSH1 0x3 SLOAD DUP6 DUP6 MSTORE DUP4 DUP8 KECCAK256 SSTORE PUSH2 0xEA JUMP JUMPDEST DUP3 DUP1 REVERT JUMPDEST DUP4 DUP3 CALLVALUE PUSH2 0x3F7 JUMPI DUP2 PUSH1 0x3 NOT CALLDATASIZE ADD SLT PUSH2 0x3F7 JUMPI PUSH1 0x20 SWAP1 PUSH1 0x3 SLOAD SWAP1 MLOAD SWAP1 DUP2 MSTORE RETURN JUMPDEST POP DUP1 REVERT JUMPDEST POP CALLVALUE PUSH2 0x3D4 JUMPI PUSH1 0x20 SWAP1 DUP2 PUSH1 0x3 NOT CALLDATASIZE ADD SLT PUSH2 0x597 JUMPI DUP3 CALLDATALOAD SWAP3 PUSH2 0x41A PUSH2 0xBDC JUMP JUMPDEST CALLER PUSH2 0x574 JUMPI JUMPDEST DUP4 ISZERO PUSH2 0x542 JUMPI PUSH2 0x432 DUP5 PUSH1 0x1 SLOAD PUSH2 0xAF3 JUMP JUMPDEST PUSH1 0x1 SSTORE CALLER DUP6 MSTORE PUSH1 0x2 DUP4 MSTORE DUP2 DUP6 KECCAK256 PUSH2 0x44A DUP6 DUP3 SLOAD PUSH2 0xAF3 JUMP JUMPDEST SWAP1 SSTORE DUP2 MLOAD PUSH4 0x23B872DD PUSH1 0xE0 SHL DUP2 MSTORE CALLER DUP3 DUP3 ADD MSTORE ADDRESS PUSH1 0x24 DUP3 ADD MSTORE PUSH1 0x44 DUP2 ADD DUP6 SWAP1 MSTORE DUP4 DUP2 PUSH1 0x64 DUP2 DUP10 PUSH32 0x0 PUSH1 0x1 PUSH1 0x1 PUSH1 0xA0 SHL SUB AND GAS CALL SWAP1 DUP2 ISZERO PUSH2 0x538 JUMPI DUP7 SWAP2 PUSH2 0x51B JUMPI JUMPDEST POP ISZERO PUSH2 0x4E2 JUMPI POP SWAP1 PUSH32 0x9E71BC8EEA02A63969F509818F2DAFB9254532904319F9DBDA79B67BD34A5F3D SWAP2 MLOAD SWAP3 DUP4 MSTORE CALLER SWAP3 LOG2 PUSH1 0x1 DUP2 SSTORE DUP1 RETURN JUMPDEST DUP3 PUSH1 0x64 SWAP3 MLOAD SWAP2 PUSH3 0x461BCD PUSH1 0xE5 SHL DUP4 MSTORE DUP3 ADD MSTORE PUSH1 0x15 PUSH1 0x24 DUP3 ADD MSTORE PUSH21 0x14DD185AD9481D1C985B9CD9995C8819985A5B1959 PUSH1 0x5A SHL PUSH1 0x44 DUP3 ADD MSTORE REVERT JUMPDEST PUSH2 0x532 SWAP2 POP DUP5 RETURNDATASIZE DUP7 GT PUSH2 0x32F JUMPI PUSH2 0x321 DUP2 DUP4 PUSH2 0xB87 JUMP JUMPDEST CODESIZE PUSH2 0x4AA JUMP JUMPDEST DUP4 MLOAD RETURNDATASIZE DUP9 DUP3 RETURNDATACOPY RETURNDATASIZE SWAP1 REVERT JUMPDEST DUP3 PUSH1 0x64 SWAP3 MLOAD SWAP2 PUSH3 0x461BCD PUSH1 0xE5 SHL DUP4 MSTORE DUP3 ADD MSTORE PUSH1 0xE PUSH1 0x24 DUP3 ADD MSTORE PUSH14 0x43616E6E6F74207374616B65203 PUSH1 0x94 SHL PUSH1 0x44 DUP3 ADD MSTORE REVERT JUMPDEST PUSH2 0x57D CALLER PUSH2 0xB00 JUMP JUMPDEST CALLER DUP7 MSTORE PUSH1 0x5 DUP5 MSTORE DUP3 DUP7 KECCAK256 SSTORE PUSH1 0x3 SLOAD DUP2 DUP5 MSTORE DUP3 DUP7 KECCAK256 SSTORE PUSH2 0x420 JUMP JUMPDEST DUP4 DUP1 REVERT JUMPDEST POP SWAP1 CALLVALUE PUSH2 0x3D4 JUMPI PUSH1 0x20 CALLDATASIZE PUSH1 0x3 NOT ADD SLT PUSH2 0x3D4 JUMPI DUP1 CALLDATALOAD PUSH1 0x1 PUSH1 0x1 PUSH1 0xA0 SHL SUB DUP2 AND SWAP1 DUP2 SWAP1 SUB PUSH2 0x597 JUMPI SWAP3 DUP3 SWAP2 PUSH1 0x20 SWAP5 DUP3 MSTORE DUP5 MSTORE KECCAK256 SLOAD SWAP1 MLOAD SWAP1 DUP2 MSTORE RETURN JUMPDEST DUP4 DUP3 CALLVALUE PUSH2 0x3F7 JUMPI DUP2 PUSH1 0x3 NOT CALLDATASIZE ADD SLT PUSH2 0x3F7 JUMPI MLOAD PUSH32 0x0 PUSH1 0x1 PUSH1 0x1 PUSH1 0xA0 SHL SUB AND DUP2 MSTORE PUSH1 0x20 SWAP1 RETURN JUMPDEST POP CALLVALUE PUSH2 0x3D4 JUMPI DUP3 PUSH1 0x3 NOT CALLDATASIZE ADD SLT PUSH2 0x3D4 JUMPI PUSH2 0x632 PUSH2 0xBDC JUMP JUMPDEST CALLER PUSH2 0x722 JUMPI JUMPDEST CALLER DUP4 MSTORE PUSH1 0x5 PUSH1 0x20 MSTORE DUP1 DUP4 KECCAK256 SWAP2 DUP4 DUP4 SLOAD SWAP4 DUP5 PUSH2 0x655 JUMPI POP PUSH1 0x1 DUP2 SSTORE DUP1 RETURN JUMPDEST SSTORE DUP4 DUP1 DUP1 DUP1 DUP7 CALLER GAS CALL RETURNDATASIZE ISZERO PUSH2 0x71D JUMPI RETURNDATASIZE PUSH8 0xFFFFFFFFFFFFFFFF DUP2 GT PUSH2 0x70A JUMPI DUP4 MLOAD SWAP1 PUSH2 0x68B PUSH1 0x1F DUP3 ADD PUSH1 0x1F NOT AND PUSH1 0x20 ADD DUP4 PUSH2 0xB87 JUMP JUMPDEST DUP2 MSTORE DUP6 PUSH1 0x20 RETURNDATASIZE SWAP3 ADD RETURNDATACOPY JUMPDEST ISZERO PUSH2 0x6CF JUMPI POP MLOAD SWAP1 DUP2 MSTORE PUSH32 0xE2403640BA68FED3A2F88B7557551D1993F84B99BB10FF833F0CF8DB0C5E0486 PUSH1 0x20 CALLER SWAP3 LOG2 CODESIZE DUP1 DUP1 DUP4 DUP2 PUSH2 0x1D5 JUMP JUMPDEST PUSH1 0x20 PUSH1 0x64 SWAP3 MLOAD SWAP2 PUSH3 0x461BCD PUSH1 0xE5 SHL DUP4 MSTORE DUP3 ADD MSTORE PUSH1 0x16 PUSH1 0x24 DUP3 ADD MSTORE PUSH22 0x14995DD85C99081D1C985B9CD9995C8819985A5B1959 PUSH1 0x52 SHL PUSH1 0x44 DUP3 ADD MSTORE REVERT JUMPDEST PUSH4 0x4E487B71 PUSH1 0xE0 SHL DUP7 MSTORE PUSH1 0x41 DUP4 MSTORE PUSH1 0x24 DUP7 REVERT JUMPDEST PUSH2 0x695 JUMP JUMPDEST PUSH2 0x72B CALLER PUSH2 0xB00 JUMP JUMPDEST CALLER DUP5 MSTORE PUSH1 0x5 PUSH1 0x20 MSTORE DUP2 DUP5 KECCAK256 SSTORE PUSH1 0x3 SLOAD DUP3 PUSH1 0x20 MSTORE DUP2 DUP5 KECCAK256 SSTORE PUSH2 0x638 JUMP JUMPDEST POP CALLVALUE PUSH2 0x3D4 JUMPI PUSH1 0x20 SWAP1 DUP2 PUSH1 0x3 NOT CALLDATASIZE ADD SLT PUSH2 0x597 JUMPI DUP3 CALLDATALOAD SWAP3 PUSH2 0x766 PUSH2 0xBDC JUMP JUMPDEST CALLER PUSH2 0x8FF JUMPI JUMPDEST DUP4 ISZERO PUSH2 0x8CA JUMPI CALLER DUP6 MSTORE PUSH1 0x2 DUP4 MSTORE DUP4 DUP3 DUP7 KECCAK256 SLOAD LT PUSH2 0x892 JUMPI PUSH2 0x78F DUP5 PUSH1 0x1 SLOAD PUSH2 0xAD0 JUMP JUMPDEST PUSH1 0x1 SSTORE CALLER DUP6 MSTORE PUSH1 0x2 DUP4 MSTORE DUP2 DUP6 KECCAK256 PUSH2 0x7A7 DUP6 DUP3 SLOAD PUSH2 0xAD0 JUMP JUMPDEST SWAP1 SSTORE DUP2 MLOAD PUSH4 0xA9059CBB PUSH1 0xE0 SHL DUP2 MSTORE CALLER DUP3 DUP3 ADD MSTORE PUSH1 0x24 DUP2 ADD DUP6 SWAP1 MSTORE DUP4 DUP2 PUSH1 0x44 DUP2 DUP10 PUSH32 0x0 PUSH1 0x1 PUSH1 0x1 PUSH1 0xA0 SHL SUB AND GAS CALL SWAP1 DUP2 ISZERO PUSH2 0x538 JUMPI DUP7 SWAP2 PUSH2 0x875 JUMPI JUMPDEST POP ISZERO PUSH2 0x839 JUMPI POP SWAP1 PUSH32 0x7084F5476618D8E60B11EF0D7D3F06914655ADB8793E28FF7F018D4C76D505D5 SWAP2 MLOAD SWAP3 DUP4 MSTORE CALLER SWAP3 LOG2 PUSH1 0x1 DUP2 SSTORE DUP1 RETURN JUMPDEST DUP3 PUSH1 0x64 SWAP3 MLOAD SWAP2 PUSH3 0x461BCD PUSH1 0xE5 SHL DUP4 MSTORE DUP3 ADD MSTORE PUSH1 0x18 PUSH1 0x24 DUP3 ADD MSTORE PUSH24 0x15DA5D1A191C985DC81D1C985B9CD9995C8819985A5B1959 PUSH1 0x42 SHL PUSH1 0x44 DUP3 ADD MSTORE REVERT JUMPDEST PUSH2 0x88C SWAP2 POP DUP5 RETURNDATASIZE DUP7 GT PUSH2 0x32F JUMPI PUSH2 0x321 DUP2 DUP4 PUSH2 0xB87 JUMP JUMPDEST CODESIZE PUSH2 0x801 JUMP JUMPDEST DUP3 PUSH1 0x64 SWAP3 MLOAD SWAP2 PUSH3 0x461BCD PUSH1 0xE5 SHL DUP4 MSTORE DUP3 ADD MSTORE PUSH1 0x14 PUSH1 0x24 DUP3 ADD MSTORE PUSH20 0x496E73756666696369656E742062616C616E6365 PUSH1 0x60 SHL PUSH1 0x44 DUP3 ADD MSTORE REVERT JUMPDEST DUP3 PUSH1 0x64 SWAP3 MLOAD SWAP2 PUSH3 0x461BCD PUSH1 0xE5 SHL DUP4 MSTORE DUP3 ADD MSTORE PUSH1 0x11 PUSH1 0x24 DUP3 ADD MSTORE PUSH17 0x43616E6E6F74207769746864726177203 PUSH1 0x7C SHL PUSH1 0x44 DUP3 ADD MSTORE REVERT JUMPDEST PUSH2 0x908 CALLER PUSH2 0xB00 JUMP JUMPDEST CALLER DUP7 MSTORE PUSH1 0x5 DUP5 MSTORE DUP3 DUP7 KECCAK256 SSTORE PUSH1 0x3 SLOAD DUP2 DUP5 MSTORE DUP3 DUP7 KECCAK256 SSTORE PUSH2 0x76C JUMP JUMPDEST POP SWAP1 CALLVALUE PUSH2 0x3D4 JUMPI PUSH1 0x20 CALLDATASIZE PUSH1 0x3 NOT ADD SLT PUSH2 0x3D4 JUMPI CALLDATALOAD PUSH1 0x1 PUSH1 0x1 PUSH1 0xA0 SHL SUB DUP2 AND SWAP1 DUP2 SWAP1 SUB PUSH2 0x3D4 JUMPI DUP3 DUP3 SWAP2 PUSH1 0x20 SWAP5 MSTORE PUSH1 0x2 DUP5 MSTORE KECCAK256 SLOAD SWAP1 MLOAD SWAP1 DUP2 MSTORE RETURN JUMPDEST DUP4 DUP3 CALLVALUE PUSH2 0x3F7 JUMPI DUP2 PUSH1 0x3 NOT CALLDATASIZE ADD SLT PUSH2 0x3F7 JUMPI PUSH1 0x20 SWAP1 PUSH1 0x1 SLOAD SWAP1 MLOAD SWAP1 DUP2 MSTORE RETURN JUMPDEST POP DUP3 SWAP1 DUP2 PUSH1 0x3 NOT CALLDATASIZE ADD SLT PUSH2 0x3F7 JUMPI CALLVALUE ISZERO PUSH2 0xA2D JUMPI PUSH1 0x1 SLOAD DUP1 ISZERO PUSH2 0x9FD JUMPI PUSH8 0xDE0B6B3A7640000 DUP1 CALLVALUE MUL SWAP1 CALLVALUE DUP3 DIV SUB PUSH2 0x9EA JUMPI SWAP2 PUSH2 0x9DF PUSH1 0x20 SWAP3 PUSH32 0xF8FAD42E780BFA5459BE3FE691E8BA1AEC70342250112139C5771C3FD155F312 SWAP5 DIV PUSH1 0x3 SLOAD PUSH2 0xAF3 JUMP JUMPDEST PUSH1 0x3 SSTORE MLOAD CALLVALUE DUP2 MSTORE LOG1 DUP1 RETURN JUMPDEST PUSH4 0x4E487B71 PUSH1 0xE0 SHL DUP5 MSTORE PUSH1 0x11 DUP6 MSTORE PUSH1 0x24 DUP5 REVERT JUMPDEST DUP2 MLOAD PUSH3 0x461BCD PUSH1 0xE5 SHL DUP2 MSTORE PUSH1 0x20 DUP2 DUP7 ADD MSTORE PUSH1 0xA PUSH1 0x24 DUP3 ADD MSTORE PUSH10 0x4E6F207374616B657273 PUSH1 0xB0 SHL PUSH1 0x44 DUP3 ADD MSTORE PUSH1 0x64 SWAP1 REVERT JUMPDEST MLOAD PUSH3 0x461BCD PUSH1 0xE5 SHL DUP2 MSTORE PUSH1 0x20 DUP2 DUP5 ADD MSTORE PUSH1 0x9 PUSH1 0x24 DUP3 ADD MSTORE PUSH9 0x139BC81C995DD85C99 PUSH1 0xBA SHL PUSH1 0x44 DUP3 ADD MSTORE PUSH1 0x64 SWAP1 REVERT JUMPDEST POP SWAP1 CALLVALUE PUSH2 0x3D4 JUMPI PUSH1 0x20 CALLDATASIZE PUSH1 0x3 NOT ADD SLT PUSH2 0x3D4 JUMPI CALLDATALOAD PUSH1 0x1 PUSH1 0x1 PUSH1 0xA0 SHL SUB DUP2 AND SWAP1 DUP2 SWAP1 SUB PUSH2 0x3D4 JUMPI DUP3 DUP3 SWAP2 PUSH1 0x20 SWAP5 MSTORE PUSH1 0x5 DUP5 MSTORE KECCAK256 SLOAD SWAP1 MLOAD SWAP1 DUP2 MSTORE RETURN JUMPDEST POP SWAP1 CALLVALUE PUSH2 0x3D4 JUMPI PUSH1 0x20 CALLDATASIZE PUSH1 0x3 NOT ADD SLT PUSH2 0x3D4 JUMPI CALLDATALOAD SWAP2 PUSH1 0x1 PUSH1 0x1 PUSH1 0xA0 SHL SUB DUP4 AND DUP4 SUB PUSH2 0xACD JUMPI POP PUSH2 0xAC6 PUSH1 0x20 SWAP3 PUSH2 0xB00 JUMP JUMPDEST SWAP1 MLOAD SWAP1 DUP2 MSTORE RETURN JUMPDEST DUP1 REVERT JUMPDEST SWAP2 SWAP1 DUP3 SUB SWAP2 DUP3 GT PUSH2 0xADD JUMPI JUMP JUMPDEST PUSH4 0x4E487B71 PUSH1 0xE0 SHL PUSH1 0x0 MSTORE PUSH1 0x11 PUSH1 0x4 MSTORE PUSH1 0x24 PUSH1 0x0 REVERT JUMPDEST SWAP2 SWAP1 DUP3 ADD DUP1 SWAP3 GT PUSH2 0xADD JUMPI JUMP JUMPDEST PUSH1 0x1 PUSH1 0x1 PUSH1 0xA0 SHL SUB AND PUSH1 0x0 DUP2 DUP2 MSTORE PUSH1 0x2 PUSH1 0x20 MSTORE PUSH1 0x40 DUP2 KECCAK256 SLOAD SWAP1 SWAP2 DUP2 ISZERO PUSH2 0xB78 JUMPI PUSH1 0x4 PUSH1 0x20 MSTORE PUSH2 0xB35 PUSH1 0x40 DUP5 KECCAK256 SLOAD PUSH1 0x3 SLOAD PUSH2 0xAD0 JUMP JUMPDEST DUP1 DUP4 MUL SWAP3 DUP4 DIV SUB PUSH2 0xB64 JUMPI PUSH8 0xDE0B6B3A7640000 DUP4 SWAP3 PUSH1 0x40 SWAP3 PUSH2 0xB61 SWAP6 MSTORE PUSH1 0x5 PUSH1 0x20 MSTORE DIV SWAP2 KECCAK256 SLOAD PUSH2 0xAF3 JUMP JUMPDEST SWAP1 JUMP JUMPDEST PUSH4 0x4E487B71 PUSH1 0xE0 SHL DUP4 MSTORE PUSH1 0x11 PUSH1 0x4 MSTORE PUSH1 0x24 DUP4 REVERT JUMPDEST POP POP PUSH1 0x40 SWAP1 PUSH1 0x5 PUSH1 0x20 MSTORE KECCAK256 SLOAD SWAP1 JUMP JUMPDEST SWAP1 PUSH1 0x1F DUP1 NOT SWAP2 ADD AND DUP2 ADD SWAP1 DUP2 LT PUSH8 0xFFFFFFFFFFFFFFFF DUP3 GT OR PUSH2 0xBA9 JUMPI PUSH1 0x40 MSTORE JUMP JUMPDEST PUSH4 0x4E487B71 PUSH1 0xE0 SHL PUSH1 0x0 MSTORE PUSH1 0x41 PUSH1 0x4 MSTORE PUSH1 0x24 PUSH1 0x0 REVERT JUMPDEST SWAP1 DUP2 PUSH1 0x20 SWAP2 SUB SLT PUSH2 0xBD7 JUMPI MLOAD DUP1 ISZERO ISZERO DUP2 SUB PUSH2 0xBD7 JUMPI SWAP1 JUMP JUMPDEST PUSH1 0x0 DUP1 REVERT JUMPDEST PUSH1 0x2 PUSH1 0x0 SLOAD EQ PUSH2 0xBED JUMPI PUSH1 0x2 PUSH1 0x0 SSTORE JUMP JUMPDEST PUSH1 0x40 MLOAD PUSH4 0x3EE5AEB5 PUSH1 0xE0 SHL DUP2 MSTORE PUSH1 0x4 SWAP1 REVERT INVALID LOG2 PUSH5 0x6970667358 0x22 SLT KECCAK256 0xC4 SLT PUSH23 0xE81F56F58609A188E1B0A76F631C30BCA91DCC6E18C6A7 JUMPI 0x4F 0x27 0xC4 0xF7 0x5E PUSH5 0x736F6C6343 STOP ADDMOD AND STOP CALLER "},"methodIdentifiers":{"balances(address)":"27e235e3","earned(address)":"008cc262","exit()":"e9fad8ee","getReward()":"3d18b912","notifyRewardAmount()":"0c51dde4","rewardPerToken()":"cd3daf9d","rewardPerTokenStored()":"df136d65","rewards(address)":"0700037d","stake(uint256)":"a694fc3a","stakingToken()":"72f702f3","totalSupply()":"18160ddd","userRewardPerTokenPaid(address)":"8b876347","withdraw(uint256)":"2e1a7d4d"}}}}}