{
  "_format": "hh-sol-artifact-1",
  "contractName": "InvoiceMarketplace",
  "sourceName": "contracts/InvoiceMarketplace.sol",
  "abi": [
    {
      "inputs": [],
      "name": "ReentrancyGuardReentrantCall",
      "type": "error"
    },
    {
      "anonymous": false,
      "inputs": [
        {
          "indexed": true,
          "internalType": "uint256",
          "name": "id",
          "type": "uint256"
        },
        {
          "indexed": true,
          "internalType": "address",
          "name": "investor",
          "type": "address"
        },
        {
          "indexed": false,
          "internalType": "uint256",
          "name": "amount",
          "type": "uint256"
        },
        {
          "indexed": false,
          "internalType": "uint256",
          "name": "fundedAmount",
          "type": "uint256"
        }
      ],
      "name": "Invested",
      "type": "event"
    },
    {
      "anonymous": false,
      "inputs": [
        {
          "indexed": true,
          "internalType": "uint256",
          "name": "id",
          "type": "uint256"
        },
        {
          "indexed": true,
          "internalType": "address",
          "name": "buyer",
          "type": "address"
        }
      ],
      "name": "InvoiceConfirmed",
      "type": "event"
    },
    {
      "anonymous": false,
      "inputs": [
        {
          "indexed": true,
          "internalType": "uint256",
          "name": "id",
          "type": "uint256"
        },
        {
          "indexed": true,
          "internalType": "address",
          "name": "msme",
          "type": "address"
        },
        {
          "indexed": true,
          "internalType": "address",
          "name": "buyer",
          "type": "address"
        },
        {
          "indexed": false,
          "internalType": "uint256",
          "name": "amount",
          "type": "uint256"
        },
        {
          "indexed": false,
          "internalType": "uint256",
          "name": "dueDate",
          "type": "uint256"
        },
        {
          "indexed": false,
          "internalType": "uint256",
          "name": "discountRate",
          "type": "uint256"
        },
        {
          "indexed": false,
          "internalType": "string",
          "name": "metadataURI",
          "type": "string"
        },
        {
          "indexed": false,
          "internalType": "address",
          "name": "exclusiveInvestor",
          "type": "address"
        }
      ],
      "name": "InvoiceCreated",
      "type": "event"
    },
    {
      "anonymous": false,
      "inputs": [
        {
          "indexed": true,
          "internalType": "uint256",
          "name": "id",
          "type": "uint256"
        }
      ],
      "name": "InvoiceDefaulted",
      "type": "event"
    },
    {
      "anonymous": false,
      "inputs": [
        {
          "indexed": true,
          "internalType": "uint256",
          "name": "id",
          "type": "uint256"
        }
      ],
      "name": "InvoiceFunded",
      "type": "event"
    },
    {
      "anonymous": false,
      "inputs": [
        {
          "indexed": true,
          "internalType": "uint256",
          "name": "id",
          "type": "uint256"
        },
        {
          "indexed": false,
          "internalType": "uint256",
          "name": "totalRepaid",
          "type": "uint256"
        }
      ],
      "name": "InvoiceRepaid",
      "type": "event"
    },
    {
      "anonymous": false,
      "inputs": [
        {
          "indexed": true,
          "internalType": "uint256",
          "name": "id",
          "type": "uint256"
        },
        {
          "indexed": true,
          "internalType": "address",
          "name": "investor",
          "type": "address"
        },
        {
          "indexed": false,
          "internalType": "uint256",
          "name": "amount",
          "type": "uint256"
        }
      ],
      "name": "RefundClaimed",
      "type": "event"
    },
    {
      "anonymous": false,
      "inputs": [
        {
          "indexed": true,
          "internalType": "uint256",
          "name": "id",
          "type": "uint256"
        },
        {
          "indexed": true,
          "internalType": "address",
          "name": "investor",
          "type": "address"
        },
        {
          "indexed": false,
          "internalType": "uint256",
          "name": "amount",
          "type": "uint256"
        }
      ],
      "name": "RepaymentClaimed",
      "type": "event"
    },
    {
      "inputs": [
        {
          "internalType": "uint256",
          "name": "id",
          "type": "uint256"
        }
      ],
      "name": "claimRefund",
      "outputs": [],
      "stateMutability": "nonpayable",
      "type": "function"
    },
    {
      "inputs": [
        {
          "internalType": "uint256",
          "name": "id",
          "type": "uint256"
        }
      ],
      "name": "claimRepayment",
      "outputs": [],
      "stateMutability": "nonpayable",
      "type": "function"
    },
    {
      "inputs": [
        {
          "internalType": "uint256",
          "name": "id",
          "type": "uint256"
        }
      ],
      "name": "confirmInvoice",
      "outputs": [],
      "stateMutability": "nonpayable",
      "type": "function"
    },
    {
      "inputs": [
        {
          "internalType": "address",
          "name": "buyer",
          "type": "address"
        },
        {
          "internalType": "uint256",
          "name": "amount",
          "type": "uint256"
        },
        {
          "internalType": "uint256",
          "name": "dueDate",
          "type": "uint256"
        },
        {
          "internalType": "uint256",
          "name": "discountRate",
          "type": "uint256"
        },
        {
          "internalType": "string",
          "name": "metadataURI",
          "type": "string"
        },
        {
          "internalType": "address",
          "name": "exclusiveInvestor",
          "type": "address"
        }
      ],
      "name": "createInvoice",
      "outputs": [
        {
          "internalType": "uint256",
          "name": "",
          "type": "uint256"
        }
      ],
      "stateMutability": "nonpayable",
      "type": "function"
    },
    {
      "inputs": [],
      "name": "feeBps",
      "outputs": [
        {
          "internalType": "uint256",
          "name": "",
          "type": "uint256"
        }
      ],
      "stateMutability": "view",
      "type": "function"
    },
    {
      "inputs": [
        {
          "internalType": "uint256",
          "name": "id",
          "type": "uint256"
        }
      ],
      "name": "getInvestors",
      "outputs": [
        {
          "internalType": "address[]",
          "name": "",
          "type": "address[]"
        }
      ],
      "stateMutability": "view",
      "type": "function"
    },
    {
      "inputs": [
        {
          "internalType": "address",
          "name": "_invoiceNFT",
          "type": "address"
        },
        {
          "internalType": "address payable",
          "name": "_stakingRewards",
          "type": "address"
        },
        {
          "internalType": "uint256",
          "name": "_feeBps",
          "type": "uint256"
        }
      ],
      "name": "initialize",
      "outputs": [],
      "stateMutability": "nonpayable",
      "type": "function"
    },
    {
      "inputs": [
        {
          "internalType": "uint256",
          "name": "id",
          "type": "uint256"
        }
      ],
      "name": "investInInvoice",
      "outputs": [],
      "stateMutability": "payable",
      "type": "function"
    },
    {
      "inputs": [
        {
          "internalType": "uint256",
          "name": "",
          "type": "uint256"
        },
        {
          "internalType": "address",
          "name": "",
          "type": "address"
        }
      ],
      "name": "investments",
      "outputs": [
        {
          "internalType": "uint256",
          "name": "",
          "type": "uint256"
        }
      ],
      "stateMutability": "view",
      "type": "function"
    },
    {
      "inputs": [],
      "name": "invoiceNFT",
      "outputs": [
        {
          "internalType": "contract InvoiceNFT",
          "name": "",
          "type": "address"
        }
      ],
      "stateMutability": "view",
      "type": "function"
    },
    {
      "inputs": [
        {
          "internalType": "uint256",
          "name": "",
          "type": "uint256"
        }
      ],
      "name": "invoices",
      "outputs": [
        {
          "internalType": "uint256",
          "name": "id",
          "type": "uint256"
        },
        {
          "internalType": "address",
          "name": "msme",
          "type": "address"
        },
        {
          "internalType": "address",
          "name": "buyer",
          "type": "address"
        },
        {
          "internalType": "uint256",
          "name": "amount",
          "type": "uint256"
        },
        {
          "internalType": "uint256",
          "name": "fundedAmount",
          "type": "uint256"
        },
        {
          "internalType": "uint256",
          "name": "dueDate",
          "type": "uint256"
        },
        {
          "internalType": "uint256",
          "name": "discountRate",
          "type": "uint256"
        },
        {
          "internalType": "enum InvoiceMarketplace.Status",
          "name": "status",
          "type": "uint8"
        },
        {
          "internalType": "string",
          "name": "metadataURI",
          "type": "string"
        },
        {
          "internalType": "address",
          "name": "exclusiveInvestor",
          "type": "address"
        }
      ],
      "stateMutability": "view",
      "type": "function"
    },
    {
      "inputs": [
        {
          "internalType": "uint256",
          "name": "id",
          "type": "uint256"
        }
      ],
      "name": "markDefaulted",
      "outputs": [],
      "stateMutability": "nonpayable",
      "type": "function"
    },
    {
      "inputs": [],
      "name": "nextInvoiceId",
      "outputs": [
        {
          "internalType": "uint256",
          "name": "",
          "type": "uint256"
        }
      ],
      "stateMutability": "view",
      "type": "function"
    },
    {
      "inputs": [],
      "name": "owner",
      "outputs": [
        {
          "internalType": "address",
          "name": "",
          "type": "address"
        }
      ],
      "stateMutability": "view",
      "type": "function"
    },
    {
      "inputs": [],
      "name": "pause",
      "outputs": [],
      "stateMutability": "nonpayable",
      "type": "function"
    },
    {
      "inputs": [],
      "name": "paused",
      "outputs": [
        {
          "internalType": "bool",
          "name": "",
          "type": "bool"
        }
      ],
      "stateMutability": "view",
      "type": "function"
    },
    {
      "inputs": [
        {
          "internalType": "uint256",
          "name": "id",
          "type": "uint256"
        }
      ],
      "name": "repayInvoice",
      "outputs": [],
      "stateMutability": "payable",
      "type": "function"
    },
    {
      "inputs": [
        {
          "internalType": "uint256",
          "name": "_feeBps",
          "type": "uint256"
        }
      ],
      "name": "setFeeBps",
      "outputs": [],
      "stateMutability": "nonpayable",
      "type": "function"
    },
    {
      "inputs": [
        {
          "internalType": "address",
          "name": "_invoiceNFT",
          "type": "address"
        }
      ],
      "name": "setInvoiceNFT",
      "outputs": [],
      "stateMutability": "nonpayable",
      "type": "function"
    },
    {
      "inputs": [
        {
          "internalType": "address payable",
          "name": "_stakingRewards",
          "type": "address"
        }
      ],
      "name": "setStakingRewards",
      "outputs": [],
      "stateMutability": "nonpayable",
      "type": "function"
    },
    {
      "inputs": [],
      "name": "stakingRewards",
      "outputs": [
        {
          "internalType": "contract StakingRewards",
          "name": "",
          "type": "address"
        }
      ],
      "stateMutability": "view",
      "type": "function"
    },
    {
      "inputs": [
        {
          "internalType": "uint256",
          "name": "",
          "type": "uint256"
        }
      ],
      "name": "totalRepaid",
      "outputs": [
        {
          "internalType": "uint256",
          "name": "",
          "type": "uint256"
        }
      ],
      "stateMutability": "view",
      "type": "function"
    },
    {
      "inputs": [
        {
          "internalType": "uint256",
          "name": "",
          "type": "uint256"
        }
      ],
      "name": "totalRepaidForInvestors",
      "outputs": [
        {
          "internalType": "uint256",
          "name": "",
          "type": "uint256"
        }
      ],
      "stateMutability": "view",
      "type": "function"
    },
    {
      "inputs": [
        {
          "internalType": "address",
          "name": "newOwner",
          "type": "address"
        }
      ],
      "name": "transferOwnership",
      "outputs": [],
      "stateMutability": "nonpayable",
      "type": "function"
    },
    {
      "inputs": [],
      "name": "unpause",
      "outputs": [],
      "stateMutability": "nonpayable",
      "type": "function"
    }
  ],
  "bytecode": "0x6080806040523461001b576001600055611c6990816100218239f35b600080fdfe6080604052600436101561001257600080fd5b6000803560e01c8062d878e8146116d65780631139de55146115fe5780631794bb3c1461151f57806324a9d853146115015780633b97f0da146114d75780633f4ba83a146114a25780634bb6f06d146114795780634e6d1405146112e0578063559034df146110a15780635b7baf6414610f165780635c975abb14610ef05780635e78670e14610dc65780635eaeafc914610d9c57806364b87a7014610d735780636fb83a5714610d1d5780636ff2a95314610cff57806372c27b6214610cc15780637321645014610b9f57806382c104171461062f5780638456cb59146105f45780638da5cb5b146105cb578063b11b32d214610584578063b354983d14610206578063f2fde38b146101875763f939f4961461012f57600080fd5b34610184576020366003190112610184576101486118a9565b6007546001600160a01b0391906101629083163314611b1d565b1661016e811515611a70565b6001600160601b0360a01b600954161760095580f35b80fd5b5034610184576020366003190112610184576101a16118a9565b600754906001600160a01b03906101bb3383851614611b1d565b169081156101d4576001600160a01b0319161760075580f35b60405162461bcd60e51b815260206004820152600a6024820152694f776e6572207a65726f60b01b6044820152606490fd5b506020908160031936011261018457600435918282526002815260ff60076040842001541660068110156105705761023f901515611945565b61025160ff60075460a01c161561198a565b610259611c10565b8282526002815260408220600781019060ff825416600681101561055c5760026102839114611bb1565b600581015442116105255760098101546001600160a01b0395908616806104d4575b50341561049f57600482016102bb348254611b97565b96600384019788541061046c578287526004865260408720336000528652604060002054156103f8575b869783889798526004885260408720336000528852604060002061030a348254611b97565b9055610317348454611b97565b8093556040513481528389820152847f271dec505c61c970bdd791a963b7162d814edf6292f40c4beef2af1e48eea1e860403393a35480921461035d575b856001815580f35b60018695948695948695600360ff198254161790557f9548b965d6392cc4c2ca0c182c4a0fcc35a558cb167fba8bfea4b501eee20f5d8680a20154165af16103a3611a40565b50156103b457818180808080610355565b6064906040519062461bcd60e51b82526004820152601760248201527f5472616e7366657220746f204d534d45206661696c65640000000000000000006044820152fd5b8287526003865260408720978854680100000000000000008110156104585760018101808b55811015610444579888528688209890980180546001600160a01b031916331790556102e5565b634e487b7160e01b89526032600452602489fd5b634e487b7160e01b89526041600452602489fd5b60405162461bcd60e51b815260048101879052600b60248201526a4f76657266756e64696e6760a81b6044820152606490fd5b60405162461bcd60e51b815260048101859052600d60248201526c139bc81d985b1d59481cd95b9d609a1b6044820152606490fd5b33036104e057386102a5565b60405162461bcd60e51b815260048101859052601f60248201527f4f6e6c79206578636c757369766520696e766573746f7220616c6c6f776564006044820152606490fd5b60405162461bcd60e51b815260048101849052600f60248201526e125b9d9bda58d948195e1c1a5c9959608a1b6044820152606490fd5b634e487b7160e01b85526021600452602485fd5b634e487b7160e01b83526021600452602483fd5b50346101845760403660031901126101845760406105a06118bf565b9160043581526004602052209060018060a01b03166000526020526020604060002054604051908152f35b50346101845780600319360112610184576007546040516001600160a01b039091168152602090f35b503461018457806003193601126101845760075461061c336001600160a01b03831614611b1d565b60ff60a01b1916600160a01b1760075580f35b50346101845760c0366003190112610184576106496118a9565b6084359167ffffffffffffffff831161018457366023840112156101845767ffffffffffffffff836004013511610184573660248460040135850101116101845760a4356001600160a01b0381168103610b9a576106af60ff60075460a01c161561198a565b6001600160a01b03831615610b645760243515610b2a57426044351115610ae55760015492600184018411610ad157600184016001556040518061014081011067ffffffffffffffff61014083011117610abb57610140810160405260018501815233602082015260018060a01b0382166040820152602435606082015283608082015260443560a082015260643560c0820152600160e08201526107578660040135611a24565b6107646040519182611923565b600487013580825260248801602083013784602088600401358301015261010082015260018060a01b038316610120820152600185018452600260205260408420815181556001810160018060a01b036020840151166001600160601b0360a01b8254161790556002810160018060a01b036040840151166001600160601b0360a01b825416179055606082015160038201556080820151600482015560a0820151600582015560c082015160068201556007810160e08301516006811015610aa75760ff8019835416911617905561010082015180519067ffffffffffffffff8211610a935761085860088401546118d5565b601f8111610a4f575b50602090601f83116001146109df5760099392918891836109d4575b50508160011b916000199060031b1c19161760088201555b019061012060018060a01b03910151166001600160601b0360a01b8254161790556040519060243582526044356020830152606435604083015260a060608301526108eb60a08301876004013560248901611bef565b6001600160a01b039384166080840152921691339160018601917f06d2a84410abbe5194267c8b6d1554aa8292266b54988855383145617c8795b8919081900390a46009546001600160a01b03168061094d575b602083600160405191018152f35b8193813b156109d057829161099891604051948580948193633b32d61360e21b835233600484015260018a016024840152606060448401526064830190602481600401359101611bef565b03925af180156109c5576109ad575b8061093f565b6109b7839161190f565b6109c157816109a7565b5080fd5b6040513d85823e3d90fd5b8280fd5b01519050388061087d565b906008840188526020882091885b601f1985168110610a37575091839160019360099695601f19811610610a1e575b505050811b016008820155610895565b015160001960f88460031b161c19169055388080610a0e565b919260206001819286850151815501940192016109ed565b60088401885260208820601f840160051c810160208510610a8c575b601f830160051c82018110610a81575050610861565b898155600101610a6b565b5080610a6b565b634e487b7160e01b87526041600452602487fd5b634e487b7160e01b87526021600452602487fd5b634e487b7160e01b600052604160045260246000fd5b634e487b7160e01b83526011600452602483fd5b60405162461bcd60e51b815260206004820152601a60248201527f4475652064617465206d75737420626520696e206675747572650000000000006044820152606490fd5b60405162461bcd60e51b81526020600482015260126024820152710416d6f756e74206d757374206265203e20360741b6044820152606490fd5b60405162461bcd60e51b815260206004820152600e60248201526d109d5e595c881c995c5d5a5c995960921b6044820152606490fd5b600080fd5b503461018457602036600319011261018457600435808252600260205260ff600760408420015416600681101561057057610bdb901515611945565b808252600260205260408220600781019081549060ff82166006811015610cad57600303610c775760050154421115610c3e5760ff191660051790557fdad3d8c24c5e0a13ffb0c0fa573014d3c4ba10367d5cba3549fa7c9ac18b93a48280a280f35b60405162461bcd60e51b81526020600482015260116024820152704e6f74207061737420647565206461746560781b6044820152606490fd5b60405162461bcd60e51b815260206004820152600e60248201526d10d85b9b9bdd08191959985d5b1d60921b6044820152606490fd5b634e487b7160e01b86526021600452602486fd5b503461018457602036600319011261018457600435610ceb60018060a01b03600754163314611b1d565b610cf9612710821115611ae2565b60085580f35b50346101845780600319360112610184576020600154604051908152f35b503461018457602036600319011261018457610d376118a9565b6007546001600160a01b039190610d519083163314611b1d565b16610d5d811515611aa7565b6001600160601b0360a01b600a541617600a5580f35b5034610184578060031936011261018457600a546040516001600160a01b039091168152602090f35b50346101845760203660031901126101845760406020916004358152600683522054604051908152f35b50346101845760203660031901126101845760043580825260028060205260ff6007604085200154166006811015610edc57610e03901515611945565b8183528060205260018060a01b0390610e258282604087200154163314611b55565b610e3760ff60075460a01c161561198a565b828452806020526040842060078101805460ff81166006811015610ec857600103610e8f5760ff191683179055015416907f5ad1f83fed722a2f75a27916c297196db29e3d208589663ebe1fef5ab880ad508380a380f35b60405162461bcd60e51b81526020600482015260116024820152702bb0b4ba34b733903337b910213abcb2b960791b6044820152606490fd5b634e487b7160e01b88526021600452602488fd5b634e487b7160e01b84526021600452602484fd5b5034610184578060031936011261018457602060ff60075460a01c166040519015158152f35b5034610184576020806003193601126109c1576004358083526002825260ff6007604085200154166006811015610edc57610f52901515611945565b610f6460ff60075460a01c161561198a565b610f6c611c10565b80835260028252604083209160ff600784015416600681101561055c576002610f959114611bb1565b6005830154421115611067578184526004815260408420336000528152600460406000205493610fc68515156119bf565b838652818352604086203360005283528560406000205501610fe9848254611ba4565b90558380808086335af1610ffb611a40565b5015611033577ff3f402280ef0a7905e124aa621b65eaeb2725c343e8b36d398ed78c29daf285c906040519384523393a36001815580f35b6064906040519062461bcd60e51b82526004820152600d60248201526c1499599d5b990819985a5b1959609a1b6044820152fd5b6064906040519062461bcd60e51b825260048201526013602482015272125b9d9bda58d9481b9bdd08195e1c1a5c9959606a1b6044820152fd5b506020806003193601126109c157600435908183526002815260ff6007604085200154166006811015610edc576110d9901515611945565b81835260028082526040842001546001600160a01b03906110fd9082163314611b55565b61110f60ff60075460a01c161561198a565b611117611c10565b828452600282526040842060078101805460ff81166006811015610ec8576003036112a657908291611163600360069501549361115b6127109687920154866119fb565b048094611b97565b34036112615760ff1916600417905560085486929161118291906119fb565b049161118e8334611ba4565b8583526005855234604084205560068552604083205582151580611254575b6111e4575b50837fe57c83410ab16d767654351928d1ea4b894f6c93e04e4e6408bd7d301dcd82db84604051348152a26001815580f35b600a5416803b156109c157600460405180948193630314777960e21b83525af1801561124957611216575b83816111b2565b926112427fe57c83410ab16d767654351928d1ea4b894f6c93e04e4e6408bd7d301dcd82db929461190f565b929061120f565b6040513d86823e3d90fd5b5080600a541615156111ad565b60405162461bcd60e51b815260048101879052601a60248201527f496e636f72726563742072657061796d656e7420616d6f756e740000000000006044820152606490fd5b60405162461bcd60e51b8152600481018690526012602482015271125b9d9bda58d9481b9bdd08199d5b99195960721b6044820152606490fd5b503461018457602036600319011261018457600435815260026020526040812090815460019260018060a01b036001820154169360018060a01b03600283015416916003810154600482015460058301549060068401549260ff600786015416946008810160405180988c90835493611358856118d5565b80855294600181169081156114555750600114611417575b505061137e92500388611923565b600960018060a01b0391015416966040519a610140998c5260208c015260408b015260608a0152608089015260a088015260c0870152600681101561055c57908593929160e08501528261010085015280518093850152845b8381106113fe57505061016093848385010152610120830152601f80199101168101030190f35b60208282018101516101608984010152879550016113d7565b8e5260208e208e92505b84831061143b575061137e93505081016020013880611370565b908181946020858195549201015201910190918a92611421565b9150506020925061137e94915060ff191682840152151560051b8201013880611370565b50346101845780600319360112610184576009546040516001600160a01b039091168152602090f35b50346101845780600319360112610184576007546114ca336001600160a01b03831614611b1d565b60ff60a01b191660075580f35b50346101845760203660031901126101845760406020916004358152600583522054604051908152f35b50346101845780600319360112610184576020600854604051908152f35b5034610184576060366003190112610184576115396118a9565b6115416118bf565b604435600a549260ff8460a01c166115c3576001600160a01b039081169261156a841515611a70565b1691611577831515611aa7565b611585612710831115611ae2565b6001600160601b0360a01b338160075416176007556009541617600955600855600160a01b916affffffffffffffffffffff60a81b161717600a5580f35b60405162461bcd60e51b8152602060048201526013602482015272105b1c9958591e481a5b9a5d1a585b1a5e9959606a1b6044820152606490fd5b5034610184576020806003193601126109c1576004358083526002825260ff6007604085200154166006811015610edc5761163a901515611945565b8252600381526040822060405192838383549182815201908193835284832090835b8181106116b95750505084611672910385611923565b60405193838594850191818652518092526040850193925b82811061169957505050500390f35b83516001600160a01b03168552869550938101939281019260010161168a565b82546001600160a01b03168452928601926001928301920161165c565b5034610184576020806003193601126109c1576004358083526002825260ff6007604085200154166006811015610edc57611712901515611945565b61172460ff60075460a01c161561198a565b61172c611c10565b808352600282526040832060ff600782015416600681101561055c5760040361186f5781845260048352604084203385528352604084205461176f8115156119bf565b828552600684526040852054801561183f5760039161178d916119fb565b91015490811561182b570491818452600481526040842033855281528360408120558380808086335af16117bf611a40565b50156117f7577fce6a22bbf33075e9460462739ab01c9d01afbe41eb32f517824218012b2e656e906040519384523393a36001815580f35b6064906040519062461bcd60e51b82526004820152600d60248201526c14185e5bdd5d0819985a5b1959609a1b6044820152fd5b634e487b7160e01b85526012600452602485fd5b60405162461bcd60e51b81526004810186905260086024820152674e6f2066756e647360c01b6044820152606490fd5b60405162461bcd60e51b8152600481018490526012602482015271125b9d9bda58d9481b9bdd081c995c185a5960721b6044820152606490fd5b600435906001600160a01b0382168203610b9a57565b602435906001600160a01b0382168203610b9a57565b90600182811c92168015611905575b60208310146118ef57565b634e487b7160e01b600052602260045260246000fd5b91607f16916118e4565b67ffffffffffffffff8111610abb57604052565b90601f8019910116810190811067ffffffffffffffff821117610abb57604052565b1561194c57565b60405162461bcd60e51b8152602060048201526016602482015275125b9d9bda58d948191bd95cc81b9bdd08195e1a5cdd60521b6044820152606490fd5b1561199157565b60405162461bcd60e51b815260206004820152600660248201526514185d5cd95960d21b6044820152606490fd5b156119c657565b60405162461bcd60e51b815260206004820152600d60248201526c139bc81a5b9d995cdd1b595b9d609a1b6044820152606490fd5b81810292918115918404141715611a0e57565b634e487b7160e01b600052601160045260246000fd5b67ffffffffffffffff8111610abb57601f01601f191660200190565b3d15611a6b573d90611a5182611a24565b91611a5f6040519384611923565b82523d6000602084013e565b606090565b15611a7757565b60405162461bcd60e51b81526020600482015260086024820152674e4654207a65726f60c01b6044820152606490fd5b15611aae57565b60405162461bcd60e51b815260206004820152600c60248201526b5374616b696e67207a65726f60a01b6044820152606490fd5b15611ae957565b60405162461bcd60e51b815260206004820152600c60248201526b0cccaca40e8dede40d0d2ced60a31b6044820152606490fd5b15611b2457565b60405162461bcd60e51b81526020600482015260096024820152682737ba1037bbb732b960b91b6044820152606490fd5b15611b5c57565b60405162461bcd60e51b815260206004820152601360248201527213db9b1e48189d5e595c8818d85b8818d85b1b606a1b6044820152606490fd5b91908201809211611a0e57565b91908203918211611a0e57565b15611bb857565b60405162461bcd60e51b815260206004820152600f60248201526e4e6f742066756e6472616973696e6760881b6044820152606490fd5b908060209392818452848401376000828201840152601f01601f1916010190565b600260005414611c21576002600055565b604051633ee5aeb560e01b8152600490fdfea264697066735822122018b565b3f734adac65c47ce7027e65e8c6d02c3ed828639ee2c6d060a762af7b64736f6c63430008160033",
  "linkReferences": {},
  "deployedLinkReferences": {}
}