{
  "_format": "hh-sol-artifact-1",
  "contractName": "InvoiceMarketplace",
  "sourceName": "contracts/InvoiceMarketplace.sol",
  "abi": [
    {
      "anonymous": false,
      "inputs": [
        {
          "indexed": true,
          "internalType": "uint256",
          "name": "id",
          "type": "uint256"
        },
        {
          "indexed": true,
          "internalType": "address",
          "name": "investor",
          "type": "address"
        },
        {
          "indexed": false,
          "internalType": "uint256",
          "name": "amount",
          "type": "uint256"
        },
        {
          "indexed": false,
          "internalType": "uint256",
          "name": "fundedAmount",
          "type": "uint256"
        }
      ],
      "name": "Invested",
      "type": "event"
    },
    {
      "anonymous": false,
      "inputs": [
        {
          "indexed": true,
          "internalType": "uint256",
          "name": "id",
          "type": "uint256"
        },
        {
          "indexed": true,
          "internalType": "address",
          "name": "msme",
          "type": "address"
        },
        {
          "indexed": true,
          "internalType": "address",
          "name": "buyer",
          "type": "address"
        },
        {
          "indexed": false,
          "internalType": "uint256",
          "name": "amount",
          "type": "uint256"
        },
        {
          "indexed": false,
          "internalType": "uint256",
          "name": "dueDate",
          "type": "uint256"
        },
        {
          "indexed": false,
          "internalType": "uint256",
          "name": "discountRate",
          "type": "uint256"
        },
        {
          "indexed": false,
          "internalType": "string",
          "name": "metadataURI",
          "type": "string"
        }
      ],
      "name": "InvoiceCreated",
      "type": "event"
    },
    {
      "anonymous": false,
      "inputs": [
        {
          "indexed": true,
          "internalType": "uint256",
          "name": "id",
          "type": "uint256"
        }
      ],
      "name": "InvoiceDefaulted",
      "type": "event"
    },
    {
      "anonymous": false,
      "inputs": [
        {
          "indexed": true,
          "internalType": "uint256",
          "name": "id",
          "type": "uint256"
        }
      ],
      "name": "InvoiceFunded",
      "type": "event"
    },
    {
      "anonymous": false,
      "inputs": [
        {
          "indexed": true,
          "internalType": "uint256",
          "name": "id",
          "type": "uint256"
        },
        {
          "indexed": false,
          "internalType": "uint256",
          "name": "totalRepaid",
          "type": "uint256"
        }
      ],
      "name": "InvoiceRepaid",
      "type": "event"
    },
    {
      "inputs": [
        {
          "internalType": "address",
          "name": "buyer",
          "type": "address"
        },
        {
          "internalType": "uint256",
          "name": "amount",
          "type": "uint256"
        },
        {
          "internalType": "uint256",
          "name": "dueDate",
          "type": "uint256"
        },
        {
          "internalType": "uint256",
          "name": "discountRate",
          "type": "uint256"
        },
        {
          "internalType": "string",
          "name": "metadataURI",
          "type": "string"
        }
      ],
      "name": "createInvoice",
      "outputs": [
        {
          "internalType": "uint256",
          "name": "",
          "type": "uint256"
        }
      ],
      "stateMutability": "nonpayable",
      "type": "function"
    },
    {
      "inputs": [
        {
          "internalType": "uint256",
          "name": "id",
          "type": "uint256"
        }
      ],
      "name": "getInvestors",
      "outputs": [
        {
          "internalType": "address[]",
          "name": "",
          "type": "address[]"
        }
      ],
      "stateMutability": "view",
      "type": "function"
    },
    {
      "inputs": [
        {
          "internalType": "uint256",
          "name": "id",
          "type": "uint256"
        }
      ],
      "name": "investInInvoice",
      "outputs": [],
      "stateMutability": "payable",
      "type": "function"
    },
    {
      "inputs": [
        {
          "internalType": "uint256",
          "name": "",
          "type": "uint256"
        },
        {
          "internalType": "address",
          "name": "",
          "type": "address"
        }
      ],
      "name": "investments",
      "outputs": [
        {
          "internalType": "uint256",
          "name": "",
          "type": "uint256"
        }
      ],
      "stateMutability": "view",
      "type": "function"
    },
    {
      "inputs": [
        {
          "internalType": "uint256",
          "name": "",
          "type": "uint256"
        }
      ],
      "name": "invoices",
      "outputs": [
        {
          "internalType": "uint256",
          "name": "id",
          "type": "uint256"
        },
        {
          "internalType": "address",
          "name": "msme",
          "type": "address"
        },
        {
          "internalType": "address",
          "name": "buyer",
          "type": "address"
        },
        {
          "internalType": "uint256",
          "name": "amount",
          "type": "uint256"
        },
        {
          "internalType": "uint256",
          "name": "fundedAmount",
          "type": "uint256"
        },
        {
          "internalType": "uint256",
          "name": "dueDate",
          "type": "uint256"
        },
        {
          "internalType": "uint256",
          "name": "discountRate",
          "type": "uint256"
        },
        {
          "internalType": "enum InvoiceMarketplace.Status",
          "name": "status",
          "type": "uint8"
        },
        {
          "internalType": "string",
          "name": "metadataURI",
          "type": "string"
        }
      ],
      "stateMutability": "view",
      "type": "function"
    },
    {
      "inputs": [
        {
          "internalType": "uint256",
          "name": "id",
          "type": "uint256"
        }
      ],
      "name": "markDefaulted",
      "outputs": [],
      "stateMutability": "nonpayable",
      "type": "function"
    },
    {
      "inputs": [],
      "name": "nextInvoiceId",
      "outputs": [
        {
          "internalType": "uint256",
          "name": "",
          "type": "uint256"
        }
      ],
      "stateMutability": "view",
      "type": "function"
    },
    {
      "inputs": [
        {
          "internalType": "uint256",
          "name": "id",
          "type": "uint256"
        }
      ],
      "name": "repayInvoice",
      "outputs": [],
      "stateMutability": "payable",
      "type": "function"
    }
  ],
  "bytecode": "0x608060405234801561001057600080fd5b5061239a806100206000396000f3fe60806040526004361061007b5760003560e01c8063732164501161004e5780637321645014610149578063b11b32d214610172578063b354983d146101af578063e1f79873146101cb5761007b565b80631139de55146100805780634e6d1405146100bd578063559034df146101025780636ff2a9531461011e575b600080fd5b34801561008c57600080fd5b506100a760048036038101906100a2919061137c565b610208565b6040516100b49190611499565b60405180910390f35b3480156100c957600080fd5b506100e460048036038101906100df919061137c565b610335565b6040516100f9999897969594939291906115e0565b60405180910390f35b61011c6004803603810190610117919061137c565b610458565b005b34801561012a57600080fd5b50610133610906565b6040516101409190611674565b60405180910390f35b34801561015557600080fd5b50610170600480360381019061016b919061137c565b61090c565b005b34801561017e57600080fd5b50610199600480360381019061019491906116bb565b610b0b565b6040516101a69190611674565b60405180910390f35b6101c960048036038101906101c4919061137c565b610b30565b005b3480156101d757600080fd5b506101f260048036038101906101ed9190611760565b610fcb565b6040516101ff9190611674565b60405180910390f35b6060816000600481111561021f5761021e6114d9565b5b6001600083815260200190815260200160002060070160009054906101000a900460ff166004811115610255576102546114d9565b5b03610295576040517f08c379a000000000000000000000000000000000000000000000000000000000815260040161028c90611846565b60405180910390fd5b6002600084815260200190815260200160002080548060200260200160405190810160405280929190818152602001828054801561032857602002820191906000526020600020905b8160009054906101000a900473ffffffffffffffffffffffffffffffffffffffff1673ffffffffffffffffffffffffffffffffffffffff16815260200190600101908083116102de575b5050505050915050919050565b60016020528060005260406000206000915090508060000154908060010160009054906101000a900473ffffffffffffffffffffffffffffffffffffffff16908060020160009054906101000a900473ffffffffffffffffffffffffffffffffffffffff16908060030154908060040154908060050154908060060154908060070160009054906101000a900460ff16908060080180546103d590611895565b80601f016020809104026020016040519081016040528092919081815260200182805461040190611895565b801561044e5780601f106104235761010080835404028352916020019161044e565b820191906000526020600020905b81548152906001019060200180831161043157829003601f168201915b5050505050905089565b806000600481111561046d5761046c6114d9565b5b6001600083815260200190815260200160002060070160009054906101000a900460ff1660048111156104a3576104a26114d9565b5b036104e3576040517f08c379a00000000000000000000000000000000000000000000000000000000081526004016104da90611846565b60405180910390fd5b816001600082815260200190815260200160002060020160009054906101000a900473ffffffffffffffffffffffffffffffffffffffff1673ffffffffffffffffffffffffffffffffffffffff163373ffffffffffffffffffffffffffffffffffffffff1614610588576040517f08c379a000000000000000000000000000000000000000000000000000000000815260040161057f90611912565b60405180910390fd5b6000600160008581526020019081526020016000209050600260048111156105b3576105b26114d9565b5b8160070160009054906101000a900460ff1660048111156105d7576105d66114d9565b5b14610617576040517f08c379a000000000000000000000000000000000000000000000000000000000815260040161060e9061197e565b60405180910390fd5b60006127108260060154836003015461063091906119cd565b61063a9190611a3e565b82600301546106499190611a6f565b905080341461068d576040517f08c379a000000000000000000000000000000000000000000000000000000000815260040161068490611aef565b60405180910390fd5b60038260070160006101000a81548160ff021916908360048111156106b5576106b46114d9565b5b0217905550600060026000878152602001908152602001600020905060008180549050905060005b818110156108c45760008382815481106106fa576106f9611b0f565b5b9060005260206000200160009054906101000a900473ffffffffffffffffffffffffffffffffffffffff1690506000600360008b815260200190815260200160002060008373ffffffffffffffffffffffffffffffffffffffff1673ffffffffffffffffffffffffffffffffffffffff1681526020019081526020016000205490506000810361078b5750506108b1565b6000600360008c815260200190815260200160002060008473ffffffffffffffffffffffffffffffffffffffff1673ffffffffffffffffffffffffffffffffffffffff168152602001908152602001600020819055506000876003015482346107f491906119cd565b6107fe9190611a3e565b905060008373ffffffffffffffffffffffffffffffffffffffff168260405161082690611b6f565b60006040518083038185875af1925050503d8060008114610863576040519150601f19603f3d011682016040523d82523d6000602084013e610868565b606091505b50509050806108ac576040517f08c379a00000000000000000000000000000000000000000000000000000000081526004016108a390611bd0565b60405180910390fd5b505050505b80806108bc90611bf0565b9150506106dd565b50867fe57c83410ab16d767654351928d1ea4b894f6c93e04e4e6408bd7d301dcd82db346040516108f59190611674565b60405180910390a250505050505050565b60005481565b8060006004811115610921576109206114d9565b5b6001600083815260200190815260200160002060070160009054906101000a900460ff166004811115610957576109566114d9565b5b03610997576040517f08c379a000000000000000000000000000000000000000000000000000000000815260040161098e90611846565b60405180910390fd5b6000600160008481526020019081526020016000209050600260048111156109c2576109c16114d9565b5b8160070160009054906101000a900460ff1660048111156109e6576109e56114d9565b5b1480610a27575060016004811115610a0157610a006114d9565b5b8160070160009054906101000a900460ff166004811115610a2557610a246114d9565b5b145b610a66576040517f08c379a0000000000000000000000000000000000000000000000000000000008152600401610a5d90611c84565b60405180910390fd5b80600501544211610aac576040517f08c379a0000000000000000000000000000000000000000000000000000000008152600401610aa390611cf0565b60405180910390fd5b60048160070160006101000a81548160ff02191690836004811115610ad457610ad36114d9565b5b0217905550827fdad3d8c24c5e0a13ffb0c0fa573014d3c4ba10367d5cba3549fa7c9ac18b93a460405160405180910390a2505050565b6003602052816000526040600020602052806000526040600020600091509150505481565b8060006004811115610b4557610b446114d9565b5b6001600083815260200190815260200160002060070160009054906101000a900460ff166004811115610b7b57610b7a6114d9565b5b03610bbb576040517f08c379a0000000000000000000000000000000000000000000000000000000008152600401610bb290611846565b60405180910390fd5b600060016000848152602001908152602001600020905060016004811115610be657610be56114d9565b5b8160070160009054906101000a900460ff166004811115610c0a57610c096114d9565b5b14610c4a576040517f08c379a0000000000000000000000000000000000000000000000000000000008152600401610c4190611d5c565b60405180910390fd5b60003411610c8d576040517f08c379a0000000000000000000000000000000000000000000000000000000008152600401610c8490611dc8565b60405180910390fd5b8060030154348260040154610ca29190611a6f565b1115610ce3576040517f08c379a0000000000000000000000000000000000000000000000000000000008152600401610cda90611e34565b60405180910390fd5b60006003600085815260200190815260200160002060003373ffffffffffffffffffffffffffffffffffffffff1673ffffffffffffffffffffffffffffffffffffffff1681526020019081526020016000205403610db05760026000848152602001908152602001600020339080600181540180825580915050600190039060005260206000200160009091909190916101000a81548173ffffffffffffffffffffffffffffffffffffffff021916908373ffffffffffffffffffffffffffffffffffffffff1602179055505b346003600085815260200190815260200160002060003373ffffffffffffffffffffffffffffffffffffffff1673ffffffffffffffffffffffffffffffffffffffff1681526020019081526020016000206000828254610e109190611a6f565b9250508190555034816004016000828254610e2b9190611a6f565b925050819055503373ffffffffffffffffffffffffffffffffffffffff16837f271dec505c61c970bdd791a963b7162d814edf6292f40c4beef2af1e48eea1e8348460040154604051610e7f929190611e54565b60405180910390a38060030154816004015403610fc65760028160070160006101000a81548160ff02191690836004811115610ebe57610ebd6114d9565b5b0217905550827f9548b965d6392cc4c2ca0c182c4a0fcc35a558cb167fba8bfea4b501eee20f5d60405160405180910390a260008160010160009054906101000a900473ffffffffffffffffffffffffffffffffffffffff1673ffffffffffffffffffffffffffffffffffffffff168260030154604051610f3e90611b6f565b60006040518083038185875af1925050503d8060008114610f7b576040519150601f19603f3d011682016040523d82523d6000602084013e610f80565b606091505b5050905080610fc4576040517f08c379a0000000000000000000000000000000000000000000000000000000008152600401610fbb90611ec9565b60405180910390fd5b505b505050565b60008073ffffffffffffffffffffffffffffffffffffffff168773ffffffffffffffffffffffffffffffffffffffff160361103b576040517f08c379a000000000000000000000000000000000000000000000000000000000815260040161103290611f35565b60405180910390fd5b6000861161107e576040517f08c379a000000000000000000000000000000000000000000000000000000000815260040161107590611fa1565b60405180910390fd5b4285116110c0576040517f08c379a00000000000000000000000000000000000000000000000000000000081526004016110b79061200d565b60405180910390fd5b60016000808282546110d29190611a6f565b925050819055506000805490506040518061012001604052808281526020013373ffffffffffffffffffffffffffffffffffffffff1681526020018973ffffffffffffffffffffffffffffffffffffffff1681526020018881526020016000815260200187815260200186815260200160016004811115611156576111556114d9565b5b815260200185858080601f016020809104026020016040519081016040528093929190818152602001838380828437600081840152601f19601f82011690508083019250505050505050815250600160008381526020019081526020016000206000820151816000015560208201518160010160006101000a81548173ffffffffffffffffffffffffffffffffffffffff021916908373ffffffffffffffffffffffffffffffffffffffff16021790555060408201518160020160006101000a81548173ffffffffffffffffffffffffffffffffffffffff021916908373ffffffffffffffffffffffffffffffffffffffff160217905550606082015181600301556080820151816004015560a0820151816005015560c0820151816006015560e08201518160070160006101000a81548160ff021916908360048111156112a1576112a06114d9565b5b02179055506101008201518160080190816112bc9190612208565b509050508773ffffffffffffffffffffffffffffffffffffffff163373ffffffffffffffffffffffffffffffffffffffff16827f7c0dd148ae81c0d637f2106cb0dcd70beb62336b43c30ca02dd93833715b4ed18a8a8a8a8a604051611326959493929190612316565b60405180910390a4809150509695505050505050565b600080fd5b600080fd5b6000819050919050565b61135981611346565b811461136457600080fd5b50565b60008135905061137681611350565b92915050565b6000602082840312156113925761139161133c565b5b60006113a084828501611367565b91505092915050565b600081519050919050565b600082825260208201905092915050565b6000819050602082019050919050565b600073ffffffffffffffffffffffffffffffffffffffff82169050919050565b6000611400826113d5565b9050919050565b611410816113f5565b82525050565b60006114228383611407565b60208301905092915050565b6000602082019050919050565b6000611446826113a9565b61145081856113b4565b935061145b836113c5565b8060005b8381101561148c5781516114738882611416565b975061147e8361142e565b92505060018101905061145f565b5085935050505092915050565b600060208201905081810360008301526114b3818461143b565b905092915050565b6114c481611346565b82525050565b6114d3816113f5565b82525050565b7f4e487b7100000000000000000000000000000000000000000000000000000000600052602160045260246000fd5b60058110611519576115186114d9565b5b50565b600081905061152a82611508565b919050565b600061153a8261151c565b9050919050565b61154a8161152f565b82525050565b600081519050919050565b600082825260208201905092915050565b60005b8381101561158a57808201518184015260208101905061156f565b60008484015250505050565b6000601f19601f8301169050919050565b60006115b282611550565b6115bc818561155b565b93506115cc81856020860161156c565b6115d581611596565b840191505092915050565b6000610120820190506115f6600083018c6114bb565b611603602083018b6114ca565b611610604083018a6114ca565b61161d60608301896114bb565b61162a60808301886114bb565b61163760a08301876114bb565b61164460c08301866114bb565b61165160e0830185611541565b81810361010083015261166481846115a7565b90509a9950505050505050505050565b600060208201905061168960008301846114bb565b92915050565b611698816113f5565b81146116a357600080fd5b50565b6000813590506116b58161168f565b92915050565b600080604083850312156116d2576116d161133c565b5b60006116e085828601611367565b92505060206116f1858286016116a6565b9150509250929050565b600080fd5b600080fd5b600080fd5b60008083601f8401126117205761171f6116fb565b5b8235905067ffffffffffffffff81111561173d5761173c611700565b5b60208301915083600182028301111561175957611758611705565b5b9250929050565b60008060008060008060a0878903121561177d5761177c61133c565b5b600061178b89828a016116a6565b965050602061179c89828a01611367565b95505060406117ad89828a01611367565b94505060606117be89828a01611367565b935050608087013567ffffffffffffffff8111156117df576117de611341565b5b6117eb89828a0161170a565b92509250509295509295509295565b7f496e766f69636520646f6573206e6f7420657869737400000000000000000000600082015250565b600061183060168361155b565b915061183b826117fa565b602082019050919050565b6000602082019050818103600083015261185f81611823565b9050919050565b7f4e487b7100000000000000000000000000000000000000000000000000000000600052602260045260246000fd5b600060028204905060018216806118ad57607f821691505b6020821081036118c0576118bf611866565b5b50919050565b7f4f6e6c792062757965722063616e2063616c6c00000000000000000000000000600082015250565b60006118fc60138361155b565b9150611907826118c6565b602082019050919050565b6000602082019050818103600083015261192b816118ef565b9050919050565b7f496e766f696365206e6f742066756e6465640000000000000000000000000000600082015250565b600061196860128361155b565b915061197382611932565b602082019050919050565b600060208201905081810360008301526119978161195b565b9050919050565b7f4e487b7100000000000000000000000000000000000000000000000000000000600052601160045260246000fd5b60006119d882611346565b91506119e383611346565b92508282026119f181611346565b91508282048414831517611a0857611a0761199e565b5b5092915050565b7f4e487b7100000000000000000000000000000000000000000000000000000000600052601260045260246000fd5b6000611a4982611346565b9150611a5483611346565b925082611a6457611a63611a0f565b5b828204905092915050565b6000611a7a82611346565b9150611a8583611346565b9250828201905080821115611a9d57611a9c61199e565b5b92915050565b7f496e636f72726563742072657061796d656e7420616d6f756e74000000000000600082015250565b6000611ad9601a8361155b565b9150611ae482611aa3565b602082019050919050565b60006020820190508181036000830152611b0881611acc565b9050919050565b7f4e487b7100000000000000000000000000000000000000000000000000000000600052603260045260246000fd5b600081905092915050565b50565b6000611b59600083611b3e565b9150611b6482611b49565b600082019050919050565b6000611b7a82611b4c565b9150819050919050565b7f5061796f7574206661696c656400000000000000000000000000000000000000600082015250565b6000611bba600d8361155b565b9150611bc582611b84565b602082019050919050565b60006020820190508181036000830152611be981611bad565b9050919050565b6000611bfb82611346565b91507fffffffffffffffffffffffffffffffffffffffffffffffffffffffffffffffff8203611c2d57611c2c61199e565b5b600182019050919050565b7f43616e6e6f742064656661756c74000000000000000000000000000000000000600082015250565b6000611c6e600e8361155b565b9150611c7982611c38565b602082019050919050565b60006020820190508181036000830152611c9d81611c61565b9050919050565b7f4e6f742070617374206475652064617465000000000000000000000000000000600082015250565b6000611cda60118361155b565b9150611ce582611ca4565b602082019050919050565b60006020820190508181036000830152611d0981611ccd565b9050919050565b7f4e6f742066756e6472616973696e670000000000000000000000000000000000600082015250565b6000611d46600f8361155b565b9150611d5182611d10565b602082019050919050565b60006020820190508181036000830152611d7581611d39565b9050919050565b7f4e6f2076616c75652073656e7400000000000000000000000000000000000000600082015250565b6000611db2600d8361155b565b9150611dbd82611d7c565b602082019050919050565b60006020820190508181036000830152611de181611da5565b9050919050565b7f4f76657266756e64696e67000000000000000000000000000000000000000000600082015250565b6000611e1e600b8361155b565b9150611e2982611de8565b602082019050919050565b60006020820190508181036000830152611e4d81611e11565b9050919050565b6000604082019050611e6960008301856114bb565b611e7660208301846114bb565b9392505050565b7f5472616e7366657220746f204d534d45206661696c6564000000000000000000600082015250565b6000611eb360178361155b565b9150611ebe82611e7d565b602082019050919050565b60006020820190508181036000830152611ee281611ea6565b9050919050565b7f4275796572207265717569726564000000000000000000000000000000000000600082015250565b6000611f1f600e8361155b565b9150611f2a82611ee9565b602082019050919050565b60006020820190508181036000830152611f4e81611f12565b9050919050565b7f416d6f756e74206d757374206265203e20300000000000000000000000000000600082015250565b6000611f8b60128361155b565b9150611f9682611f55565b602082019050919050565b60006020820190508181036000830152611fba81611f7e565b9050919050565b7f4475652064617465206d75737420626520696e20667574757265000000000000600082015250565b6000611ff7601a8361155b565b915061200282611fc1565b602082019050919050565b6000602082019050818103600083015261202681611fea565b9050919050565b7f4e487b7100000000000000000000000000000000000000000000000000000000600052604160045260246000fd5b60008190508160005260206000209050919050565b60006020601f8301049050919050565b600082821b905092915050565b6000600883026120be7fffffffffffffffffffffffffffffffffffffffffffffffffffffffffffffffff82612081565b6120c88683612081565b95508019841693508086168417925050509392505050565b6000819050919050565b60006121056121006120fb84611346565b6120e0565b611346565b9050919050565b6000819050919050565b61211f836120ea565b61213361212b8261210c565b84845461208e565b825550505050565b600090565b61214861213b565b612153818484612116565b505050565b5b818110156121775761216c600082612140565b600181019050612159565b5050565b601f8211156121bc5761218d8161205c565b61219684612071565b810160208510156121a5578190505b6121b96121b185612071565b830182612158565b50505b505050565b600082821c905092915050565b60006121df600019846008026121c1565b1980831691505092915050565b60006121f883836121ce565b9150826002028217905092915050565b61221182611550565b67ffffffffffffffff81111561222a5761222961202d565b5b6122348254611895565b61223f82828561217b565b600060209050601f8311600181146122725760008415612260578287015190505b61226a85826121ec565b8655506122d2565b601f1984166122808661205c565b60005b828110156122a857848901518255600182019150602085019450602081019050612283565b868310156122c557848901516122c1601f8916826121ce565b8355505b6001600288020188555050505b505050505050565b82818337600083830152505050565b60006122f5838561155b565b93506123028385846122da565b61230b83611596565b840190509392505050565b600060808201905061232b60008301886114bb565b61233860208301876114bb565b61234560408301866114bb565b81810360608301526123588184866122e9565b9050969550505050505056fea264697066735822122039ed7bc022315a0d4e25107b30d61bf81abeccbf48448a426426604cbac75d1e64736f6c63430008140033",
  "linkReferences": {},
  "deployedLinkReferences": {}
}