{
  "_format": "hh-sol-artifact-1",
  "contractName": "InvoiceMarketplace",
  "sourceName": "contracts/InvoiceMarketplace.sol",
  "abi": [
    {
      "inputs": [],
      "name": "ReentrancyGuard",
      "type": "error"
    },
    {
      "anonymous": false,
      "inputs": [
        {
          "indexed": true,
          "internalType": "uint256",
          "name": "id",
          "type": "uint256"
        },
        {
          "indexed": true,
          "internalType": "address",
          "name": "investor",
          "type": "address"
        },
        {
          "indexed": false,
          "internalType": "uint256",
          "name": "amount",
          "type": "uint256"
        },
        {
          "indexed": false,
          "internalType": "uint256",
          "name": "fundedAmount",
          "type": "uint256"
        }
      ],
      "name": "Invested",
      "type": "event"
    },
    {
      "anonymous": false,
      "inputs": [
        {
          "indexed": true,
          "internalType": "uint256",
          "name": "id",
          "type": "uint256"
        },
        {
          "indexed": true,
          "internalType": "address",
          "name": "buyer",
          "type": "address"
        }
      ],
      "name": "InvoiceConfirmed",
      "type": "event"
    },
    {
      "anonymous": false,
      "inputs": [
        {
          "indexed": true,
          "internalType": "uint256",
          "name": "id",
          "type": "uint256"
        },
        {
          "indexed": true,
          "internalType": "address",
          "name": "msme",
          "type": "address"
        },
        {
          "indexed": true,
          "internalType": "address",
          "name": "buyer",
          "type": "address"
        },
        {
          "indexed": false,
          "internalType": "uint256",
          "name": "amount",
          "type": "uint256"
        },
        {
          "indexed": false,
          "internalType": "uint256",
          "name": "dueDate",
          "type": "uint256"
        },
        {
          "indexed": false,
          "internalType": "uint256",
          "name": "discountRate",
          "type": "uint256"
        },
        {
          "indexed": false,
          "internalType": "string",
          "name": "metadataURI",
          "type": "string"
        },
        {
          "indexed": false,
          "internalType": "address",
          "name": "exclusiveInvestor",
          "type": "address"
        }
      ],
      "name": "InvoiceCreated",
      "type": "event"
    },
    {
      "anonymous": false,
      "inputs": [
        {
          "indexed": true,
          "internalType": "uint256",
          "name": "id",
          "type": "uint256"
        }
      ],
      "name": "InvoiceDefaulted",
      "type": "event"
    },
    {
      "anonymous": false,
      "inputs": [
        {
          "indexed": true,
          "internalType": "uint256",
          "name": "id",
          "type": "uint256"
        }
      ],
      "name": "InvoiceFunded",
      "type": "event"
    },
    {
      "anonymous": false,
      "inputs": [
        {
          "indexed": true,
          "internalType": "uint256",
          "name": "id",
          "type": "uint256"
        },
        {
          "indexed": false,
          "internalType": "uint256",
          "name": "totalRepaid",
          "type": "uint256"
        }
      ],
      "name": "InvoiceRepaid",
      "type": "event"
    },
    {
      "anonymous": false,
      "inputs": [
        {
          "indexed": true,
          "internalType": "uint256",
          "name": "id",
          "type": "uint256"
        },
        {
          "indexed": true,
          "internalType": "address",
          "name": "investor",
          "type": "address"
        },
        {
          "indexed": false,
          "internalType": "uint256",
          "name": "amount",
          "type": "uint256"
        }
      ],
      "name": "RefundClaimed",
      "type": "event"
    },
    {
      "anonymous": false,
      "inputs": [
        {
          "indexed": true,
          "internalType": "uint256",
          "name": "id",
          "type": "uint256"
        },
        {
          "indexed": true,
          "internalType": "address",
          "name": "investor",
          "type": "address"
        },
        {
          "indexed": false,
          "internalType": "uint256",
          "name": "amount",
          "type": "uint256"
        }
      ],
      "name": "RepaymentClaimed",
      "type": "event"
    },
    {
      "inputs": [
        {
          "internalType": "uint256",
          "name": "id",
          "type": "uint256"
        }
      ],
      "name": "claimRefund",
      "outputs": [],
      "stateMutability": "nonpayable",
      "type": "function"
    },
    {
      "inputs": [
        {
          "internalType": "uint256",
          "name": "id",
          "type": "uint256"
        }
      ],
      "name": "claimRepayment",
      "outputs": [],
      "stateMutability": "nonpayable",
      "type": "function"
    },
    {
      "inputs": [
        {
          "internalType": "uint256",
          "name": "id",
          "type": "uint256"
        }
      ],
      "name": "confirmInvoice",
      "outputs": [],
      "stateMutability": "nonpayable",
      "type": "function"
    },
    {
      "inputs": [
        {
          "internalType": "address",
          "name": "buyer",
          "type": "address"
        },
        {
          "internalType": "uint256",
          "name": "amount",
          "type": "uint256"
        },
        {
          "internalType": "uint256",
          "name": "dueDate",
          "type": "uint256"
        },
        {
          "internalType": "uint256",
          "name": "discountRate",
          "type": "uint256"
        },
        {
          "internalType": "string",
          "name": "metadataURI",
          "type": "string"
        },
        {
          "internalType": "address",
          "name": "exclusiveInvestor",
          "type": "address"
        }
      ],
      "name": "createInvoice",
      "outputs": [
        {
          "internalType": "uint256",
          "name": "",
          "type": "uint256"
        }
      ],
      "stateMutability": "nonpayable",
      "type": "function"
    },
    {
      "inputs": [
        {
          "internalType": "uint256",
          "name": "id",
          "type": "uint256"
        }
      ],
      "name": "getInvestors",
      "outputs": [
        {
          "internalType": "address[]",
          "name": "",
          "type": "address[]"
        }
      ],
      "stateMutability": "view",
      "type": "function"
    },
    {
      "inputs": [
        {
          "internalType": "address",
          "name": "_invoiceNFT",
          "type": "address"
        }
      ],
      "name": "initialize",
      "outputs": [],
      "stateMutability": "nonpayable",
      "type": "function"
    },
    {
      "inputs": [
        {
          "internalType": "uint256",
          "name": "id",
          "type": "uint256"
        }
      ],
      "name": "investInInvoice",
      "outputs": [],
      "stateMutability": "payable",
      "type": "function"
    },
    {
      "inputs": [
        {
          "internalType": "uint256",
          "name": "",
          "type": "uint256"
        },
        {
          "internalType": "address",
          "name": "",
          "type": "address"
        }
      ],
      "name": "investments",
      "outputs": [
        {
          "internalType": "uint256",
          "name": "",
          "type": "uint256"
        }
      ],
      "stateMutability": "view",
      "type": "function"
    },
    {
      "inputs": [],
      "name": "invoiceNFT",
      "outputs": [
        {
          "internalType": "contract InvoiceNFT",
          "name": "",
          "type": "address"
        }
      ],
      "stateMutability": "view",
      "type": "function"
    },
    {
      "inputs": [
        {
          "internalType": "uint256",
          "name": "",
          "type": "uint256"
        }
      ],
      "name": "invoices",
      "outputs": [
        {
          "internalType": "uint256",
          "name": "id",
          "type": "uint256"
        },
        {
          "internalType": "address",
          "name": "msme",
          "type": "address"
        },
        {
          "internalType": "address",
          "name": "buyer",
          "type": "address"
        },
        {
          "internalType": "uint256",
          "name": "amount",
          "type": "uint256"
        },
        {
          "internalType": "uint256",
          "name": "fundedAmount",
          "type": "uint256"
        },
        {
          "internalType": "uint256",
          "name": "dueDate",
          "type": "uint256"
        },
        {
          "internalType": "uint256",
          "name": "discountRate",
          "type": "uint256"
        },
        {
          "internalType": "enum InvoiceMarketplace.Status",
          "name": "status",
          "type": "uint8"
        },
        {
          "internalType": "string",
          "name": "metadataURI",
          "type": "string"
        },
        {
          "internalType": "address",
          "name": "exclusiveInvestor",
          "type": "address"
        }
      ],
      "stateMutability": "view",
      "type": "function"
    },
    {
      "inputs": [
        {
          "internalType": "uint256",
          "name": "id",
          "type": "uint256"
        }
      ],
      "name": "markDefaulted",
      "outputs": [],
      "stateMutability": "nonpayable",
      "type": "function"
    },
    {
      "inputs": [
        {
          "internalType": "uint256",
          "name": "id",
          "type": "uint256"
        }
      ],
      "name": "markRepaid",
      "outputs": [],
      "stateMutability": "nonpayable",
      "type": "function"
    },
    {
      "inputs": [],
      "name": "nextInvoiceId",
      "outputs": [
        {
          "internalType": "uint256",
          "name": "",
          "type": "uint256"
        }
      ],
      "stateMutability": "view",
      "type": "function"
    },
    {
      "inputs": [],
      "name": "owner",
      "outputs": [
        {
          "internalType": "address",
          "name": "",
          "type": "address"
        }
      ],
      "stateMutability": "view",
      "type": "function"
    },
    {
      "inputs": [],
      "name": "pause",
      "outputs": [],
      "stateMutability": "nonpayable",
      "type": "function"
    },
    {
      "inputs": [],
      "name": "paused",
      "outputs": [
        {
          "internalType": "bool",
          "name": "",
          "type": "bool"
        }
      ],
      "stateMutability": "view",
      "type": "function"
    },
    {
      "inputs": [
        {
          "internalType": "address",
          "name": "_invoiceNFT",
          "type": "address"
        }
      ],
      "name": "setInvoiceNFT",
      "outputs": [],
      "stateMutability": "nonpayable",
      "type": "function"
    },
    {
      "inputs": [
        {
          "internalType": "uint256",
          "name": "",
          "type": "uint256"
        }
      ],
      "name": "totalRepaid",
      "outputs": [
        {
          "internalType": "uint256",
          "name": "",
          "type": "uint256"
        }
      ],
      "stateMutability": "view",
      "type": "function"
    },
    {
      "inputs": [
        {
          "internalType": "uint256",
          "name": "",
          "type": "uint256"
        }
      ],
      "name": "totalRepaidForInvestors",
      "outputs": [
        {
          "internalType": "uint256",
          "name": "",
          "type": "uint256"
        }
      ],
      "stateMutability": "view",
      "type": "function"
    },
    {
      "inputs": [
        {
          "internalType": "address",
          "name": "newOwner",
          "type": "address"
        }
      ],
      "name": "transferOwnership",
      "outputs": [],
      "stateMutability": "nonpayable",
      "type": "function"
    },
    {
      "inputs": [],
      "name": "unpause",
      "outputs": [],
      "stateMutability": "nonpayable",
      "type": "function"
    }
  ],
  "bytecode": "0x60808060405234601557611adf908161001b8239f35b600080fdfe6080604052600436101561001257600080fd5b6000803560e01c8062d878e81461160f5780631139de551461152f5780633b97f0da146115055780633f4ba83a146114d05780634bb6f06d146114a75780634e6d1405146113145780635b7baf641461113a5780635c975abb146111145780635e78670e14610fcd5780635eaeafc914610fa35780636ff2a95314610f865780637321645014610e7857806382c10417146109035780638456cb59146108c85780638da5cb5b1461089f578063b11b32d21461084c578063b354983d1461048a578063c4d66de8146103e7578063c701c994146101e3578063f2fde38b1461015e5763f939f4961461010357600080fd5b3461015b57602036600319011261015b5761011c61189b565b61013160018060a01b036006541633146119b8565b6001600160a01b0316610145811515611a72565b6001600160601b0360a01b600754161760075580f35b80fd5b503461015b57602036600319011261015b5761017861189b565b60065490610190336001600160a01b038416146119b8565b6001600160a01b03169081156101b1576001600160a01b0319161760065580f35b60405162461bcd60e51b815260206004820152600a6024820152694f776e6572207a65726f60b01b6044820152606490fd5b503461015b57602036600319011261015b57600435808252600160205260ff60076040842001541660068110156103d35761021f9015156118b6565b61023160ff60065460a01c16156118fb565b808252600160205260408220600781019060ff82541660068110156103bf5760030361038557600754604051638e1eb41160e01b81526004810185905290602090829060249082906001600160a01b03165afa90811561037a57859161033b575b5015610305576102e16020917fe57c83410ab16d767654351928d1ea4b894f6c93e04e4e6408bd7d301dcd82db93600460ff198254161790556127106006600383015492015482020490611a2e565b8385526004825280604086205583855260058252806040862055604051908152a280f35b60405162461bcd60e51b815260206004820152600e60248201526d139195081b9bdd081c995c185a5960921b6044820152606490fd5b90506020813d602011610372575b8161035660209383611863565b8101031261036e5751801515810361036e5738610292565b8480fd5b3d9150610349565b6040513d87823e3d90fd5b60405162461bcd60e51b8152602060048201526012602482015271125b9d9bda58d9481b9bdd08199d5b99195960721b6044820152606490fd5b634e487b7160e01b85526021600452602485fd5b634e487b7160e01b83526021600452602483fd5b503461015b57602036600319011261015b5761040161189b565b6007549060ff8260a01c1661044f576001600160a01b0316610424811515611a72565b600680546001600160a01b031916331790556001600160a81b031990911617600160a01b1760075580f35b60405162461bcd60e51b8152602060048201526013602482015272105b1c9958591e481a5b9a5d1a585b1a5e9959606a1b6044820152606490fd5b50602036600319011261015b5760043590818152600160205260ff6007604083200154166006811015610838576104c29015156118b6565b6104d460ff60065460a01c16156118fb565b60075460ff8160a81c166108295760ff60a81b1916600160a81b176007908155828252600160205260408220908101805490939060ff16600681101561081557600261052091146119f0565b600582015442116107de5760098201546001600160a01b03168061078d575b503415610758576004820193610556348654611a2e565b6003840190815410610725578285526003602090815260408087203360009081529252902054156106af575b849583865260036020526040862060018060a01b03331660005260205260406000206105af348254611a2e565b90556105bc348254611a2e565b809155604051348152816020820152847f271dec505c61c970bdd791a963b7162d814edf6292f40c4beef2af1e48eea1e860403393a381541461060b575b6007805460ff60a81b191690558480f35b849384938493600360ff198254161790557f9548b965d6392cc4c2ca0c182c4a0fcc35a558cb167fba8bfea4b501eee20f5d8480a2600101549054906001600160a01b03165af161065a611988565b501561066a5780388080806105fa565b60405162461bcd60e51b815260206004820152601760248201527f5472616e7366657220746f204d534d45206661696c65640000000000000000006044820152606490fd5b8285526002602052604085209586546801000000000000000081101561071157600181018089558110156106fd57968652602086209690960180546001600160a01b03191633179055610582565b634e487b7160e01b87526032600452602487fd5b634e487b7160e01b87526041600452602487fd5b60405162461bcd60e51b815260206004820152600b60248201526a4f76657266756e64696e6760a81b6044820152606490fd5b60405162461bcd60e51b815260206004820152600d60248201526c139bc81d985b1d59481cd95b9d609a1b6044820152606490fd5b3303610799573861053f565b60405162461bcd60e51b815260206004820152601f60248201527f4f6e6c79206578636c757369766520696e766573746f7220616c6c6f776564006044820152606490fd5b60405162461bcd60e51b815260206004820152600f60248201526e125b9d9bda58d948195e1c1a5c9959608a1b6044820152606490fd5b634e487b7160e01b84526021600452602484fd5b6345f5ce8b60e11b8252600482fd5b634e487b7160e01b82526021600452602482fd5b503461015b57604036600319011261015b57602435906001600160a01b038216820361015b5760409060043581526003602052209060018060a01b03166000526020526020604060002054604051908152f35b503461015b578060031936011261015b576006546040516001600160a01b039091168152602090f35b503461015b578060031936011261015b576006546108f0336001600160a01b038316146119b8565b60ff60a01b1916600160a01b1760065580f35b503461015b5760c036600319011261015b5761091d61189b565b906084359067ffffffffffffffff821161015b573660238301121561015b5767ffffffffffffffff82600401351161015b5736602483600401358401011161015b5760a435916001600160a01b0383168303610e745761098560ff60065460a01c16156118fb565b6001600160a01b03841615610e3e5760243515610e0457426044351115610dbf57815492600184018411610dab57600184018355604051610140810181811067ffffffffffffffff821117610d975760405260018501815260208101903382526040810160018060a01b03881681526060820160243581526080830187815260a08401604435815260c0850191606435835260e086019360018552610a2d8a6004013561196c565b95610a3b6040519788611863565b60048b013580885260248c0160208901378b60208c6004013589010152610100880196875260018060a01b038a1661012089015260018d018c52600160205260408c209888518a5560018060a01b0390511660018a019060018060a01b03166001600160601b0360a01b82541617905560018060a01b03905116600289019060018060a01b03166001600160601b0360a01b8254161790555160038801555160048701555160058601555160068501556007840190516006811015610d835760ff801983541691161790555180519067ffffffffffffffff821161071157610b266008850154611829565b601f8111610d3b575b50602090601f8311600114610ccc576009939291889183610cc1575b50508160011b916000199060031b1c19161760088401555b61012060018060a01b039101511691019060018060a01b03166001600160601b0360a01b82541617905560405160243581526044356020820152606435604082015260a06060820152610bc160a08201846004013560248601611a51565b6001600160a01b03928316608083015291861691339160018701917f06d2a84410abbe5194267c8b6d1554aa8292266b54988855383145617c8795b8919081900390a46007546001600160a01b03169081610c25575b602084600160405191018152f35b813b15610cbd578291610c6f9183604051809881958294632253091b60e11b845233600485015260018b01602485015260a0604485015260a4840190602481600401359101611a51565b60243560648401526001600160a01b03909116608483015203925af1928315610cb057602093610ca0575b80610c17565b81610caa91611863565b38610c9a565b50604051903d90823e3d90fd5b8280fd5b015190503880610b4b565b9060088501885280882091885b601f1985168110610d23575091839160019360099695601f19811610610d0a575b505050811b016008840155610b63565b015160001960f88460031b161c19169055388080610cfa565b91926020600181928685015181550194019201610cd9565b60088501885260208820601f840160051c81019160208510610d79575b601f0160051c01905b818110610d6e5750610b2f565b888155600101610d61565b9091508190610d58565b634e487b7160e01b88526021600452602488fd5b634e487b7160e01b85526041600452602485fd5b634e487b7160e01b83526011600452602483fd5b60405162461bcd60e51b815260206004820152601a60248201527f4475652064617465206d75737420626520696e206675747572650000000000006044820152606490fd5b60405162461bcd60e51b81526020600482015260126024820152710416d6f756e74206d757374206265203e20360741b6044820152606490fd5b60405162461bcd60e51b815260206004820152600e60248201526d109d5e595c881c995c5d5a5c995960921b6044820152606490fd5b5080fd5b503461015b57602036600319011261015b57600435808252600160205260ff60076040842001541660068110156103d357610eb49015156118b6565b808252600160205260408220600781019060ff82541660068110156103bf57600303610f505760050154421115610f1757805460ff191660051790557fdad3d8c24c5e0a13ffb0c0fa573014d3c4ba10367d5cba3549fa7c9ac18b93a48280a280f35b60405162461bcd60e51b81526020600482015260116024820152704e6f74207061737420647565206461746560781b6044820152606490fd5b60405162461bcd60e51b815260206004820152600e60248201526d10d85b9b9bdd08191959985d5b1d60921b6044820152606490fd5b503461015b578060031936011261015b5760209054604051908152f35b503461015b57602036600319011261015b5760406020916004358152600583522054604051908152f35b503461015b57602036600319011261015b57600435808252600160205260ff60076040842001541660068110156103d3576110099015156118b6565b808252600160205260408220600201546001600160a01b031633036110d95761103a60ff60065460a01c16156118fb565b8082526001602052604082206007810160ff81541660068110156103bf576001036110a057805460ff1916600290811790915501546001600160a01b0316907f5ad1f83fed722a2f75a27916c297196db29e3d208589663ebe1fef5ab880ad508380a380f35b60405162461bcd60e51b81526020600482015260116024820152702bb0b4ba34b733903337b910213abcb2b960791b6044820152606490fd5b60405162461bcd60e51b815260206004820152601360248201527213db9b1e48189d5e595c8818d85b8818d85b1b606a1b6044820152606490fd5b503461015b578060031936011261015b57602060ff60065460a01c166040519015158152f35b503461015b57602036600319011261015b57600435808252600160205260ff60076040842001541660068110156103d3576111769015156118b6565b61118860ff60065460a01c16156118fb565b60075460ff8160a81c166113055760ff60a81b1916600160a81b1760079081558183526001602052604083209081015490919060ff1660068110156108155760026111d391146119f0565b60058201544211156112ca5780835260036020908152604080852033865290915283205491600490611206841515611930565b8285526003602090815260408087203388529091528520859055018054838103919082116112b657558280808085335af161123f611988565b5015611281576040519182527ff3f402280ef0a7905e124aa621b65eaeb2725c343e8b36d398ed78c29daf285c60203393a36007805460ff60a81b1916905580f35b60405162461bcd60e51b815260206004820152600d60248201526c1499599d5b990819985a5b1959609a1b6044820152606490fd5b634e487b7160e01b85526011600452602485fd5b60405162461bcd60e51b8152602060048201526013602482015272125b9d9bda58d9481b9bdd08195e1c1a5c9959606a1b6044820152606490fd5b6345f5ce8b60e11b8352600483fd5b503461015b57602036600319011261015b57600435815260016020526040812080549160018060a01b036001830154169060018060a01b036002840154166003840154600485015460058601549060068701549260ff600789015416946008890198604051998a8982549261138884611829565b80845293600181169081156114855750600114611445575b506113ad9250038b611863565b600960018060a01b0391015416976040519a8b5260208b015260408a01526060890152608088015260a087015260c086015260068110156108385791849260e084015261014061010084015283519182610140850152805b83811061142c57506101608095508385010152610120830152601f80199101168101030190f35b6020868201810151610160898401015287955001611405565b8b525060208a2090918a915b81831061146a5750509060206113ad92820101386113a0565b80602092948385600194549201015201910190918c92611451565b9050602092506113ad94915060ff191682840152151560051b820101386113a0565b503461015b578060031936011261015b576007546040516001600160a01b039091168152602090f35b503461015b578060031936011261015b576006546114f8336001600160a01b038316146119b8565b60ff60a01b191660065580f35b503461015b57602036600319011261015b5760406020916004358152600483522054604051908152f35b503461015b57602036600319011261015b57600435808252600160205260ff60076040842001541660068110156103d35761156b9015156118b6565b8152600260205260408120604051908160208254918281520190819285526020852090855b8181106115f057505050826115a6910383611863565b604051928392602084019060208552518091526040840192915b8181106115ce575050500390f35b82516001600160a01b03168452859450602093840193909201916001016115c0565b82546001600160a01b0316845260209093019260019283019201611590565b503461015b57602036600319011261015b57600435808252600160205260ff60076040842001541660068110156103d35761164b9015156118b6565b61165d60ff60065460a01c16156118fb565b60075460ff8160a81c166113055760ff60a81b1916600160a81b1760079081558183526001602052604083209081015460ff166006811015610815576004036117ef57818352600360209081526040808520338652909152832054906116c4821515611930565b828452600560205260408420549182156117bf57808302928304036117ab576003015490811561179757049080835260036020526040832060018060a01b03331684526020528260408120558280808085335af1611720611988565b5015611762576040519182527fce6a22bbf33075e9460462739ab01c9d01afbe41eb32f517824218012b2e656e60203393a36007805460ff60a81b1916905580f35b60405162461bcd60e51b815260206004820152600d60248201526c14185e5bdd5d0819985a5b1959609a1b6044820152606490fd5b634e487b7160e01b84526012600452602484fd5b634e487b7160e01b84526011600452602484fd5b60405162461bcd60e51b81526020600482015260086024820152674e6f2066756e647360c01b6044820152606490fd5b60405162461bcd60e51b8152602060048201526012602482015271125b9d9bda58d9481b9bdd081c995c185a5960721b6044820152606490fd5b90600182811c92168015611859575b602083101461184357565b634e487b7160e01b600052602260045260246000fd5b91607f1691611838565b90601f8019910116810190811067ffffffffffffffff82111761188557604052565b634e487b7160e01b600052604160045260246000fd5b600435906001600160a01b03821682036118b157565b600080fd5b156118bd57565b60405162461bcd60e51b8152602060048201526016602482015275125b9d9bda58d948191bd95cc81b9bdd08195e1a5cdd60521b6044820152606490fd5b1561190257565b60405162461bcd60e51b815260206004820152600660248201526514185d5cd95960d21b6044820152606490fd5b1561193757565b60405162461bcd60e51b815260206004820152600d60248201526c139bc81a5b9d995cdd1b595b9d609a1b6044820152606490fd5b67ffffffffffffffff811161188557601f01601f191660200190565b3d156119b3573d906119998261196c565b916119a76040519384611863565b82523d6000602084013e565b606090565b156119bf57565b60405162461bcd60e51b81526020600482015260096024820152682737ba1037bbb732b960b91b6044820152606490fd5b156119f757565b60405162461bcd60e51b815260206004820152600f60248201526e4e6f742066756e6472616973696e6760881b6044820152606490fd5b91908201809211611a3b57565b634e487b7160e01b600052601160045260246000fd5b908060209392818452848401376000828201840152601f01601f1916010190565b15611a7957565b60405162461bcd60e51b81526020600482015260086024820152674e4654207a65726f60c01b6044820152606490fdfea26469706673582212202e9cf9d245df35e3d55abffe36bbec8821bebf37994b0cc069fa4273a6676e8564736f6c634300081a0033",
  "linkReferences": {},
  "deployedLinkReferences": {}
}