{
  "_format": "hh-sol-artifact-1",
  "contractName": "InvoiceNFT",
  "sourceName": "contracts/InvoiceNFT.sol",
  "abi": [
    {
      "inputs": [
        {
          "internalType": "address payable",
          "name": "_stakingRewards",
          "type": "address"
        }
      ],
      "stateMutability": "nonpayable",
      "type": "constructor"
    },
    {
      "inputs": [],
      "name": "AlreadyRepaid",
      "type": "error"
    },
    {
      "inputs": [
        {
          "internalType": "address",
          "name": "sender",
          "type": "address"
        },
        {
          "internalType": "uint256",
          "name": "tokenId",
          "type": "uint256"
        },
        {
          "internalType": "address",
          "name": "owner",
          "type": "address"
        }
      ],
      "name": "ERC721IncorrectOwner",
      "type": "error"
    },
    {
      "inputs": [
        {
          "internalType": "address",
          "name": "operator",
          "type": "address"
        },
        {
          "internalType": "uint256",
          "name": "tokenId",
          "type": "uint256"
        }
      ],
      "name": "ERC721InsufficientApproval",
      "type": "error"
    },
    {
      "inputs": [
        {
          "internalType": "address",
          "name": "approver",
          "type": "address"
        }
      ],
      "name": "ERC721InvalidApprover",
      "type": "error"
    },
    {
      "inputs": [
        {
          "internalType": "address",
          "name": "operator",
          "type": "address"
        }
      ],
      "name": "ERC721InvalidOperator",
      "type": "error"
    },
    {
      "inputs": [
        {
          "internalType": "address",
          "name": "owner",
          "type": "address"
        }
      ],
      "name": "ERC721InvalidOwner",
      "type": "error"
    },
    {
      "inputs": [
        {
          "internalType": "address",
          "name": "receiver",
          "type": "address"
        }
      ],
      "name": "ERC721InvalidReceiver",
      "type": "error"
    },
    {
      "inputs": [
        {
          "internalType": "address",
          "name": "sender",
          "type": "address"
        }
      ],
      "name": "ERC721InvalidSender",
      "type": "error"
    },
    {
      "inputs": [
        {
          "internalType": "uint256",
          "name": "tokenId",
          "type": "uint256"
        }
      ],
      "name": "ERC721NonexistentToken",
      "type": "error"
    },
    {
      "inputs": [],
      "name": "IncorrectAmount",
      "type": "error"
    },
    {
      "inputs": [],
      "name": "OnlyBuyer",
      "type": "error"
    },
    {
      "inputs": [],
      "name": "OnlyMarketplace",
      "type": "error"
    },
    {
      "inputs": [
        {
          "internalType": "address",
          "name": "owner",
          "type": "address"
        }
      ],
      "name": "OwnableInvalidOwner",
      "type": "error"
    },
    {
      "inputs": [
        {
          "internalType": "address",
          "name": "account",
          "type": "address"
        }
      ],
      "name": "OwnableUnauthorizedAccount",
      "type": "error"
    },
    {
      "inputs": [],
      "name": "TransferFailed",
      "type": "error"
    },
    {
      "inputs": [],
      "name": "ZeroAddress",
      "type": "error"
    },
    {
      "anonymous": false,
      "inputs": [
        {
          "indexed": true,
          "internalType": "address",
          "name": "owner",
          "type": "address"
        },
        {
          "indexed": true,
          "internalType": "address",
          "name": "approved",
          "type": "address"
        },
        {
          "indexed": true,
          "internalType": "uint256",
          "name": "tokenId",
          "type": "uint256"
        }
      ],
      "name": "Approval",
      "type": "event"
    },
    {
      "anonymous": false,
      "inputs": [
        {
          "indexed": true,
          "internalType": "address",
          "name": "owner",
          "type": "address"
        },
        {
          "indexed": true,
          "internalType": "address",
          "name": "operator",
          "type": "address"
        },
        {
          "indexed": false,
          "internalType": "bool",
          "name": "approved",
          "type": "bool"
        }
      ],
      "name": "ApprovalForAll",
      "type": "event"
    },
    {
      "anonymous": false,
      "inputs": [
        {
          "indexed": false,
          "internalType": "uint256",
          "name": "_fromTokenId",
          "type": "uint256"
        },
        {
          "indexed": false,
          "internalType": "uint256",
          "name": "_toTokenId",
          "type": "uint256"
        }
      ],
      "name": "BatchMetadataUpdate",
      "type": "event"
    },
    {
      "anonymous": false,
      "inputs": [
        {
          "indexed": true,
          "internalType": "uint256",
          "name": "tokenId",
          "type": "uint256"
        },
        {
          "indexed": true,
          "internalType": "address",
          "name": "buyer",
          "type": "address"
        },
        {
          "indexed": false,
          "internalType": "uint256",
          "name": "amount",
          "type": "uint256"
        },
        {
          "indexed": false,
          "internalType": "uint256",
          "name": "fee",
          "type": "uint256"
        }
      ],
      "name": "InvoiceRepaid",
      "type": "event"
    },
    {
      "anonymous": false,
      "inputs": [
        {
          "indexed": true,
          "internalType": "address",
          "name": "oldMarketplace",
          "type": "address"
        },
        {
          "indexed": true,
          "internalType": "address",
          "name": "newMarketplace",
          "type": "address"
        }
      ],
      "name": "MarketplaceUpdated",
      "type": "event"
    },
    {
      "anonymous": false,
      "inputs": [
        {
          "indexed": false,
          "internalType": "uint256",
          "name": "_tokenId",
          "type": "uint256"
        }
      ],
      "name": "MetadataUpdate",
      "type": "event"
    },
    {
      "anonymous": false,
      "inputs": [
        {
          "indexed": true,
          "internalType": "address",
          "name": "previousOwner",
          "type": "address"
        },
        {
          "indexed": true,
          "internalType": "address",
          "name": "newOwner",
          "type": "address"
        }
      ],
      "name": "OwnershipTransferred",
      "type": "event"
    },
    {
      "anonymous": false,
      "inputs": [
        {
          "indexed": true,
          "internalType": "address",
          "name": "from",
          "type": "address"
        },
        {
          "indexed": true,
          "internalType": "address",
          "name": "to",
          "type": "address"
        },
        {
          "indexed": true,
          "internalType": "uint256",
          "name": "tokenId",
          "type": "uint256"
        }
      ],
      "name": "Transfer",
      "type": "event"
    },
    {
      "inputs": [],
      "name": "FEE_BPS",
      "outputs": [
        {
          "internalType": "uint256",
          "name": "",
          "type": "uint256"
        }
      ],
      "stateMutability": "view",
      "type": "function"
    },
    {
      "inputs": [
        {
          "internalType": "address",
          "name": "to",
          "type": "address"
        },
        {
          "internalType": "uint256",
          "name": "tokenId",
          "type": "uint256"
        }
      ],
      "name": "approve",
      "outputs": [],
      "stateMutability": "nonpayable",
      "type": "function"
    },
    {
      "inputs": [
        {
          "internalType": "address",
          "name": "owner",
          "type": "address"
        }
      ],
      "name": "balanceOf",
      "outputs": [
        {
          "internalType": "uint256",
          "name": "",
          "type": "uint256"
        }
      ],
      "stateMutability": "view",
      "type": "function"
    },
    {
      "inputs": [
        {
          "internalType": "uint256",
          "name": "tokenId",
          "type": "uint256"
        }
      ],
      "name": "getApproved",
      "outputs": [
        {
          "internalType": "address",
          "name": "",
          "type": "address"
        }
      ],
      "stateMutability": "view",
      "type": "function"
    },
    {
      "inputs": [
        {
          "internalType": "uint256",
          "name": "",
          "type": "uint256"
        }
      ],
      "name": "invoiceData",
      "outputs": [
        {
          "internalType": "uint256",
          "name": "amount",
          "type": "uint256"
        },
        {
          "internalType": "address",
          "name": "buyer",
          "type": "address"
        },
        {
          "internalType": "bool",
          "name": "repaid",
          "type": "bool"
        }
      ],
      "stateMutability": "view",
      "type": "function"
    },
    {
      "inputs": [
        {
          "internalType": "address",
          "name": "owner",
          "type": "address"
        },
        {
          "internalType": "address",
          "name": "operator",
          "type": "address"
        }
      ],
      "name": "isApprovedForAll",
      "outputs": [
        {
          "internalType": "bool",
          "name": "",
          "type": "bool"
        }
      ],
      "stateMutability": "view",
      "type": "function"
    },
    {
      "inputs": [
        {
          "internalType": "uint256",
          "name": "tokenId",
          "type": "uint256"
        }
      ],
      "name": "isRepaid",
      "outputs": [
        {
          "internalType": "bool",
          "name": "",
          "type": "bool"
        }
      ],
      "stateMutability": "view",
      "type": "function"
    },
    {
      "inputs": [],
      "name": "marketplace",
      "outputs": [
        {
          "internalType": "address",
          "name": "",
          "type": "address"
        }
      ],
      "stateMutability": "view",
      "type": "function"
    },
    {
      "inputs": [
        {
          "internalType": "address",
          "name": "to",
          "type": "address"
        },
        {
          "internalType": "uint256",
          "name": "tokenId",
          "type": "uint256"
        },
        {
          "internalType": "string",
          "name": "uri",
          "type": "string"
        },
        {
          "internalType": "uint256",
          "name": "amount",
          "type": "uint256"
        },
        {
          "internalType": "address",
          "name": "buyer",
          "type": "address"
        }
      ],
      "name": "mintInvoice",
      "outputs": [],
      "stateMutability": "nonpayable",
      "type": "function"
    },
    {
      "inputs": [],
      "name": "name",
      "outputs": [
        {
          "internalType": "string",
          "name": "",
          "type": "string"
        }
      ],
      "stateMutability": "view",
      "type": "function"
    },
    {
      "inputs": [],
      "name": "owner",
      "outputs": [
        {
          "internalType": "address",
          "name": "",
          "type": "address"
        }
      ],
      "stateMutability": "view",
      "type": "function"
    },
    {
      "inputs": [
        {
          "internalType": "uint256",
          "name": "tokenId",
          "type": "uint256"
        }
      ],
      "name": "ownerOf",
      "outputs": [
        {
          "internalType": "address",
          "name": "",
          "type": "address"
        }
      ],
      "stateMutability": "view",
      "type": "function"
    },
    {
      "inputs": [],
      "name": "renounceOwnership",
      "outputs": [],
      "stateMutability": "nonpayable",
      "type": "function"
    },
    {
      "inputs": [
        {
          "internalType": "uint256",
          "name": "tokenId",
          "type": "uint256"
        }
      ],
      "name": "repayInvoice",
      "outputs": [],
      "stateMutability": "payable",
      "type": "function"
    },
    {
      "inputs": [
        {
          "internalType": "address",
          "name": "from",
          "type": "address"
        },
        {
          "internalType": "address",
          "name": "to",
          "type": "address"
        },
        {
          "internalType": "uint256",
          "name": "tokenId",
          "type": "uint256"
        }
      ],
      "name": "safeTransferFrom",
      "outputs": [],
      "stateMutability": "nonpayable",
      "type": "function"
    },
    {
      "inputs": [
        {
          "internalType": "address",
          "name": "from",
          "type": "address"
        },
        {
          "internalType": "address",
          "name": "to",
          "type": "address"
        },
        {
          "internalType": "uint256",
          "name": "tokenId",
          "type": "uint256"
        },
        {
          "internalType": "bytes",
          "name": "data",
          "type": "bytes"
        }
      ],
      "name": "safeTransferFrom",
      "outputs": [],
      "stateMutability": "nonpayable",
      "type": "function"
    },
    {
      "inputs": [
        {
          "internalType": "address",
          "name": "operator",
          "type": "address"
        },
        {
          "internalType": "bool",
          "name": "approved",
          "type": "bool"
        }
      ],
      "name": "setApprovalForAll",
      "outputs": [],
      "stateMutability": "nonpayable",
      "type": "function"
    },
    {
      "inputs": [
        {
          "internalType": "address",
          "name": "_marketplace",
          "type": "address"
        }
      ],
      "name": "setMarketplace",
      "outputs": [],
      "stateMutability": "nonpayable",
      "type": "function"
    },
    {
      "inputs": [],
      "name": "stakingRewards",
      "outputs": [
        {
          "internalType": "address payable",
          "name": "",
          "type": "address"
        }
      ],
      "stateMutability": "view",
      "type": "function"
    },
    {
      "inputs": [
        {
          "internalType": "bytes4",
          "name": "interfaceId",
          "type": "bytes4"
        }
      ],
      "name": "supportsInterface",
      "outputs": [
        {
          "internalType": "bool",
          "name": "",
          "type": "bool"
        }
      ],
      "stateMutability": "view",
      "type": "function"
    },
    {
      "inputs": [],
      "name": "symbol",
      "outputs": [
        {
          "internalType": "string",
          "name": "",
          "type": "string"
        }
      ],
      "stateMutability": "view",
      "type": "function"
    },
    {
      "inputs": [
        {
          "internalType": "uint256",
          "name": "tokenId",
          "type": "uint256"
        }
      ],
      "name": "tokenURI",
      "outputs": [
        {
          "internalType": "string",
          "name": "",
          "type": "string"
        }
      ],
      "stateMutability": "view",
      "type": "function"
    },
    {
      "inputs": [
        {
          "internalType": "address",
          "name": "from",
          "type": "address"
        },
        {
          "internalType": "address",
          "name": "to",
          "type": "address"
        },
        {
          "internalType": "uint256",
          "name": "tokenId",
          "type": "uint256"
        }
      ],
      "name": "transferFrom",
      "outputs": [],
      "stateMutability": "nonpayable",
      "type": "function"
    },
    {
      "inputs": [
        {
          "internalType": "address",
          "name": "newOwner",
          "type": "address"
        }
      ],
      "name": "transferOwnership",
      "outputs": [],
      "stateMutability": "nonpayable",
      "type": "function"
    }
  ],
  "bytecode": "0x60a0604052346103d25761193b6020813803918261001c816103d7565b9384928339810103126103d257516001600160a01b038116908181036103d25761004660406103d7565b91600d83526c437265645820496e766f69636560981b602084015261006b60406103d7565b600881526743494e564f49434560c01b602082015283519092906001600160401b0381116102dd57600054600181811c911680156103c8575b60208210146102bd57601f8111610364575b50602094601f82116001146102fe579481929394956000926102f3575b50508160011b916000199060031b1c1916176000555b82516001600160401b0381116102dd57600154600181811c911680156102d3575b60208210146102bd57601f8111610258575b506020601f82116001146101f157819293946000926101e6575b50508160011b916000199060031b1c1916176001555b33156101d05760078054336001600160a01b0319821681179092556040519391906001600160a01b03167f8be0079c531659141344cd1fd0a4f28419497f9722a3daafe3b4186f6b6457e0600080a3156101bf5760805261153e90816103fd8239608051818181610666015261079b0152f35b63d92e233d60e01b60005260046000fd5b631e4fbdf760e01b600052600060045260246000fd5b015190503880610136565b601f198216906001600052806000209160005b81811061024057509583600195969710610227575b505050811b0160015561014c565b015160001960f88460031b161c19169055388080610219565b9192602060018192868b015181550194019201610204565b60016000527fb10e2d527612073b26eecdfd717e6a320cf44b4afac2b0732d9fcbe2b7fa0cf6601f830160051c810191602084106102b3575b601f0160051c01905b8181106102a7575061011c565b6000815560010161029a565b9091508190610291565b634e487b7160e01b600052602260045260246000fd5b90607f169061010a565b634e487b7160e01b600052604160045260246000fd5b0151905038806100d3565b601f1982169560008052806000209160005b88811061034c57508360019596979810610333575b505050811b016000556100e9565b015160001960f88460031b161c19169055388080610325565b91926020600181928685015181550194019201610310565b600080527f290decd9548b62a8d60345a988386fc84ba6bc95484008f6362f93160ef3e563601f830160051c810191602084106103be575b601f0160051c01905b8181106103b257506100b6565b600081556001016103a5565b909150819061039c565b90607f16906100a4565b600080fd5b6040519190601f01601f191682016001600160401b038111838210176102dd5760405256fe608080604052600436101561001357600080fd5b600090813560e01c90816301ffc9a714610ef15750806306fdde0314610e4c578063081812fc14610e0f578063095ea7b314610d2757806323b872dd14610d0f57806342842e0e14610cdf57806344a612361461083f578063559034df146106c65780636352211e1461069557806364b87a701461065057806370a08231146105fd578063715018a6146105a057806373ad6c2d1461051d5780638da5cb5b146104f45780638e1eb411146104bf57806395d89b41146103f0578063a22cb4651461034c578063ab23b64614610300578063abc8c7af146102d7578063b88d4fde14610263578063bf333f2c14610246578063c87b56dd1461020e578063e985e9c5146101b45763f2fde38b1461012957600080fd5b346101b15760203660031901126101b157610142610fbb565b61014a6113ca565b6001600160a01b0316801561019d57600780546001600160a01b0319811683179091556001600160a01b03167f8be0079c531659141344cd1fd0a4f28419497f9722a3daafe3b4186f6b6457e08380a380f35b631e4fbdf760e01b82526004829052602482fd5b80fd5b50346101b15760403660031901126101b15760406101d0610fbb565b916101d9610fd6565b9260018060a01b031681526005602052209060018060a01b0316600052602052602060ff604060002054166040519015158152f35b50346101b15760203660031901126101b15761024261022e6004356112c7565b604051918291602083526020830190610f7c565b0390f35b50346101b157806003193601126101b15760206040516101f48152f35b50346101b15760803660031901126101b15761027d610fbb565b610285610fd6565b906044356064359267ffffffffffffffff84116102d357366023850112156102d3576102be6102d094369060248160040135910161107a565b926102ca8383836110eb565b336113f3565b80f35b8480fd5b50346101b157806003193601126101b1576008546040516001600160a01b039091168152602090f35b50346101b15760203660031901126101b1576040606091600435815260096020522060ff6001825492015460405192835260018060a01b038116602084015260a01c1615156040820152f35b50346101b15760403660031901126101b157610366610fbb565b602435908115158092036103ec576001600160a01b03169081156103d85733835260056020526040832082600052602052604060002060ff1981541660ff83161790556040519081527f17307eab39ab6107e8899845ad3d59bd9653f200f220920489ca2b5937696c3160203392a380f35b630b61174360e31b83526004829052602483fd5b8280fd5b50346101b157806003193601126101b157604051908060015490610413826110b1565b8085529160018116908115610498575060011461043b575b6102428461022e81860382611026565b600181527fb10e2d527612073b26eecdfd717e6a320cf44b4afac2b0732d9fcbe2b7fa0cf6939250905b80821061047e5750909150810160200161022e8261042b565b919260018160209254838588010152019101909291610465565b60ff191660208087019190915292151560051b8501909201925061022e915083905061042b565b50346101b15760203660031901126101b15760ff6001604060209360043581526009855220015460a01c166040519015158152f35b50346101b157806003193601126101b1576007546040516001600160a01b039091168152602090f35b50346101b15760203660031901126101b157610537610fbb565b61053f6113ca565b6001600160a01b0316801561059157600854816001600160a01b0382167fc3e7368ef0a668941a4115b651a9c4f3fa3a13cc6ea105bb91e12bcaa932293c8580a36001600160a01b0319161760085580f35b63d92e233d60e01b8252600482fd5b50346101b157806003193601126101b1576105b96113ca565b600780546001600160a01b0319811690915581906001600160a01b03167f8be0079c531659141344cd1fd0a4f28419497f9722a3daafe3b4186f6b6457e08280a380f35b50346101b15760203660031901126101b1576001600160a01b0361061f610fbb565b16801561063c578160409160209352600383522054604051908152f35b6322718ad960e21b82526004829052602482fd5b50346101b157806003193601126101b1576040517f00000000000000000000000000000000000000000000000000000000000000006001600160a01b03168152602090f35b50346101b15760203660031901126101b15760206106b4600435611393565b6040516001600160a01b039091168152f35b5060203660031901126101b15760043580825260096020526040822060018101805490916001600160a01b03821633036108305760ff8260a01c16610821575434036108125760ff60a01b1916600160a01b179055612710346101f402049081610799575b82808080348690036001600160a01b0361074487611393565b165af161074f611297565b501561078a576040519134835260208301527fe55dc516b9bbf9f5b0b3284018bddedf88ef3fb2c43b0518c685f40c6bc069f860403393a380f35b6312171d8360e31b8352600483fd5b7f00000000000000000000000000000000000000000000000000000000000000006001600160a01b031683813b156101b1578391600460405180948193630314777960e21b83525af18015610807576107f3575b5061072b565b8361080091949294611026565b91386107ed565b6040513d86823e3d90fd5b6334b2073960e11b8452600484fd5b63a8f6261f60e01b8552600485fd5b6386efbb5560e01b8552600485fd5b50346101b15760a03660031901126101b157610859610fbb565b906024359160443567ffffffffffffffff81116103ec57366023820112156103ec57806004013567ffffffffffffffff8111610cdb573660248284010111610cdb576084356001600160a01b038116908190036102d3576008546001600160a01b03163303610ccc576040516060810181811067ffffffffffffffff821117610cb857604090815260643582526020808301938452828201888152898952600982528289209351845593516001909301805494516001600160a81b03199095166001600160a01b039094169390931793151560a01b60ff60a01b1693909317909155519093906109498582611026565b8581526001600160a01b038216918215610ca4578787526002865260408720546001600160a01b03168015159081610c70575b848952600388526040808a20805460010190558a8a5260028952892080546001600160a01b031916861790558985827fddf252ad1be2c89b69c2b068fc378daa952ba7f163c4a11628f55a4df523b3ef8c80a450610c5c573b610b5c575b5050906109eb91602436920161107a565b92808352600682526040832084519467ffffffffffffffff8611610b4857610a1382546110b1565b601f8111610b05575b508390601f8711600114610a815795809186977ff8e1a15aba9398e019f0b49df1a4fde98ee17ae345cb5f6b5e2c27f5033e8ce79792610a76575b50508160011b916000199060031b1c19161790555b604051908152a180f35b015190503880610a57565b8286528486209190601f198816875b818110610aee57509160019391897ff8e1a15aba9398e019f0b49df1a4fde98ee17ae345cb5f6b5e2c27f5033e8ce7999a9410610ad5575b505050811b019055610a6c565b015160001960f88460031b161c19169055388080610ac8565b929387600181928786015181550195019301610a90565b828652848620601f880160051c810191868910610b3e575b601f0160051c01905b818110610b335750610a1c565b868155600101610b26565b9091508190610b1d565b634e487b7160e01b85526041600452602485fd5b84610b9b9160409895949396985180938192630a85bd0160e11b83523360048401528a6024840152886044840152608060648401526084830190610f7c565b038189895af1869181610c18575b50610bdd5750505050610bba611297565b8051939084610bd757633250574960e11b84526004839052602484fd5b84925001fd5b92959391929091906001600160e01b03191663757a42ff60e11b01610c0657506109eb386109da565b633250574960e11b8552600452602484fd5b9091508781813d8311610c55575b610c308183611026565b81010312610c5157516001600160e01b031981168103610c51579038610ba9565b8680fd5b503d610c26565b6339e3563760e11b87526004879052602487fd5b60008a815260046020526040902080546001600160a01b03191690558089526003885260408920805460001901905561097c565b633250574960e11b87526004879052602487fd5b634e487b7160e01b87526041600452602487fd5b632b35006d60e21b8552600485fd5b8380fd5b50346101b1576102d0610cf136610fec565b9060405192610d01602085611026565b8584526102ca8383836110eb565b50346101b1576102d0610d2136610fec565b916110eb565b50346101b15760403660031901126101b157610d41610fbb565b602435610d4d81611393565b33151580610dfc575b80610dd1575b610dbe5781906001600160a01b0384811691167f8c5be1e5ebec7d5bd14f71427d1e84f3dd0314c0f7b2291e5b200ac8c7c3b9258680a4825260046020526040822080546001600160a01b0319166001600160a01b0390921691909117905580f35b63a9fbf51f60e01b845233600452602484fd5b506001600160a01b038116845260056020908152604080862033875290915284205460ff1615610d5c565b506001600160a01b038116331415610d56565b50346101b15760203660031901126101b157602090600435610e3081611393565b50815260048252604060018060a01b0391205416604051908152f35b50346101b157806003193601126101b1576040519080805490610e6e826110b1565b80855291600181169081156104985750600114610e95576102428461022e81860382611026565b8080527f290decd9548b62a8d60345a988386fc84ba6bc95484008f6362f93160ef3e563939250905b808210610ed75750909150810160200161022e8261042b565b919260018160209254838588010152019101909291610ebe565b905034610f78576020366003190112610f785760043563ffffffff60e01b81168091036103ec5760209250632483248360e11b8114908115610f35575b5015158152f35b6380ac58cd60e01b811491508115610f67575b8115610f56575b5038610f2e565b6301ffc9a760e01b14905038610f4f565b635b5e139f60e01b81149150610f48565b5080fd5b919082518082526020808301940160005b828110610fab575050600081602094950152601f8019910116010190565b8181015186820152602001610f8d565b600435906001600160a01b0382168203610fd157565b600080fd5b602435906001600160a01b0382168203610fd157565b6060906003190112610fd1576004356001600160a01b0381168103610fd157906024356001600160a01b0381168103610fd1579060443590565b90601f8019910116810190811067ffffffffffffffff82111761104857604052565b634e487b7160e01b600052604160045260246000fd5b67ffffffffffffffff811161104857601f01601f191660200190565b9291926110868261105e565b916110946040519384611026565b829481845281830111610fd1578281602093846000960137010152565b90600182811c921680156110e1575b60208310146110cb57565b634e487b7160e01b600052602260045260246000fd5b91607f16916110c0565b6001600160a01b0390911691908215611281576000828152600260205260408120546001600160a01b03169383918590331515806111e9575b507fddf252ad1be2c89b69c2b068fc378daa952ba7f163c4a11628f55a4df523b3ef90826111b4575b83815260036020526040812060018154019055848152600260205260408120846bffffffffffffffffffffffff60a01b82541617905580a46001600160a01b031680830361119a57505050565b6364283d7b60e01b60005260045260245260445260646000fd5b600085815260046020526040902080546001600160a01b0319169055828152600360205260408120805460001901905561114d565b915091925080611232575b15611203579084849238611124565b83908561121c57602491637e27328960e01b8252600452fd5b60449163177e802f60e01b825233600452602452fd5b503385148015611260575b806111f45750838152600460205260408120546001600160a01b031633146111f4565b5084815260056020908152604080832033845290915281205460ff1661123d565b633250574960e11b600052600060045260246000fd5b3d156112c2573d906112a88261105e565b916112b66040519384611026565b82523d6000602084013e565b606090565b6112d081611393565b5060005260066020526040600020604051908160008254926112f1846110b1565b8084529360018116908115611371575060011461132a575b5061131692500382611026565b6000604051611326602082611026565b5290565b90506000929192526020600020906000915b8183106113555750509060206113169282010138611309565b602091935080600191548385880101520191019091839261133c565b90506020925061131694915060ff191682840152151560051b82010138611309565b6000818152600260205260409020546001600160a01b03169081156113b6575090565b637e27328960e01b60005260045260246000fd5b6007546001600160a01b031633036113de57565b63118cdaa760e01b6000523360045260246000fd5b823b611401575b5050505050565b604051630a85bd0160e11b81526001600160a01b03918216600482015291811660248301526044820193909352608060648201529116916020908290819061144d906084830190610f7c565b03816000865af180916000916114c5575b509061148f575061146d611297565b8051908161148a5782633250574960e11b60005260045260246000fd5b602001fd5b6001600160e01b03191663757a42ff60e11b016114b1575038808080806113fa565b633250574960e11b60005260045260246000fd5b6020813d602011611500575b816114de60209383611026565b81010312610f785751906001600160e01b0319821682036101b157503861145e565b3d91506114d156fea26469706673582212207a54d17af834c56865484a49387408de1cbd4c16d75f0bb290847f98095b13cc64736f6c634300081a0033",
  "linkReferences": {},
  "deployedLinkReferences": {}
}