{
  "_format": "hh-sol-artifact-1",
  "contractName": "CredXUtilityToken",
  "sourceName": "contracts/CredXUtilityToken.sol",
  "abi": [
    {
      "inputs": [],
      "stateMutability": "nonpayable",
      "type": "constructor"
    },
    {
      "inputs": [
        {
          "internalType": "address",
          "name": "spender",
          "type": "address"
        },
        {
          "internalType": "uint256",
          "name": "allowance",
          "type": "uint256"
        },
        {
          "internalType": "uint256",
          "name": "needed",
          "type": "uint256"
        }
      ],
      "name": "ERC20InsufficientAllowance",
      "type": "error"
    },
    {
      "inputs": [
        {
          "internalType": "address",
          "name": "sender",
          "type": "address"
        },
        {
          "internalType": "uint256",
          "name": "balance",
          "type": "uint256"
        },
        {
          "internalType": "uint256",
          "name": "needed",
          "type": "uint256"
        }
      ],
      "name": "ERC20InsufficientBalance",
      "type": "error"
    },
    {
      "inputs": [
        {
          "internalType": "address",
          "name": "approver",
          "type": "address"
        }
      ],
      "name": "ERC20InvalidApprover",
      "type": "error"
    },
    {
      "inputs": [
        {
          "internalType": "address",
          "name": "receiver",
          "type": "address"
        }
      ],
      "name": "ERC20InvalidReceiver",
      "type": "error"
    },
    {
      "inputs": [
        {
          "internalType": "address",
          "name": "sender",
          "type": "address"
        }
      ],
      "name": "ERC20InvalidSender",
      "type": "error"
    },
    {
      "inputs": [
        {
          "internalType": "address",
          "name": "spender",
          "type": "address"
        }
      ],
      "name": "ERC20InvalidSpender",
      "type": "error"
    },
    {
      "inputs": [],
      "name": "NotAdmin",
      "type": "error"
    },
    {
      "inputs": [],
      "name": "ZeroAddress",
      "type": "error"
    },
    {
      "inputs": [],
      "name": "ZeroAmount",
      "type": "error"
    },
    {
      "anonymous": false,
      "inputs": [
        {
          "indexed": true,
          "internalType": "address",
          "name": "to",
          "type": "address"
        },
        {
          "indexed": false,
          "internalType": "uint256",
          "name": "amount",
          "type": "uint256"
        }
      ],
      "name": "AdminMint",
      "type": "event"
    },
    {
      "anonymous": false,
      "inputs": [
        {
          "indexed": true,
          "internalType": "address",
          "name": "owner",
          "type": "address"
        },
        {
          "indexed": true,
          "internalType": "address",
          "name": "spender",
          "type": "address"
        },
        {
          "indexed": false,
          "internalType": "uint256",
          "name": "value",
          "type": "uint256"
        }
      ],
      "name": "Approval",
      "type": "event"
    },
    {
      "anonymous": false,
      "inputs": [
        {
          "indexed": true,
          "internalType": "address",
          "name": "from",
          "type": "address"
        },
        {
          "indexed": true,
          "internalType": "address",
          "name": "to",
          "type": "address"
        },
        {
          "indexed": false,
          "internalType": "uint256",
          "name": "value",
          "type": "uint256"
        }
      ],
      "name": "Transfer",
      "type": "event"
    },
    {
      "inputs": [],
      "name": "admin",
      "outputs": [
        {
          "internalType": "address",
          "name": "",
          "type": "address"
        }
      ],
      "stateMutability": "view",
      "type": "function"
    },
    {
      "inputs": [
        {
          "internalType": "address",
          "name": "owner",
          "type": "address"
        },
        {
          "internalType": "address",
          "name": "spender",
          "type": "address"
        }
      ],
      "name": "allowance",
      "outputs": [
        {
          "internalType": "uint256",
          "name": "",
          "type": "uint256"
        }
      ],
      "stateMutability": "view",
      "type": "function"
    },
    {
      "inputs": [
        {
          "internalType": "address",
          "name": "spender",
          "type": "address"
        },
        {
          "internalType": "uint256",
          "name": "value",
          "type": "uint256"
        }
      ],
      "name": "approve",
      "outputs": [
        {
          "internalType": "bool",
          "name": "",
          "type": "bool"
        }
      ],
      "stateMutability": "nonpayable",
      "type": "function"
    },
    {
      "inputs": [
        {
          "internalType": "address",
          "name": "account",
          "type": "address"
        }
      ],
      "name": "balanceOf",
      "outputs": [
        {
          "internalType": "uint256",
          "name": "",
          "type": "uint256"
        }
      ],
      "stateMutability": "view",
      "type": "function"
    },
    {
      "inputs": [],
      "name": "decimals",
      "outputs": [
        {
          "internalType": "uint8",
          "name": "",
          "type": "uint8"
        }
      ],
      "stateMutability": "view",
      "type": "function"
    },
    {
      "inputs": [
        {
          "internalType": "address",
          "name": "to",
          "type": "address"
        },
        {
          "internalType": "uint256",
          "name": "amount",
          "type": "uint256"
        }
      ],
      "name": "mint",
      "outputs": [],
      "stateMutability": "nonpayable",
      "type": "function"
    },
    {
      "inputs": [],
      "name": "name",
      "outputs": [
        {
          "internalType": "string",
          "name": "",
          "type": "string"
        }
      ],
      "stateMutability": "view",
      "type": "function"
    },
    {
      "inputs": [],
      "name": "symbol",
      "outputs": [
        {
          "internalType": "string",
          "name": "",
          "type": "string"
        }
      ],
      "stateMutability": "view",
      "type": "function"
    },
    {
      "inputs": [],
      "name": "totalSupply",
      "outputs": [
        {
          "internalType": "uint256",
          "name": "",
          "type": "uint256"
        }
      ],
      "stateMutability": "view",
      "type": "function"
    },
    {
      "inputs": [
        {
          "internalType": "address",
          "name": "to",
          "type": "address"
        },
        {
          "internalType": "uint256",
          "name": "value",
          "type": "uint256"
        }
      ],
      "name": "transfer",
      "outputs": [
        {
          "internalType": "bool",
          "name": "",
          "type": "bool"
        }
      ],
      "stateMutability": "nonpayable",
      "type": "function"
    },
    {
      "inputs": [
        {
          "internalType": "address",
          "name": "from",
          "type": "address"
        },
        {
          "internalType": "address",
          "name": "to",
          "type": "address"
        },
        {
          "internalType": "uint256",
          "name": "value",
          "type": "uint256"
        }
      ],
      "name": "transferFrom",
      "outputs": [
        {
          "internalType": "bool",
          "name": "",
          "type": "bool"
        }
      ],
      "stateMutability": "nonpayable",
      "type": "function"
    }
  ],
  "bytecode": "0x60a06040523461034f57604080519081016001600160401b0381118282101761025a576040908152601382527f4372656458205574696c69747920546f6b656e00000000000000000000000000602083015280519081016001600160401b0381118282101761025a576040526005815264086a48a88b60db1b602082015281516001600160401b03811161025a57600354600181811c91168015610345575b602082101461023a57601f81116102e0575b50602092601f821160011461027b5792819293600092610270575b50508160011b916000199060031b1c1916176003555b80516001600160401b03811161025a57600454600181811c91168015610250575b602082101461023a57601f81116101d5575b50602091601f821160011461017157918192600092610166575b50508160011b916000199060031b1c1916176004555b336080526040516107e89081610355823960805181818160ae01526102de0152f35b01519050388061012e565b601f198216926004600052806000209160005b8581106101bd575083600195106101a4575b505050811b01600455610144565b015160001960f88460031b161c19169055388080610196565b91926020600181928685015181550194019201610184565b60046000527f8a35acfbc15ff81a39ae7d344fd709f28e8600b4aa8c65c6b64bfe7fe36bd19b601f830160051c81019160208410610230575b601f0160051c01905b8181106102245750610114565b60008155600101610217565b909150819061020e565b634e487b7160e01b600052602260045260246000fd5b90607f1690610102565b634e487b7160e01b600052604160045260246000fd5b0151905038806100cb565b601f198216936003600052806000209160005b8681106102c857508360019596106102af575b505050811b016003556100e1565b015160001960f88460031b161c191690553880806102a1565b9192602060018192868501518155019401920161028e565b60036000527fc2575a0e9e593c00f959f8c92f12db2869c3395a3b0502d05e2516446f71f85b601f830160051c8101916020841061033b575b601f0160051c01905b81811061032f57506100b0565b60008155600101610322565b9091508190610319565b90607f169061009e565b600080fdfe608080604052600436101561001357600080fd5b60003560e01c90816306fdde03146105a557508063095ea7b31461051f57806318160ddd1461050157806323b872dd14610414578063313ce567146103f857806340c10f19146102bf57806370a082311461028557806395d89b4114610164578063a9059cbb14610133578063dd62ed3e146100e25763f851a4401461009857600080fd5b346100dd5760003660031901126100dd576040517f00000000000000000000000000000000000000000000000000000000000000006001600160a01b03168152602090f35b600080fd5b346100dd5760403660031901126100dd576100fb6106c1565b6101036106d7565b6001600160a01b039182166000908152600160209081526040808320949093168252928352819020549051908152f35b346100dd5760403660031901126100dd5761015961014f6106c1565b60243590336106ed565b602060405160018152f35b346100dd5760003660031901126100dd5760405160006004548060011c9060018116801561027b575b6020831081146102675782855290811561024b57506001146101f4575b50819003601f01601f191681019067ffffffffffffffff8211818310176101de576101da82918260405282610678565b0390f35b634e487b7160e01b600052604160045260246000fd5b905060046000527f8a35acfbc15ff81a39ae7d344fd709f28e8600b4aa8c65c6b64bfe7fe36bd19b6000905b828210610235575060209150820101826101aa565b6001816020925483858801015201910190610220565b90506020925060ff191682840152151560051b820101826101aa565b634e487b7160e01b84526022600452602484fd5b91607f169161018d565b346100dd5760203660031901126100dd576001600160a01b036102a66106c1565b1660005260006020526020604060002054604051908152f35b346100dd5760403660031901126100dd576102d86106c1565b602435907f00000000000000000000000000000000000000000000000000000000000000006001600160a01b031633036103e7576001600160a01b031680156103d65781156103c5576000916002548181018091116103b1576002557f90363c347ac279caf3ee0f1a07c9c17f19f56b1e394697a1d23b056c2c5bb36b906020908361039c5780600254036002555b83857fddf252ad1be2c89b69c2b068fc378daa952ba7f163c4a11628f55a4df523b3ef84604051858152a3604051908152a280f35b83855284825260408520818154019055610367565b634e487b7160e01b84526011600452602484fd5b631f2a200560e01b60005260046000fd5b63d92e233d60e01b60005260046000fd5b637bfa4b9f60e01b60005260046000fd5b346100dd5760003660031901126100dd57602060405160128152f35b346100dd5760603660031901126100dd5761042d6106c1565b6104356106d7565b6001600160a01b0382166000818152600160209081526040808320338452909152902054909260443592916000198110610475575b5061015993506106ed565b8381106104e45784156104ce5733156104b857610159946000526001602052604060002060018060a01b033316600052602052836040600020910390558461046a565b634a1406b160e11b600052600060045260246000fd5b63e602df0560e01b600052600060045260246000fd5b8390637dc7a0d960e11b6000523360045260245260445260646000fd5b346100dd5760003660031901126100dd576020600254604051908152f35b346100dd5760403660031901126100dd576105386106c1565b6024359033156104ce576001600160a01b03169081156104b857336000526001602052604060002082600052602052806040600020556040519081527f8c5be1e5ebec7d5bd14f71427d1e84f3dd0314c0f7b2291e5b200ac8c7c3b92560203392a3602060405160018152f35b346100dd5760003660031901126100dd5760006003548060011c9060018116801561066e575b6020831081146102675782855290811561024b57506001146106175750819003601f01601f191681019067ffffffffffffffff8211818310176101de576101da82918260405282610678565b905060036000527fc2575a0e9e593c00f959f8c92f12db2869c3395a3b0502d05e2516446f71f85b6000905b828210610658575060209150820101826101aa565b6001816020925483858801015201910190610643565b91607f16916105cb565b91909160208152825180602083015260005b8181106106ab575060409293506000838284010152601f8019910116010190565b806020809287010151604082860101520161068a565b600435906001600160a01b03821682036100dd57565b602435906001600160a01b03821682036100dd57565b6001600160a01b031690811561079c576001600160a01b031691821561078657600082815280602052604081205482811061076c5791604082827fddf252ad1be2c89b69c2b068fc378daa952ba7f163c4a11628f55a4df523b3ef958760209652828652038282205586815280845220818154019055604051908152a3565b916064928463391434e360e21b8452600452602452604452fd5b63ec442f0560e01b600052600060045260246000fd5b634b637e8f60e11b600052600060045260246000fdfea2646970667358221220b10240d56977e47ea0955756998420f5a2120d13be910af0e31a749b2317948b64736f6c634300081a0033",
  "linkReferences": {},
  "deployedLinkReferences": {}
}