{
  "_format": "hh-sol-artifact-1",
  "contractName": "UtilityStaker",
  "sourceName": "contracts/UtilityStaker.sol",
  "abi": [
    {
      "inputs": [
        {
          "internalType": "address",
          "name": "_utilityToken",
          "type": "address"
        },
        {
          "internalType": "address",
          "name": "_cgov",
          "type": "address"
        },
        {
          "internalType": "uint256",
          "name": "_rewardRate",
          "type": "uint256"
        }
      ],
      "stateMutability": "nonpayable",
      "type": "constructor"
    },
    {
      "inputs": [],
      "name": "InsufficientBalance",
      "type": "error"
    },
    {
      "inputs": [
        {
          "internalType": "address",
          "name": "token",
          "type": "address"
        }
      ],
      "name": "SafeERC20FailedOperation",
      "type": "error"
    },
    {
      "inputs": [],
      "name": "ZeroAmount",
      "type": "error"
    },
    {
      "anonymous": false,
      "inputs": [
        {
          "indexed": true,
          "internalType": "address",
          "name": "user",
          "type": "address"
        },
        {
          "indexed": false,
          "internalType": "uint256",
          "name": "amount",
          "type": "uint256"
        }
      ],
      "name": "RewardsClaimed",
      "type": "event"
    },
    {
      "anonymous": false,
      "inputs": [
        {
          "indexed": true,
          "internalType": "address",
          "name": "user",
          "type": "address"
        },
        {
          "indexed": false,
          "internalType": "uint256",
          "name": "amount",
          "type": "uint256"
        }
      ],
      "name": "Staked",
      "type": "event"
    },
    {
      "anonymous": false,
      "inputs": [
        {
          "indexed": true,
          "internalType": "address",
          "name": "user",
          "type": "address"
        },
        {
          "indexed": false,
          "internalType": "uint256",
          "name": "amount",
          "type": "uint256"
        }
      ],
      "name": "Withdrawn",
      "type": "event"
    },
    {
      "inputs": [],
      "name": "admin",
      "outputs": [
        {
          "internalType": "address",
          "name": "",
          "type": "address"
        }
      ],
      "stateMutability": "view",
      "type": "function"
    },
    {
      "inputs": [],
      "name": "cgov",
      "outputs": [
        {
          "internalType": "contract ICGOV",
          "name": "",
          "type": "address"
        }
      ],
      "stateMutability": "view",
      "type": "function"
    },
    {
      "inputs": [],
      "name": "claimRewards",
      "outputs": [],
      "stateMutability": "nonpayable",
      "type": "function"
    },
    {
      "inputs": [
        {
          "internalType": "address",
          "name": "account",
          "type": "address"
        }
      ],
      "name": "earned",
      "outputs": [
        {
          "internalType": "uint256",
          "name": "",
          "type": "uint256"
        }
      ],
      "stateMutability": "view",
      "type": "function"
    },
    {
      "inputs": [],
      "name": "exit",
      "outputs": [],
      "stateMutability": "nonpayable",
      "type": "function"
    },
    {
      "inputs": [],
      "name": "lastUpdateTime",
      "outputs": [
        {
          "internalType": "uint256",
          "name": "",
          "type": "uint256"
        }
      ],
      "stateMutability": "view",
      "type": "function"
    },
    {
      "inputs": [
        {
          "internalType": "address",
          "name": "",
          "type": "address"
        }
      ],
      "name": "pendingRewards",
      "outputs": [
        {
          "internalType": "uint256",
          "name": "",
          "type": "uint256"
        }
      ],
      "stateMutability": "view",
      "type": "function"
    },
    {
      "inputs": [],
      "name": "rewardPerToken",
      "outputs": [
        {
          "internalType": "uint256",
          "name": "",
          "type": "uint256"
        }
      ],
      "stateMutability": "view",
      "type": "function"
    },
    {
      "inputs": [],
      "name": "rewardPerTokenStored",
      "outputs": [
        {
          "internalType": "uint256",
          "name": "",
          "type": "uint256"
        }
      ],
      "stateMutability": "view",
      "type": "function"
    },
    {
      "inputs": [],
      "name": "rewardRate",
      "outputs": [
        {
          "internalType": "uint256",
          "name": "",
          "type": "uint256"
        }
      ],
      "stateMutability": "view",
      "type": "function"
    },
    {
      "inputs": [
        {
          "internalType": "uint256",
          "name": "amount",
          "type": "uint256"
        }
      ],
      "name": "stake",
      "outputs": [],
      "stateMutability": "nonpayable",
      "type": "function"
    },
    {
      "inputs": [
        {
          "internalType": "address",
          "name": "",
          "type": "address"
        }
      ],
      "name": "stakedBalance",
      "outputs": [
        {
          "internalType": "uint256",
          "name": "",
          "type": "uint256"
        }
      ],
      "stateMutability": "view",
      "type": "function"
    },
    {
      "inputs": [],
      "name": "totalStaked",
      "outputs": [
        {
          "internalType": "uint256",
          "name": "",
          "type": "uint256"
        }
      ],
      "stateMutability": "view",
      "type": "function"
    },
    {
      "inputs": [
        {
          "internalType": "address",
          "name": "",
          "type": "address"
        }
      ],
      "name": "userRewardPerTokenPaid",
      "outputs": [
        {
          "internalType": "uint256",
          "name": "",
          "type": "uint256"
        }
      ],
      "stateMutability": "view",
      "type": "function"
    },
    {
      "inputs": [],
      "name": "utilityToken",
      "outputs": [
        {
          "internalType": "contract IERC20",
          "name": "",
          "type": "address"
        }
      ],
      "stateMutability": "view",
      "type": "function"
    },
    {
      "inputs": [
        {
          "internalType": "uint256",
          "name": "amount",
          "type": "uint256"
        }
      ],
      "name": "withdraw",
      "outputs": [],
      "stateMutability": "nonpayable",
      "type": "function"
    }
  ],
  "bytecode": "0x610100346100d457601f610ab138819003918201601f19168301916001600160401b038311848410176100d9578084926060946040528339810103126100d457610048816100ef565b906040610057602083016100ef565b9101516001600160a01b03928316608052911660a0523360c05260e052426002556040516109ad908161010482396080518181816102670152818161037701528181610424015261073e015260a051818181610160015281816102f101526105d1015260c0518160e1015260e05181818161052301526108a00152f35b600080fd5b634e487b7160e01b600052604160045260246000fd5b51906001600160a01b03821682036100d45756fe6080604052600436101561001257600080fd5b6000803560e01c80628cc262146107cb5780632e1a7d4d146106dc57806331d7a2621461069f578063372500ab1461058357806360217267146105465780637b0a47ee1461050b578063817b1cd2146104ee5780638b876347146104b1578063a694fc3a146103a6578063ae86ed8914610361578063c8f33c9114610343578063cd3daf9d14610320578063d23f4198146102db578063df136d65146102bd578063e9fad8ee146101135763f851a440146100cc57600080fd5b346101105780600319360112610110576040517f00000000000000000000000000000000000000000000000000000000000000006001600160a01b03168152602090f35b80fd5b50346101105780600319360112610110573381526003602052604081205480610217575b50338152600560205260408120548061014e575080f35b338252600560205260408220829055817f00000000000000000000000000000000000000000000000000000000000000006001600160a01b0316803b15610208576040516340c10f1960e01b8152336004820152602481018490529082908290604490829084905af1801561020c576101f3575b50506040519081527ffc30cddea38e2bf4d6ea7d3f9ed3b6ad7f176419f4963bd81318067a4aee73fe60203392a280f35b816101fd9161084a565b6102085781386101c2565b5080fd5b6040513d84823e3d90fd5b61021f610882565b6001554260025561022f336107f8565b3383526005602052604083205560015433835260046020526040832055808254038255338252600360205281604081205561028b81337f00000000000000000000000000000000000000000000000000000000000000006108cd565b6040519081527f7084f5476618d8e60b11ef0d7d3f06914655adb8793e28ff7f018d4c76d505d560203392a238610137565b50346101105780600319360112610110576020600154604051908152f35b50346101105780600319360112610110576040517f00000000000000000000000000000000000000000000000000000000000000006001600160a01b03168152602090f35b5034610110578060031936011261011057602061033b610882565b604051908152f35b50346101105780600319360112610110576020600254604051908152f35b50346101105780600319360112610110576040517f00000000000000000000000000000000000000000000000000000000000000006001600160a01b03168152602090f35b5034610110576020366003190112610110576004356103c3610882565b6001554260025533610486575b8015610477578082540182553382526003602052604082208181540190556104486040516323b872dd60e01b60208201523360248201523060448201528260648201526064815261042260848261084a565b7f0000000000000000000000000000000000000000000000000000000000000000610910565b6040519081527f9e71bc8eea02a63969f509818f2dafb9254532904319f9dbda79b67bd34a5f3d60203392a280f35b631f2a200560e01b8252600482fd5b61048f336107f8565b33835260056020526040832055600154338352600460205260408320556103d0565b5034610110576020366003190112610110576004356001600160a01b03811690819003610208578160409160209352600483522054604051908152f35b503461011057806003193601126101105760209054604051908152f35b503461011057806003193601126101105760206040517f00000000000000000000000000000000000000000000000000000000000000008152f35b5034610110576020366003190112610110576004356001600160a01b03811690819003610208578160409160209352600383522054604051908152f35b503461011057806003193601126101105761059c610882565b6001554260025533610674575b33815260056020526040812054806105bf575080f35b338252600560205260408220829055907f00000000000000000000000000000000000000000000000000000000000000006001600160a01b0316803b15610208576040516340c10f1960e01b8152336004820152602481018490529082908290604490829084905af1801561020c57610664575b50906040519081527ffc30cddea38e2bf4d6ea7d3f9ed3b6ad7f176419f4963bd81318067a4aee73fe60203392a280f35b8161066e9161084a565b38610633565b61067d336107f8565b33825260056020526040822055600154338252600460205260408220556105a9565b5034610110576020366003190112610110576004356001600160a01b03811690819003610208578160409160209352600583522054604051908152f35b5034610110576020366003190112610110576004356106f9610882565b60015542600255336107a0575b8015610477573382526003602052806040832054106107915780825403825533825260036020526040822081815403905561076281337f00000000000000000000000000000000000000000000000000000000000000006108cd565b6040519081527f7084f5476618d8e60b11ef0d7d3f06914655adb8793e28ff7f018d4c76d505d560203392a280f35b631e9acf1760e31b8252600482fd5b6107a9336107f8565b3383526005602052604083205560015433835260046020526040832055610706565b503461011057602036600319011261011057600435906001600160a01b038216820361011057602061033b835b6001600160a01b031660008181526003602052604090205490670de0b6b3a764000090610823610882565b81600052600460205260406000205490039060005260056020526040600020549202040190565b90601f8019910116810190811067ffffffffffffffff82111761086c57604052565b634e487b7160e01b600052604160045260246000fd5b60005480156108c657600254420390670de0b6b3a7640000600154927f00000000000000000000000000000000000000000000000000000000000000000202040190565b5060015490565b60405163a9059cbb60e01b60208201526001600160a01b0392909216602483015260448083019390935291815261090e9161090960648361084a565b610910565b565b906000602091828151910182855af11561096b576000513d61096257506001600160a01b0381163b155b6109415750565b635274afe760e01b60009081526001600160a01b0391909116600452602490fd5b6001141561093a565b6040513d6000823e3d90fdfea264697066735822122084487fdbc02a30888e89ffc513b064e292add35bbeeb17780d72eb8b265dd27b64736f6c634300081a0033",
  "linkReferences": {},
  "deployedLinkReferences": {}
}