{
  "_format": "hh-sol-artifact-1",
  "contractName": "InvoiceMarketplace",
  "sourceName": "contracts/InvoiceMarketplace.sol",
  "abi": [
    {
      "anonymous": false,
      "inputs": [
        {
          "indexed": true,
          "internalType": "uint256",
          "name": "id",
          "type": "uint256"
        },
        {
          "indexed": true,
          "internalType": "address",
          "name": "investor",
          "type": "address"
        },
        {
          "indexed": false,
          "internalType": "uint256",
          "name": "amount",
          "type": "uint256"
        },
        {
          "indexed": false,
          "internalType": "uint256",
          "name": "fundedAmount",
          "type": "uint256"
        }
      ],
      "name": "Invested",
      "type": "event"
    },
    {
      "anonymous": false,
      "inputs": [
        {
          "indexed": true,
          "internalType": "uint256",
          "name": "id",
          "type": "uint256"
        },
        {
          "indexed": true,
          "internalType": "address",
          "name": "msme",
          "type": "address"
        },
        {
          "indexed": true,
          "internalType": "address",
          "name": "buyer",
          "type": "address"
        },
        {
          "indexed": false,
          "internalType": "uint256",
          "name": "amount",
          "type": "uint256"
        },
        {
          "indexed": false,
          "internalType": "uint256",
          "name": "dueDate",
          "type": "uint256"
        },
        {
          "indexed": false,
          "internalType": "uint256",
          "name": "discountRate",
          "type": "uint256"
        },
        {
          "indexed": false,
          "internalType": "string",
          "name": "metadataURI",
          "type": "string"
        },
        {
          "indexed": false,
          "internalType": "address",
          "name": "exclusiveInvestor",
          "type": "address"
        }
      ],
      "name": "InvoiceCreated",
      "type": "event"
    },
    {
      "anonymous": false,
      "inputs": [
        {
          "indexed": true,
          "internalType": "uint256",
          "name": "id",
          "type": "uint256"
        }
      ],
      "name": "InvoiceDefaulted",
      "type": "event"
    },
    {
      "anonymous": false,
      "inputs": [
        {
          "indexed": true,
          "internalType": "uint256",
          "name": "id",
          "type": "uint256"
        }
      ],
      "name": "InvoiceFunded",
      "type": "event"
    },
    {
      "anonymous": false,
      "inputs": [
        {
          "indexed": true,
          "internalType": "uint256",
          "name": "id",
          "type": "uint256"
        },
        {
          "indexed": false,
          "internalType": "uint256",
          "name": "totalRepaid",
          "type": "uint256"
        }
      ],
      "name": "InvoiceRepaid",
      "type": "event"
    },
    {
      "inputs": [
        {
          "internalType": "address",
          "name": "buyer",
          "type": "address"
        },
        {
          "internalType": "uint256",
          "name": "amount",
          "type": "uint256"
        },
        {
          "internalType": "uint256",
          "name": "dueDate",
          "type": "uint256"
        },
        {
          "internalType": "uint256",
          "name": "discountRate",
          "type": "uint256"
        },
        {
          "internalType": "string",
          "name": "metadataURI",
          "type": "string"
        },
        {
          "internalType": "address",
          "name": "exclusiveInvestor",
          "type": "address"
        }
      ],
      "name": "createInvoice",
      "outputs": [
        {
          "internalType": "uint256",
          "name": "",
          "type": "uint256"
        }
      ],
      "stateMutability": "nonpayable",
      "type": "function"
    },
    {
      "inputs": [],
      "name": "feeBps",
      "outputs": [
        {
          "internalType": "uint256",
          "name": "",
          "type": "uint256"
        }
      ],
      "stateMutability": "view",
      "type": "function"
    },
    {
      "inputs": [
        {
          "internalType": "uint256",
          "name": "id",
          "type": "uint256"
        }
      ],
      "name": "getInvestors",
      "outputs": [
        {
          "internalType": "address[]",
          "name": "",
          "type": "address[]"
        }
      ],
      "stateMutability": "view",
      "type": "function"
    },
    {
      "inputs": [
        {
          "internalType": "address",
          "name": "_invoiceNFT",
          "type": "address"
        },
        {
          "internalType": "address payable",
          "name": "_stakingRewards",
          "type": "address"
        },
        {
          "internalType": "uint256",
          "name": "_feeBps",
          "type": "uint256"
        }
      ],
      "name": "initialize",
      "outputs": [],
      "stateMutability": "nonpayable",
      "type": "function"
    },
    {
      "inputs": [
        {
          "internalType": "uint256",
          "name": "id",
          "type": "uint256"
        }
      ],
      "name": "investInInvoice",
      "outputs": [],
      "stateMutability": "payable",
      "type": "function"
    },
    {
      "inputs": [
        {
          "internalType": "uint256",
          "name": "",
          "type": "uint256"
        },
        {
          "internalType": "address",
          "name": "",
          "type": "address"
        }
      ],
      "name": "investments",
      "outputs": [
        {
          "internalType": "uint256",
          "name": "",
          "type": "uint256"
        }
      ],
      "stateMutability": "view",
      "type": "function"
    },
    {
      "inputs": [],
      "name": "invoiceNFT",
      "outputs": [
        {
          "internalType": "contract InvoiceNFT",
          "name": "",
          "type": "address"
        }
      ],
      "stateMutability": "view",
      "type": "function"
    },
    {
      "inputs": [
        {
          "internalType": "uint256",
          "name": "",
          "type": "uint256"
        }
      ],
      "name": "invoices",
      "outputs": [
        {
          "internalType": "uint256",
          "name": "id",
          "type": "uint256"
        },
        {
          "internalType": "address",
          "name": "msme",
          "type": "address"
        },
        {
          "internalType": "address",
          "name": "buyer",
          "type": "address"
        },
        {
          "internalType": "uint256",
          "name": "amount",
          "type": "uint256"
        },
        {
          "internalType": "uint256",
          "name": "fundedAmount",
          "type": "uint256"
        },
        {
          "internalType": "uint256",
          "name": "dueDate",
          "type": "uint256"
        },
        {
          "internalType": "uint256",
          "name": "discountRate",
          "type": "uint256"
        },
        {
          "internalType": "enum InvoiceMarketplace.Status",
          "name": "status",
          "type": "uint8"
        },
        {
          "internalType": "string",
          "name": "metadataURI",
          "type": "string"
        },
        {
          "internalType": "address",
          "name": "exclusiveInvestor",
          "type": "address"
        }
      ],
      "stateMutability": "view",
      "type": "function"
    },
    {
      "inputs": [
        {
          "internalType": "uint256",
          "name": "id",
          "type": "uint256"
        }
      ],
      "name": "markDefaulted",
      "outputs": [],
      "stateMutability": "nonpayable",
      "type": "function"
    },
    {
      "inputs": [],
      "name": "nextInvoiceId",
      "outputs": [
        {
          "internalType": "uint256",
          "name": "",
          "type": "uint256"
        }
      ],
      "stateMutability": "view",
      "type": "function"
    },
    {
      "inputs": [],
      "name": "owner",
      "outputs": [
        {
          "internalType": "address",
          "name": "",
          "type": "address"
        }
      ],
      "stateMutability": "view",
      "type": "function"
    },
    {
      "inputs": [],
      "name": "pause",
      "outputs": [],
      "stateMutability": "nonpayable",
      "type": "function"
    },
    {
      "inputs": [],
      "name": "paused",
      "outputs": [
        {
          "internalType": "bool",
          "name": "",
          "type": "bool"
        }
      ],
      "stateMutability": "view",
      "type": "function"
    },
    {
      "inputs": [
        {
          "internalType": "uint256",
          "name": "id",
          "type": "uint256"
        }
      ],
      "name": "repayInvoice",
      "outputs": [],
      "stateMutability": "payable",
      "type": "function"
    },
    {
      "inputs": [
        {
          "internalType": "uint256",
          "name": "_feeBps",
          "type": "uint256"
        }
      ],
      "name": "setFeeBps",
      "outputs": [],
      "stateMutability": "nonpayable",
      "type": "function"
    },
    {
      "inputs": [
        {
          "internalType": "address",
          "name": "_invoiceNFT",
          "type": "address"
        }
      ],
      "name": "setInvoiceNFT",
      "outputs": [],
      "stateMutability": "nonpayable",
      "type": "function"
    },
    {
      "inputs": [
        {
          "internalType": "address payable",
          "name": "_stakingRewards",
          "type": "address"
        }
      ],
      "name": "setStakingRewards",
      "outputs": [],
      "stateMutability": "nonpayable",
      "type": "function"
    },
    {
      "inputs": [],
      "name": "stakingRewards",
      "outputs": [
        {
          "internalType": "contract StakingRewards",
          "name": "",
          "type": "address"
        }
      ],
      "stateMutability": "view",
      "type": "function"
    },
    {
      "inputs": [
        {
          "internalType": "address",
          "name": "newOwner",
          "type": "address"
        }
      ],
      "name": "transferOwnership",
      "outputs": [],
      "stateMutability": "nonpayable",
      "type": "function"
    },
    {
      "inputs": [],
      "name": "unpause",
      "outputs": [],
      "stateMutability": "nonpayable",
      "type": "function"
    }
  ],
  "bytecode": "0x6080806040523461001657611857908161001c8239f35b600080fdfe6080604052600436101561001257600080fd5b6000803560e01c80631139de551461145e5780631794bb3c1461137f57806324a9d853146113615780633f4ba83a1461132c5780634bb6f06d146113035780634e6d14051461116a578063559034df14610d715780635c975abb14610d4b57806364b87a7014610d225780636fb83a5714610ccc5780636ff2a95314610caf57806372c27b6214610c715780637321645014610b3957806382c10417146105cb5780638456cb59146105905780638da5cb5b14610567578063b11b32d214610520578063b354983d146101d0578063f2fde38b146101515763f939f496146100f957600080fd5b3461014e57602036600319011261014e57610112611548565b6004546001600160a01b03919061012c90831633146116d6565b16610138811515611629565b6001600160601b0360a01b600654161760065580f35b80fd5b503461014e57602036600319011261014e5761016b611548565b600454906001600160a01b039061018533838516146116d6565b1690811561019e576001600160a01b0319161760045580f35b60405162461bcd60e51b815260206004820152600a6024820152694f776e6572207a65726f60b01b6044820152606490fd5b506020908160031936011261014e57600435918282526001815260ff600760408420015416600581101561050c576102099015156115e4565b61021b60ff60045460a01c161561170e565b8282526001815260408220600781019060ff82541660058110156104f8576001036104c15760098101546001600160a01b039590861680610470575b50341561043b576004820161026d34825461176c565b966003840197885410610408578287526003865260408720336000528652604060002054156103a4575b86978388979852600388526040872033600052885260406000206102bc34825461176c565b90556102c934845461176c565b8093556040513481528389820152847f271dec505c61c970bdd791a963b7162d814edf6292f40c4beef2af1e48eea1e860403393a35480921461030a578580f35b60018695948695948695600260ff198254161790557f9548b965d6392cc4c2ca0c182c4a0fcc35a558cb167fba8bfea4b501eee20f5d8680a20154165af16103506117f1565b5015610360578181808080808580f35b6064906040519062461bcd60e51b82526004820152601760248201527f5472616e7366657220746f204d534d45206661696c65640000000000000000006044820152fd5b828752600286526040872097885498680100000000000000008a10156103f457896103d89160018b9c9b9a9b0181556117c3565b81549060031b908433831b921b19161790559750959495610297565b634e487b7160e01b89526041600452602489fd5b60405162461bcd60e51b815260048101879052600b60248201526a4f76657266756e64696e6760a81b6044820152606490fd5b60405162461bcd60e51b815260048101859052600d60248201526c139bc81d985b1d59481cd95b9d609a1b6044820152606490fd5b330361047c5738610257565b60405162461bcd60e51b815260048101859052601f60248201527f4f6e6c79206578636c757369766520696e766573746f7220616c6c6f776564006044820152606490fd5b60405162461bcd60e51b815260048101849052600f60248201526e4e6f742066756e6472616973696e6760881b6044820152606490fd5b634e487b7160e01b85526021600452602485fd5b634e487b7160e01b83526021600452602483fd5b503461014e57604036600319011261014e57604061053c61155e565b9160043581526003602052209060018060a01b03166000526020526020604060002054604051908152f35b503461014e578060031936011261014e576004546040516001600160a01b039091168152602090f35b503461014e578060031936011261014e576004546105b8336001600160a01b038316146116d6565b60ff60a01b1916600160a01b1760045580f35b503461014e5760c036600319011261014e576105e5611548565b6084359167ffffffffffffffff831161014e573660238401121561014e5767ffffffffffffffff83600401351161014e5736602484600401358501011161014e5760a4356001600160a01b0381168103610b345761064b60ff60045460a01c161561170e565b6001600160a01b03831615610afe5760243515610ac457426044351115610a7f57815492600184018411610a6b576001840183556040518061014081011067ffffffffffffffff61014083011117610a5557610140810160405260018501815233602082015260018060a01b0382166040820152602435606082015283608082015260443560a082015260643560c0820152600160e08201526106f18660040135611786565b6106fe60405191826115c2565b600487013580825260248801602083013784602088600401358301015261010082015260018060a01b038316610120820152600185018452600160205260408420815181556001810160018060a01b036020840151166001600160601b0360a01b8254161790556002810160018060a01b036040840151166001600160601b0360a01b825416179055606082015160038201556080820151600482015560a0820151600582015560c082015160068201556007810160e08301516005811015610a415760ff8019835416911617905561010082015180519067ffffffffffffffff8211610a2d576107f26008840154611574565b601f81116109e9575b50602090601f831160011461097957600993929188918361096e575b50508160011b916000199060031b1c19161760088201555b019061012060018060a01b03910151166001600160601b0360a01b8254161790556040519060243582526044356020830152606435604083015260a0606083015261088560a083018760040135602489016117a2565b6001600160a01b039384166080840152921691339160018601917f06d2a84410abbe5194267c8b6d1554aa8292266b54988855383145617c8795b8919081900390a46006546001600160a01b0316806108e7575b602083600160405191018152f35b8193813b1561096a57829161093291604051948580948193633b32d61360e21b835233600484015260018a0160248401526060604484015260648301906024816004013591016117a2565b03925af1801561095f57610947575b806108d9565b61095183916115ae565b61095b5781610941565b5080fd5b6040513d85823e3d90fd5b8280fd5b015190503880610817565b906008840188526020882091885b601f19851681106109d1575091839160019360099695601f198116106109b8575b505050811b01600882015561082f565b015160001960f88460031b161c191690553880806109a8565b91926020600181928685015181550194019201610987565b60088401885260208820601f840160051c810160208510610a26575b601f830160051c82018110610a1b5750506107fb565b898155600101610a05565b5080610a05565b634e487b7160e01b87526041600452602487fd5b634e487b7160e01b87526021600452602487fd5b634e487b7160e01b600052604160045260246000fd5b634e487b7160e01b83526011600452602483fd5b60405162461bcd60e51b815260206004820152601a60248201527f4475652064617465206d75737420626520696e206675747572650000000000006044820152606490fd5b60405162461bcd60e51b81526020600482015260126024820152710416d6f756e74206d757374206265203e20360741b6044820152606490fd5b60405162461bcd60e51b815260206004820152600e60248201526d109d5e595c881c995c5d5a5c995960921b6044820152606490fd5b600080fd5b503461014e57602036600319011261014e57600435808252600160205260ff600760408420015416600581101561050c57610b759015156115e4565b808252600160205260408220600781019081549060ff82166005811015610c5d5760028114908115610c52575b5015610c1c5760050154421115610be35760ff191660041790557fdad3d8c24c5e0a13ffb0c0fa573014d3c4ba10367d5cba3549fa7c9ac18b93a48280a280f35b60405162461bcd60e51b81526020600482015260116024820152704e6f74207061737420647565206461746560781b6044820152606490fd5b60405162461bcd60e51b815260206004820152600e60248201526d10d85b9b9bdd08191959985d5b1d60921b6044820152606490fd5b600191501438610ba2565b634e487b7160e01b86526021600452602486fd5b503461014e57602036600319011261014e57600435610c9b60018060a01b036004541633146116d6565b610ca961271082111561169b565b60055580f35b503461014e578060031936011261014e5760209054604051908152f35b503461014e57602036600319011261014e57610ce6611548565b6004546001600160a01b039190610d0090831633146116d6565b16610d0c811515611660565b6001600160601b0360a01b600754161760075580f35b503461014e578060031936011261014e576007546040516001600160a01b039091168152602090f35b503461014e578060031936011261014e57602060ff60045460a01c166040519015158152f35b50602036600319011261014e57600435815260018060205260ff600760408420015416600581101561050c57610da89015156115e4565b6004358252600160205260408220600201546001600160a01b0316330361112f57610ddb60ff60045460a01c161561170e565b6004358252600160205260408220600781019081549060ff82166005811015610c5d576002036110f557600692610e2a600383015492610e22612710968792015485611743565b04809361176c565b34036110b0576003610e469360ff191617905560055490611743565b0490610e528234611779565b90600435845260026020526040842090815492859160016020526003604088200154875b868110610fce5750505090610e8a91611779565b918215159081610fc4575b50610f40575b505080151580610f2c575b610edd575b506040513481527fe57c83410ab16d767654351928d1ea4b894f6c93e04e4e6408bd7d301dcd82db602060043592a280f35b60075482906001600160a01b0316803b1561095b57600460405180948193630314777960e21b83525af18015610f215715610eab57610f1b906115ae565b38610eab565b6040513d84823e3d90fd5b506007546001600160a01b03161515610ea6565b805415610fb0578352602083205483918291829182916001600160a01b03165af1610f696117f1565b5015610f76573880610e9b565b60405162461bcd60e51b8152602060048201526012602482015271111d5cdd081c185e5bdd5d0819985a5b195960721b6044820152606490fd5b634e487b7160e01b84526032600452602484fd5b9050151538610e95565b610fd881876117c3565b60018060a01b0391549060031b1c16946004358a52600360205260408a20868b5260205260408a205480156110a65761102b906004358c52600360205260408c20888d526020528b604081205586611743565b8315611092578a80809361104387839504809261176c565b995af161104e6117f1565b501561105d5782905b01610e76565b60405162461bcd60e51b815260206004820152600d60248201526c14185e5bdd5d0819985a5b1959609a1b6044820152606490fd5b634e487b7160e01b8b52601260045260248bfd5b5094508290611057565b60405162461bcd60e51b815260206004820152601a60248201527f496e636f72726563742072657061796d656e7420616d6f756e740000000000006044820152606490fd5b60405162461bcd60e51b8152602060048201526012602482015271125b9d9bda58d9481b9bdd08199d5b99195960721b6044820152606490fd5b60405162461bcd60e51b815260206004820152601360248201527213db9b1e48189d5e595c8818d85b8818d85b1b606a1b6044820152606490fd5b503461014e57602036600319011261014e57600435815260019060016020526040812080549060018060a01b036001820154169360018060a01b03600283015416916003810154600482015460058301549060068401549260ff600786015416946008810160405180988c908354936111e285611574565b80855294600181169081156112df57506001146112a1575b5050611208925003886115c2565b600960018060a01b0391015416966040519a610140998c5260208c015260408b015260608a0152608089015260a088015260c087015260058110156104f857908593929160e08501528261010085015280518093850152845b83811061128857505061016093848385010152610120830152601f80199101168101030190f35b6020828201810151610160898401015287955001611261565b8e5260208e208e92505b8483106112c55750611208935050810160200138806111fa565b908181946020858195549201015201910190918a926112ab565b9150506020925061120894915060ff191682840152151560051b82010138806111fa565b503461014e578060031936011261014e576006546040516001600160a01b039091168152602090f35b503461014e578060031936011261014e57600454611354336001600160a01b038316146116d6565b60ff60a01b191660045580f35b503461014e578060031936011261014e576020600554604051908152f35b503461014e57606036600319011261014e57611399611548565b6113a161155e565b6044356007549260ff8460a01c16611423576001600160a01b03908116926113ca841515611629565b16916113d7831515611660565b6113e561271083111561169b565b6001600160601b0360a01b338160045416176004556006541617600655600555600160a01b916affffffffffffffffffffff60a81b16171760075580f35b60405162461bcd60e51b8152602060048201526013602482015272105b1c9958591e481a5b9a5d1a585b1a5e9959606a1b6044820152606490fd5b503461014e576020908160031936011261014e57600435918282526001926001825260ff600760408520015416600581101561153457906114a1859215156115e4565b8352600282526040832092604051808486549182815201908196845285842090845b81811061151857505050816114d99103826115c2565b6040519380850191818652518092526040850195925b8281106114fc5785870386f35b83516001600160a01b03168752958101959281019284016114ef565b82546001600160a01b03168452928701929186019186016114c3565b634e487b7160e01b84526021600452602484fd5b600435906001600160a01b0382168203610b3457565b602435906001600160a01b0382168203610b3457565b90600182811c921680156115a4575b602083101461158e57565b634e487b7160e01b600052602260045260246000fd5b91607f1691611583565b67ffffffffffffffff8111610a5557604052565b90601f8019910116810190811067ffffffffffffffff821117610a5557604052565b156115eb57565b60405162461bcd60e51b8152602060048201526016602482015275125b9d9bda58d948191bd95cc81b9bdd08195e1a5cdd60521b6044820152606490fd5b1561163057565b60405162461bcd60e51b81526020600482015260086024820152674e4654207a65726f60c01b6044820152606490fd5b1561166757565b60405162461bcd60e51b815260206004820152600c60248201526b5374616b696e67207a65726f60a01b6044820152606490fd5b156116a257565b60405162461bcd60e51b815260206004820152600c60248201526b0cccaca40e8dede40d0d2ced60a31b6044820152606490fd5b156116dd57565b60405162461bcd60e51b81526020600482015260096024820152682737ba1037bbb732b960b91b6044820152606490fd5b1561171557565b60405162461bcd60e51b815260206004820152600660248201526514185d5cd95960d21b6044820152606490fd5b8181029291811591840414171561175657565b634e487b7160e01b600052601160045260246000fd5b9190820180921161175657565b9190820391821161175657565b67ffffffffffffffff8111610a5557601f01601f191660200190565b908060209392818452848401376000828201840152601f01601f1916010190565b80548210156117db5760005260206000200190600090565b634e487b7160e01b600052603260045260246000fd5b3d1561181c573d9061180282611786565b9161181060405193846115c2565b82523d6000602084013e565b60609056fea26469706673582212205182473d54764fe2cea63f5691dc5f5159f34d00a82bd927135d8d206bd6a44464736f6c63430008160033",
  "linkReferences": {},
  "deployedLinkReferences": {}
}