{
  "_format": "hh-sol-artifact-1",
  "contractName": "InvoiceNFT",
  "sourceName": "contracts/InvoiceNFT.sol",
  "abi": [
    {
      "inputs": [],
      "stateMutability": "nonpayable",
      "type": "constructor"
    },
    {
      "inputs": [
        {
          "internalType": "address",
          "name": "sender",
          "type": "address"
        },
        {
          "internalType": "uint256",
          "name": "tokenId",
          "type": "uint256"
        },
        {
          "internalType": "address",
          "name": "owner",
          "type": "address"
        }
      ],
      "name": "ERC721IncorrectOwner",
      "type": "error"
    },
    {
      "inputs": [
        {
          "internalType": "address",
          "name": "operator",
          "type": "address"
        },
        {
          "internalType": "uint256",
          "name": "tokenId",
          "type": "uint256"
        }
      ],
      "name": "ERC721InsufficientApproval",
      "type": "error"
    },
    {
      "inputs": [
        {
          "internalType": "address",
          "name": "approver",
          "type": "address"
        }
      ],
      "name": "ERC721InvalidApprover",
      "type": "error"
    },
    {
      "inputs": [
        {
          "internalType": "address",
          "name": "operator",
          "type": "address"
        }
      ],
      "name": "ERC721InvalidOperator",
      "type": "error"
    },
    {
      "inputs": [
        {
          "internalType": "address",
          "name": "owner",
          "type": "address"
        }
      ],
      "name": "ERC721InvalidOwner",
      "type": "error"
    },
    {
      "inputs": [
        {
          "internalType": "address",
          "name": "receiver",
          "type": "address"
        }
      ],
      "name": "ERC721InvalidReceiver",
      "type": "error"
    },
    {
      "inputs": [
        {
          "internalType": "address",
          "name": "sender",
          "type": "address"
        }
      ],
      "name": "ERC721InvalidSender",
      "type": "error"
    },
    {
      "inputs": [
        {
          "internalType": "uint256",
          "name": "tokenId",
          "type": "uint256"
        }
      ],
      "name": "ERC721NonexistentToken",
      "type": "error"
    },
    {
      "inputs": [
        {
          "internalType": "address",
          "name": "owner",
          "type": "address"
        }
      ],
      "name": "OwnableInvalidOwner",
      "type": "error"
    },
    {
      "inputs": [
        {
          "internalType": "address",
          "name": "account",
          "type": "address"
        }
      ],
      "name": "OwnableUnauthorizedAccount",
      "type": "error"
    },
    {
      "anonymous": false,
      "inputs": [
        {
          "indexed": true,
          "internalType": "address",
          "name": "owner",
          "type": "address"
        },
        {
          "indexed": true,
          "internalType": "address",
          "name": "approved",
          "type": "address"
        },
        {
          "indexed": true,
          "internalType": "uint256",
          "name": "tokenId",
          "type": "uint256"
        }
      ],
      "name": "Approval",
      "type": "event"
    },
    {
      "anonymous": false,
      "inputs": [
        {
          "indexed": true,
          "internalType": "address",
          "name": "owner",
          "type": "address"
        },
        {
          "indexed": true,
          "internalType": "address",
          "name": "operator",
          "type": "address"
        },
        {
          "indexed": false,
          "internalType": "bool",
          "name": "approved",
          "type": "bool"
        }
      ],
      "name": "ApprovalForAll",
      "type": "event"
    },
    {
      "anonymous": false,
      "inputs": [
        {
          "indexed": false,
          "internalType": "uint256",
          "name": "_fromTokenId",
          "type": "uint256"
        },
        {
          "indexed": false,
          "internalType": "uint256",
          "name": "_toTokenId",
          "type": "uint256"
        }
      ],
      "name": "BatchMetadataUpdate",
      "type": "event"
    },
    {
      "anonymous": false,
      "inputs": [
        {
          "indexed": true,
          "internalType": "address",
          "name": "oldMarketplace",
          "type": "address"
        },
        {
          "indexed": true,
          "internalType": "address",
          "name": "newMarketplace",
          "type": "address"
        }
      ],
      "name": "MarketplaceUpdated",
      "type": "event"
    },
    {
      "anonymous": false,
      "inputs": [
        {
          "indexed": false,
          "internalType": "uint256",
          "name": "_tokenId",
          "type": "uint256"
        }
      ],
      "name": "MetadataUpdate",
      "type": "event"
    },
    {
      "anonymous": false,
      "inputs": [
        {
          "indexed": true,
          "internalType": "address",
          "name": "previousOwner",
          "type": "address"
        },
        {
          "indexed": true,
          "internalType": "address",
          "name": "newOwner",
          "type": "address"
        }
      ],
      "name": "OwnershipTransferred",
      "type": "event"
    },
    {
      "anonymous": false,
      "inputs": [
        {
          "indexed": true,
          "internalType": "address",
          "name": "from",
          "type": "address"
        },
        {
          "indexed": true,
          "internalType": "address",
          "name": "to",
          "type": "address"
        },
        {
          "indexed": true,
          "internalType": "uint256",
          "name": "tokenId",
          "type": "uint256"
        }
      ],
      "name": "Transfer",
      "type": "event"
    },
    {
      "inputs": [
        {
          "internalType": "address",
          "name": "to",
          "type": "address"
        },
        {
          "internalType": "uint256",
          "name": "tokenId",
          "type": "uint256"
        }
      ],
      "name": "approve",
      "outputs": [],
      "stateMutability": "nonpayable",
      "type": "function"
    },
    {
      "inputs": [
        {
          "internalType": "address",
          "name": "owner",
          "type": "address"
        }
      ],
      "name": "balanceOf",
      "outputs": [
        {
          "internalType": "uint256",
          "name": "",
          "type": "uint256"
        }
      ],
      "stateMutability": "view",
      "type": "function"
    },
    {
      "inputs": [
        {
          "internalType": "uint256",
          "name": "tokenId",
          "type": "uint256"
        }
      ],
      "name": "getApproved",
      "outputs": [
        {
          "internalType": "address",
          "name": "",
          "type": "address"
        }
      ],
      "stateMutability": "view",
      "type": "function"
    },
    {
      "inputs": [
        {
          "internalType": "address",
          "name": "owner",
          "type": "address"
        },
        {
          "internalType": "address",
          "name": "operator",
          "type": "address"
        }
      ],
      "name": "isApprovedForAll",
      "outputs": [
        {
          "internalType": "bool",
          "name": "",
          "type": "bool"
        }
      ],
      "stateMutability": "view",
      "type": "function"
    },
    {
      "inputs": [],
      "name": "marketplace",
      "outputs": [
        {
          "internalType": "address",
          "name": "",
          "type": "address"
        }
      ],
      "stateMutability": "view",
      "type": "function"
    },
    {
      "inputs": [
        {
          "internalType": "address",
          "name": "to",
          "type": "address"
        },
        {
          "internalType": "uint256",
          "name": "tokenId",
          "type": "uint256"
        },
        {
          "internalType": "string",
          "name": "uri",
          "type": "string"
        }
      ],
      "name": "mintInvoice",
      "outputs": [],
      "stateMutability": "nonpayable",
      "type": "function"
    },
    {
      "inputs": [],
      "name": "name",
      "outputs": [
        {
          "internalType": "string",
          "name": "",
          "type": "string"
        }
      ],
      "stateMutability": "view",
      "type": "function"
    },
    {
      "inputs": [],
      "name": "owner",
      "outputs": [
        {
          "internalType": "address",
          "name": "",
          "type": "address"
        }
      ],
      "stateMutability": "view",
      "type": "function"
    },
    {
      "inputs": [
        {
          "internalType": "uint256",
          "name": "tokenId",
          "type": "uint256"
        }
      ],
      "name": "ownerOf",
      "outputs": [
        {
          "internalType": "address",
          "name": "",
          "type": "address"
        }
      ],
      "stateMutability": "view",
      "type": "function"
    },
    {
      "inputs": [],
      "name": "renounceOwnership",
      "outputs": [],
      "stateMutability": "nonpayable",
      "type": "function"
    },
    {
      "inputs": [
        {
          "internalType": "address",
          "name": "from",
          "type": "address"
        },
        {
          "internalType": "address",
          "name": "to",
          "type": "address"
        },
        {
          "internalType": "uint256",
          "name": "tokenId",
          "type": "uint256"
        }
      ],
      "name": "safeTransferFrom",
      "outputs": [],
      "stateMutability": "nonpayable",
      "type": "function"
    },
    {
      "inputs": [
        {
          "internalType": "address",
          "name": "from",
          "type": "address"
        },
        {
          "internalType": "address",
          "name": "to",
          "type": "address"
        },
        {
          "internalType": "uint256",
          "name": "tokenId",
          "type": "uint256"
        },
        {
          "internalType": "bytes",
          "name": "data",
          "type": "bytes"
        }
      ],
      "name": "safeTransferFrom",
      "outputs": [],
      "stateMutability": "nonpayable",
      "type": "function"
    },
    {
      "inputs": [
        {
          "internalType": "address",
          "name": "operator",
          "type": "address"
        },
        {
          "internalType": "bool",
          "name": "approved",
          "type": "bool"
        }
      ],
      "name": "setApprovalForAll",
      "outputs": [],
      "stateMutability": "nonpayable",
      "type": "function"
    },
    {
      "inputs": [
        {
          "internalType": "address",
          "name": "_marketplace",
          "type": "address"
        }
      ],
      "name": "setMarketplace",
      "outputs": [],
      "stateMutability": "nonpayable",
      "type": "function"
    },
    {
      "inputs": [
        {
          "internalType": "bytes4",
          "name": "interfaceId",
          "type": "bytes4"
        }
      ],
      "name": "supportsInterface",
      "outputs": [
        {
          "internalType": "bool",
          "name": "",
          "type": "bool"
        }
      ],
      "stateMutability": "view",
      "type": "function"
    },
    {
      "inputs": [],
      "name": "symbol",
      "outputs": [
        {
          "internalType": "string",
          "name": "",
          "type": "string"
        }
      ],
      "stateMutability": "view",
      "type": "function"
    },
    {
      "inputs": [
        {
          "internalType": "uint256",
          "name": "tokenId",
          "type": "uint256"
        }
      ],
      "name": "tokenURI",
      "outputs": [
        {
          "internalType": "string",
          "name": "",
          "type": "string"
        }
      ],
      "stateMutability": "view",
      "type": "function"
    },
    {
      "inputs": [
        {
          "internalType": "address",
          "name": "from",
          "type": "address"
        },
        {
          "internalType": "address",
          "name": "to",
          "type": "address"
        },
        {
          "internalType": "uint256",
          "name": "tokenId",
          "type": "uint256"
        }
      ],
      "name": "transferFrom",
      "outputs": [],
      "stateMutability": "nonpayable",
      "type": "function"
    },
    {
      "inputs": [
        {
          "internalType": "address",
          "name": "newOwner",
          "type": "address"
        }
      ],
      "name": "transferOwnership",
      "outputs": [],
      "stateMutability": "nonpayable",
      "type": "function"
    }
  ],
  "bytecode": "0x6080346200037e576001600160401b039060408181018381118382101762000368578152600d82526020916c437265645820496e766f69636560981b838201528151938285018581108282111762000368578352600885526743494e564f49434560c01b84860152815181811162000368576000948554916001948584811c941680156200035d575b8385101462000349578190601f94858111620002f6575b5083908583116001146200029257899262000286575b5050600019600383901b1c191690851b1786555b8651928311620002725783548481811c9116801562000267575b8282101462000253578281116200020b575b5080918311600114620001a457508495829394959262000198575b5050600019600383901b1c191690821b1790555b3315620001805760078054336001600160a01b03198216811790925591519290916001600160a01b0316907f8be0079c531659141344cd1fd0a4f28419497f9722a3daafe3b4186f6b6457e09080a361129d9081620003848239f35b51631e4fbdf760e01b81526004810191909152602490fd5b01519050388062000110565b90601f198316968487528287209287905b898210620001f3575050838596979810620001d9575b505050811b01905562000124565b015160001960f88460031b161c19169055388080620001cb565b808785968294968601518155019501930190620001b5565b8487528187208380860160051c82019284871062000249575b0160051c019085905b8281106200023d575050620000f5565b8881550185906200022d565b9250819262000224565b634e487b7160e01b87526022600452602487fd5b90607f1690620000e3565b634e487b7160e01b86526041600452602486fd5b015190503880620000b5565b898052848a208894509190601f1984168b5b87828210620002df5750508411620002c5575b505050811b018655620000c9565b015160001960f88460031b161c19169055388080620002b7565b8385015186558b97909501949384019301620002a4565b9091508880528389208580850160051c8201928686106200033f575b918991869594930160051c01915b828110620003305750506200009f565b8b815585945089910162000320565b9250819262000312565b634e487b7160e01b88526022600452602488fd5b93607f169362000088565b634e487b7160e01b600052604160045260246000fd5b600080fdfe6080604081815260048036101561001557600080fd5b600092833560e01c90816301ffc9a714610d0a5750806306fdde0314610c59578063081812fc14610c1e578063095ea7b314610b4257806323b872dd14610b2a57806342842e0e14610afb5780636352211e14610aca57806370a0823114610a75578063715018a614610a1857806373ad6c2d146109625780638da5cb5b1461093957806395d89b411461084b578063a22cb465146107aa578063abc8c7af14610781578063b88d4fde1461070e578063c87b56dd14610618578063e985e9c5146105ca578063eccb584c146101865763f2fde38b146100f457600080fd5b346101825760203660031901126101825761010d610dd0565b906101166110f1565b6001600160a01b0391821692831561016c575050600754826bffffffffffffffffffffffff60a01b821617600755167f8be0079c531659141344cd1fd0a4f28419497f9722a3daafe3b4186f6b6457e08380a380f35b51631e4fbdf760e01b8152908101849052602490fd5b8280fd5b508290346105c65760603660031901126105c6576101a2610dd0565b9060249384359160443567ffffffffffffffff968782116105c257366023830112156105c25781830135918883116105be57368284830101116105be576008546001600160a01b039390841633036105895785516101ff81610e36565b89815284891698891561057357908991898c528b8a60209c8d9960028b528c842054168015159384610540575b82815260038c528d8120805460019081019091558482526002909c528d812080546001600160a01b031916841790557fddf252ad1be2c89b69c2b068fc378daa952ba7f163c4a11628f55a4df523b3ef9080a461052a573b6103fa575b5050906102999183369201610ea6565b9085885260068752848820938251998a116103e95750506102ba8354610edd565b601f81116103a3575b508590601f8911600114610325579780928192899a7ff8e1a15aba9398e019f0b49df1a4fde98ee17ae345cb5f6b5e2c27f5033e8ce79a9461031a575b50501b916000199060031b1c19161790555b51908152a180f35b015192508a80610300565b838852868820909891601f198316895b81811061038e575099837ff8e1a15aba9398e019f0b49df1a4fde98ee17ae345cb5f6b5e2c27f5033e8ce79a9b10610375575b505050811b019055610312565b015160001960f88460031b161c19169055888080610368565b8b830151845592850192918901918901610335565b838852868820601f8a0160051c810191888b106103df575b601f0160051c019083905b8281106103d45750506102c3565b8981550183906103c6565b90915081906103bb565b634e487b7160e01b89526041905287fd5b956104438a839b98879e989695948e859f8d9e9a819e5196879586948593630a85bd0160e11b9b8c865233908601528401528d6044840152608060648401526084830190610d90565b03925af18991816104e6575b506104ac57505050505050503d6000146104a3573d61046d81610e8a565b9061047a85519283610e68565b81528092823d92013e5b815191826104a0575050505191633250574960e11b8352820152fd5b01fd5b60609150610484565b63ffffffff60e09d969a999c989b939495979d1b16036104d057506102998b610289565b93505050925191633250574960e11b8352820152fd5b9091508881813d8311610523575b6104fe8183610e68565b8101031261051f57516001600160e01b03198116810361051f57908e61044f565b8980fd5b503d6104f4565b88516339e3563760e11b81528089018d90528690fd5b600084815260046020526040902080546001600160a01b031916905581815260038c528d8120805460001901905561022c565b8751633250574960e11b81528088018c90528590fd5b855162461bcd60e51b81526020818701526010818501526f4f6e6c79206d61726b6574706c61636560801b6044820152606490fd5b8780fd5b8680fd5b5080fd5b5050346105c657806003193601126105c65760ff816020936105ea610dd0565b6105f2610deb565b6001600160a01b0391821683526005875283832091168252855220549151911615158152f35b509034610182576020918260031936011261070a5735610637816110b6565b5083526006825280832092815180948290805461065381610edd565b91828552600191886001821691826000146106e35750506001146106a5575b5050506106a1939291610686910386610e68565b815161069181610e36565b5251928284938452830190610d90565b0390f35b8552868520879350859291905b8284106106cb57505050820101816106866106a1610672565b8054848b0186015289955088949093019281016106b2565b60ff19168782015293151560051b8601909301935084925061068691506106a19050610672565b8380fd5b8382346105c65760803660031901126105c657610729610dd0565b610731610deb565b6044359060643567ffffffffffffffff811161077d573660238201121561077d5761077a9481602461076893369301359101610ea6565b92610774838383610f17565b3361111d565b80f35b8580fd5b5050346105c657816003193601126105c65760085490516001600160a01b039091168152602090f35b5090346101825780600319360112610182576107c4610dd0565b9060243591821515809303610847576001600160a01b03169283156108325750338452600560205280842083855260205280842060ff1981541660ff8416179055519081527f17307eab39ab6107e8899845ad3d59bd9653f200f220920489ca2b5937696c3160203392a380f35b836024925191630b61174360e31b8352820152fd5b8480fd5b82843461093657806003193601126109365781519182826001936001549461087286610edd565b918285526020968760018216918260001461090f5750506001146108b3575b5050506106a192916108a4910385610e68565b51928284938452830190610d90565b9190869350600183527fb10e2d527612073b26eecdfd717e6a320cf44b4afac2b0732d9fcbe2b7fa0cf65b8284106108f757505050820101816108a46106a1610891565b8054848a0186015288955087949093019281016108de565b60ff19168782015293151560051b860190930193508492506108a491506106a19050610891565b80fd5b5050346105c657816003193601126105c65760075490516001600160a01b039091168152602090f35b50346101825760203660031901126101825761097c610dd0565b906109856110f1565b6001600160a01b039182169283156109d5575050816008549182167fc3e7368ef0a668941a4115b651a9c4f3fa3a13cc6ea105bb91e12bcaa932293c8580a36001600160a01b0319161760085580f35b906020606492519162461bcd60e51b8352820152601860248201527f4d61726b6574706c616365207a65726f206164647265737300000000000000006044820152fd5b8334610936578060031936011261093657610a316110f1565b600780546001600160a01b0319811690915581906001600160a01b03167f8be0079c531659141344cd1fd0a4f28419497f9722a3daafe3b4186f6b6457e08280a380f35b509134610936576020366003190112610936576001600160a01b03610a98610dd0565b16928315610ab55750806020938392526003845220549051908152f35b91516322718ad960e21b815291820152602490fd5b5091346109365760203660031901126109365750610aea602092356110b6565b90516001600160a01b039091168152f35b5050346105c65761077a90610b0f36610e01565b91925192610b1c84610e36565b858452610774838383610f17565b83346109365761077a610b3c36610e01565b91610f17565b509034610182578060031936011261018257610b5c610dd0565b91602435610b69816110b6565b33151580610c0b575b80610be2575b610bcc576001600160a01b039485169482918691167f8c5be1e5ebec7d5bd14f71427d1e84f3dd0314c0f7b2291e5b200ac8c7c3b9258880a48452602052822080546001600160a01b031916909117905580f35b835163a9fbf51f60e01b81523381850152602490fd5b506001600160a01b03811686526005602090815284872033885290528386205460ff1615610b78565b506001600160a01b038116331415610b72565b503461018257602036600319011261018257918260209335610c3f816110b6565b50825283528190205490516001600160a01b039091168152f35b82843461093657806003193601126109365781519182828354610c7b81610edd565b908184526020956001918760018216918260001461090f575050600114610caf575050506106a192916108a4910385610e68565b91908693508280527f290decd9548b62a8d60345a988386fc84ba6bc95484008f6362f93160ef3e5635b828410610cf257505050820101816108a46106a1610891565b8054848a018601528895508794909301928101610cd9565b92505034610182576020366003190112610182573563ffffffff60e01b81168091036101825760209250632483248360e11b8114908115610d4d575b5015158152f35b6380ac58cd60e01b811491508115610d7f575b8115610d6e575b5038610d46565b6301ffc9a760e01b14905038610d67565b635b5e139f60e01b81149150610d60565b919082519283825260005b848110610dbc575050826000602080949584010152601f8019910116010190565b602081830181015184830182015201610d9b565b600435906001600160a01b0382168203610de657565b600080fd5b602435906001600160a01b0382168203610de657565b6060906003190112610de6576001600160a01b03906004358281168103610de657916024359081168103610de6579060443590565b6020810190811067ffffffffffffffff821117610e5257604052565b634e487b7160e01b600052604160045260246000fd5b90601f8019910116810190811067ffffffffffffffff821117610e5257604052565b67ffffffffffffffff8111610e5257601f01601f191660200190565b929192610eb282610e8a565b91610ec06040519384610e68565b829481845281830111610de6578281602093846000960137010152565b90600182811c92168015610f0d575b6020831014610ef757565b634e487b7160e01b600052602260045260246000fd5b91607f1691610eec565b6001600160a01b03918216929091831561109d57600092828452826020956002875260409684888820541696879133151580611007575b509060027fddf252ad1be2c89b69c2b068fc378daa952ba7f163c4a11628f55a4df523b3ef9284610fd4575b858352600381528b8320805460010190558683525289812080546001600160a01b0319168517905580a41692838303610fb35750505050565b6064945051926364283d7b60e01b8452600484015260248301526044820152fd5b600087815260046020526040902080546001600160a01b0319169055848352600381528b83208054600019019055610f7a565b9193945091508061105c575b1561102357859291879138610f4e565b878688611040576024915190637e27328960e01b82526004820152fd5b604491519063177e802f60e01b82523360048301526024820152fd5b503387148015611081575b806110135750858252600481523385898420541614611013565b5086825260058152878220338352815260ff8883205416611067565b604051633250574960e11b815260006004820152602490fd5b6000818152600260205260409020546001600160a01b03169081156110d9575090565b60249060405190637e27328960e01b82526004820152fd5b6007546001600160a01b0316330361110557565b60405163118cdaa760e01b8152336004820152602490fd5b90939192833b61112f575b5050505050565b604051630a85bd0160e11b8082526001600160a01b03938416600483015295831660248201526044810191909152608060648201529492169260209291859061117c906084830190610d90565b039483816000978189895af1869181611227575b506111f1575050503d6000146111e8573d6111aa81610e8a565b906111b86040519283610e68565b81528093823d92013e5b825192836111e357604051633250574960e11b815260048101849052602490fd5b019050fd5b606092506111c2565b919450915063ffffffff60e01b160361120f57503880808080611128565b60249060405190633250574960e11b82526004820152fd5b9091508481813d8311611260575b61123f8183610e68565b810103126105c257516001600160e01b0319811681036105c2579038611190565b503d61123556fea2646970667358221220bb31b0104138d6d9c2531dc208fe42fff4c0642b2899b91aed5cc15b610c3f9664736f6c63430008160033",
  "linkReferences": {},
  "deployedLinkReferences": {}
}