{
  "_format": "hh-sol-artifact-1",
  "contractName": "InvoiceMarketplace",
  "sourceName": "contracts/InvoiceMarketplace.sol",
  "abi": [
    {
      "anonymous": false,
      "inputs": [
        {
          "indexed": true,
          "internalType": "uint256",
          "name": "id",
          "type": "uint256"
        },
        {
          "indexed": true,
          "internalType": "address",
          "name": "investor",
          "type": "address"
        },
        {
          "indexed": false,
          "internalType": "uint256",
          "name": "amount",
          "type": "uint256"
        },
        {
          "indexed": false,
          "internalType": "uint256",
          "name": "fundedAmount",
          "type": "uint256"
        }
      ],
      "name": "Invested",
      "type": "event"
    },
    {
      "anonymous": false,
      "inputs": [
        {
          "indexed": true,
          "internalType": "uint256",
          "name": "id",
          "type": "uint256"
        },
        {
          "indexed": true,
          "internalType": "address",
          "name": "msme",
          "type": "address"
        },
        {
          "indexed": true,
          "internalType": "address",
          "name": "buyer",
          "type": "address"
        },
        {
          "indexed": false,
          "internalType": "uint256",
          "name": "amount",
          "type": "uint256"
        },
        {
          "indexed": false,
          "internalType": "uint256",
          "name": "dueDate",
          "type": "uint256"
        },
        {
          "indexed": false,
          "internalType": "uint256",
          "name": "discountRate",
          "type": "uint256"
        },
        {
          "indexed": false,
          "internalType": "string",
          "name": "metadataURI",
          "type": "string"
        },
        {
          "indexed": false,
          "internalType": "address",
          "name": "exclusiveInvestor",
          "type": "address"
        }
      ],
      "name": "InvoiceCreated",
      "type": "event"
    },
    {
      "anonymous": false,
      "inputs": [
        {
          "indexed": true,
          "internalType": "uint256",
          "name": "id",
          "type": "uint256"
        }
      ],
      "name": "InvoiceDefaulted",
      "type": "event"
    },
    {
      "anonymous": false,
      "inputs": [
        {
          "indexed": true,
          "internalType": "uint256",
          "name": "id",
          "type": "uint256"
        }
      ],
      "name": "InvoiceFunded",
      "type": "event"
    },
    {
      "anonymous": false,
      "inputs": [
        {
          "indexed": true,
          "internalType": "uint256",
          "name": "id",
          "type": "uint256"
        },
        {
          "indexed": false,
          "internalType": "uint256",
          "name": "totalRepaid",
          "type": "uint256"
        }
      ],
      "name": "InvoiceRepaid",
      "type": "event"
    },
    {
      "inputs": [
        {
          "internalType": "address",
          "name": "buyer",
          "type": "address"
        },
        {
          "internalType": "uint256",
          "name": "amount",
          "type": "uint256"
        },
        {
          "internalType": "uint256",
          "name": "dueDate",
          "type": "uint256"
        },
        {
          "internalType": "uint256",
          "name": "discountRate",
          "type": "uint256"
        },
        {
          "internalType": "string",
          "name": "metadataURI",
          "type": "string"
        },
        {
          "internalType": "address",
          "name": "exclusiveInvestor",
          "type": "address"
        }
      ],
      "name": "createInvoice",
      "outputs": [
        {
          "internalType": "uint256",
          "name": "",
          "type": "uint256"
        }
      ],
      "stateMutability": "nonpayable",
      "type": "function"
    },
    {
      "inputs": [
        {
          "internalType": "uint256",
          "name": "id",
          "type": "uint256"
        }
      ],
      "name": "getInvestors",
      "outputs": [
        {
          "internalType": "address[]",
          "name": "",
          "type": "address[]"
        }
      ],
      "stateMutability": "view",
      "type": "function"
    },
    {
      "inputs": [
        {
          "internalType": "uint256",
          "name": "id",
          "type": "uint256"
        }
      ],
      "name": "investInInvoice",
      "outputs": [],
      "stateMutability": "payable",
      "type": "function"
    },
    {
      "inputs": [
        {
          "internalType": "uint256",
          "name": "",
          "type": "uint256"
        },
        {
          "internalType": "address",
          "name": "",
          "type": "address"
        }
      ],
      "name": "investments",
      "outputs": [
        {
          "internalType": "uint256",
          "name": "",
          "type": "uint256"
        }
      ],
      "stateMutability": "view",
      "type": "function"
    },
    {
      "inputs": [
        {
          "internalType": "uint256",
          "name": "",
          "type": "uint256"
        }
      ],
      "name": "invoices",
      "outputs": [
        {
          "internalType": "uint256",
          "name": "id",
          "type": "uint256"
        },
        {
          "internalType": "address",
          "name": "msme",
          "type": "address"
        },
        {
          "internalType": "address",
          "name": "buyer",
          "type": "address"
        },
        {
          "internalType": "uint256",
          "name": "amount",
          "type": "uint256"
        },
        {
          "internalType": "uint256",
          "name": "fundedAmount",
          "type": "uint256"
        },
        {
          "internalType": "uint256",
          "name": "dueDate",
          "type": "uint256"
        },
        {
          "internalType": "uint256",
          "name": "discountRate",
          "type": "uint256"
        },
        {
          "internalType": "enum InvoiceMarketplace.Status",
          "name": "status",
          "type": "uint8"
        },
        {
          "internalType": "string",
          "name": "metadataURI",
          "type": "string"
        },
        {
          "internalType": "address",
          "name": "exclusiveInvestor",
          "type": "address"
        }
      ],
      "stateMutability": "view",
      "type": "function"
    },
    {
      "inputs": [
        {
          "internalType": "uint256",
          "name": "id",
          "type": "uint256"
        }
      ],
      "name": "markDefaulted",
      "outputs": [],
      "stateMutability": "nonpayable",
      "type": "function"
    },
    {
      "inputs": [],
      "name": "nextInvoiceId",
      "outputs": [
        {
          "internalType": "uint256",
          "name": "",
          "type": "uint256"
        }
      ],
      "stateMutability": "view",
      "type": "function"
    },
    {
      "inputs": [
        {
          "internalType": "uint256",
          "name": "id",
          "type": "uint256"
        }
      ],
      "name": "repayInvoice",
      "outputs": [],
      "stateMutability": "payable",
      "type": "function"
    }
  ],
  "bytecode": "0x608060405234801561001057600080fd5b5061134e806100206000396000f3fe60806040526004361061007b5760003560e01c8063732164501161004e578063732164501461012557806382c1041714610145578063b11b32d214610165578063b354983d1461019d57600080fd5b80631139de55146100805780634e6d1405146100b6578063559034df146100ec5780636ff2a95314610101575b600080fd5b34801561008c57600080fd5b506100a061009b366004610e4d565b6101b0565b6040516100ad9190610e66565b60405180910390f35b3480156100c257600080fd5b506100d66100d1366004610e4d565b61026c565b6040516100ad9a99989796959493929190610f0f565b6100ff6100fa366004610e4d565b610361565b005b34801561010d57600080fd5b5061011760005481565b6040519081526020016100ad565b34801561013157600080fd5b506100ff610140366004610e4d565b6106a1565b34801561015157600080fd5b50610117610160366004610fc5565b6107f6565b34801561017157600080fd5b50610117610180366004611076565b600360209081526000928352604080842090915290825290205481565b6100ff6101ab366004610e4d565b610aca565b6060816000808281526001602052604090206007015460ff1660048111156101da576101da610eb3565b036102005760405162461bcd60e51b81526004016101f7906110a2565b60405180910390fd5b6000838152600260209081526040918290208054835181840281018401909452808452909183018282801561025e57602002820191906000526020600020905b81546001600160a01b03168152600190910190602001808311610240575b505050505091505b50919050565b60016020819052600091825260409091208054918101546002820154600383015460048401546005850154600686015460078701546008880180546001600160a01b03988916999890971697959694959394929360ff909216926102cf906110d2565b80601f01602080910402602001604051908101604052809291908181526020018280546102fb906110d2565b80156103485780601f1061031d57610100808354040283529160200191610348565b820191906000526020600020905b81548152906001019060200180831161032b57829003601f168201915b505050600990930154919250506001600160a01b03168a565b806000808281526001602052604090206007015460ff16600481111561038957610389610eb3565b036103a65760405162461bcd60e51b81526004016101f7906110a2565b60008281526001602052604090206002015482906001600160a01b031633146104075760405162461bcd60e51b815260206004820152601360248201527213db9b1e48189d5e595c8818d85b8818d85b1b606a1b60448201526064016101f7565b60008381526001602052604090206002600782015460ff16600481111561043057610430610eb3565b146104725760405162461bcd60e51b8152602060048201526012602482015271125b9d9bda58d9481b9bdd08199d5b99195960721b60448201526064016101f7565b60006127108260060154836003015461048b919061111c565b6104959190611139565b82600301546104a4919061115b565b90508034146104f55760405162461bcd60e51b815260206004820152601a60248201527f496e636f72726563742072657061796d656e7420616d6f756e7400000000000060448201526064016101f7565b60078201805460ff191660031790556000858152600260205260408120805490915b8181101561065d5760008382815481106105335761053361116e565b60009182526020808320909101548b83526003825260408084206001600160a01b0390921680855291909252908220549092509081900361057557505061064b565b60008a81526003602081815260408084206001600160a01b038716855290915282208290558801546105a7833461111c565b6105b19190611139565b90506000836001600160a01b03168260405160006040518083038185875af1925050503d8060008114610600576040519150601f19603f3d011682016040523d82523d6000602084013e610605565b606091505b50509050806106465760405162461bcd60e51b815260206004820152600d60248201526c14185e5bdd5d0819985a5b1959609a1b60448201526064016101f7565b505050505b8061065581611184565b915050610517565b50867fe57c83410ab16d767654351928d1ea4b894f6c93e04e4e6408bd7d301dcd82db3460405161069091815260200190565b60405180910390a250505050505050565b806000808281526001602052604090206007015460ff1660048111156106c9576106c9610eb3565b036106e65760405162461bcd60e51b81526004016101f7906110a2565b60008281526001602052604090206002600782015460ff16600481111561070f5761070f610eb3565b148061073357506001600782015460ff16600481111561073157610731610eb3565b145b6107705760405162461bcd60e51b815260206004820152600e60248201526d10d85b9b9bdd08191959985d5b1d60921b60448201526064016101f7565b806005015442116107b75760405162461bcd60e51b81526020600482015260116024820152704e6f74207061737420647565206461746560781b60448201526064016101f7565b60078101805460ff1916600417905560405183907fdad3d8c24c5e0a13ffb0c0fa573014d3c4ba10367d5cba3549fa7c9ac18b93a490600090a2505050565b60006001600160a01b03881661083f5760405162461bcd60e51b815260206004820152600e60248201526d109d5e595c881c995c5d5a5c995960921b60448201526064016101f7565b600087116108845760405162461bcd60e51b81526020600482015260126024820152710416d6f756e74206d757374206265203e20360741b60448201526064016101f7565b4286116108d35760405162461bcd60e51b815260206004820152601a60248201527f4475652064617465206d75737420626520696e2066757475726500000000000060448201526064016101f7565b60016000808282546108e5919061115b565b92505081905550600080549050604051806101400160405280828152602001336001600160a01b031681526020018a6001600160a01b03168152602001898152602001600081526020018881526020018781526020016001600481111561094e5761094e610eb3565b815260200186868080601f01602080910402602001604051908101604052809392919081815260200183838082843760009201829052509385525050506001600160a01b038087166020938401528482526001808452604092839020855181559385015184820180549184166001600160a01b03199283161790559285015160028501805491909316931692909217905560608301516003830155608083015160048084019190915560a0840151600584015560c0840151600684015560e08401516007840180549193909260ff19909216918490811115610a3257610a32610eb3565b02179055506101008201516008820190610a4c9082611201565b506101209190910151600990910180546001600160a01b0319166001600160a01b03928316179055604051908a1690339083907f06d2a84410abbe5194267c8b6d1554aa8292266b54988855383145617c8795b890610ab6908d908d908d908d908d908d906112c1565b60405180910390a498975050505050505050565b806000808281526001602052604090206007015460ff166004811115610af257610af2610eb3565b03610b0f5760405162461bcd60e51b81526004016101f7906110a2565b600082815260016020819052604090912090600782015460ff166004811115610b3a57610b3a610eb3565b14610b795760405162461bcd60e51b815260206004820152600f60248201526e4e6f742066756e6472616973696e6760881b60448201526064016101f7565b60098101546001600160a01b031615610be85760098101546001600160a01b03163314610be85760405162461bcd60e51b815260206004820152601f60248201527f4f6e6c79206578636c757369766520696e766573746f7220616c6c6f7765640060448201526064016101f7565b60003411610c285760405162461bcd60e51b815260206004820152600d60248201526c139bc81d985b1d59481cd95b9d609a1b60448201526064016101f7565b8060030154348260040154610c3d919061115b565b1115610c795760405162461bcd60e51b815260206004820152600b60248201526a4f76657266756e64696e6760a81b60448201526064016101f7565b60008381526003602090815260408083203384529091528120549003610cc85760008381526002602090815260408220805460018101825590835291200180546001600160a01b031916331790555b600083815260036020908152604080832033845290915281208054349290610cf190849061115b565b9250508190555034816004016000828254610d0c919061115b565b90915550506004810154604080513481526020810192909252339185917f271dec505c61c970bdd791a963b7162d814edf6292f40c4beef2af1e48eea1e8910160405180910390a38060030154816004015403610e485760078101805460ff1916600217905560405183907f9548b965d6392cc4c2ca0c182c4a0fcc35a558cb167fba8bfea4b501eee20f5d90600090a2600181015460038201546040516000926001600160a01b031691908381818185875af1925050503d8060008114610df0576040519150601f19603f3d011682016040523d82523d6000602084013e610df5565b606091505b5050905080610e465760405162461bcd60e51b815260206004820152601760248201527f5472616e7366657220746f204d534d45206661696c656400000000000000000060448201526064016101f7565b505b505050565b600060208284031215610e5f57600080fd5b5035919050565b6020808252825182820181905260009190848201906040850190845b81811015610ea75783516001600160a01b031683529284019291840191600101610e82565b50909695505050505050565b634e487b7160e01b600052602160045260246000fd5b6000815180845260005b81811015610eef57602081850181015186830182015201610ed3565b506000602082860101526020601f19601f83011685010191505092915050565b8a81526001600160a01b038a8116602083015289166040820152606081018890526080810187905260a0810186905260c08101859052600061014060058610610f6857634e487b7160e01b600052602160045260246000fd5b8560e084015280610100840152610f8181840186610ec9565b915050610f9a6101208301846001600160a01b03169052565b9b9a5050505050505050505050565b80356001600160a01b0381168114610fc057600080fd5b919050565b600080600080600080600060c0888a031215610fe057600080fd5b610fe988610fa9565b9650602088013595506040880135945060608801359350608088013567ffffffffffffffff8082111561101b57600080fd5b818a0191508a601f83011261102f57600080fd5b81358181111561103e57600080fd5b8b602082850101111561105057600080fd5b60208301955080945050505061106860a08901610fa9565b905092959891949750929550565b6000806040838503121561108957600080fd5b8235915061109960208401610fa9565b90509250929050565b602080825260169082015275125b9d9bda58d948191bd95cc81b9bdd08195e1a5cdd60521b604082015260600190565b600181811c908216806110e657607f821691505b60208210810361026657634e487b7160e01b600052602260045260246000fd5b634e487b7160e01b600052601160045260246000fd5b808202811582820484141761113357611133611106565b92915050565b60008261115657634e487b7160e01b600052601260045260246000fd5b500490565b8082018082111561113357611133611106565b634e487b7160e01b600052603260045260246000fd5b60006001820161119657611196611106565b5060010190565b634e487b7160e01b600052604160045260246000fd5b601f821115610e4857600081815260208120601f850160051c810160208610156111da5750805b601f850160051c820191505b818110156111f9578281556001016111e6565b505050505050565b815167ffffffffffffffff81111561121b5761121b61119d565b61122f8161122984546110d2565b846111b3565b602080601f831160018114611264576000841561124c5750858301515b600019600386901b1c1916600185901b1785556111f9565b600085815260208120601f198616915b8281101561129357888601518255948401946001909101908401611274565b50858210156112b15787850151600019600388901b60f8161c191681555b5050505050600190811b01905550565b86815285602082015284604082015260a060608201528260a0820152828460c0830137600081840160c0908101919091526001600160a01b03929092166080820152601f909201601f19169091010194935050505056fea2646970667358221220d300a74a6a747175ffaca3e320247f3ee979d6c3640c0eab79c4e72d6e73223064736f6c63430008140033",
  "linkReferences": {},
  "deployedLinkReferences": {}
}