{
  "_format": "hh-sol-artifact-1",
  "contractName": "InvoiceMarketplace",
  "sourceName": "contracts/InvoiceMarketplace.sol",
  "abi": [
    {
      "inputs": [],
      "name": "ReentrancyGuard",
      "type": "error"
    },
    {
      "anonymous": false,
      "inputs": [
        {
          "indexed": true,
          "internalType": "uint256",
          "name": "id",
          "type": "uint256"
        },
        {
          "indexed": true,
          "internalType": "address",
          "name": "investor",
          "type": "address"
        },
        {
          "indexed": false,
          "internalType": "uint256",
          "name": "amount",
          "type": "uint256"
        },
        {
          "indexed": false,
          "internalType": "uint256",
          "name": "fundedAmount",
          "type": "uint256"
        }
      ],
      "name": "Invested",
      "type": "event"
    },
    {
      "anonymous": false,
      "inputs": [
        {
          "indexed": true,
          "internalType": "uint256",
          "name": "id",
          "type": "uint256"
        },
        {
          "indexed": true,
          "internalType": "address",
          "name": "buyer",
          "type": "address"
        }
      ],
      "name": "InvoiceConfirmed",
      "type": "event"
    },
    {
      "anonymous": false,
      "inputs": [
        {
          "indexed": true,
          "internalType": "uint256",
          "name": "id",
          "type": "uint256"
        },
        {
          "indexed": true,
          "internalType": "address",
          "name": "msme",
          "type": "address"
        },
        {
          "indexed": true,
          "internalType": "address",
          "name": "buyer",
          "type": "address"
        },
        {
          "indexed": false,
          "internalType": "uint256",
          "name": "amount",
          "type": "uint256"
        },
        {
          "indexed": false,
          "internalType": "uint256",
          "name": "dueDate",
          "type": "uint256"
        },
        {
          "indexed": false,
          "internalType": "uint256",
          "name": "discountRate",
          "type": "uint256"
        },
        {
          "indexed": false,
          "internalType": "string",
          "name": "metadataURI",
          "type": "string"
        },
        {
          "indexed": false,
          "internalType": "address",
          "name": "exclusiveInvestor",
          "type": "address"
        }
      ],
      "name": "InvoiceCreated",
      "type": "event"
    },
    {
      "anonymous": false,
      "inputs": [
        {
          "indexed": true,
          "internalType": "uint256",
          "name": "id",
          "type": "uint256"
        }
      ],
      "name": "InvoiceDefaulted",
      "type": "event"
    },
    {
      "anonymous": false,
      "inputs": [
        {
          "indexed": true,
          "internalType": "uint256",
          "name": "id",
          "type": "uint256"
        }
      ],
      "name": "InvoiceFunded",
      "type": "event"
    },
    {
      "anonymous": false,
      "inputs": [
        {
          "indexed": true,
          "internalType": "uint256",
          "name": "id",
          "type": "uint256"
        },
        {
          "indexed": false,
          "internalType": "uint256",
          "name": "totalRepaid",
          "type": "uint256"
        }
      ],
      "name": "InvoiceRepaid",
      "type": "event"
    },
    {
      "anonymous": false,
      "inputs": [
        {
          "indexed": true,
          "internalType": "uint256",
          "name": "id",
          "type": "uint256"
        },
        {
          "indexed": true,
          "internalType": "address",
          "name": "investor",
          "type": "address"
        },
        {
          "indexed": false,
          "internalType": "uint256",
          "name": "amount",
          "type": "uint256"
        }
      ],
      "name": "RefundClaimed",
      "type": "event"
    },
    {
      "anonymous": false,
      "inputs": [
        {
          "indexed": true,
          "internalType": "uint256",
          "name": "id",
          "type": "uint256"
        },
        {
          "indexed": true,
          "internalType": "address",
          "name": "investor",
          "type": "address"
        },
        {
          "indexed": false,
          "internalType": "uint256",
          "name": "amount",
          "type": "uint256"
        }
      ],
      "name": "RepaymentClaimed",
      "type": "event"
    },
    {
      "inputs": [
        {
          "internalType": "uint256",
          "name": "id",
          "type": "uint256"
        }
      ],
      "name": "claimRefund",
      "outputs": [],
      "stateMutability": "nonpayable",
      "type": "function"
    },
    {
      "inputs": [
        {
          "internalType": "uint256",
          "name": "id",
          "type": "uint256"
        }
      ],
      "name": "claimRepayment",
      "outputs": [],
      "stateMutability": "nonpayable",
      "type": "function"
    },
    {
      "inputs": [
        {
          "internalType": "uint256",
          "name": "id",
          "type": "uint256"
        }
      ],
      "name": "confirmInvoice",
      "outputs": [],
      "stateMutability": "nonpayable",
      "type": "function"
    },
    {
      "inputs": [
        {
          "internalType": "address",
          "name": "buyer",
          "type": "address"
        },
        {
          "internalType": "uint256",
          "name": "amount",
          "type": "uint256"
        },
        {
          "internalType": "uint256",
          "name": "dueDate",
          "type": "uint256"
        },
        {
          "internalType": "uint256",
          "name": "discountRate",
          "type": "uint256"
        },
        {
          "internalType": "string",
          "name": "metadataURI",
          "type": "string"
        },
        {
          "internalType": "address",
          "name": "exclusiveInvestor",
          "type": "address"
        }
      ],
      "name": "createInvoice",
      "outputs": [
        {
          "internalType": "uint256",
          "name": "",
          "type": "uint256"
        }
      ],
      "stateMutability": "nonpayable",
      "type": "function"
    },
    {
      "inputs": [
        {
          "internalType": "uint256",
          "name": "id",
          "type": "uint256"
        }
      ],
      "name": "getInvestors",
      "outputs": [
        {
          "internalType": "address[]",
          "name": "",
          "type": "address[]"
        }
      ],
      "stateMutability": "view",
      "type": "function"
    },
    {
      "inputs": [
        {
          "internalType": "address",
          "name": "_invoiceNFT",
          "type": "address"
        }
      ],
      "name": "initialize",
      "outputs": [],
      "stateMutability": "nonpayable",
      "type": "function"
    },
    {
      "inputs": [
        {
          "internalType": "uint256",
          "name": "id",
          "type": "uint256"
        }
      ],
      "name": "investInInvoice",
      "outputs": [],
      "stateMutability": "payable",
      "type": "function"
    },
    {
      "inputs": [
        {
          "internalType": "uint256",
          "name": "",
          "type": "uint256"
        },
        {
          "internalType": "address",
          "name": "",
          "type": "address"
        }
      ],
      "name": "investments",
      "outputs": [
        {
          "internalType": "uint256",
          "name": "",
          "type": "uint256"
        }
      ],
      "stateMutability": "view",
      "type": "function"
    },
    {
      "inputs": [],
      "name": "invoiceNFT",
      "outputs": [
        {
          "internalType": "contract InvoiceNFT",
          "name": "",
          "type": "address"
        }
      ],
      "stateMutability": "view",
      "type": "function"
    },
    {
      "inputs": [
        {
          "internalType": "uint256",
          "name": "",
          "type": "uint256"
        }
      ],
      "name": "invoices",
      "outputs": [
        {
          "internalType": "uint256",
          "name": "id",
          "type": "uint256"
        },
        {
          "internalType": "address",
          "name": "msme",
          "type": "address"
        },
        {
          "internalType": "address",
          "name": "buyer",
          "type": "address"
        },
        {
          "internalType": "uint256",
          "name": "amount",
          "type": "uint256"
        },
        {
          "internalType": "uint256",
          "name": "fundedAmount",
          "type": "uint256"
        },
        {
          "internalType": "uint256",
          "name": "dueDate",
          "type": "uint256"
        },
        {
          "internalType": "uint256",
          "name": "discountRate",
          "type": "uint256"
        },
        {
          "internalType": "enum InvoiceMarketplace.Status",
          "name": "status",
          "type": "uint8"
        },
        {
          "internalType": "string",
          "name": "metadataURI",
          "type": "string"
        },
        {
          "internalType": "address",
          "name": "exclusiveInvestor",
          "type": "address"
        }
      ],
      "stateMutability": "view",
      "type": "function"
    },
    {
      "inputs": [
        {
          "internalType": "uint256",
          "name": "id",
          "type": "uint256"
        }
      ],
      "name": "markDefaulted",
      "outputs": [],
      "stateMutability": "nonpayable",
      "type": "function"
    },
    {
      "inputs": [
        {
          "internalType": "uint256",
          "name": "id",
          "type": "uint256"
        }
      ],
      "name": "markRepaid",
      "outputs": [],
      "stateMutability": "nonpayable",
      "type": "function"
    },
    {
      "inputs": [],
      "name": "nextInvoiceId",
      "outputs": [
        {
          "internalType": "uint256",
          "name": "",
          "type": "uint256"
        }
      ],
      "stateMutability": "view",
      "type": "function"
    },
    {
      "inputs": [],
      "name": "owner",
      "outputs": [
        {
          "internalType": "address",
          "name": "",
          "type": "address"
        }
      ],
      "stateMutability": "view",
      "type": "function"
    },
    {
      "inputs": [
        {
          "internalType": "address",
          "name": "_invoiceNFT",
          "type": "address"
        }
      ],
      "name": "setInvoiceNFT",
      "outputs": [],
      "stateMutability": "nonpayable",
      "type": "function"
    },
    {
      "inputs": [
        {
          "internalType": "uint256",
          "name": "",
          "type": "uint256"
        }
      ],
      "name": "totalRepaid",
      "outputs": [
        {
          "internalType": "uint256",
          "name": "",
          "type": "uint256"
        }
      ],
      "stateMutability": "view",
      "type": "function"
    },
    {
      "inputs": [
        {
          "internalType": "uint256",
          "name": "",
          "type": "uint256"
        }
      ],
      "name": "totalRepaidForInvestors",
      "outputs": [
        {
          "internalType": "uint256",
          "name": "",
          "type": "uint256"
        }
      ],
      "stateMutability": "view",
      "type": "function"
    },
    {
      "inputs": [
        {
          "internalType": "address",
          "name": "newOwner",
          "type": "address"
        }
      ],
      "name": "transferOwnership",
      "outputs": [],
      "stateMutability": "nonpayable",
      "type": "function"
    },
    {
      "stateMutability": "payable",
      "type": "receive"
    }
  ],
  "bytecode": "0x60808060405234601557611991908161001b8239f35b600080fdfe6080604052600436101561001b575b361561001957600080fd5b005b6000803560e01c8062d878e8146115085780631139de55146114285780633b97f0da146113fe5780634bb6f06d146113d55780634e6d1405146112425780635b7baf641461107a5780635e78670e14610f455780635eaeafc914610f1b5780636ff2a95314610efe5780637321645014610df057806382c104171461088d5780638da5cb5b14610864578063b11b32d214610811578063b354983d14610461578063c4d66de8146103be578063c701c994146101cc578063f2fde38b146101475763f939f496146100ec575061000e565b3461014457602036600319011261014457610105611782565b61011a60018060a01b03600654163314611923565b6001600160a01b031661012e8115156118ec565b6001600160601b0360a01b600754161760075580f35b80fd5b503461014457602036600319011261014457610161611782565b60065490610179336001600160a01b03841614611923565b6001600160a01b031690811561019a576001600160a01b0319161760065580f35b60405162461bcd60e51b815260206004820152600a6024820152694f776e6572207a65726f60b01b6044820152606490fd5b503461014457602036600319011261014457600435808252600160205260ff60076040842001541660068110156103aa5761020890151561179d565b808252600160205260408220600781019060ff82541660068110156103965760030361035c57600754604051638e1eb41160e01b81526004810185905290602090829060249082906001600160a01b03165afa908115610351578591610312575b50156102dc576102b86020917fe57c83410ab16d767654351928d1ea4b894f6c93e04e4e6408bd7d301dcd82db93600460ff1982541617905561271060066003830154920154820204906118a8565b8385526004825280604086205583855260058252806040862055604051908152a280f35b60405162461bcd60e51b815260206004820152600e60248201526d139195081b9bdd081c995c185a5960921b6044820152606490fd5b90506020813d602011610349575b8161032d6020938361174a565b81010312610345575180151581036103455738610269565b8480fd5b3d9150610320565b6040513d87823e3d90fd5b60405162461bcd60e51b8152602060048201526012602482015271125b9d9bda58d9481b9bdd08199d5b99195960721b6044820152606490fd5b634e487b7160e01b85526021600452602485fd5b634e487b7160e01b83526021600452602483fd5b5034610144576020366003190112610144576103d8611782565b6007549060ff8260a01c16610426576001600160a01b03166103fb8115156118ec565b600680546001600160a01b031916331790556001600160a81b031990911617600160a01b1760075580f35b60405162461bcd60e51b8152602060048201526013602482015272105b1c9958591e481a5b9a5d1a585b1a5e9959606a1b6044820152606490fd5b5060203660031901126101445760043590818152600160205260ff60076040832001541660068110156107fd5761049990151561179d565b60075460ff8160a81c166107ee5760ff60a81b1916600160a81b176007908155828252600160205260408220908101805490939060ff1660068110156107da5760026104e5911461186a565b600582015442116107a35760098201546001600160a01b031680610752575b50341561071d57600482019361051b3486546118a8565b60038401908154106106ea57828552600360209081526040808720336000908152925290205415610674575b849583865260036020526040862060018060a01b03331660005260205260406000206105743482546118a8565b90556105813482546118a8565b809155604051348152816020820152847f271dec505c61c970bdd791a963b7162d814edf6292f40c4beef2af1e48eea1e860403393a38154146105d0575b6007805460ff60a81b191690558480f35b849384938493600360ff198254161790557f9548b965d6392cc4c2ca0c182c4a0fcc35a558cb167fba8bfea4b501eee20f5d8480a2600101549054906001600160a01b03165af161061f61183a565b501561062f5780388080806105bf565b60405162461bcd60e51b815260206004820152601760248201527f5472616e7366657220746f204d534d45206661696c65640000000000000000006044820152606490fd5b828552600260205260408520958654680100000000000000008110156106d657600181018089558110156106c257968652602086209690960180546001600160a01b03191633179055610547565b634e487b7160e01b87526032600452602487fd5b634e487b7160e01b87526041600452602487fd5b60405162461bcd60e51b815260206004820152600b60248201526a4f76657266756e64696e6760a81b6044820152606490fd5b60405162461bcd60e51b815260206004820152600d60248201526c139bc81d985b1d59481cd95b9d609a1b6044820152606490fd5b330361075e5738610504565b60405162461bcd60e51b815260206004820152601f60248201527f4f6e6c79206578636c757369766520696e766573746f7220616c6c6f776564006044820152606490fd5b60405162461bcd60e51b815260206004820152600f60248201526e125b9d9bda58d948195e1c1a5c9959608a1b6044820152606490fd5b634e487b7160e01b84526021600452602484fd5b6345f5ce8b60e11b8252600482fd5b634e487b7160e01b82526021600452602482fd5b503461014457604036600319011261014457602435906001600160a01b03821682036101445760409060043581526003602052209060018060a01b03166000526020526020604060002054604051908152f35b50346101445780600319360112610144576006546040516001600160a01b039091168152602090f35b50346101445760c0366003190112610144576108a7611782565b906084359067ffffffffffffffff821161014457366023830112156101445767ffffffffffffffff826004013511610144573660248360040135840101116101445760a435916001600160a01b0383168303610dec576001600160a01b03841615610db65760243515610d7c57426044351115610d3757815492600184018411610d2357600184018355604051610140810181811067ffffffffffffffff821117610d0f5760405260018501815260208101903382526040810160018060a01b03881681526060820160243581526080830187815260a08401604435815260c0850191606435835260e0860193600185526109a58a6004013561181e565b956109b3604051978861174a565b60048b013580885260248c0160208901378b60208c6004013589010152610100880196875260018060a01b038a1661012089015260018d018c52600160205260408c209888518a5560018060a01b0390511660018a019060018060a01b03166001600160601b0360a01b82541617905560018060a01b03905116600289019060018060a01b03166001600160601b0360a01b8254161790555160038801555160048701555160058601555160068501556007840190516006811015610cfb5760ff801983541691161790555180519067ffffffffffffffff82116106d657610a9e6008850154611710565b601f8111610cb3575b50602090601f8311600114610c44576009939291889183610c39575b50508160011b916000199060031b1c19161760088401555b61012060018060a01b039101511691019060018060a01b03166001600160601b0360a01b82541617905560405160243581526044356020820152606435604082015260a06060820152610b3960a082018460040135602486016118cb565b6001600160a01b03928316608083015291861691339160018701917f06d2a84410abbe5194267c8b6d1554aa8292266b54988855383145617c8795b8919081900390a46007546001600160a01b03169081610b9d575b602084600160405191018152f35b813b15610c35578291610be79183604051809881958294632253091b60e11b845233600485015260018b01602485015260a0604485015260a48401906024816004013591016118cb565b60243560648401526001600160a01b03909116608483015203925af1928315610c2857602093610c18575b80610b8f565b81610c229161174a565b38610c12565b50604051903d90823e3d90fd5b8280fd5b015190503880610ac3565b9060088501885280882091885b601f1985168110610c9b575091839160019360099695601f19811610610c82575b505050811b016008840155610adb565b015160001960f88460031b161c19169055388080610c72565b91926020600181928685015181550194019201610c51565b60088501885260208820601f840160051c81019160208510610cf1575b601f0160051c01905b818110610ce65750610aa7565b888155600101610cd9565b9091508190610cd0565b634e487b7160e01b88526021600452602488fd5b634e487b7160e01b85526041600452602485fd5b634e487b7160e01b83526011600452602483fd5b60405162461bcd60e51b815260206004820152601a60248201527f4475652064617465206d75737420626520696e206675747572650000000000006044820152606490fd5b60405162461bcd60e51b81526020600482015260126024820152710416d6f756e74206d757374206265203e20360741b6044820152606490fd5b60405162461bcd60e51b815260206004820152600e60248201526d109d5e595c881c995c5d5a5c995960921b6044820152606490fd5b5080fd5b503461014457602036600319011261014457600435808252600160205260ff60076040842001541660068110156103aa57610e2c90151561179d565b808252600160205260408220600781019060ff825416600681101561039657600303610ec85760050154421115610e8f57805460ff191660051790557fdad3d8c24c5e0a13ffb0c0fa573014d3c4ba10367d5cba3549fa7c9ac18b93a48280a280f35b60405162461bcd60e51b81526020600482015260116024820152704e6f74207061737420647565206461746560781b6044820152606490fd5b60405162461bcd60e51b815260206004820152600e60248201526d10d85b9b9bdd08191959985d5b1d60921b6044820152606490fd5b503461014457806003193601126101445760209054604051908152f35b50346101445760203660031901126101445760406020916004358152600583522054604051908152f35b503461014457602036600319011261014457600435808252600160205260ff60076040842001541660068110156103aa57610f8190151561179d565b808252600160205260408220600201546001600160a01b0316330361103f578082526001602052604082206007810160ff81541660068110156103965760010361100657805460ff1916600290811790915501546001600160a01b0316907f5ad1f83fed722a2f75a27916c297196db29e3d208589663ebe1fef5ab880ad508380a380f35b60405162461bcd60e51b81526020600482015260116024820152702bb0b4ba34b733903337b910213abcb2b960791b6044820152606490fd5b60405162461bcd60e51b815260206004820152601360248201527213db9b1e48189d5e595c8818d85b8818d85b1b606a1b6044820152606490fd5b503461014457602036600319011261014457600435808252600160205260ff60076040842001541660068110156103aa576110b690151561179d565b60075460ff8160a81c166112335760ff60a81b1916600160a81b1760079081558183526001602052604083209081015490919060ff1660068110156107da576002611101911461186a565b60058201544211156111f857808352600360209081526040808520338652909152832054916004906111348415156117e2565b8285526003602090815260408087203388529091528520859055018054838103919082116111e457558280808085335af161116d61183a565b50156111af576040519182527ff3f402280ef0a7905e124aa621b65eaeb2725c343e8b36d398ed78c29daf285c60203393a36007805460ff60a81b1916905580f35b60405162461bcd60e51b815260206004820152600d60248201526c1499599d5b990819985a5b1959609a1b6044820152606490fd5b634e487b7160e01b85526011600452602485fd5b60405162461bcd60e51b8152602060048201526013602482015272125b9d9bda58d9481b9bdd08195e1c1a5c9959606a1b6044820152606490fd5b6345f5ce8b60e11b8352600483fd5b503461014457602036600319011261014457600435815260016020526040812080549160018060a01b036001830154169060018060a01b036002840154166003840154600485015460058601549060068701549260ff600789015416946008890198604051998a898254926112b684611710565b80845293600181169081156113b35750600114611373575b506112db9250038b61174a565b600960018060a01b0391015416976040519a8b5260208b015260408a01526060890152608088015260a087015260c086015260068110156107fd5791849260e084015261014061010084015283519182610140850152805b83811061135a57506101608095508385010152610120830152601f80199101168101030190f35b6020868201810151610160898401015287955001611333565b8b525060208a2090918a915b8183106113985750509060206112db92820101386112ce565b80602092948385600194549201015201910190918c9261137f565b9050602092506112db94915060ff191682840152151560051b820101386112ce565b50346101445780600319360112610144576007546040516001600160a01b039091168152602090f35b50346101445760203660031901126101445760406020916004358152600483522054604051908152f35b503461014457602036600319011261014457600435808252600160205260ff60076040842001541660068110156103aa5761146490151561179d565b8152600260205260408120604051908160208254918281520190819285526020852090855b8181106114e9575050508261149f91038361174a565b604051928392602084019060208552518091526040840192915b8181106114c7575050500390f35b82516001600160a01b03168452859450602093840193909201916001016114b9565b82546001600160a01b0316845260209093019260019283019201611489565b503461014457602036600319011261014457600435808252600160205260ff60076040842001541660068110156103aa5761154490151561179d565b60075460ff8160a81c166112335760ff60a81b1916600160a81b1760079081558183526001602052604083209081015460ff1660068110156107da576004036116d657818352600360209081526040808520338652909152832054906115ab8215156117e2565b828452600560205260408420549182156116a65780830292830403611692576003015490811561167e57049080835260036020526040832060018060a01b03331684526020528260408120558280808085335af161160761183a565b5015611649576040519182527fce6a22bbf33075e9460462739ab01c9d01afbe41eb32f517824218012b2e656e60203393a36007805460ff60a81b1916905580f35b60405162461bcd60e51b815260206004820152600d60248201526c14185e5bdd5d0819985a5b1959609a1b6044820152606490fd5b634e487b7160e01b84526012600452602484fd5b634e487b7160e01b84526011600452602484fd5b60405162461bcd60e51b81526020600482015260086024820152674e6f2066756e647360c01b6044820152606490fd5b60405162461bcd60e51b8152602060048201526012602482015271125b9d9bda58d9481b9bdd081c995c185a5960721b6044820152606490fd5b90600182811c92168015611740575b602083101461172a57565b634e487b7160e01b600052602260045260246000fd5b91607f169161171f565b90601f8019910116810190811067ffffffffffffffff82111761176c57604052565b634e487b7160e01b600052604160045260246000fd5b600435906001600160a01b038216820361179857565b600080fd5b156117a457565b60405162461bcd60e51b8152602060048201526016602482015275125b9d9bda58d948191bd95cc81b9bdd08195e1a5cdd60521b6044820152606490fd5b156117e957565b60405162461bcd60e51b815260206004820152600d60248201526c139bc81a5b9d995cdd1b595b9d609a1b6044820152606490fd5b67ffffffffffffffff811161176c57601f01601f191660200190565b3d15611865573d9061184b8261181e565b91611859604051938461174a565b82523d6000602084013e565b606090565b1561187157565b60405162461bcd60e51b815260206004820152600f60248201526e4e6f742066756e6472616973696e6760881b6044820152606490fd5b919082018092116118b557565b634e487b7160e01b600052601160045260246000fd5b908060209392818452848401376000828201840152601f01601f1916010190565b156118f357565b60405162461bcd60e51b81526020600482015260086024820152674e4654207a65726f60c01b6044820152606490fd5b1561192a57565b60405162461bcd60e51b81526020600482015260096024820152682737ba1037bbb732b960b91b6044820152606490fdfea26469706673582212200cfa8ba13ba93ae4fa1852781f41f0f24ff646df5589fc2eafd5b5c8aef63e5064736f6c634300081a0033",
  "linkReferences": {},
  "deployedLinkReferences": {}
}