{
  "_format": "hh-sol-artifact-1",
  "contractName": "StakingRewards",
  "sourceName": "contracts/StakingRewards.sol",
  "abi": [
    {
      "inputs": [
        {
          "internalType": "address",
          "name": "_stakingToken",
          "type": "address"
        }
      ],
      "stateMutability": "nonpayable",
      "type": "constructor"
    },
    {
      "inputs": [],
      "name": "ReentrancyGuardReentrantCall",
      "type": "error"
    },
    {
      "anonymous": false,
      "inputs": [
        {
          "indexed": true,
          "internalType": "address",
          "name": "user",
          "type": "address"
        },
        {
          "indexed": false,
          "internalType": "uint256",
          "name": "reward",
          "type": "uint256"
        }
      ],
      "name": "RewardPaid",
      "type": "event"
    },
    {
      "anonymous": false,
      "inputs": [
        {
          "indexed": false,
          "internalType": "uint256",
          "name": "amount",
          "type": "uint256"
        }
      ],
      "name": "RewardsAdded",
      "type": "event"
    },
    {
      "anonymous": false,
      "inputs": [
        {
          "indexed": true,
          "internalType": "address",
          "name": "user",
          "type": "address"
        },
        {
          "indexed": false,
          "internalType": "uint256",
          "name": "amount",
          "type": "uint256"
        }
      ],
      "name": "Staked",
      "type": "event"
    },
    {
      "anonymous": false,
      "inputs": [
        {
          "indexed": true,
          "internalType": "address",
          "name": "user",
          "type": "address"
        },
        {
          "indexed": false,
          "internalType": "uint256",
          "name": "amount",
          "type": "uint256"
        }
      ],
      "name": "Withdrawn",
      "type": "event"
    },
    {
      "inputs": [
        {
          "internalType": "address",
          "name": "",
          "type": "address"
        }
      ],
      "name": "balances",
      "outputs": [
        {
          "internalType": "uint256",
          "name": "",
          "type": "uint256"
        }
      ],
      "stateMutability": "view",
      "type": "function"
    },
    {
      "inputs": [
        {
          "internalType": "address",
          "name": "account",
          "type": "address"
        }
      ],
      "name": "earned",
      "outputs": [
        {
          "internalType": "uint256",
          "name": "",
          "type": "uint256"
        }
      ],
      "stateMutability": "view",
      "type": "function"
    },
    {
      "inputs": [],
      "name": "exit",
      "outputs": [],
      "stateMutability": "nonpayable",
      "type": "function"
    },
    {
      "inputs": [],
      "name": "getReward",
      "outputs": [],
      "stateMutability": "nonpayable",
      "type": "function"
    },
    {
      "inputs": [],
      "name": "notifyRewardAmount",
      "outputs": [],
      "stateMutability": "payable",
      "type": "function"
    },
    {
      "inputs": [],
      "name": "rewardPerToken",
      "outputs": [
        {
          "internalType": "uint256",
          "name": "",
          "type": "uint256"
        }
      ],
      "stateMutability": "view",
      "type": "function"
    },
    {
      "inputs": [],
      "name": "rewardPerTokenStored",
      "outputs": [
        {
          "internalType": "uint256",
          "name": "",
          "type": "uint256"
        }
      ],
      "stateMutability": "view",
      "type": "function"
    },
    {
      "inputs": [
        {
          "internalType": "address",
          "name": "",
          "type": "address"
        }
      ],
      "name": "rewards",
      "outputs": [
        {
          "internalType": "uint256",
          "name": "",
          "type": "uint256"
        }
      ],
      "stateMutability": "view",
      "type": "function"
    },
    {
      "inputs": [
        {
          "internalType": "uint256",
          "name": "amount",
          "type": "uint256"
        }
      ],
      "name": "stake",
      "outputs": [],
      "stateMutability": "nonpayable",
      "type": "function"
    },
    {
      "inputs": [],
      "name": "stakingToken",
      "outputs": [
        {
          "internalType": "contract IERC20",
          "name": "",
          "type": "address"
        }
      ],
      "stateMutability": "view",
      "type": "function"
    },
    {
      "inputs": [],
      "name": "totalSupply",
      "outputs": [
        {
          "internalType": "uint256",
          "name": "",
          "type": "uint256"
        }
      ],
      "stateMutability": "view",
      "type": "function"
    },
    {
      "inputs": [
        {
          "internalType": "address",
          "name": "",
          "type": "address"
        }
      ],
      "name": "userRewardPerTokenPaid",
      "outputs": [
        {
          "internalType": "uint256",
          "name": "",
          "type": "uint256"
        }
      ],
      "stateMutability": "view",
      "type": "function"
    },
    {
      "inputs": [
        {
          "internalType": "uint256",
          "name": "amount",
          "type": "uint256"
        }
      ],
      "name": "withdraw",
      "outputs": [],
      "stateMutability": "nonpayable",
      "type": "function"
    },
    {
      "stateMutability": "payable",
      "type": "receive"
    }
  ],
  "bytecode": "0x60a0346100d157601f610d1838819003918201601f19168301916001600160401b038311848410176100d6578084926020946040528339810103126100d157516001600160a01b038116908190036100d1576001600055801561008c57608052604051610c2b90816100ed823960805181818161014701528181610472015281816105ea01526107c90152f35b60405162461bcd60e51b815260206004820152601560248201527f5374616b696e6720746f6b656e206973207a65726f00000000000000000000006044820152606490fd5b600080fd5b634e487b7160e01b600052604160045260246000fdfe60406080815260048036101561001f575b5050361561001d57600080fd5b005b600091823560e01c80628cc262146109cf5780630700037d146109955780630c51dde41461097b57806318160ddd1461095c57806327e235e3146109225780632e1a7d4d146107475780633d18b9121461061957806372f702f3146105d55780638b8763471461059b578063a694fc3a146103fb578063cd3daf9d146103d8578063df136d65146103d85763e9fad8ee146100ba5750610010565b346103d457826003193601126103d45733835260209060028252808420546100e0610bd2565b33151590816103b1575b801561037a57338652600284528083872054106103405761010d81600154610a07565b60015533865260028452828620610125828254610a07565b9055825163a9059cbb60e01b815233868201526024810182905284816044818a7f00000000000000000000000000000000000000000000000000000000000000006001600160a01b03165af1908115610336578791610309575b50156102cb5782519081527f7084f5476618d8e60b11ef0d7d3f06914655adb8793e28ff7f018d4c76d505d5843392a2600185556101bb610bd2565b6102a8575b338452600582528084209284845494856101dd575b506001815580f35b558480808087335af13d156102a3573d67ffffffffffffffff811161029057835190610212601f8201601f1916870183610b7d565b815286853d92013e5b156102565750907fe2403640ba68fed3a2f88b7557551d1993f84b99bb10ff833f0cf8db0c5e048691519283523392a23880808084816101d5565b82606492519162461bcd60e51b8352820152601660248201527514995dd85c99081d1c985b9cd9995c8819985a5b195960521b6044820152fd5b634e487b7160e01b875260418352602487fd5b61021b565b6102b133610a37565b3385526005835281852055600354838352818520556101c0565b50505162461bcd60e51b815291820152601860248201527715da5d1a191c985dc81d1c985b9cd9995c8819985a5b195960421b604482015260649150fd5b6103299150853d871161032f575b6103218183610b7d565b810190610bb5565b3861017f565b503d610317565b84513d89823e3d90fd5b50505162461bcd60e51b8152918201526014602482015273496e73756666696369656e742062616c616e636560601b604482015260649150fd5b50505162461bcd60e51b8152918201526011602482015270043616e6e6f74207769746864726177203607c1b604482015260649150fd5b6103ba33610a37565b3387526005855283872055600354858552838720556100ea565b8280fd5b8382346103f757816003193601126103f7576020906003549051908152f35b5080fd5b50346103d457602090816003193601126105975782359261041a610bd2565b33610574575b83156105425761043284600154610a2a565b6001553385526002835281852061044a858254610a2a565b905581516323b872dd60e01b81523382820152306024820152604481018590528381606481897f00000000000000000000000000000000000000000000000000000000000000006001600160a01b03165af190811561053857869161051b575b50156104e25750907f9e71bc8eea02a63969f509818f2dafb9254532904319f9dbda79b67bd34a5f3d91519283523392a26001815580f35b82606492519162461bcd60e51b8352820152601560248201527414dd185ad9481d1c985b9cd9995c8819985a5b1959605a1b6044820152fd5b6105329150843d861161032f576103218183610b7d565b386104aa565b83513d88823e3d90fd5b82606492519162461bcd60e51b8352820152600e60248201526d043616e6e6f74207374616b6520360941b6044820152fd5b61057d33610a37565b338652600584528286205560035481845282862055610420565b8380fd5b5090346103d45760203660031901126103d45780356001600160a01b03811690819003610597579282916020948252845220549051908152f35b8382346103f757816003193601126103f757517f00000000000000000000000000000000000000000000000000000000000000006001600160a01b03168152602090f35b50346103d457826003193601126103d457610632610bd2565b33610722575b338352600560205280832091838354938461065557506001815580f35b558380808086335af13d1561071d573d67ffffffffffffffff811161070a5783519061068b601f8201601f191660200183610b7d565b81528560203d92013e5b156106cf5750519081527fe2403640ba68fed3a2f88b7557551d1993f84b99bb10ff833f0cf8db0c5e048660203392a238808083816101d5565b6020606492519162461bcd60e51b8352820152601660248201527514995dd85c99081d1c985b9cd9995c8819985a5b195960521b6044820152fd5b634e487b7160e01b865260418352602486fd5b610695565b61072b33610a37565b3384526005602052818420556003548260205281842055610638565b50346103d4576020908160031936011261059757823592610766610bd2565b336108ff575b83156108ca57338552600283528382862054106108925761078f84600154610a07565b600155338552600283528185206107a7858254610a07565b9055815163a9059cbb60e01b81523382820152602481018590528381604481897f00000000000000000000000000000000000000000000000000000000000000006001600160a01b03165af1908115610538578691610875575b50156108395750907f7084f5476618d8e60b11ef0d7d3f06914655adb8793e28ff7f018d4c76d505d591519283523392a26001815580f35b82606492519162461bcd60e51b8352820152601860248201527715da5d1a191c985dc81d1c985b9cd9995c8819985a5b195960421b6044820152fd5b61088c9150843d861161032f576103218183610b7d565b38610801565b82606492519162461bcd60e51b83528201526014602482015273496e73756666696369656e742062616c616e636560601b6044820152fd5b82606492519162461bcd60e51b83528201526011602482015270043616e6e6f74207769746864726177203607c1b6044820152fd5b61090833610a37565b33865260058452828620556003548184528286205561076c565b5090346103d45760203660031901126103d457356001600160a01b038116908190036103d457828291602094526002845220549051908152f35b8382346103f757816003193601126103f7576020906001549051908152f35b83806003193601126109925761098f610abe565b80f35b80fd5b5090346103d45760203660031901126103d457356001600160a01b038116908190036103d457828291602094526005845220549051908152f35b5090346103d45760203660031901126103d45735916001600160a01b03831683036109925750610a00602092610a37565b9051908152f35b91908203918211610a1457565b634e487b7160e01b600052601160045260246000fd5b91908201809211610a1457565b6001600160a01b031660008181526002602052604081205490918115610aaf576004602052610a6c6040842054600354610a07565b80830292830403610a9b57670de0b6b3a76400008392604092610a989552600560205204912054610a2a565b90565b634e487b7160e01b83526011600452602483fd5b50506040906005602052205490565b3415610b4c576001548015610b1f57670de0b6b3a7640000908134029134830403610a1457610af09104600354610a2a565b6003557ff8fad42e780bfa5459be3fe691e8ba1aec70342250112139c5771c3fd155f3126020604051348152a1565b507ff8fad42e780bfa5459be3fe691e8ba1aec70342250112139c5771c3fd155f3126020604051348152a1565b60405162461bcd60e51b8152602060048201526009602482015268139bc81c995dd85c9960ba1b6044820152606490fd5b90601f8019910116810190811067ffffffffffffffff821117610b9f57604052565b634e487b7160e01b600052604160045260246000fd5b90816020910312610bcd57518015158103610bcd5790565b600080fd5b600260005414610be3576002600055565b604051633ee5aeb560e01b8152600490fdfea2646970667358221220b9945e8971402d9a6612d3009dd2ebd22c2a74df3609157a2806cc6fae9c29b964736f6c63430008160033",
  "linkReferences": {},
  "deployedLinkReferences": {}
}