{
  "_format": "hh-sol-artifact-1",
  "contractName": "StakingRewards",
  "sourceName": "contracts/StakingRewards.sol",
  "abi": [
    {
      "inputs": [
        {
          "internalType": "address",
          "name": "_stakingToken",
          "type": "address"
        }
      ],
      "stateMutability": "nonpayable",
      "type": "constructor"
    },
    {
      "inputs": [],
      "name": "InsufficientBalance",
      "type": "error"
    },
    {
      "inputs": [],
      "name": "NoStakers",
      "type": "error"
    },
    {
      "inputs": [
        {
          "internalType": "address",
          "name": "token",
          "type": "address"
        }
      ],
      "name": "SafeERC20FailedOperation",
      "type": "error"
    },
    {
      "inputs": [],
      "name": "TransferFailed",
      "type": "error"
    },
    {
      "inputs": [],
      "name": "ZeroAmount",
      "type": "error"
    },
    {
      "anonymous": false,
      "inputs": [
        {
          "indexed": true,
          "internalType": "address",
          "name": "user",
          "type": "address"
        },
        {
          "indexed": false,
          "internalType": "uint256",
          "name": "reward",
          "type": "uint256"
        }
      ],
      "name": "RewardPaid",
      "type": "event"
    },
    {
      "anonymous": false,
      "inputs": [
        {
          "indexed": false,
          "internalType": "uint256",
          "name": "amount",
          "type": "uint256"
        }
      ],
      "name": "RewardsAdded",
      "type": "event"
    },
    {
      "anonymous": false,
      "inputs": [
        {
          "indexed": true,
          "internalType": "address",
          "name": "user",
          "type": "address"
        },
        {
          "indexed": false,
          "internalType": "uint256",
          "name": "amount",
          "type": "uint256"
        }
      ],
      "name": "Staked",
      "type": "event"
    },
    {
      "anonymous": false,
      "inputs": [
        {
          "indexed": true,
          "internalType": "address",
          "name": "user",
          "type": "address"
        },
        {
          "indexed": false,
          "internalType": "uint256",
          "name": "amount",
          "type": "uint256"
        }
      ],
      "name": "Withdrawn",
      "type": "event"
    },
    {
      "inputs": [
        {
          "internalType": "address",
          "name": "account",
          "type": "address"
        }
      ],
      "name": "earned",
      "outputs": [
        {
          "internalType": "uint256",
          "name": "",
          "type": "uint256"
        }
      ],
      "stateMutability": "view",
      "type": "function"
    },
    {
      "inputs": [],
      "name": "exit",
      "outputs": [],
      "stateMutability": "nonpayable",
      "type": "function"
    },
    {
      "inputs": [],
      "name": "getReward",
      "outputs": [],
      "stateMutability": "nonpayable",
      "type": "function"
    },
    {
      "inputs": [],
      "name": "notifyRewardAmount",
      "outputs": [],
      "stateMutability": "payable",
      "type": "function"
    },
    {
      "inputs": [
        {
          "internalType": "address",
          "name": "",
          "type": "address"
        }
      ],
      "name": "pendingRewards",
      "outputs": [
        {
          "internalType": "uint256",
          "name": "",
          "type": "uint256"
        }
      ],
      "stateMutability": "view",
      "type": "function"
    },
    {
      "inputs": [],
      "name": "rewardPerToken",
      "outputs": [
        {
          "internalType": "uint256",
          "name": "",
          "type": "uint256"
        }
      ],
      "stateMutability": "view",
      "type": "function"
    },
    {
      "inputs": [],
      "name": "rewardPerTokenStored",
      "outputs": [
        {
          "internalType": "uint256",
          "name": "",
          "type": "uint256"
        }
      ],
      "stateMutability": "view",
      "type": "function"
    },
    {
      "inputs": [
        {
          "internalType": "uint256",
          "name": "amount",
          "type": "uint256"
        }
      ],
      "name": "stake",
      "outputs": [],
      "stateMutability": "nonpayable",
      "type": "function"
    },
    {
      "inputs": [
        {
          "internalType": "address",
          "name": "",
          "type": "address"
        }
      ],
      "name": "stakedBalance",
      "outputs": [
        {
          "internalType": "uint256",
          "name": "",
          "type": "uint256"
        }
      ],
      "stateMutability": "view",
      "type": "function"
    },
    {
      "inputs": [],
      "name": "stakingToken",
      "outputs": [
        {
          "internalType": "contract IERC20",
          "name": "",
          "type": "address"
        }
      ],
      "stateMutability": "view",
      "type": "function"
    },
    {
      "inputs": [],
      "name": "totalStaked",
      "outputs": [
        {
          "internalType": "uint256",
          "name": "",
          "type": "uint256"
        }
      ],
      "stateMutability": "view",
      "type": "function"
    },
    {
      "inputs": [
        {
          "internalType": "address",
          "name": "",
          "type": "address"
        }
      ],
      "name": "userRewardPerTokenPaid",
      "outputs": [
        {
          "internalType": "uint256",
          "name": "",
          "type": "uint256"
        }
      ],
      "stateMutability": "view",
      "type": "function"
    },
    {
      "inputs": [
        {
          "internalType": "uint256",
          "name": "amount",
          "type": "uint256"
        }
      ],
      "name": "withdraw",
      "outputs": [],
      "stateMutability": "nonpayable",
      "type": "function"
    },
    {
      "stateMutability": "payable",
      "type": "receive"
    }
  ],
  "bytecode": "0x60a034606f57601f61087338819003918201601f19168301916001600160401b03831184841017607457808492602094604052833981010312606f57516001600160a01b03811690819003606f576080526040516107e8908161008b8239608051818181610240015261044a0152f35b600080fd5b634e487b7160e01b600052604160045260246000fdfe6080604052600436101561001b575b361561001957600080fd5b005b60003560e01c80628cc262146106115780630c51dde4146105fd5780632e1a7d4d1461052157806331d7a262146104e35780633d18b912146104b7578063602172671461047957806372f702f314610434578063817b1cd2146104165780638b876347146103d8578063a694fc3a1461030b578063cd3daf9d146102ed578063df136d65146102ed5763e9fad8ee0361000e57346102e85760003660031901126102e857336000526001602052604060002054801580156101d5575b5050336101a6575b336000526004602052604060002054806100f557005b33600052600460205260006040812055600080808084335af13d156101a1573d67ffffffffffffffff811161018b576040519061013c601f8201601f191660200183610729565b8152600060203d92013e5b1561017a576040519081527fe2403640ba68fed3a2f88b7557551d1993f84b99bb10ff833f0cf8db0c5e048660203392a2005b6312171d8360e31b60005260046000fd5b634e487b7160e01b600052604160045260246000fd5b610147565b6101af33610648565b3360005260046020526040600020556002543360005260036020526040600020556100df565b336102b9575b6102a8573360005260016020528060406000205410610297578060005403600055336000526001602052604060002081815403905561026460405163a9059cbb60e01b60208201523360248201528260448201526044815261023e606482610729565b7f000000000000000000000000000000000000000000000000000000000000000061074b565b6040519081527f7084f5476618d8e60b11ef0d7d3f06914655adb8793e28ff7f018d4c76d505d560203392a238806100d7565b631e9acf1760e31b60005260046000fd5b631f2a200560e01b60005260046000fd5b6102c233610648565b3360005260046020526040600020556002543360005260036020526040600020556101db565b600080fd5b346102e85760003660031901126102e8576020600254604051908152f35b346102e85760203660031901126102e857600435336103a9575b80156102a8578060005401600055336000526001602052604060002081815401905561037b6040516323b872dd60e01b60208201523360248201523060448201528260648201526064815261023e608482610729565b6040519081527f9e71bc8eea02a63969f509818f2dafb9254532904319f9dbda79b67bd34a5f3d60203392a2005b6103b233610648565b336000526004602052604060002055600254336000526003602052604060002055610325565b346102e85760203660031901126102e8576004356001600160a01b038116908190036102e85760005260036020526020604060002054604051908152f35b346102e85760003660031901126102e8576020600054604051908152f35b346102e85760003660031901126102e8576040517f00000000000000000000000000000000000000000000000000000000000000006001600160a01b03168152602090f35b346102e85760203660031901126102e8576004356001600160a01b038116908190036102e85760005260016020526020604060002054604051908152f35b346102e85760003660031901126102e857336101a657336000526004602052604060002054806100f557005b346102e85760203660031901126102e8576004356001600160a01b038116908190036102e85760005260046020526020604060002054604051908152f35b346102e85760203660031901126102e857600435336105ce575b80156102a857336000526001602052806040600020541061029757806000540360005533600052600160205260406000208181540390556105a060405163a9059cbb60e01b60208201523360248201528260448201526044815261023e606482610729565b6040519081527f7084f5476618d8e60b11ef0d7d3f06914655adb8793e28ff7f018d4c76d505d560203392a2005b6105d733610648565b33600052600460205260406000205560025433600052600360205260406000205561053b565b60003660031901126102e8576100196106ae565b346102e85760203660031901126102e8576004356001600160a01b03811681036102e857610640602091610648565b604051908152f35b6001600160a01b031660008181526001602052604090205490811561069b57670de0b6b3a76400009060025481600052600360205260406000205490039060005260046020526040600020549202040190565b9050600052600460205260406000205490565b34156102a85760005480156106fc57670de0b6b3a7640000340204600254016002557ff8fad42e780bfa5459be3fe691e8ba1aec70342250112139c5771c3fd155f3126020604051348152a1565b507ff8fad42e780bfa5459be3fe691e8ba1aec70342250112139c5771c3fd155f3126020604051348152a1565b90601f8019910116810190811067ffffffffffffffff82111761018b57604052565b906000602091828151910182855af1156107a6576000513d61079d57506001600160a01b0381163b155b61077c5750565b635274afe760e01b60009081526001600160a01b0391909116600452602490fd5b60011415610775565b6040513d6000823e3d90fdfea2646970667358221220f602ea3a39b87e51feaded748b2edd035b91e903f9b56a4a822ccc9fbc32ee6f64736f6c634300081a0033",
  "linkReferences": {},
  "deployedLinkReferences": {}
}