{
  "_format": "hh-sol-artifact-1",
  "contractName": "CGOV",
  "sourceName": "contracts/CGOV.sol",
  "abi": [
    {
      "inputs": [
        {
          "internalType": "address",
          "name": "_minter",
          "type": "address"
        }
      ],
      "stateMutability": "nonpayable",
      "type": "constructor"
    },
    {
      "inputs": [],
      "name": "CheckpointUnorderedInsertion",
      "type": "error"
    },
    {
      "inputs": [],
      "name": "ECDSAInvalidSignature",
      "type": "error"
    },
    {
      "inputs": [
        {
          "internalType": "uint256",
          "name": "length",
          "type": "uint256"
        }
      ],
      "name": "ECDSAInvalidSignatureLength",
      "type": "error"
    },
    {
      "inputs": [
        {
          "internalType": "bytes32",
          "name": "s",
          "type": "bytes32"
        }
      ],
      "name": "ECDSAInvalidSignatureS",
      "type": "error"
    },
    {
      "inputs": [
        {
          "internalType": "uint256",
          "name": "increasedSupply",
          "type": "uint256"
        },
        {
          "internalType": "uint256",
          "name": "cap",
          "type": "uint256"
        }
      ],
      "name": "ERC20ExceededSafeSupply",
      "type": "error"
    },
    {
      "inputs": [
        {
          "internalType": "address",
          "name": "spender",
          "type": "address"
        },
        {
          "internalType": "uint256",
          "name": "allowance",
          "type": "uint256"
        },
        {
          "internalType": "uint256",
          "name": "needed",
          "type": "uint256"
        }
      ],
      "name": "ERC20InsufficientAllowance",
      "type": "error"
    },
    {
      "inputs": [
        {
          "internalType": "address",
          "name": "sender",
          "type": "address"
        },
        {
          "internalType": "uint256",
          "name": "balance",
          "type": "uint256"
        },
        {
          "internalType": "uint256",
          "name": "needed",
          "type": "uint256"
        }
      ],
      "name": "ERC20InsufficientBalance",
      "type": "error"
    },
    {
      "inputs": [
        {
          "internalType": "address",
          "name": "approver",
          "type": "address"
        }
      ],
      "name": "ERC20InvalidApprover",
      "type": "error"
    },
    {
      "inputs": [
        {
          "internalType": "address",
          "name": "receiver",
          "type": "address"
        }
      ],
      "name": "ERC20InvalidReceiver",
      "type": "error"
    },
    {
      "inputs": [
        {
          "internalType": "address",
          "name": "sender",
          "type": "address"
        }
      ],
      "name": "ERC20InvalidSender",
      "type": "error"
    },
    {
      "inputs": [
        {
          "internalType": "address",
          "name": "spender",
          "type": "address"
        }
      ],
      "name": "ERC20InvalidSpender",
      "type": "error"
    },
    {
      "inputs": [
        {
          "internalType": "uint256",
          "name": "deadline",
          "type": "uint256"
        }
      ],
      "name": "ERC2612ExpiredSignature",
      "type": "error"
    },
    {
      "inputs": [
        {
          "internalType": "address",
          "name": "signer",
          "type": "address"
        },
        {
          "internalType": "address",
          "name": "owner",
          "type": "address"
        }
      ],
      "name": "ERC2612InvalidSigner",
      "type": "error"
    },
    {
      "inputs": [
        {
          "internalType": "uint256",
          "name": "timepoint",
          "type": "uint256"
        },
        {
          "internalType": "uint48",
          "name": "clock",
          "type": "uint48"
        }
      ],
      "name": "ERC5805FutureLookup",
      "type": "error"
    },
    {
      "inputs": [],
      "name": "ERC6372InconsistentClock",
      "type": "error"
    },
    {
      "inputs": [
        {
          "internalType": "address",
          "name": "account",
          "type": "address"
        },
        {
          "internalType": "uint256",
          "name": "currentNonce",
          "type": "uint256"
        }
      ],
      "name": "InvalidAccountNonce",
      "type": "error"
    },
    {
      "inputs": [],
      "name": "InvalidShortString",
      "type": "error"
    },
    {
      "inputs": [],
      "name": "NotMinter",
      "type": "error"
    },
    {
      "inputs": [
        {
          "internalType": "uint8",
          "name": "bits",
          "type": "uint8"
        },
        {
          "internalType": "uint256",
          "name": "value",
          "type": "uint256"
        }
      ],
      "name": "SafeCastOverflowedUintDowncast",
      "type": "error"
    },
    {
      "inputs": [
        {
          "internalType": "string",
          "name": "str",
          "type": "string"
        }
      ],
      "name": "StringTooLong",
      "type": "error"
    },
    {
      "inputs": [
        {
          "internalType": "uint256",
          "name": "expiry",
          "type": "uint256"
        }
      ],
      "name": "VotesExpiredSignature",
      "type": "error"
    },
    {
      "inputs": [],
      "name": "ZeroAddress",
      "type": "error"
    },
    {
      "inputs": [],
      "name": "ZeroAmount",
      "type": "error"
    },
    {
      "anonymous": false,
      "inputs": [
        {
          "indexed": true,
          "internalType": "address",
          "name": "owner",
          "type": "address"
        },
        {
          "indexed": true,
          "internalType": "address",
          "name": "spender",
          "type": "address"
        },
        {
          "indexed": false,
          "internalType": "uint256",
          "name": "value",
          "type": "uint256"
        }
      ],
      "name": "Approval",
      "type": "event"
    },
    {
      "anonymous": false,
      "inputs": [
        {
          "indexed": true,
          "internalType": "address",
          "name": "delegator",
          "type": "address"
        },
        {
          "indexed": true,
          "internalType": "address",
          "name": "fromDelegate",
          "type": "address"
        },
        {
          "indexed": true,
          "internalType": "address",
          "name": "toDelegate",
          "type": "address"
        }
      ],
      "name": "DelegateChanged",
      "type": "event"
    },
    {
      "anonymous": false,
      "inputs": [
        {
          "indexed": true,
          "internalType": "address",
          "name": "delegate",
          "type": "address"
        },
        {
          "indexed": false,
          "internalType": "uint256",
          "name": "previousVotes",
          "type": "uint256"
        },
        {
          "indexed": false,
          "internalType": "uint256",
          "name": "newVotes",
          "type": "uint256"
        }
      ],
      "name": "DelegateVotesChanged",
      "type": "event"
    },
    {
      "anonymous": false,
      "inputs": [],
      "name": "EIP712DomainChanged",
      "type": "event"
    },
    {
      "anonymous": false,
      "inputs": [
        {
          "indexed": true,
          "internalType": "address",
          "name": "from",
          "type": "address"
        },
        {
          "indexed": true,
          "internalType": "address",
          "name": "to",
          "type": "address"
        },
        {
          "indexed": false,
          "internalType": "uint256",
          "name": "value",
          "type": "uint256"
        }
      ],
      "name": "Transfer",
      "type": "event"
    },
    {
      "inputs": [],
      "name": "CLOCK_MODE",
      "outputs": [
        {
          "internalType": "string",
          "name": "",
          "type": "string"
        }
      ],
      "stateMutability": "view",
      "type": "function"
    },
    {
      "inputs": [],
      "name": "DOMAIN_SEPARATOR",
      "outputs": [
        {
          "internalType": "bytes32",
          "name": "",
          "type": "bytes32"
        }
      ],
      "stateMutability": "view",
      "type": "function"
    },
    {
      "inputs": [
        {
          "internalType": "address",
          "name": "owner",
          "type": "address"
        },
        {
          "internalType": "address",
          "name": "spender",
          "type": "address"
        }
      ],
      "name": "allowance",
      "outputs": [
        {
          "internalType": "uint256",
          "name": "",
          "type": "uint256"
        }
      ],
      "stateMutability": "view",
      "type": "function"
    },
    {
      "inputs": [
        {
          "internalType": "address",
          "name": "spender",
          "type": "address"
        },
        {
          "internalType": "uint256",
          "name": "value",
          "type": "uint256"
        }
      ],
      "name": "approve",
      "outputs": [
        {
          "internalType": "bool",
          "name": "",
          "type": "bool"
        }
      ],
      "stateMutability": "nonpayable",
      "type": "function"
    },
    {
      "inputs": [
        {
          "internalType": "address",
          "name": "account",
          "type": "address"
        }
      ],
      "name": "balanceOf",
      "outputs": [
        {
          "internalType": "uint256",
          "name": "",
          "type": "uint256"
        }
      ],
      "stateMutability": "view",
      "type": "function"
    },
    {
      "inputs": [
        {
          "internalType": "address",
          "name": "account",
          "type": "address"
        },
        {
          "internalType": "uint32",
          "name": "pos",
          "type": "uint32"
        }
      ],
      "name": "checkpoints",
      "outputs": [
        {
          "components": [
            {
              "internalType": "uint48",
              "name": "_key",
              "type": "uint48"
            },
            {
              "internalType": "uint208",
              "name": "_value",
              "type": "uint208"
            }
          ],
          "internalType": "struct Checkpoints.Checkpoint208",
          "name": "",
          "type": "tuple"
        }
      ],
      "stateMutability": "view",
      "type": "function"
    },
    {
      "inputs": [],
      "name": "clock",
      "outputs": [
        {
          "internalType": "uint48",
          "name": "",
          "type": "uint48"
        }
      ],
      "stateMutability": "view",
      "type": "function"
    },
    {
      "inputs": [],
      "name": "decimals",
      "outputs": [
        {
          "internalType": "uint8",
          "name": "",
          "type": "uint8"
        }
      ],
      "stateMutability": "view",
      "type": "function"
    },
    {
      "inputs": [
        {
          "internalType": "address",
          "name": "delegatee",
          "type": "address"
        }
      ],
      "name": "delegate",
      "outputs": [],
      "stateMutability": "nonpayable",
      "type": "function"
    },
    {
      "inputs": [
        {
          "internalType": "address",
          "name": "delegatee",
          "type": "address"
        },
        {
          "internalType": "uint256",
          "name": "nonce",
          "type": "uint256"
        },
        {
          "internalType": "uint256",
          "name": "expiry",
          "type": "uint256"
        },
        {
          "internalType": "uint8",
          "name": "v",
          "type": "uint8"
        },
        {
          "internalType": "bytes32",
          "name": "r",
          "type": "bytes32"
        },
        {
          "internalType": "bytes32",
          "name": "s",
          "type": "bytes32"
        }
      ],
      "name": "delegateBySig",
      "outputs": [],
      "stateMutability": "nonpayable",
      "type": "function"
    },
    {
      "inputs": [
        {
          "internalType": "address",
          "name": "account",
          "type": "address"
        }
      ],
      "name": "delegates",
      "outputs": [
        {
          "internalType": "address",
          "name": "",
          "type": "address"
        }
      ],
      "stateMutability": "view",
      "type": "function"
    },
    {
      "inputs": [],
      "name": "eip712Domain",
      "outputs": [
        {
          "internalType": "bytes1",
          "name": "fields",
          "type": "bytes1"
        },
        {
          "internalType": "string",
          "name": "name",
          "type": "string"
        },
        {
          "internalType": "string",
          "name": "version",
          "type": "string"
        },
        {
          "internalType": "uint256",
          "name": "chainId",
          "type": "uint256"
        },
        {
          "internalType": "address",
          "name": "verifyingContract",
          "type": "address"
        },
        {
          "internalType": "bytes32",
          "name": "salt",
          "type": "bytes32"
        },
        {
          "internalType": "uint256[]",
          "name": "extensions",
          "type": "uint256[]"
        }
      ],
      "stateMutability": "view",
      "type": "function"
    },
    {
      "inputs": [
        {
          "internalType": "uint256",
          "name": "timepoint",
          "type": "uint256"
        }
      ],
      "name": "getPastTotalSupply",
      "outputs": [
        {
          "internalType": "uint256",
          "name": "",
          "type": "uint256"
        }
      ],
      "stateMutability": "view",
      "type": "function"
    },
    {
      "inputs": [
        {
          "internalType": "address",
          "name": "account",
          "type": "address"
        },
        {
          "internalType": "uint256",
          "name": "timepoint",
          "type": "uint256"
        }
      ],
      "name": "getPastVotes",
      "outputs": [
        {
          "internalType": "uint256",
          "name": "",
          "type": "uint256"
        }
      ],
      "stateMutability": "view",
      "type": "function"
    },
    {
      "inputs": [
        {
          "internalType": "address",
          "name": "account",
          "type": "address"
        }
      ],
      "name": "getVotes",
      "outputs": [
        {
          "internalType": "uint256",
          "name": "",
          "type": "uint256"
        }
      ],
      "stateMutability": "view",
      "type": "function"
    },
    {
      "inputs": [
        {
          "internalType": "address",
          "name": "to",
          "type": "address"
        },
        {
          "internalType": "uint256",
          "name": "amount",
          "type": "uint256"
        }
      ],
      "name": "mint",
      "outputs": [],
      "stateMutability": "nonpayable",
      "type": "function"
    },
    {
      "inputs": [],
      "name": "minter",
      "outputs": [
        {
          "internalType": "address",
          "name": "",
          "type": "address"
        }
      ],
      "stateMutability": "view",
      "type": "function"
    },
    {
      "inputs": [],
      "name": "name",
      "outputs": [
        {
          "internalType": "string",
          "name": "",
          "type": "string"
        }
      ],
      "stateMutability": "view",
      "type": "function"
    },
    {
      "inputs": [
        {
          "internalType": "address",
          "name": "owner",
          "type": "address"
        }
      ],
      "name": "nonces",
      "outputs": [
        {
          "internalType": "uint256",
          "name": "",
          "type": "uint256"
        }
      ],
      "stateMutability": "view",
      "type": "function"
    },
    {
      "inputs": [
        {
          "internalType": "address",
          "name": "account",
          "type": "address"
        }
      ],
      "name": "numCheckpoints",
      "outputs": [
        {
          "internalType": "uint32",
          "name": "",
          "type": "uint32"
        }
      ],
      "stateMutability": "view",
      "type": "function"
    },
    {
      "inputs": [
        {
          "internalType": "address",
          "name": "owner",
          "type": "address"
        },
        {
          "internalType": "address",
          "name": "spender",
          "type": "address"
        },
        {
          "internalType": "uint256",
          "name": "value",
          "type": "uint256"
        },
        {
          "internalType": "uint256",
          "name": "deadline",
          "type": "uint256"
        },
        {
          "internalType": "uint8",
          "name": "v",
          "type": "uint8"
        },
        {
          "internalType": "bytes32",
          "name": "r",
          "type": "bytes32"
        },
        {
          "internalType": "bytes32",
          "name": "s",
          "type": "bytes32"
        }
      ],
      "name": "permit",
      "outputs": [],
      "stateMutability": "nonpayable",
      "type": "function"
    },
    {
      "inputs": [],
      "name": "symbol",
      "outputs": [
        {
          "internalType": "string",
          "name": "",
          "type": "string"
        }
      ],
      "stateMutability": "view",
      "type": "function"
    },
    {
      "inputs": [],
      "name": "totalSupply",
      "outputs": [
        {
          "internalType": "uint256",
          "name": "",
          "type": "uint256"
        }
      ],
      "stateMutability": "view",
      "type": "function"
    },
    {
      "inputs": [
        {
          "internalType": "address",
          "name": "to",
          "type": "address"
        },
        {
          "internalType": "uint256",
          "name": "value",
          "type": "uint256"
        }
      ],
      "name": "transfer",
      "outputs": [
        {
          "internalType": "bool",
          "name": "",
          "type": "bool"
        }
      ],
      "stateMutability": "nonpayable",
      "type": "function"
    },
    {
      "inputs": [
        {
          "internalType": "address",
          "name": "from",
          "type": "address"
        },
        {
          "internalType": "address",
          "name": "to",
          "type": "address"
        },
        {
          "internalType": "uint256",
          "name": "value",
          "type": "uint256"
        }
      ],
      "name": "transferFrom",
      "outputs": [
        {
          "internalType": "bool",
          "name": "",
          "type": "bool"
        }
      ],
      "stateMutability": "nonpayable",
      "type": "function"
    }
  ],
  "bytecode": "0x61018080604052346104a75760208161255e803803809161002082856104ac565b8339810103126104a757516001600160a01b0381168082036104a75760405161004a6040826104ac565b60108152602081016f437265645820476f7665726e616e636560801b8152604051906100776040836104ac565b601082526f437265645820476f7665726e616e636560801b6020830152604051926100a36040856104ac565b600484526321a3a7ab60e11b6020850152604051936100c36040866104ac565b60018552603160f81b60208601908152845190946001600160401b0382116103a45760035490600182811c9216801561049d575b60208310146103845781601f84931161042d575b50602090601f83116001146103c5576000926103ba575b50508160011b916000199060031b1c1916176003555b8051906001600160401b0382116103a45760045490600182811c9216801561039a575b60208310146103845781601f849311610314575b50602090601f83116001146102ac576000926102a1575b50508160011b916000199060031b1c1916176004555b6101a5816104cf565b610120526101b28461067d565b61014052519020918260e05251902080610100524660a0526040519060208201927f8b73c3c69bb8fe3d512ecc4cf759cc79239f7b179b0ffacaa9a75d522b39400f8452604083015260608201524660808201523060a082015260a0815261021b60c0826104ac565b5190206080523060c052156102905761016052604051611d42908161081c823960805181611161015260a0518161121e015260c0518161112b015260e051816111b0015261010051816111d601526101205181610885015261014051816108ae0152610160518181816102f901526105930152f35b63d92e233d60e01b60005260046000fd5b015190503880610186565b600460009081528281209350601f198516905b8181106102fc57509084600195949392106102e3575b505050811b0160045561019c565b015160001960f88460031b161c191690553880806102d5565b929360206001819287860151815501950193016102bf565b60046000529091507f8a35acfbc15ff81a39ae7d344fd709f28e8600b4aa8c65c6b64bfe7fe36bd19b601f840160051c8101916020851061037a575b90601f859493920160051c01905b81811061036b575061016f565b6000815584935060010161035e565b9091508190610350565b634e487b7160e01b600052602260045260246000fd5b91607f169161015b565b634e487b7160e01b600052604160045260246000fd5b015190503880610122565b600360009081528281209350601f198516905b81811061041557509084600195949392106103fc575b505050811b01600355610138565b015160001960f88460031b161c191690553880806103ee565b929360206001819287860151815501950193016103d8565b60036000529091507fc2575a0e9e593c00f959f8c92f12db2869c3395a3b0502d05e2516446f71f85b601f840160051c81019160208510610493575b90601f859493920160051c01905b818110610484575061010b565b60008155849350600101610477565b9091508190610469565b91607f16916100f7565b600080fd5b601f909101601f19168101906001600160401b038211908210176103a457604052565b90815160208110600014610567575090601f81511161050b5760208151910151602082106104fb571790565b6000198260200360031b1b161790565b6040519063305a27a960e01b8252602060048301528181519182602483015260005b83811061054f5750508160006044809484010152601f80199101168101030190fd5b6020828201810151604487840101528593500161052d565b6001600160401b0381116103a457600554600181811c91168015610673575b602082101461038457601f811161063d575b50602092601f82116001146105d857928192936000926105cd575b50508160011b916000199060031b1c19161760055560ff90565b0151905038806105b3565b601f198216936005600052806000209160005b868110610625575083600195961061060c575b505050811b0160055560ff90565b015160001960f88460031b161c191690553880806105fe565b919260206001819286850151815501940192016105eb565b6005600052601f6020600020910160051c810190601f830160051c015b8181106106675750610598565b6000815560010161065a565b90607f1690610586565b90815160208110600014610705575090601f8151116106a95760208151910151602082106104fb571790565b6040519063305a27a960e01b8252602060048301528181519182602483015260005b8381106106ed5750508160006044809484010152601f80199101168101030190fd5b602082820181015160448784010152859350016106cb565b6001600160401b0381116103a457600654600181811c91168015610811575b602082101461038457601f81116107db575b50602092601f8211600114610776579281929360009261076b575b50508160011b916000199060031b1c19161760065560ff90565b015190503880610751565b601f198216936006600052806000209160005b8681106107c357508360019596106107aa575b505050811b0160065560ff90565b015160001960f88460031b161c1916905538808061079c565b91926020600181928685015181550194019201610789565b6006600052601f6020600020910160051c810190601f830160051c015b8181106108055750610736565b600081556001016107f8565b90607f169061072456fe6080604052600436101561001257600080fd5b60003560e01c806306fdde03146101a757806307546172146101a2578063095ea7b31461019d57806318160ddd1461019857806323b872dd14610193578063313ce5671461018e5780633644e515146101895780633a46b1a81461018457806340c10f191461017f5780634bf5d7e91461017a578063587cde1e146101755780635c19a95c146101705780636fcfff451461016b57806370a08231146101665780637ecebe001461016157806384b0196e1461015c5780638e539e8c1461015757806391ddadf41461015257806395d89b411461014d5780639ab24eb014610148578063a9059cbb14610143578063c3cda5201461013e578063d505accf14610139578063dd62ed3e146101345763f1127ed81461012f57600080fd5b610e36565b610dde565b610cb5565b610ba1565b610b5b565b610b12565b610a6a565b610a3e565b61096d565b61086c565b610832565b6107f9565b610793565b610771565b61072f565b61069d565b610575565b610486565b610463565b610447565b6103a3565b610385565b610354565b6102e3565b610201565b919082519283825260005b8481106101d8575050826000602080949584010152601f8019910116010190565b806020809284010151828286010152016101b7565b9060206101fe9281815201906101ac565b90565b346102de5760003660031901126102de57604051600060035461022381610ee9565b80845290600181169081156102ba575060011461025b575b6102578361024b81850382610fdd565b604051918291826101ed565b0390f35b600360009081527fc2575a0e9e593c00f959f8c92f12db2869c3395a3b0502d05e2516446f71f85b939250905b8082106102a05750909150810160200161024b61023b565b919260018160209254838588010152019101909291610288565b60ff191660208086019190915291151560051b8401909101915061024b905061023b565b600080fd5b346102de5760003660031901126102de576040517f00000000000000000000000000000000000000000000000000000000000000006001600160a01b03168152602090f35b600435906001600160a01b03821682036102de57565b602435906001600160a01b03821682036102de57565b346102de5760403660031901126102de5761037a610370610328565b60243590336113a6565b602060405160018152f35b346102de5760003660031901126102de576020600254604051908152f35b346102de5760603660031901126102de576103bc610328565b6103c461033e565b6001600160a01b0382166000908152600160209081526040808320338452909152902054916044359190600019841061040e575b6104029350611029565b60405160018152602090f35b82841061042a57610425836104029503338361144b565b6103f8565b8284637dc7a0d960e11b6000523360045260245260445260646000fd5b346102de5760003660031901126102de57602060405160128152f35b346102de5760003660031901126102de57602061047e611128565b604051908152f35b346102de5760403660031901126102de5761049f610328565b6001600160a01b031660009081526009602052604090206104c1602435611244565b90600090805482938160058111610516575b50906020946104e29284611644565b806104fc5750505b6040516001600160d01b039091168152f35b61050590611295565b90825290829020015460301c6104ea565b94610520866114e6565b8603958611610570576020956104e29385875265ffffffffffff8289892001541665ffffffffffff85161060001461055e5750915b919250946104d3565b92915061056a906112a4565b90610555565b61127f565b346102de5760403660031901126102de5761058e610328565b6024357f00000000000000000000000000000000000000000000000000000000000000006001600160a01b0316330361068c576001600160a01b038216801561067b57811561066a576105eb6105e6836002546112b2565b600255565b6001600160a01b038316600090815260208181526040808320805486019055518481527fddf252ad1be2c89b69c2b068fc378daa952ba7f163c4a11628f55a4df523b3ef9190a3600254916001600160d01b038084116106515761064f8383611ad8565b005b630e58ae9360e11b600052600484905260245260446000fd5b631f2a200560e01b60005260046000fd5b63d92e233d60e01b60005260046000fd5b633e34a41b60e21b60005260046000fd5b346102de5760003660031901126102de576106b743611495565b65ffffffffffff806106c843611495565b1691160361071e5761025760408051906106e28183610fdd565b601d82527f6d6f64653d626c6f636b6e756d6265722666726f6d3d64656661756c740000006020830152519182916020835260208301906101ac565b6301bfc1c560e61b60005260046000fd5b346102de5760203660031901126102de576001600160a01b03610750610328565b166000526008602052602060018060a01b0360406000205416604051908152f35b346102de5760203660031901126102de5761064f61078d610328565b336112bf565b346102de5760203660031901126102de576001600160a01b036107b4610328565b16600052600960205260406000205463ffffffff81116107e05760405163ffffffff9091168152602090f35b6306dfcc6560e41b600052602060045260245260446000fd5b346102de5760203660031901126102de57602061047e610817610328565b6001600160a01b031660009081526020819052604090205490565b346102de5760203660031901126102de576001600160a01b03610853610328565b1660005260076020526020604060002054604051908152f35b346102de5760003660031901126102de576109126108a97f00000000000000000000000000000000000000000000000000000000000000006117cf565b6108d27f0000000000000000000000000000000000000000000000000000000000000000611833565b60206040516108e18282610fdd565b600081528161092081830194601f198301368737604051978897600f60f81b895260e0858a015260e08901906101ac565b9087820360408901526101ac565b91466060870152306080870152600060a087015285830360c0870152519182815201929160005b82811061095657505050500390f35b835185528695509381019392810192600101610947565b346102de5760203660031901126102de57610989600435611244565b6000600a54819281600581116109e3575b50906020936109aa92600a611644565b806109c257506040516001600160d01b039091168152f35b90826109d06109de93611295565b91600a815220015460301c90565b6104ea565b936109ed856114e6565b8503948511610570576020946109aa93600a865265ffffffffffff8288882001541665ffffffffffff851610600014610a2c5750915b9192509361099a565b929150610a38906112a4565b90610a23565b346102de5760003660031901126102de576020610a5a43611495565b65ffffffffffff60405191168152f35b346102de5760003660031901126102de576040516000600454610a8c81610ee9565b80845290600181169081156102ba5750600114610ab3576102578361024b81850382610fdd565b600460009081527f8a35acfbc15ff81a39ae7d344fd709f28e8600b4aa8c65c6b64bfe7fe36bd19b939250905b808210610af85750909150810160200161024b61023b565b919260018160209254838588010152019101909291610ae0565b346102de5760203660031901126102de576001600160a01b03610b33610328565b166000526009602052602060018060d01b03610b526040600020611342565b16604051908152f35b346102de5760403660031901126102de5761037a610b77610328565b6024359033611029565b6064359060ff821682036102de57565b6084359060ff821682036102de57565b346102de5760c03660031901126102de57610bba610328565b60243590604435610bc9610b81565b6084359060a43592804211610ca15791610c4e9391610c40610c459460405160208101917fe48329057bfd03d55e49b547132e39cffd9c1820ad7b9d4c5307691425d15adf835260018060a01b038a1660408301528a6060830152608082015260808152610c3860a082610fdd565b519020611371565b61186a565b9092919261191f565b6001600160a01b0381166000908152600760205260409020805460018101909155809303610c805761064f92506112bf565b90506301d4b62360e61b60005260018060a01b031660045260245260446000fd5b632341d78760e11b60005260045260246000fd5b346102de5760e03660031901126102de57610cce610328565b610cd661033e565b6044359060643592610ce6610b91565b60a43560c43590864211610dc9576001600160a01b0384166000908152600760205260409020805460018101909155610d8c9390610d87909860405160208101917f6e71edae12b1b97f4d1f60370fef10105fa2faae0126114a169c64845d6126c9835260018060a01b0389169b8c604084015260018060a01b038b1660608401528b608084015260a083015260c082015260c08152610c3860e082610fdd565b611397565b936001600160a01b03851603610da65761064f93506113a6565b6325c0072360e11b6000526001600160a01b038085166004521660245260446000fd5b8663313c898160e11b60005260045260246000fd5b346102de5760403660031901126102de576020610e2d610dfc610328565b610e0461033e565b6001600160a01b0391821660009081526001855260408082209290931681526020919091522090565b54604051908152f35b346102de5760403660031901126102de57610e4f610328565b6024359063ffffffff821682036102de5761025791610e9f91610e70611010565b50610e79611010565b506001600160a01b03166000908152600960205260409020610e99611010565b506119a1565b5060405190610ead82610fbc565b5465ffffffffffff811680835260309190911c60209283019081526040805192835290516001600160d01b031692820192909252918291820190565b90600182811c92168015610f19575b6020831014610f0357565b634e487b7160e01b600052602260045260246000fd5b91607f1691610ef8565b60009291815491610f3383610ee9565b8083529260018116908115610f895750600114610f4f57505050565b60009081526020812093945091925b838310610f6f575060209250010190565b600181602092949394548385870101520191019190610f5e565b915050602093945060ff929192191683830152151560051b010190565b634e487b7160e01b600052604160045260246000fd5b6040810190811067ffffffffffffffff821117610fd857604052565b610fa6565b90601f8019910116810190811067ffffffffffffffff821117610fd857604052565b6040519061100e604083610fdd565b565b6040519061101d82610fbc565b60006020838281520152565b6001600160a01b038116939291908415611112576001600160a01b03821680156110fc576001600160a01b03821660009081526020819052604081205496908588106110e2578561100e9798036110928560018060a01b03166000526000602052604060002090565b55506001600160a01b0384166000908152602081815260409182902080548801905590518681527fddf252ad1be2c89b69c2b068fc378daa952ba7f163c4a11628f55a4df523b3ef9190a3611b5c565b858860649363391434e360e21b8452600452602452604452fd5b63ec442f0560e01b600052600060045260246000fd5b634b637e8f60e11b600052600060045260246000fd5b307f00000000000000000000000000000000000000000000000000000000000000006001600160a01b0316148061121b575b15611183577f000000000000000000000000000000000000000000000000000000000000000090565b60405160208101907f8b73c3c69bb8fe3d512ecc4cf759cc79239f7b179b0ffacaa9a75d522b39400f82527f000000000000000000000000000000000000000000000000000000000000000060408201527f000000000000000000000000000000000000000000000000000000000000000060608201524660808201523060a082015260a0815261121560c082610fdd565b51902090565b507f0000000000000000000000000000000000000000000000000000000000000000461461115a565b65ffffffffffff61125443611495565b168082101561126757506101fe90611495565b90637669fc0f60e11b60005260045260245260446000fd5b634e487b7160e01b600052601160045260246000fd5b60001981019190821161057057565b906001820180921161057057565b9190820180921161057057565b6001600160a01b03818116600081815260086020526040812080548685166001600160a01b03198216811790925561100e9694169461133c9390928691907f3134e8a2e6d97e929a7e54011ea5485d7d196dd5f0ba4d4ef95803e8e3fc257f9080a46001600160a01b031660009081526020819052604090205490565b916116ab565b80549081611351575050600090565b816000198101116105705760005260001990602060002001015460301c90565b60429061137c611128565b906040519161190160f01b8352600283015260228201522090565b916101fe9391610c459361186a565b6001600160a01b0316908115611435576001600160a01b03811692831561141f57806114127f8c5be1e5ebec7d5bd14f71427d1e84f3dd0314c0f7b2291e5b200ac8c7c3b9259385600052600160205260406000209060018060a01b0316600052602052604060002090565b55604051908152602090a3565b634a1406b160e11b600052600060045260246000fd5b63e602df0560e01b600052600060045260246000fd5b6001600160a01b0316908115611435576001600160a01b0381161561141f5761149291600052600160205260406000209060018060a01b0316600052602052604060002090565b55565b65ffffffffffff81116114ad5765ffffffffffff1690565b6306dfcc6560e41b600052603060045260245260446000fd5b81156114d0570490565b634e487b7160e01b600052601260045260246000fd5b60018111156101fe57806001600160801b821015611607575b6115ad6115a361159961158f61158561157b61156a6115b49760048a600160401b6115b99c10156115fa575b6401000000008110156115ed575b620100008110156115e0575b6101008110156115d3575b60108110156115c6575b10156115be575b60030260011c90565b611574818b6114c6565b0160011c90565b611574818a6114c6565b61157481896114c6565b61157481886114c6565b61157481876114c6565b61157481866114c6565b80936114c6565b821190565b900390565b60011b611561565b60041c9160021b9161155a565b60081c9160041b91611550565b60101c9160081b91611545565b60201c9160101b91611539565b60401c9160201b9161152b565b50506115b96115b46115ad6115a361159961158f61158561157b61156a61162e8a60801c90565b9850600160401b97506114ff9650505050505050565b91905b8382106116545750505090565b9091928083169080841860011c8201809211610570578460005265ffffffffffff82602060002001541665ffffffffffff8416106000146116995750925b9190611647565b9392506116a5906112a4565b91611692565b6001600160a01b038083169392919081169081851415806117c6575b6116d3575b5050505050565b81611758575b5050826116e8575b80806116cc565b6001600160a01b031660009081526009602052604090207fdec2bacdd2f05b59de34da9b523dff8be42e5e38e818c82fdb0bae774387a724916117359161172f90916119cf565b90611a3a565b604080516001600160d01b039384168152919092166020820152a23880806116e1565b6001600160a01b031660009081526009602052604090207fdec2bacdd2f05b59de34da9b523dff8be42e5e38e818c82fdb0bae774387a724906117a49061179e866119cf565b90611a02565b604080516001600160d01b039384168152919092166020820152a238806116d9565b508315156116c7565b60ff81146118195760ff811690601f82116118085760408051926117f38285610fdd565b6020808552840191601f190136833783525290565b632cd44ac360e21b60005260046000fd5b506040516101fe8161182c816005610f23565b0382610fdd565b60ff81146118575760ff811690601f82116118085760408051926117f38285610fdd565b506040516101fe8161182c816006610f23565b91907f7fffffffffffffffffffffffffffffff5d576e7357a4501ddfe92f46681b20a084116118f3579160209360809260ff60009560405194855216868401526040830152606082015282805260015afa156118e7576000516001600160a01b038116156118db5790600090600090565b50600090600190600090565b6040513d6000823e3d90fd5b50505060009160039190565b6004111561190957565b634e487b7160e01b600052602160045260246000fd5b611928816118ff565b80611931575050565b61193a816118ff565b600181036119535763f645eedf60e01b60005260046000fd5b61195c816118ff565b60028103611979575063fce698f760e01b60005260045260246000fd5b806119856003926118ff565b1461198d5750565b6335e2f38360e21b60005260045260246000fd5b80548210156119b95760005260206000200190600090565b634e487b7160e01b600052603260045260246000fd5b6001600160d01b0381116119e9576001600160d01b031690565b6306dfcc6560e41b60005260d060045260245260446000fd5b90611a0c43611495565b90611a1683611342565b6001600160d01b03918216908216039190821161057057611a3692611c31565b9091565b90611a4443611495565b90611a4e83611342565b6001600160d01b03918216908216019190821161057057611a3692611c31565b611a7743611495565b90611a82600a611342565b6001600160d01b039182169082160190811161057057611a3691600a611c31565b611aac43611495565b90611ab7600a611342565b6001600160d01b039182169082160390811161057057611a3691600a611c31565b9061100e91611aee611ae9836119cf565b611a6e565b50506001600160a01b03168015611b44575b60086020527f5eff886ea0ce6ca488a3d6e336d6c0f75f46d19b42c06ce5ee98e42c96d256c75460009182526040909120546001600160a01b0390811691166116ab565b611b55611b50836119cf565b611aa3565b5050611b00565b61100e92916001600160a01b03909116908115611bc0575b6001600160a01b0316908115611bad575b600090815260086020526040808220549282529020546001600160a01b0390811691166116ab565b611bb9611b50846119cf565b5050611b85565b611bcc611ae9846119cf565b5050611b74565b8054600160401b811015610fd857611bf0916001820181556119a1565b611c1b57815160209092015160301b65ffffffffffff191665ffffffffffff92909216919091179055565b634e487b7160e01b600052600060045260246000fd5b80549293928015611ce157611c48611c5591611295565b8260005260206000200190565b8054603081901c9365ffffffffffff91821692918116808411611cd057879303611c9c5750611c9892509065ffffffffffff82549181199060301b169116179055565b9190565b915050611c9891611cbc611cae610fff565b65ffffffffffff9093168352565b6001600160d01b0386166020830152611bd3565b632520601d60e01b60005260046000fd5b5090611d0691611cf2611cae610fff565b6001600160d01b0385166020830152611bd3565b6000919056fea264697066735822122002bea4cbc1524678d588d325774df270e6175d921b4d2f233fe5b527012c846464736f6c634300081a0033",
  "linkReferences": {},
  "deployedLinkReferences": {}
}